:020000040800F2
:10000000C8B2002011040008190400081B040008ED
:100010001D0400081F04000821040008000000005F
:1000200000000000000000000000000023040008A1
:10003000250400080000000027040008B18E000815
:100040002B0400082B0400082B0400082B040008D4
:100050002B0400082B0400082B0400082B040008C4
:100060002B0400082B0400082B0400082B040008B4
:100070002B0400082B0400082B0400082B040008A4
:100080002B0400082B0400082B0400088D530008E3
:10009000695300082B040008795300082B0400085A
:1000A0003D9000082B0400082B0400082B040008D6
:1000B0002B040008DD9000082B0400082B04000826
:1000C0002B0400082B0400082B0400082B04000854
:1000D0002B0400082B0400082B040008F1960008EC
:1000E0002B0400082B0400082B0400082B04000834
:1000F0002B0400082B0400082B0400082B04000824
:100100002B0400082B0400082B0400082B04000813
:100110002B0400082B0400082B0400082B04000803
:100120002B0400082B0400082B0400089D5D000828
:10013000DD5D00082B0400082B040008C1530008F3
:100140009D5300082B040008AD530008457D0008AE
:100150002B0400082B0400082B0400082B040008C3
:100160002B0400082B0400082B0400082B040008B3
:100170002B0400082B0400082B0400082B040008A3
:100180002B0400082B04000800F002F800F0C7F868
:100190000AA090E8000C82448344AAF10107DA45E2
:1001A00001D100F0BCF8AFF2090EBAE80F0013F06D
:1001B000010F18BFFB1A43F00103184798150200FE
:1001C000B81502000A444FF0000C10F8013B13F080
:1001D000070408BF10F8014B1D1108BF10F8015BA0
:1001E000641E05D010F8016B641E01F8016BF9D193
:1001F00013F0080F1EBF10F8014BAD1C0C1B09D1EA
:100200006D1E58BF01F801CBFAD505E014F8016B5B
:1002100001F8016B6D1EF9D59142D6D370470000ED
:100220000023002400250026103A28BF78C1FBD8FF
:10023000520728BF30C148BF0B6070476E2901F0DC
:100240004681702900F0838266291DF0F1866529B8
:100250001DF0EE8667291DF0EB8661291DF0EA8608
:1002600003681B0A28BF41F08001692900F0F4816E
:10027000642900F0F181752900F0EE816F2901F009
:100280005284782900F04F82E92901F0ED83E429B6
:1002900001F0EA83F52901F0E783EF2901F04F84AB
:1002A000F82900F04E820368DB0928BF41F0800185
:1002B000632901F05C83732901F06183E32902F073
:1002C000C586F32902F0CA86002070471FB51DF0CD
:1002D000A5FE9DE8030001F033F800F0F8FC01F002
:1002E00007F80400002000211CF0FEFB2060002025
:1002F00000211CF0CDFB401C6060002000211CF0A0
:1003000009FCA060002000211CF0D8FBE06000F098
:1003100095FF1FBD10B5002001F02AFF10BD03F0AE
:10032000F8FE1146FFF7D2FF1BF0D3FB04F07CFA76
:1003300003B4FFF7EFFF03BC18F0C8FE0B49D1F878
:1003400000C04A685CF8043B1068184442F8040B8B
:100350008C4528BFA1F1DC0C8A4228BFA1F1DC0248
:10036000C1F800C04A6020F000407047AC31002066
:10037000FEB442464B4654465D463EB400F08BFF09
:100380003EBC90469946A246AB46FEBC00F032F811
:10039000704700BF80EC200B7047C0EC200B70470B
:1003A00090EC200B7047D0EC200B704785460D98E1
:1003B000DDF838E00F9B5DF8042B20E90C009DE888
:1003C000FE1F854601BD4DF808ED0DF1080E4DF8F4
:1003D00004ED2DE9FF1F002102B4694681B003F04E
:1003E000E4FDDDF840E012B0704700002415020083
:1003F000141D02004DF808ED0DF1080E4DF804ED46
:100400002DE9FF1F002102B4694681B003F034BE1C
:100410000948804709480047FEE7FEE7FEE7FEE798
:10042000FEE7FEE7FEE7FEE7FEE7FEE704480549D4
:10043000054A064B704700008D8F000889010008AF
:10044000C8320020C8B20020C8920020C892002004
:1004500010B500F04DFF001D10BD00BF35C60100F6
:1004600070B5A0FB0140B4F1805170F1000024BFD1
:10047000002070BD204600F007F805001CBF214693
:1004800000F072FD284670BD70B5064600F02CFFE6
:10049000056806F10B0020F00704B4429CBF002061
:1004A00070BD2B466A68BAB11068A04210D304F13F
:1004B000080188423CBF5068586007D35168101942
:1004C00041601168091B016058601460101D70BD07
:1004D00013465268002AE7D12146284600F01CFF47
:1004E0000028DED170BD70B50446051F00F0FCFE8B
:1004F0000068002C14BF446870BD002C18BFAC42CB
:100500003CBF20466468F8D301680A18AA4218BFA5
:10051000456003D12A6805461144016028684119E5
:10052000A1421CBF6C6070BD6168696021680844AD
:10053000286070BD10B50446FFF78AFF0068005DB3
:10054000000704D5DF2C02D0A4F1200010BD204606
:1005500010BD00000FB4044910B503AA029801F0C1
:1005600013FA10BC5DF814FB780100200FB40146AB
:1005700010B504AA039801F007FA10BC5DF814FB4B
:100580000FB47CB50C0009AA009001D02044401E95
:10059000084B7B4469460190089801F0BEF9054676
:1005A0001CB10020694601F0CBF928467CBC5DF8FF
:1005B00014FB0000B513000070B50446856900689F
:1005C000C10601D5302600E02026C00707D070BD47
:1005D000D4E9012130469047206A401C20626D1EFC
:1005E000F6D570BD70B5044685690078C00707D19F
:1005F00070BDD4E9012120209047206A401C206270
:100600006D1EF6D570BD70B50C460546012A05D0A5
:100610002878800600D5EA69002302E0012305E07E
:100620005B1C934202D2E05C0028F9D1A869E6186D
:10063000C01AA861286A184428622846FFF7BCFF40
:1006400004E0D5E9012114F8010B9047B442F8D336
:100650002846FFF7C7FF70BD2DE9F041064600248C
:1006600010687529314616A510D000F0C5FE002887
:1006700002DA404213A507E031688A0701D512A5C6
:1006800002E0490704D511A5012401E000F0BDFEF8
:1006900000210A2206F1240709E0B0FBF2FCB0FBBE
:1006A000F2F302FB1C00303078541846491C002835
:1006B000F3D123462A463046BDE8F04100F0AEBEF5
:1006C000000000002D0000002B00000020000000B2
:1006D000F0B40D460188090502D5214C7C4402E0A6
:1006E0001F4C7C440E34002100F1240608E002F087
:1006F0000F071209E75D42EA03721B097754491C90
:1007000052EA0307F3D102780023120704D5702DB3
:1007100006D009B1022311342246F0BC00F07EBE9F
:1007200001231034F8E770B504460D4621461068E1
:1007300000F06BFE024629462046BDE870400023CB
:10074000C6E7D21D22F00703D3E90023C0E7036800
:10075000126843F0200303600823C3610023B7E756
:10076000D90102002DE9F05F894604464FF0000AE6
:10077000DFF874B1FB44C0F820A02046E168884748
:10078000002874D0252806D0D4E901219047206A9A
:10079000401C2062F1E700265F462046E16888475A
:1007A0002028054607DB312D05D2781910F8200CDA
:1007B00008B10643F1E7B00701D526F00406C4F8F6
:1007C0001CA00027C4F818A02A2D09D0284618F02C
:1007D000F1FB38B304EB8708303DC8F8185019E036
:1007E00059F8041B204604EB87029161E1688847B1
:1007F000012F054618D1E069002820DA26F02006EE
:100800001DE0D8F8180000EB800005EB4000303800
:10081000C8F818002046E1688847054618F0CAFB6A
:100820000028EED1012F0AD02E2D08D12046E168F4
:1008300088477F1C0546022F46F02006C4DBA069CE
:10084000002803DA404246F00106A061F00701D01B
:1008500026F010066C2D0BD0682D09D04C2D39D008
:100860006A2D35D0742D35D07A2D33D016E038E08E
:10087000E1682F4620468847B842054609D16C2FCB
:1008800026D04FF48060E16806432046884705463D
:1008900004E06C2F1AD04FF4807006430DB3A5F11D
:1008A0004100192802D8203546F400664A462946F8
:1008B000204626604E46FFF7C1FC80B101280BD0D0
:1008C000F61D26F0070000F1080956E74020E4E78E
:1008D0008020D8E70020D6E706F104094DE7284636
:1008E00052E7206ABDE8F09F690102000FB400B52D
:1008F0008DB010A9099000910B904FF0FF300A9035
:1009000000200C90064878440690064878446A46D1
:1009100007900F9909A801F0A1FB0DB05DF814FB39
:10092000731700008B1700002DE9FF5F1D464FF085
:10093000FF3B91464FF000085F46D5E90146A969A3
:1009400001987F1C8847296A824688470028F6D18B
:10095000BAF1FF3F0CD0002E24F4C06419DD60060C
:1009600014D5BAF12B0F09D0BAF12D0F0ED103E037
:10097000584604B0BDE8F09F44F48064A96901982A
:100980007F1C8847761E8246002E02DDBAF1300FAA
:1009900003D0B9F1000F26D032E0A969761E019884
:1009A0007F1C44F400748847002E824605DDBAF1AE
:1009B000780F06D0BAF1580F03D0B9F1000F10D05C
:1009C0001EE0B9F1000F02D0B9F1100F18D1A969DA
:1009D000761E01987F1C24F40074884782461020FC
:1009E00002E0082000E00A20814609E0A96908FB2E
:1009F0000908761E01987F1C44F4007488478246DB
:100A0000002E05DD4946504601F0C2F80028EDDA17
:100A1000E96901988847A00502D46FF00100A8E7B2
:100A2000E00725D1600613D5600502D5C8F10000A6
:100A300000E0404629680A1D2A600968220501D5A0
:100A4000087015E0220701D5088011E008600FE06A
:100A50002868011D29600068210502D580F8008002
:100A600006E0210702D5A0F8008001E0C0F8008070
:100A700038467EE72DE9FF5F4FF00008994614469F
:100A800046469169D2E901A7DDF838B00198884758
:100A9000054659EA0B0005D009E0A1690198761CCA
:100AA00088470546216A284688470028F5D1681CF2
:100AB00003D05FEACA7005D015E04FF0FF3004B0F4
:100AC000BDE8F09F2068011D2160D0F800800AE099
:100AD0005FEACA7001D108F8015BA169761C019830
:100AE0007F1E88470546002F1ADD681C18D0B9F113
:100AF000000F0DD0E81705EBD060421120F01F0069
:100B000059F822102A1A012090400142E0D107E052
:100B1000BBF1000FDCD12846216A88470028D7D0D6
:100B2000E16901988847BBF1000F07D1002E05DD70
:100B30005FEACA7002D1002188F80010A068B842AC
:100B400003DDBBF1000F03D017B16FF00100B6E772
:100B50003046B4E770B5064600F0D6FB046805469B
:100B600030460A22002100F002F82C6070BD2DE909
:100B7000F04791460F4680460446002614F8015B74
:100B80002DB1FFF765FC0068405DC007F6D12B2D45
:100B900002D02D2D18D0641E4A463946204601F059
:100BA0008DFA27B13968A14201D1C7F800804FF012
:100BB000020471050BD54042002803DD00F0A4FBC0
:100BC0000460A007BDE8F08746F48066E4E70028EB
:100BD000F8DA00F099FB04606FF00040F2E72DE9CD
:100BE000F05F93460F4680460446002600F08CFBDB
:100BF000D0F80090824614F8015B2DB1FFF728FC75
:100C00000068405DC007F6D12B2D02D02D2D1AD0E3
:100C1000641E0021CAF800105A463946204601F0E9
:100C20004DFA014627B13868A04201D1C7F80080CB
:100C3000DAF80000022809D0CAF80090700505D53E
:100C40004842BDE8F09F46F48066E2E70846F8E7D0
:100C50002DE9F04117460D4604460646012913DDED
:100C600038461AF0C1FA411C0CD0C0B20A2804F868
:100C7000010B02D06D1E012DF2DC002020703046E9
:100C8000BDE8F081B44201D10020F9E738461AF0FE
:100C900079FA0028F1D00026EFE71AF0A5BA1AF089
:100CA000A9BC00000B4910B5A1F17C020A4CC2E9B5
:100CB0003712372106E000EB104342F82130074B92
:100CC00000FB03400B1EA1F10101F4DC10BD01206B
:100CD000E8E700004C310020E119D666CD0D010097
:100CE0002DE9F041074615460E461020FFF7CCFBD4
:100CF00004000AD06760C4E9026500F001FB0168E6
:100D0000216004600020BDE8F0810120FBE70000C5
:100D1000014A01F04FBA00009C050020401ECAB2F3
:100D200010F8011F8A4202D00029F9D10020704733
:100D300040EA0103024630B59B0710D14FF0013461
:100D400000E008C208C91D1B9D4315EAC41FF8D066
:100D500013F0FF0102F8011B0DD01B0AF8E711F890
:100D6000013B002B02F8013B05D011F8013B002BA1
:100D700002F8013BF3D130BD10B5431C02E010F87E
:100D8000011B71B18107FAD14FF0013202C88C1AF0
:100D90008C4314EAC211F9D0C01A0A0603D0C01E4F
:100DA00010BDC01A10BD0A0401D0801E10BD09027A
:100DB000FCD0401E10BD40EA010370B59B072ED148
:100DC0004FF00136042A2AD308C810C99D1B9D4341
:100DD000121F15EAC61517D0D8B2E1B2401A50EA70
:100DE000056110D198B2A1B2401A50EA05410AD16A
:100DF00023F07F4024F07F41401A50EA052102D1C0
:100E0000180EA0EB146070BDA342DBD018BA21BA53
:100E1000884201D9012070BD4FF0FF3070BD0AB982
:100E2000002070BD10F8013B11F8014B63B1A342E3
:100E30000AD1521E08D010F8013B11F8014B1BB12A
:100E4000A34201D1521EEDD1181B70BD421E12F8F3
:100E5000013F002BFBD111F8013B002B02F8013BB5
:100E6000F9D17047032A40F2308010F0030C00F0F3
:100E7000158011F8013BBCF1020F624498BF11F8D4
:100E800001CB00F8013B38BF11F8013BA2F104028D
:100E900098BF00F801CB38BF00F8013B11F0030305
:100EA00000F02580083AC0F0088051F8043B083A69
:100EB00051F804CBA0E80810F5E7121D5CBF51F80B
:100EC000043B40F8043BAFF30080D20724BF11F885
:100ED000013B11F801CB48BF11F8012B24BF00F8EA
:100EE000013B00F801CB48BF00F8012B704710B55B
:100EF000203AC0F00B80B1E81850203AA0E8185012
:100F0000B1E81850A0E81850BFF4F5AF5FEA027CD2
:100F100024BFB1E81850A0E8185044BF18C918C041
:100F2000BDE810405FEA827C24BF51F8043B40F8E2
:100F3000043B08BF7047D20728BF31F8023B48BFC7
:100F400011F8012B28BF20F8023B48BF00F8012B05
:100F5000704701F0FF03114601B543EA032242EA5C
:100F6000024200F003F801BD4FF000020429C0F076
:100F7000128010F0030C00F01B80CCF1040CBCF1CB
:100F8000020F18BF00F8012BA8BF20F8022BA1EB1D
:100F90000C0100F00DB85FEAC17C24BF00F8012B02
:100FA00000F8012B48BF00F8012B70474FF00002FA
:100FB00000B5134694469646203922BFA0E80C504F
:100FC000A0E80C50B1F12001BFF4F7AF090728BF2A
:100FD000A0E80C5048BF0CC05DF804EB890028BFA6
:100FE00040F8042B08BF704748BF20F8022B11F0CF
:100FF000804F18BF00F8012B704700004FF0013CF4
:1010000050F8042B51F8043B9A4221D1A2EB0C0377
:10101000934313EACC1317D150F8042B51F8043B37
:101020009A4215D1A2EB0C03934313EACC130BD1D4
:1010300050F8042B51F8043B9A4209D1A2EB0C035F
:10104000934313EACC13DBD04FF00000704700BF8E
:10105000D01A01BAB1FA81F101F0180122FA01F0B7
:10106000CB40C1F12001DBB2C0B2C01A2CFA01F3AF
:10107000D11A914311EAC311E6D17047014901F039
:1010800009B90000B431002010B503681C1404EB4A
:1010900021449BB289B2194494FBF2F302FB13433F
:1010A00094FBF2F401EB034393FBF2F102FB1131E9
:1010B00093FBF2F301E05B1E11440029FBDB0160AE
:1010C00003EB044010BDF0B504464FF0FF3585B08A
:1010D0000068049060680290A0680390E068019046
:1010E00020690090666906F18040B0F1004F7CD81D
:1010F0003C22002104A8FFF7C7FF3C22014602A8BA
:10110000FFF7C2FF1822014603A8FFF7BDFF411EEB
:1011100040F2B55201A8FFF7B7FF0C220746684618
:101120000021FFF7B1FF414B00EB87003044002660
:101130007B4411E0511A01910099491C0229009148
:1011400002D00C2908D105E0810705D00199491C7E
:10115000019101E0401C00960099019A595C91426E
:10116000E8DD0099012906D11C2A04D1810702D0AB
:101170000221CDE90016A0F146018B293CD2DDE920
:101180000061002202E09F5C521C3944B242FADB4B
:10119000012E02DD820700D0491E40F2B55340F215
:1011A0006D16C21700EB927292105A4300F00303BF
:1011B00003FB062283070A4400D1521E039E02EB62
:1011C0004203049F06EBC303029EC3EB031306EB2B
:1011D0008303174E33441E149BB2C6EB0616C3EBB3
:1011E0000313B60007EB830300E005E006EB1346AC
:1011F00066F31F43360C02D0284605B0F0BD80C40C
:10120000029E40C4039E40C4019E761C44F80C6BB1
:10121000009E44E902600720521C92FBF0F600FB9E
:10122000162084E823001846E7E7000004F90100CF
:10123000A039CEFD704770477047000070B5064C6E
:101240007C44064D7D4403E0206820448047241DF3
:10125000AC42F9D170BD0000BC060200C806020015
:1012600070B5054601F077F90446284601F0FEF80E
:1012700038B12946A06901F093F9C169491CC161DF
:1012800002E0A5F12000C169012902D1A1698161B3
:10129000A061012070BD70B501F05DF9846905465B
:1012A0000CB901F047F904F12006304601F0DEF8F0
:1012B00068B1E0692668012802D0401EE0610BE0B9
:1012C000A16904F17800A96101F023F904E0E06963
:1012D000012801D1A069A861304670BD012301F049
:1012E00099B9002301F096B90048704700320020F8
:1012F0000048704718320020004870472C32002008
:10130000004870473032002000487047F831002014
:10131000704770477047704738B504460A4600204A
:101320006946AFF30080002808BF38BD0246009927
:10133000204601F05BFC012038BD012002F003BB18
:10134000F8B5AFF30080054600200C46102000BF22
:101350000646A819A0420DD9324669460020AFF3CF
:101360000080070008BF02F0EEFA0098A04218BF04
:101370000546C419FFF7B8FF05600746F01D20F0C9
:1013800007004619284600F00AF8B44208BFF8BD25
:10139000A21B31463868BDE8F84001F027BC0021A7
:1013A0000160C0E9011070471020704710B5FFF7C9
:1013B000ABFF006810BD10B50446FFF7A5FF046041
:1013C00010BD00007CB51D4616460C00009001D0F3
:1013D0002044401E074B7B442A4669460190304614
:1013E00000F09BFA05461CB10020694600F0A8FAFF
:1013F00028467CBD7105000009684A0501D540B248
:101400007047C905FCD500B2704709684A0501D587
:10141000C0B27047C905FCD580B270472DE9F047CE
:101420000D4699469246044600F124080168880654
:1014300004D5E06921F01001216000E00120A842FC
:1014400001DD471B00E00027A1697A1902EB0900C2
:10145000081AA0612078C00602D42046FFF7ACF835
:10146000002608E0D4E901211AF806009047206A16
:10147000401C761C20624E45F4DB2078C0060AD55D
:101480002046FFF799F806E0D4E901213020904783
:10149000206A401C2062381EA7F10107F4DC07E037
:1014A000D4E9012118F805009047206A401C206209
:1014B000281EA5F10105F3DC2046FFF793F82078FC
:1014C000000602D50220BDE8F0870120FBE7116885
:1014D0000268006A530501D508700AE0D30501D5FA
:1014E000088006E0130603D5C217C1E9000200E038
:1014F00008600120704770472DE9FF4F0C461E46DB
:101500004FF0FF378BB0D2E90001DDF860800A9020
:101510008A46C1F30A5505B93D46002108464FF0F9
:101520000000BAF1000F00F4400005DA00EB800083
:101530004FF4400101EA50004FEA9059B9F1010F10
:1015400000DDB9460A9850EA4A000ED044F6105021
:10155000A5F2FF3545432F14B8F1000F1ED0754298
:10156000291E1EDDC9F100021CE0B8F1010F4FF089
:10157000000001D0302103E0F24305E02154401C7B
:10158000B042FBDB30460022002121540B99C1F808
:101590000880C1E900200FB0BDE8F08FBD1B6D1CB5
:1015A000DEE74A4600DA694206A802F027F906ABF0
:1015B00093E8070003AB83E8070050460A9903F05D
:1015C000F7F98DE80700A0F500501F380090039848
:1015D000002D09DD42F21F014A46084403A9039089
:1015E000684603F080FC08E0A0F500504A461F382A
:1015F00003A90390684603F09EFC8DE807000004F1
:10160000000C03D04FF0FF30410800E01046B8F165
:10161000000F03D00022009215461EE0751E05D46F
:1016200001F0FEFA303262556D1EF9D5B346012243
:10163000084302D000227F1C04E02078302801D12A
:1016400000227F1E002A099786D01DE0112D07DA9F
:1016500001F0E6FA303262556D1C50EA0102F5D114
:10166000084302D00098C8B10EE00021681E05E0D2
:10167000235C625C63542254401E491C8142F7DBA8
:10168000AB46A81B401E0990002004F80B000B98E5
:10169000099AC0F80880C0E9002B7CE711264FF0BA
:1016A000000859E72DE9F04F88460446D21D22F084
:1016B000070191B0D1E90001CDE90A0115F0CDFA99
:1016C00002460B98C00F01D02D2007E0206881074B
:1016D00001D52B2002E0202101EAC000032A099055
:1016E00001D0072A05DB03464146204601F064FC91
:1016F0000BE12078800601D5E06900E00620B8F112
:10170000650F814606D0B8F1660F18D0B8F1670FA3
:1017100070D131E00020B9F1110F009001DB1123ED
:1017200001E009F101030AAA01A90CA8FFF7E4FEF0
:10173000DDE90C70002609F10105834647E0012030
:101740004B4600904FF000470AAA01A90CA8FFF7EA
:10175000D3FEDDE90DB00C995D46002610B909F104
:1017600001000D18B9EB050003D4C0F1FF3609F1F3
:101770000105A5EB09002BE0B9F1010F01DA4FF0EB
:1017800001090020B9F1110F0090484601DD112335
:1017900000E003460AAA01A90CA8FFF7ADFEDDE9A7
:1017A0000C704D4600268346207800070AD4AB45CE
:1017B00000DA5D4601A8012D04DD411911F8011C74
:1017C000302907D04F4502DA17F1040F04DA01205F
:1017D00082460FE06D1EEEE7002F02DCED1B3E445B
:1017E00003E0781CA84200DD7D1CB81B00F1010A53
:1017F0004FF000472078000703D4AA4501DB4FF0E3
:10180000FF3A0021B7F1004F0DF143088DF8431066
:1018100024D002202B23002F01DA7F422D230A211E
:10182000021EA0F1010000DC5FB197FBF1FC97FB09
:10183000F1F201FB1C7C17460CF1300C08F801CDCD
:10184000EEE7A8F1010003702188090501D54521C3
:1018500000E06521A0F1010800F8011C09980FA91A
:10186000A1EB0807FF1D00B10120411901EBEA704F
:10187000A1693844081A401EA0612078C00602D42D
:101880002046FEF799FE099828B1D4E90121904736
:10189000206A401C20622078C00622D52046FEF730
:1018A0008BFE1EE0002E04DBB34502DD01A8805D47
:1018B00000E03020D4E901219047206A401C2062DA
:1018C000761CAAF101005FEA000A0AD1FFF710FDB9
:1018D000C0680168405CD4E901219047206A401C3F
:1018E0002062281EA5F10105DCDC07E0D4E9012116
:1018F00018F8010B9047206A401C2062381EA7F19F
:101900000107F3DC2046FEF76DFE032011B043E62D
:1019100001694A1C02610878704700B58FB0CDE9B3
:1019200001310021059105497944CDE903101146A3
:101930006846FEF717FF0FB000BD0000E5FFFFFF90
:101940000A6802F8010B0A607047D1E900239A4245
:1019500002D2531C0B601070704710B5436913B16D
:10196000AFF3008001E0FEF74EFE012010BD1278BB
:1019700000F124010A7000224A700122EDE711688B
:101980004FF0FF32E9E70000074B70B50D467B448E
:10199000FFF7C3FF0446284619F0F4FB10B14FF0DF
:1019A000FF3070BD204670BD639C01002DE9FF5FD4
:1019B00015468A460446DFF8AC80F8440027D8E98B
:1019C00000103E46CDE9001010E03AF816106A46C5
:1019D00002A801F091FF411C07D02178890603D5A8
:1019E000E269391891420DD80744761C20788006A8
:1019F00002D5E069B84205DDAE42E6DB3AF81600F2
:101A00000028E2D1A069C01BA0612046FEF7D4FDEA
:101A1000D8E90010CDE90010002017E03AF81810BE
:101A20006A4602A801F068FFB0F1FF3F81460BD083
:101A300000250DF1080B05E0D4E901211BF8050094
:101A400090476D1C4D45F7D308F10100B042804628
:101A5000E4DB206A384420622046FEF7C3FDBDE87F
:101A6000FF9F000072F001002DE9F0418046D21D79
:101A700022F007020025D2E90002F52915A614D0AC
:101A8000011E72F1000106DA0023D0EB030063EBC4
:101A9000020211A608E0D8F800108B0701D50FA6A6
:101AA00002E0490701D50EA601251146002408F1E0
:101AB000240704E001F0B4F830323A55641C50EACF
:101AC0000102F7D12B46324621464046BDE8F0419F
:101AD000FFF7A4BC000000002D0000002B00000058
:101AE0002000000030B4002100F1240408E002F0DE
:101AF0000705D208303542EA4372DB086554491CB9
:101B000052EA0305F3D10468002310A2250707D584
:101B1000A40600D421B1C46901230DA2641EC461CE
:101B200030BCFFF77BBC10B5044621461068FFF7B8
:101B30006CFC02462046BDE810400023D2E7D21DCF
:101B400022F00701D1E90023CCE7000000000000EB
:101B5000300000000FB400B58DB010A909900091BD
:101B60000B904FF0FF300A9000200C90064878440C
:101B70000690064878446A4607900F9909A800F035
:101B80006DFA0DB05DF814FB0B0500002305000095
:101B90003A2800D2303820F02002412A01D3A2F1A5
:101BA0003700884201D34FF0FF3070472DE9FF4FD7
:101BB000064689B00878FF2806D0491C2D2805D094
:101BC00000244FF0000908E000200CE00124F8E7B1
:101BD00009EB8903491C00EB43090878FF28F7D17A
:101BE00014B1C9F100008146107800252C46AA46A0
:101BF00029462D2801D02B2804D1521C2D2813D082
:101C0000002082468B461078FF280FD04FF0000C42
:101C10000A21521CA5FB017804FB018105FB0C1174
:101C2000C5194BEB0104EEE70120EAE70021084665
:101C30004FF00000BAF1000F02D000EB8000400826
:101C4000C0F38158B8F1010F01DD4FF0FF380C9857
:101C500009EB000755EA040009D04FF0020917F517
:101C6000FA7F0BDA4FEACA70C6E900B012E04FEA19
:101C7000CA70C6E900B00DB0BDE8F08FB7F5FA7FC5
:101C80000DDDF0487844D0E90010C6E9001040EAC4
:101C9000CA707060FFF738FBC0F80090EBE7391EA0
:101CA00002DAC8F1000200E0424600DA794206A8F2
:101CB00001F0A4FD06AB93E8070003AB83E807003F
:101CC00044F23E005BEA04010090584604D144F21D
:101CD0001E012C465D460091210C0904014306D1EA
:101CE0000099240444EA15442D041039009104F0AD
:101CF0007F41014306D10099240244EA15642D0274
:101D00000839009104F07041014306D10099240183
:101D100044EA15742D01091F009104F0404101436C
:101D200006D10099A40044EA9574AD00891E009183
:101D300004F00041084304D100986D196441401E2D
:101D4000009042466846002FCDE9014503A902DD17
:101D500003F005F901E003F0DAF8BAF1000F0446E8
:101D60000D4601D084F0004440F2FF7724F000409B
:101D7000284303D0C4F30A50B84212D1FFF7C4FA83
:101D8000C0F80090C4F30A50B8420AD1AE48784473
:101D9000D0E90010C6E9001004F00041084370606B
:101DA00069E7C6E9005466E72DE9FF4F1F464FF08B
:101DB000000A4FF0FF38454691B0D7E90146CDF80B
:101DC0003CA0FFF795FAC0680168405C1090B969C3
:101DD00012986D1C8847396A814688470028F6D1D9
:101DE000B9F1FF3F0AD0002E24F4D06411DDB9F11F
:101DF0002B0F08D0B9F12D0F0BD102E0404615B0E2
:101E00003AE744F48064B96912986D1C8847761EDD
:101E10008146600504A901D52D2000E02B20002E6D
:101E200001F1010B0DF130088DF810003FDDB9F123
:101E3000690F08D0B9F1490F05D0B9F16E0F02D082
:101E4000B9F14E0F1CD13B4601A8009580E8500225
:101E5000DDE912126FF002001CF052F9C11CCED164
:101E60000EE0B96912986D1C884781461398761E5A
:101E700044F4007405600F98401C002E0F9016DD8E
:101E8000B9F1300FEDD0B9F1780F02D0B9F1580F98
:101E90000DD10F9801280AD13B46CDE90054DDE968
:101EA0001212001F02961CF029F9C11CA7D110992B
:101EB00089453ED144F0800406E01399681CAAF1DC
:101EC000010A44F400740860B9696D1C1298761E0A
:101ED000884730288146F0D02BE01099894505D1FC
:101EE000200603D4761E44F0800418E0484617F01C
:101EF00061F808B3761E0DF123018B4544F400749C
:101F000008D2A9F130000BF8010B200607D5AAF181
:101F1000010003E0200602D40AF101008246A00578
:101F200002D51399681C0860B96912986D1C88471E
:101F30008146002ED1DC53E0002E51DDB9F1650F52
:101F400002D0B9F1450F4BD1A00549D5B9696D1C37
:101F50001298761E24F440748847002E81460CDDCA
:101F60002B2804D0B9F12D0F07D144F48074B9693E
:101F700012986D1C8847761E8146E00501D52D21FB
:101F800000E02B2108F8011BCDF8008021E0761E2F
:101F90000DF13901884544F400740CD2A9F13000E8
:101FA00010F0FF0088F8000002D10099884509D997
:101FB00008F1010806E0E00501D5244801E042F2FD
:101FC0000F708246B96912986D1C88478146139834
:101FD0000560002E04DD484616F0ECFF0028D6D13F
:101FE000F96912988847FF2053468BF8000088F85B
:101FF000000000200A900B9004AA0CA90AA8FFF781
:10200000D5FDA00502D46FF00100F8E614F0240F0E
:102010000AD0E00714D13868DDE90A12031D3B60DD
:102020000068C0E900120BE00AA9684616F0ECFC53
:10203000E00705D13868009A011D39600068026028
:102040002846DCE6ECFA0100E2F90100F1D8FFFFD6
:10205000026811441378016018467047D160054941
:10206000794451610449794411620021116111469A
:1020700000F0F8BFEDFFFFFF410C0000426842B1E5
:10208000016811F8013B23B1521EC0E90012184645
:1020900070470121C160881E704742685AB1C36809
:1020A000016843B983688B4205D0491E521CC0E9C0
:1020B0000012002070474FF0FF3070472DE9F05FAD
:1020C000824615468B4600270AF10104B94600787E
:1020D000302801D09DB113E014F8010B01277828B6
:1020E00003D0582801D045B10AE00DB1102D07D119
:1020F000002714F8010B102502E0082500E00A254E
:102100000026B0460EE005FB080005FB06F101279E
:102110001FFA80F801EB1046B6F5803F00D3B946B0
:1021200014F8010B2946FFF733FD0028EBDABBF169
:10213000000F05D00FB1641E00E05446CBF80040FC
:10214000B9F1000F06D0FFF7DFF802210160C81EC9
:10215000BDE8F09F48EA0640FAE710B5002001F01C
:10216000EBFBFEF7D7F8BDE81040012016F0AEBF3C
:102170002DE9F0410646FFF7C3F88046454613E0D7
:1021800016B1E068B0420ED120682860D4E90101A0
:10219000D8F8007088472046FEF7A5F9D8F8000067
:1021A000B842EBD100E025462C68002CE8D1BDE810
:1021B000F08100002DE9F04115460E46040002D1E1
:1021C0002C6804B90BA4204601F0EEFB04442078EF
:1021D00070B127463146384601F0D6FB04442078DA
:1021E00010B1002004F8010B38462C60BDE8F081E6
:1021F0000027F9E7000000000022CBB210F8011B15
:10220000994200D1421E0029F8D110467047431A66
:1022100028BF9A427EF626AE032A1044114440F2AB
:10222000268010F0030F1EBF11F8013D521E00F86A
:10223000013D10F0030F7FF4F6AF11F0030301F03E
:102240000084083AC0F00B8051F8043D083A51F878
:1022500004CD40F8043D40F804CDFFF7F3BF121D54
:102260005CBF51F8043D40F8043DAFF30080D20755
:1022700024BF11F8013D11F801CD48BF11F8012C20
:1022800024BF00F8013D00F801CD48BF00F8012C43
:102290007047000070B50C46016800204A1C3ED013
:1022A0003C22B1FBF2F302FB1313B1FBF2F123600A
:1022B000B1FBF2F302FB1313B1FBF2F118226360DE
:1022C000B1FBF2F302FB1313B1FBF2F146F2E03281
:1022D0000A440721A360B2FBF1F301FB132140F292
:1022E000B553B2FBF3F5A161B2FBF3F103FB152289
:1022F0008900B2F5B77F08D39B10521EB2FBF3F5ED
:102300002944B2FBF3F503FB15220F4BE261616137
:1023100089077B440CD03B2A0AD3521C08E02C21AD
:102320002046FEF743FE0120E0600AE0521A401CFE
:10233000195C9142FAD9521CC4E903204FF0FF30D6
:102340002062204670BD000022E7010070B50546FE
:1023500000F001F904461DB1284600F087F808B1E5
:10236000A06801E055F8140C206101202073BDE83D
:10237000704000F0DFB8040001D000F081F8204682
:10238000FFF7E4FF2DE9F14DD0E90C8581B0064659
:10239000D0F828A000F0DFF80446A6F12007304668
:1023A00000F06EF8304600F061F808B1606800E0B7
:1023B000B868206101F0B0FCBDE8FC8D00F060F869
:1023C0006669BE4202D100F07FF80DE030696061BD
:1023D00000F07AF805E000F053F800F0ABF800F0F8
:1023E00073F860693061666100273C4606F1200B96
:1023F00011E02E686B4600223146584601F000FC81
:1024000008B101F097FB3146104813F057FB00B1BB
:1024100001274544641C5445EBD38FB1684613F043
:102420002DFD042001F056FB694613F01FFD044604
:10243000684613F032FD064A0449204601F0C5FB08
:102440005846FFF783FF00F03FF8B5E7F40E0208A7
:102450009B5E010802680B689A4205D14068496892
:10246000884201D1012070470020704710B5034910
:10247000FFF7F0FF80F0010010BD0000440C0208DF
:1024800070B50546466A00F066F804462846FFF730
:10249000EDFF20B12946606900F082F807E0A5F160
:1024A0002000C169491EC1612168491E216041693E
:1024B000491C4161016911B9616901616061284686
:1024C00001F0F0FD304670BD70B500F044F844698D
:1024D00005460CB900F02EF86069401E606117D106
:1024E00004F120063046FFF7C1FF21696961E56903
:1024F00028B104F17800266800F00BF801E0002014
:102500002061002D04D13046BDE8704001F0FABDD5
:1025100070BD10B5044600F01EF8783CC069214635
:1025200001F0CDFA002804D12046BDE81040FDF7A7
:10253000DABF10BD10B500F00EF8016919B1002224
:102540000261884701E080688047FFF706FE0000CF
:1025500010B5FFF702FE70B500F044FB04680546B5
:10256000A4B92020FDF790FF040011D009490020F4
:102570002C60C4E900010849A160207320616061FA
:102580000649A06109B101F086FAE061204670BDFC
:10259000FFF7E3FD333D000851250008000000006F
:1025A00070B504000D4609D004F12000FFF752FF7A
:1025B00020B12068A84201D1204670BD002001F062
:1025C00089FAD5E90023A0F15801C1E900230022CE
:1025D00040F85C2C40F8642C40F8682C40F8785D9A
:1025E00070BD0000017A51B9417A89B1491E41722A
:1025F00041680A1D42600968016004210172C9B284
:10260000491E017201680A0E0902016010467047F6
:10261000B02070472DE9FF4D8CB05FEA000B4FF002
:10262000000016460D4607900990059008900DD0C1
:10263000BBF1010F0AD0BBF1020F01D0002204E26E
:10264000A86BA864E86B04902C6C0FE095F8500020
:10265000C007E86C049078D10F9818B1049800680E
:10266000C0F30740049901EB800442E00F98022870
:1026700011D02788002F68D06088241D00F0010247
:10268000394662F35F0161B1012934D002297DD05E
:102690000329EBD12FE12768002FECD060680834C4
:1026A000ECE7BBF1000F24D0A96C002301EB00087C
:1026B00006A9009130460F22194601F054FB0698F6
:1026C000804516D808EB0701814212D9A96CA9638D
:1026D000201D0499C5E90F102846FEF7C1FD00280A
:1026E000ACD020680F2240F31E000444304604940E
:1026F00023E0241DBAE7BBF1000F27D006A9002371
:10270000009130460D22194601F02DFB0698296AEA
:1027100088426ED1E86AA0426BD1206804A940F3D8
:102720001E0004440023009130460F2204941946F1
:1027300001F002FB30460022049504A90023009119
:10274000194601F0F9FA22463DE2D6E0A96C0023D1
:1027500001EB00080AA9009130460F22194601F04A
:1027600002FB0A987F1E804543D808EB070181428F
:102770003FD96768B81C0ED0781C0ED0206806AB15
:10278000C20F3946284601F03BFA00E033E078B347
:1027900002281DD004E0022257E105F158000690FE
:1027A00004A90023009130460D22194601F0DBFAFE
:1027B0000498EC622862069868622068022140F35F
:1027C0001E0002192846FDF7E3FD3A4680215FE02E
:1027D00004A90023009130460D22194601F0C3FAE6
:1027E0000498EC6228620698A86205F12800E3E7E5
:1027F000FFE708343AE72168069121F00048BBF171
:10280000000F10D00AA90023009130460D2219466E
:1028100001F0A9FA0A98296A884240D1E86AA042E0
:102820003DD101203CE0A96C401E01EB000A0AA941
:102830000023009130460F22194601F094FA0A98BD
:1028400082453AD80AEB0701814236D904F1040ADD
:1028500000270AE06B4600222846DAF8001001F053
:10286000CFF920B90AF1040A7F1C4745F2D3474546
:1028700023D104A90023009130460D22194601F00E
:1028800072FA0498EC6228620020D34A022168623E
:102890002846FDF77DFD062010B0BDE8F08D002034
:1028A00058B10020C5E90A8004202863201D686310
:1028B0000698404506D1012007900698404515D15D
:1028C000002014E004EB8800002250F8041F134697
:1028D00041F31E010C1804A90091304604951146DD
:1028E00001F02AFA30460F22049465E1042000EB3F
:1028F00088000444FDE60122A7E0049800680190E6
:102900000498001D02900F9810B30198000C8DF8E8
:102910000D0001980004019002208DF80C0001A820
:10292000FFF760FE0446B0281AD03F2C41D800F0D3
:102930003F01042000EB810706A90D24002300912C
:1029400030462246194601F00EFA0698384442E015
:1029500000208DF80D000198000201900320DCE7B3
:102960000998B0B905980028C5D004A800230090A4
:102970000E221946304601F0F6F90499059105A991
:102980000023009130460F22194601F0D5F90120AD
:1029900008900798002870D0002204A900913046C2
:1029A00013460495114601F0C7F90898002878D01D
:1029B000FEE07F2C19D800F03F01042000EB8107D6
:1029C00006A90D240023009130462246194601F045
:1029D000CAF90698C01B049004A800230090224660
:1029E0001946304601F0A8F999E78F2C1AD800074C
:1029F000040C01A8FFF7F6FD54EA00143FF4CBAE37
:102A0000002322461946304601F0C4F908B10322DA
:102A10001BE0200401D5012009906004E4D50120C9
:102A200005907CE79F2C16D800F00F020D2A0BD0E2
:102A30000F2A09D006A9002300910D24304619461B
:102A400001F091F90698C6E7042201212846FDF716
:102A50009FFC092020E7AF2C10D804F007000121CB
:102A6000401C81400A01103A200703D5012042F49E
:102A7000804205900023194658E0AAE0B72C35D8CB
:102A8000B12C0FD0B22C15D0B328DDD101A8FFF79F
:102A9000A9FD00F00F0100F0F000491C41EA0032EE
:102AA0002BE073E001A8FFF79DFD0200CCD00F2AB8
:102AB000E0D9C9E700273C4601A8FFF793FD00F0E5
:102AC0007F01A1400F43000601D5E41DF4E706A9EC
:102AD0000D240023009130462246194601F043F9A7
:102AE000069800EB870000F5017074E7BF2C07D84B
:102AF00000F00700401C40F400220123012115E0F2
:102B0000C72C25D809D101A8FFF76CFD02009BD086
:102B10000F2A99D80023042108E0C62C0DD000F01C
:102B20000700401C40F4202203231946304601F0E0
:102B300031F900283FF458AF69E701A8FFF752FDCB
:102B400000F00F0100F0F000491C41EA0032EBE711
:102B5000C82C0BD0C92C09D0CF2CAAD9D72CA8D8D7
:102B600000F00700401C40F400220DE001A8FFF730
:102B700039FD00F00F01491C00F0F00041EA00327D
:102B8000C82C01D102F580120523B7E704A8002361
:102B900000900F221946304601F0E5F8049905919E
:102BA00005A90023009130460E22194601F0C4F811
:102BB000094930460F22049104A9002300911946C7
:102BC00001F0BAF8044A03212846FDF7E1FB07208B
:102BD00062E6082060E60000852300080048704790
:102BE000F831002000487047343200200346406826
:102BF0008C46002818BF88423CBF03464068F8D383
:102C000018681844884207D00CF1030020F0070030
:102C1000001D411A521A0146081D0A60FDF763BCE7
:102C200030B5B0F10A024FEA900E71F100034EEA9E
:102C3000817EB0EB0E0061EB91014FEA101E4EEA6F
:102C4000017E10EB0E0041EB11114FEA102E4EEAFF
:102C5000016E10EB0E0041EB11214FEA104E4EEACF
:102C6000014E10EB0E0041EB1141401841F1000103
:102C70004FEAD00040EA41704FEAD10110EB8005E5
:102C80004FEA810444EA907444EB01046D1944EB6B
:102C90000404521BA3414FF0000348BF0A3200D581
:102CA00030BD401C41F1000130BD10B50446FDF7B8
:102CB000CFFB0068005D00F0010010BD2DE9F04F72
:102CC00004460D46D21D22F0070089B0D0E90097D6
:102CD0004846394613F0C1FF0246F80F01D02D23B4
:102CE00007E02068810701D52B2302E0202101EABB
:102CF000C0038DF820300BB1012000E00020032A32
:102D0000824601D0072A04DB2946204600F054F908
:102D10003FE12078800601D40D2500E0E569C7F386
:102D20000A560D2D49DA00214FEA175B08464FF08D
:102D30000000002F00F4400007DA00EB80004FF4A1
:102D4000400100EBD07001EA60008115012901DD2E
:102D50004FF0FF3100224FEA850CBCF1180F06D36B
:102D60001346ACF118004FF08052C24003E04FF41C
:102D7000801323FA0CF30CF10C0CBCF1200F04D3DC
:102D8000ACF1200C09FA0CF001E007FA0CF0002974
:102D90004FF0004801DD18B90FE00ED140450CD3CB
:102DA00019EB02095F4121B9404502D19F4329EA4D
:102DB0000209BBEB175F00D0761C2088000502D506
:102DC0007B48784402E07A487844193808AA3023CE
:102DD00002F80A30037C0AF10101002E0AF1020A0E
:102DE00053546A4602DC4FF0300101E04FF03101EC
:102DF0004FF001088DF8001002D0A6F2FF3603E074
:102E000059EA470100D06B4E002D02DC21780907FA
:102E100004D54FF002082E218DF80110C446002180
:102E20000BE0C7F303433F01C35C491C6D1E02F86E
:102E30000830052908F1010801DA002DF1DC002134
:102E40000CE000EB1973491C1B786D1E082902F871
:102E500008304FEA091908F1010801DA002DF0DC09
:102E600021688B0602D516E0A8F10108E04505DDD2
:102E700002EB080313F8013C302BF5D0B8F1000F3A
:102E800009DD02EB080313F8013C2E2B03D10907DF
:102E900001D4A8F10108002D05DD3E2102F808103B
:102EA0006D1E08F10108407C002E02F8080008F1B0
:102EB000010804DA2D20764202F8080002E02B20F7
:102EC00002F808000A214FF47A70864208F10108DE
:102ED0000BDB96FBF0F3303302F8083096FBF0F38F
:102EE00008F1010800FB136601E0642E0CDB64208E
:102EF00096FBF0F3303302F8083096FBF0F308F15C
:102F0000010800FB136601E00A2E06DB96FBF1F0D8
:102F1000303002F8080008F1010896FBF1F001FBDF
:102F20001060303002F80800A16908F1010808EBD0
:102F3000050202EB0A00081AA0612078C00602D43C
:102F40002046FDF739FB216A08AE01EB0A0020623A
:102F500004E0D4E9012116F8010B9047BAF1010A07
:102F6000F7D22078C00602D52046FDF725FB6E4635
:102F700009E016F8010B3E280FD0D4E90121904753
:102F8000206A401C2062B8F10108F2D22046FDF709
:102F900029FB09B00320BDE8F08F206A2844206295
:102FA00003E0D4E90121302090476D1EEBD3F8E710
:102FB000C5DF010002FCFFFF2DE9F0411F4604467A
:102FC00003260168072A01F4006004DB08B116A596
:102FD00005E016A503E008B115A500E015A521F050
:102FE00010002060A069C01EA0610FB1401EA0614A
:102FF0002046FDF7E1FA4FB1D4E901213846904768
:10300000206A401C2062C01C206206E0206AFAE7A9
:10301000D4E9012115F8010B9047761EF8D220461D
:10302000FDF7E0FABDE8F0814E414E006E616E00A2
:10303000494E4600696E660010B5436913B1AFF39F
:10304000008001E0FEF7B2FC012010BD128800F103
:10305000240182840022C2840122EDE711684FF02E
:10306000FF32E9E72DE9F34F4FF0000A0C465646D0
:103070008DB001200C9001F10C000B9062690B984F
:1030800001219047051E2DD0252D2CD0216A88477F
:10309000C0B162690B9801219047216A88470028D6
:1030A000F7D16269411E0B98904700E0761CA16938
:1030B0000D988847216A88470028F7D1E1690D9863
:1030C0008847DBE7A1690D988847A842074601D1E8
:1030D000761CD3E7E1690D9888477F1C02D1BAF1CD
:1030E000000F6FD06BE162690B9800273D463946AF
:1030F00090472A2804D162690B9801219047012545
:10310000DFF8D08262690B9801219047A0F130016D
:103110000A290AD24745E5DC07EB870100EB4107A6
:10312000303FDFD445F01005ECE7E90601D46FF03D
:1031300000476C280AD04C2814D0682815D06A287B
:103140000DD074281CD07A281AD01DE062690B9823
:10315000012190476C2802D045F0040514E045F0A9
:1031600002050DE045F020050AE062690B98012197
:103170009047682802D045F0080505E045F4006551
:1031800062690B9801219047C4E9015765283DD039
:1031900019DC58287AD00CDC452837D004DC2528E7
:1031A00026D041289ED131E046282FD0472899D1FA
:1031B0002CE05B2877D0612828D063287CD0642855
:1031C00023D15AE0F6E06F2848D008DC66281DD0ED
:1031D00067281BD0692821D06E2816D127E07028D7
:1031E00045D0732868D0752847D078280DD14DE098
:1031F000A1690D988847252805463FF469AFE16924
:103200000D9888476D1C3FF46AAFD8E00D992346AE
:103210006A466FF001001AF06FFFC5E045F040000C
:1032200023464FF000026060A80736D43EE0E8076E
:103230007FF447AF2068011D21600068290501D592
:1032400006701BE7290701D5068017E7A90703D5F4
:10325000F117C0E9006111E706600FE745F0400093
:1032600023464FF008026060A80716D41EE040F61F
:103270000E0125EA0100606016E045F0400023469B
:103280004FF00A026060A80707D40FE045F0400045
:103290006060A80708D5234610220D996FF0010041
:1032A00000F09AF880E007E0102223460D996FF0B5
:1032B0000100FDF739FB77E04FF0000963284F4626
:1032C000C8464B46CB4602D05B2806D038E0E8061D
:1032D00001D40120A060012732E06269D4F80CB06B
:1032E0000B98012190475E2807D14FF0010949460C
:1032F0006269D4F80CB00B989047216939B9002164
:103300000A4603AB43F82120491C0829FADBD8B34D
:10331000216949B308F1010862690B9801219047BE
:103320005D28F4D1B9F1000F09D0002003A951F8AC
:103330002020D24341F82020401C0828F7DB03ABB3
:103340002069002820794FEA40701ED05B46224653
:10335000CDF80080CDE901970D9900286FF00100AC
:1033600020DA00F0E2F91FE0C11703AA00EBD161F7
:103370004B1121F01F0102EB8302411A1368012057
:10338000884003431360C7E719E00D9922460028DF
:103390006FF00100009702DA00F0C9F804E0FDF7D1
:1033A00069FB01E000F04DF900280ADA401C06D163
:1033B0000C9820B14FF0FF300FB0BDE8F08F5046B1
:1033C000FAE7E90701D10AF1010A064400200C904E
:1033D00054E60000CCCCCC0C2DE9FF4F1C469146A6
:1033E0004FF0FF3581B000218A468846D4E9016755
:1033F000A16902986D1C8847216A83468847002886
:10340000F6D1BBF1FF3F0CD0002F26F4C0661ADDC9
:10341000700615D5BBF12B0F0AD0BBF12D0F0FD1C4
:1034200004E04FF0FF3005B0BDE8F08F46F4806651
:10343000A16902986D1C88477F1E8346002F02DD1C
:10344000BBF1300F03D0B9F1000F2AD025E0A169FC
:103450006D1C02987F1E46F400768847002F834635
:1034600005DDBBF1780F06D0BBF1580F03D0B9F1E1
:10347000000F10D011E0B9F1000F02D0B9F1100F18
:103480000BD1A1696D1C02987F1E26F40076884737
:103490008346102000E0082081464FEAE970009042
:1034A00017E00A20F8E74346AAFB0928DDF800C028
:1034B0007F1E03FB098046F4007605F101050AFB37
:1034C0000C0112EB0B0A029841EBEB78A1698847DB
:1034D0008346002F06DD49465846FEF759FB5FEA52
:1034E000000BE0D5E16902988847B00502D46FF07F
:1034F000010098E7F00718D1700610D55146700505
:1035000005D50023D1EB030163EB080200E042463E
:103510002068031D23600068C0E9001205E02068F0
:10352000011D21600068C0E900A828467BE72DE95D
:10353000FF4F4FF000089A461446C146464683B0F6
:10354000D2E901B7CDF80080CDF8048091690498E4
:103550008847109905465AEA010005D009E0A1699B
:103560000498761C88470546216A28468847002823
:10357000F5D1681C03D05FEACB7005D02AE04FF08C
:10358000FF3007B0BDE8F08F2068011D2160D0F842
:1035900000801FE002A86A46E9B201F027F9411C49
:1035A00007D0801C09D04FF000095FEACB7007D02C
:1035B0000AE0E169049888473EE04FF0010904E021
:1035C000BDF8081028F8021B7F1EA1690498761C1C
:1035D00088470546002F1ADD681C18D0BAF1000F85
:1035E0000DD0E81705EBD060421120F01F005AF80B
:1035F00022102A1A012090400142CBD107E01098F6
:103600000028C7D12846216A88470028C2D0E1692E
:1036100004988847B9F1000F0ED1109830B9002EE8
:1036200004DD5FEACB7001D1A8F80000A068B842C1
:1036300002DD109818B117B16FF00100A1E7304614
:103640009FE72DE9FF4F4FF000089B461446454683
:1036500083B0D2E90196CDF80080CDF8048091695D
:10366000DDF848A00498884707465BEA0A0005D0C1
:1036700009E0A16904986D1C88470746216A38460D
:1036800088470028F5D1781C03D05FEAC97005D0BF
:103690001BE04FF0FF3007B0BDE8F08F2068011D40
:1036A0002160D0F8008010E05FEAC97007D16A4657
:1036B0004046B9B200F020F9411C31D08044A169E4
:1036C0006D1C0498761E88470746002E14DD781C72
:1036D00012D0BBF1000007D03B46DDE9101200F02C
:1036E00067FF0028E0D107E0BAF1000FDCD13846CF
:1036F000216A88470028D7D0E16904988847BAF141
:10370000000F06D1002D04DD5FEAC97001D188F8F1
:103710000000A068B04203DDBAF1000F03D016B17B
:103720006FF00100B7E72846B5E72DE9FF5F9B463C
:10373000144600273D469169D2E90196DDF840A084
:103740000198884780465BEA0A0005D009E0A16934
:1037500001986D1C88478046216A404688470028AA
:10376000F5D1B8F1FF3F03D05FEAC97005D014E08E
:103770004FF0FF3004B0BDE8F09F2068011D2160CC
:1037800007680AE05FEAC97001D127F8028BA169D6
:103790006D1C0198761E88478046002E15DDB8F115
:1037A000FF3F12D0BBF1000007D04346DDE90E1207
:1037B00000F0FEFE0028E5D107E0BAF1000FE1D1EC
:1037C0004046216A88470028DCD0E1690198884793
:1037D000BAF1000F05D1002D03DD5FEAC97000D1F9
:1037E0003880A068B04203DDBAF1000F03D016B1F3
:1037F0006FF00100BEE72846BCE700002DE9F04766
:10380000814616468AB0334878440DC88DE80D00CD
:1038100030487844801C03AC0DC884E80D0041F6A4
:103820009B300844372190FBF1F290FBF1F5A5F1B4
:10383000800501FB12041B3C02D56442012000E01C
:103840000020DFF890A080460027FA44AAF1BE0AC3
:103850000DE0E00709D03246684607EB47010AEB66
:10386000810101F068FB8DE8070064107F1C002CCB
:10387000EFD1184F7F44AC3F18E0E80714D007EBB6
:1038800004100DF1180A90E80E008AE80E00C068D6
:10389000F04201D198190890324606A903A801F018
:1038A0004AFB03AB83E807006D10641C002DE4D1D4
:1038B00032466946B8F1000F03A802D001F013FBAD
:1038C00001E001F038FBC9E90001C9F808200AB09D
:1038D000BDE8F08710D601000A460146014800F015
:1038E000FCBE00005832002010B5024800F06FFE08
:1038F000004810BD8432002070B516460C460546BF
:10390000FCF7A6FD036893F80101012806D0FF2CFF
:103910000FD8185D68B101202C7070BDD3F8070175
:103920003246214603F2071303442846BDE870409F
:1039300018474FF0FF3070BD10B500F0ABFFBDE889
:10394000104000F0A2BF10B500F0BCFFBDE8104071
:1039500000F09BBF70B50C460546FDF7C9FC00683A
:10396000016859B1421815F8010B14F8013B115CBC
:10397000D35C08B19942F6D0C81A70BD21462846DA
:10398000BDE87040FDF73ABB30B503461D781DB168
:103990000A4603E0AC4201D1181A30BD12F8014BBF
:1039A000002CF7D15B1CF1E730B503461D783DB123
:1039B0000A4612F8014B1CB1AC42FAD15B1CF5E788
:1039C000181A30BD2DE9F041144605460E4608464A
:1039D000FDF7D2F90746FDF78BFC0168086860B176
:1039E00001443CB116F8010B88B1085C641E05F86F
:1039F000010BF7D13846BDE8F081002CFAD016F85B
:103A0000010B002805F8010BF4D0641EF5E7002037
:103A10002870EFE701B5FDF725FA01BD431A28BF6D
:103A20009A427DF664AA104410F0030F11441EBFA1
:103A300011F8013D521E00F8013D10F0030F7FF414
:103A4000F6AF103AC0F00A8010B531E91850103ABC
:103A500020E91850BFF4F9AFBDE81040530724BF68
:103A600031E9081020E9081044BF51F8043D40F83E
:103A7000043D12F0030F08BF7047D20728BF31F88A
:103A8000023D48BF11F8012C28BF20F8023D48BF75
:103A900000F8012C704710B58820FCF7F5FC0028D1
:103AA00001D00021017010BD802902D808B1017831
:103AB00009B100207047012100F8081B704718B1B8
:103AC00000F10802914201D00020704700210170EE
:103AD0007047000070B50446FEF73DFD783405469A
:103AE00026462046FCF7D0FC040007D13146E869A1
:103AF000FFF7DAFF040001D1FEF728FC0AA104F168
:103B00002000D1E90021C0E900210021A162E16289
:103B100061612161A161E161A868E0606868A060FD
:103B200004F1780070BD000041524D00432B2B0082
:103B30000000000070B5FEF70EFD4469054614B99B
:103B40000020FEF703FCE06904F12006401CE06160
:103B50003046FEF78BFC002801D0266803E0286879
:103B600000F10100286002D04FF0000200E022685E
:103B70004FF000013046FCF70BFC3046FCF723FC0D
:103B80003046FEF7F8FB000073B50C46FEF7E3FC89
:103B900054F80C1C203C31B1E169491EE161016817
:103BA000491E01607CBD616804F1780509B12846B1
:103BB00088472846BDE87C40FEF7ABBCFEF760FCBA
:103BC0002846FEF7A6FCFFF7B5FF70B50D46A0F13D
:103BD00058044C49A160012140F85C1C40E91E5288
:103BE000FEF7B9FC01682A46491C01600021204605
:103BF000FCF7CEFB2046FCF7E6FB2046FEF7BBFBBE
:103C00002DE9FF4D9A4693460E468046FEF72EFC60
:103C1000002875D1A8F12000012708F1580805688F
:103C20000024CDF808803146284611F047FF10B136
:103C3000CAF8008062E0284612F0FDFF019030468D
:103C400012F0F9FF00903049019811F037FF20B9C8
:103C50002D49009811F032FF20B1DDE9001011F07C
:103C60003DFF08BB2849019811F028FFC0B1307A08
:103C7000297A00F0030001F00301641C31EA00021C
:103C80003ED130EA010100D077B1C00700D1002752
:103C90000298ED68F6680028C5D000680290C2E777
:103CA000012C02D06CB109D02AE01849304611F03D
:103CB00005FF18B1BBF1000F22D1B9E7BBF1000F2E
:103CC0001ED11349019811F0F9FE20B9114901984C
:103CD00011F0F4FEA0B100200090019033462A4676
:103CE00003A902A813F062F8002804D00399CAF8C7
:103CF00000101CB1022004B0BDE8F08D0120FAE7ED
:103D00000020F8E7893B00084C0E0208640F020807
:103D1000580E0208640E020810B5FEF71CFC01697B
:103D200019B100220261884701E040688047FEF730
:103D300014FAFEF7FFBB000010B5029C31B1012957
:103D40000DD003290BD004290BD108E04BB90F2A61
:103D500007D800EB820021684160002010BD0120DF
:103D600010BD022010BD10B5029C31B101290DD04B
:103D700003290BD004290BD108E04BB90F2A07D82F
:103D800000EB820040682060002010BD012010BDC3
:103D9000022010BD2DE9F04DC0B09846044631B167
:103DA000012918D0032979D0042979D176E0B8F116
:103DB000000F75D190B2231D00F40052A16B05E0F5
:103DC000C50701D020C91D6040081B1D0028F7D180
:103DD000F2BBA1635EE0150C96B2102D01D201205A
:103DE00000E000208246A819102801D9012700E030
:103DF0000027B8F1010F03D0B8F1050F50D101E051
:103E00003FBB01E020284BD84FF0000BBAF1000F68
:103E100008D02078012805D184F800B004F14800CA
:103E200080EC200B47B16078012805D184F801B0FF
:103E300004F1C800C0EC200BBAF1000F02D06846B4
:103E400080EC200B20A883460FB1C0EC200B01E0D2
:103E500020E025E06B46A06B08E0014603EBC502BD
:103E6000D1E900C1C2E900C108306D1C761EF4D250
:103E70004146B8F1010F00D0002100EB8100A063A2
:103E8000BAF1000F02D0184690EC200B17B158463B
:103E9000D0EC200B002040B0BDE8F08D0120FAE707
:103EA0000220F8E710B50468904801F10802436861
:103EB00003444FF0FF30934204D0136843F31E03D2
:103EC000134400E003460A6842F31E021144A14273
:103ED00002D89C4201D3012010BD002010BD33B593
:103EE0000446824881B0824D016842680144104412
:103EF000401AC21002980823801E029002A8009562
:103F000000F09BFC7B49002370B1026842F31E0263
:103F10000244A2644268012A09D0002A0ADA001D7C
:103F2000E064012020650BE00422636115E00222B9
:103F3000636112E042F31E02001D1044C4E9130342
:103F4000E26C1068002815DAC0F3036050B1012854
:103F50000AD002280CD0012263612046FCF718FA2F
:103F600009203EBD644800E06448606100203EBD19
:103F70006348FAE740F31E001044F6E70C46054696
:103F80002846216CFFF7ABFF50B9206C28616B69A4
:103F90002246294601209847072803D00828EFD059
:103FA000FEF7DBF8201DFCF701FAF0B50446C06807
:103FB000D3B00E46012768B35820FCF765FA050018
:103FC0002AD0142204F10C0105F10C00FCF78FFF3C
:103FD000182204F1200105F12000FCF788FF04F10C
:103FE000380005F1380C0FC88CE80F00E560F06B65
:103FF00030644022311D01A8FCF779FF8DF8007074
:104000008DF8017012AF32AD20461099FFF767FFAF
:10401000D0B910E0E760EAE7052236492046FCF710
:10402000B7F905E09DF8010010B92846D0EC200B47
:1040300053B00920F0BD63696A46214600209847C5
:10404000062809D00828DFD09DF800000028E9D113
:10405000384690EC200BE5E79DF8000010B9384693
:1040600090EC200B9DF8010010B92846D0EC200BF5
:1040700031462046FFF782FF0546006908640C467A
:104080000A466B69294602209847072803D008286A
:1040900004D0FEF762F8201DFCF788F92146284677
:1040A000FFF76CFF70B5C1680546D1B101291AD080
:1040B0000C46142205F10C000C31FCF718FF1822F5
:1040C00004F1200105F12000FCF711FF04F1380094
:1040D00038350FC885E80F002046BDE87040FCF772
:1040E00002BAFEF73AF80020E86070BDEC03000861
:1040F000A53E0008010000FFE3120008DD120008E1
:10410000000000008268002A02D00146012010470A
:1041100070477546FEF762FDAE4605006946534698
:1041200020F00700854618B020B5FCF77FF9BDE800
:1041300020404FF000064FF000074FF000084FF00E
:10414000000B21F00701AC46ACE8C009ACE8C0099F
:10415000ACE8C009ACE8C0098D4670472DE9FF4FB7
:104160001F464FF03C0987B04FF00042DDE91410C4
:1041700001F10108DDF858A002EA40500390002048
:1041800005908346054604460490B969461E089882
:104190008847AAF1010A0290BAF1000F3BDD0298AC
:1041A0002E2815D01021FDF7F3FC00282EDB4FF050
:1041B000010B0599014317D0B9F1000F0BDB4A46FB
:1041C000C11700F0BFFB05430C43A9F1040905E04A
:1041D000012004900BE008B145F001050120059095
:1041E000049820B9361D02E0049800B1361FB96961
:1041F000089808F101088847BBF1000FAAF1010AED
:104200000290C9D00999C1F80080C5E702987028CA
:1042100008D0502806D0F96908988847BBF1000FEC
:1042200014D04FE0002002900120BBF1000F049059
:1042300009D0B969089808F101088847AAF101096D
:10424000B9F1000F07DCF969089888476FF00100A1
:104250000BB0BDE8F08F2B2804D02D280CD14FF0E7
:10426000FF300490B969089808F101088847A9F15E
:104270000109B9F1000FE6DD411CE4D00A21FDF788
:1042800087FC0028DFDB029908F1010801EB8101BE
:1042900000EB41000290B969089888470A21FDF7B0
:1042A00077FC099AA9F10109B9F1000FC2F8008061
:1042B00001DD0028E7DAF96908988847049902982F
:1042C00000FB016655EA040004D004F040410900F7
:1042D00002D006E0039898E0A40044EA9574AD008B
:1042E000B61E04F00041080002D16D196441761E2B
:1042F000159810F0240F03D04FF00B095C4803E031
:104300004FF028096FF07D008246564507DAAAEB88
:1043100006018944B9F1410F01DD4FF04109012047
:104320000021A9F1010200F00DFB024628400B46D6
:104330002140084301D0012100E00021501E0291DC
:1043400043F1FF3128402140084301D0012000E023
:1043500000200299834651EA0B014FD00021084604
:104360004FF00000039900F4400039B100EB8000E9
:104370004FF4400100EBD07001EA60008015012885
:1043800002DD4FF0FF3000E013D0401C36D0029821
:1043900060B3BBF1000F0CD14A460120002100F0B0
:1043A000D1FA28402140084301D0012000E000203C
:1043B000E0B101204A46002100F0C4FA034640194A
:1043C0000A4661412D1A8C4111D3B9F1400F09DD24
:1043D000159810F0240F02D0AAF1340603E0AAF1D8
:1043E000170600E0761C00254FF0004406E05B1E37
:1043F00042F1FF3220EA030521EA0204CAF101007A
:10440000B04206DA1B49039808430190002000904F
:104410000EE0039AC4F3D321E80A0A43164940EA9E
:1044200044500A433146CDE90002684614F002FDCB
:10443000159810F0240F0BD01598C00715D13868C7
:10444000DDE90012031D3B600068C0E900120CE0CA
:1044500002A8694614F0D8FA1598C00705D1386843
:10446000029A011D3960006802604046F0E60000D3
:1044700002FCFFFF0000F07F0000F03F2DE9FF4F3E
:1044800092461D4685B04FF00041DDE9124BDDE953
:1044900014727F1E01EA4B50414940F0FF4940EA47
:1044A0000108002122F020004928049102D04E2862
:1044B00028D04CE03BA0012607C88DE80700A96979
:1044C0000698641C88477F1E014606D41DF8060026
:1044D00018B121F0200181420BD0E9690698884784
:1044E000032E34D0082E32D06FF0010009B0BDE8A1
:1044F000F08F761C032E01D0082EE0D1601CCAF884
:104500000000DCE7A9690698641C88477F1E2AD44E
:1045100020F02000412826D1A9690698641C88470C
:104520007F1E20D420F020004E281CD1A9690698B7
:10453000641C88477F1E48F4002849F48009CAF8A3
:10454000004001D4282806D0E969069888475FEA28
:10455000CB7012D022E0A9690698641C88477F1EA0
:1045600001D4002803DAE96906988847BCE72928BE
:10457000F1D1641CCAF80040E9E71BF0240F07D012
:1045800028680499031D2B600068C0E9001805E045
:104590002868021D2A600068C0F800902046A5E740
:1045A0000000F07F494E46494E4954590000000032
:1045B00010B508E030F8024B9C4204D10AB100204B
:1045C00010BD012010BD491EF4D2104610BD10B51B
:1045D0000446FCF78DFED0E902121068104444F83E
:1045E000100B5068104444F80C0C9068104444F8C8
:1045F000080C8868084444F8040CC8680844206023
:1046000008690844606048690844A06088690844F3
:10461000E060C86908442061086A0844606108785D
:104620002076487860768878A076C878E076087931
:104630002077487960778879A077C879E07710BDCE
:1046400070B50646484231EA00000FD02A20741C9B
:1046500000253070FCF74CFE0346002253F825007D
:10466000010F000109292BD957312AE0042913D061
:1046700004DC012908D0022904D109E008290FD05F
:10468000102911D0002070BDFCF732FE00680EE04A
:10469000FCF72EFE40680AE0FCF72AFE806806E080
:1046A000FCF726FEC06802E0FCF722FE006928B194
:1046B00020F0030050F8041C084470BD49A070BDF0
:1046C0003031521C082A04F8011BC9D36D1C052D7A
:1046D000C3DB00202070304670BD2DE9F047E1B10A
:1046E0004B091AD132B113782A2B06D0BDE8F04716
:1046F00000F02AB8BDE8F047A2E753786BB1551C2B
:1047000081460F464FF0010800240026314615F877
:10471000010B392804D8303803E00020BDE8F087C9
:104720005738491C082940EA0616F0D308FA04F065
:10473000384203D0FCF7DCFD40F82460641C052CF3
:10474000E3DB39464846D5E72DE9F0410C460646FD
:10475000154688070AD511462348784418F098F979
:10476000071E3CD0FCF7C4FD7F1C4760E0070AD061
:1047700029461D4878441A3818F0B6F9071E2ED07D
:10478000FCF7B6FD076060070AD52946164878444D
:10479000343818F0BFF9071E21D0FCF7A9FD876057
:1047A00020070AD52946104878444E3818F086F973
:1047B000071E14D0FCF79CFDC760E0060AD5294609
:1047C000094878446838AFF30080051E07D0FCF72D
:1047D0008FFD056121463046BDE8F04130E7BDE878
:1047E000F08100004300000066D1010070B516465C
:1047F0000C460546FBF72CFE036893F801010128DF
:1048000004D0185D68B101202C8070BDD3F803017D
:104810003246214603F2031303442846BDE87040A4
:1048200018474FF0FF3070BD10B50446AFF300805D
:104830002046BDE81040FBF77BBD2DE9F0479846C8
:1048400014460F468246DDF8209094B1012C0BD01F
:104850004A465046650805FB0876314690470028D1
:104860000CD00DDA2C46F0E74A46394650469047C0
:1048700010B10020BDE8F0873846FBE73046F9E785
:10488000641B641E06EB0807DFE7002801D014F064
:104890001DBC704710B5002102A000F066F8012091
:1048A00010BD0000534947414252543A2041626EC4
:1048B0006F726D616C207465726D696E6174696F81
:1048C0006E00000010B5012805D0002103A000F003
:1048D0004CF8012010BD09A1F8E7000053494752E8
:1048E000544D454D3A204F7574206F6620686561C0
:1048F00070206D656D6F7279000000003A20486588
:104900006170206D656D6F727920636F7272757062
:104910007465640038B5684611F0F8F80420FFF7B4
:10492000D9F8694611F0EAF80446684611F0FDF836
:10493000024A03492046FFF748F900002B5B0108B3
:10494000AC0E0208B2F120030AD5C2F1200301FA2D
:1049500002F120FA03F300FA02F041EA0301704782
:1049600000FA03F14FF00000704770B505460C46A1
:104970000A2000E06D1C14F02DFD35B128780028C8
:10498000F8D102E0641C14F025FD14B12078002851
:10499000F8D1BDE870400A2014F01CBDFDF794FD6D
:1049A000FDF792FDFBF7E4FCFDF78EFDFBF7E0FC65
:1049B0005FEA400C08BF91F0000F4FEA8C234FEAEA
:1049C000C12243EA51514FEA1C5018BF00F5F04094
:1049D0004FEA300018BF41F000415FEA6C5C00F024
:1049E0002980BCF1FF3F08BF40F080407047130CA6
:1049F00006BF12044FF0100C4FF0000C130E04BF52
:104A000012020CF1080C130F04BF12010CF1040C7C
:104A1000930F04BF92000CF1020CD30F04BF52009D
:104A20000CF1010C11464FF00002A0F11F00A0EBA9
:104A30000C00704711F0004F08BF704731F0004183
:104A40003FF4D5AF0B0C06BF09044FF0100C4FF02C
:104A5000000C0B0E04BF09020CF1080C0B0F04BF75
:104A600009010CF1040C8B0F04BF89000CF1020C3E
:104A7000CB0F04BF49000CF1010CCCF12003A0EBDB
:104A80000C0022FA03F302FA0CF241EA030100F1EE
:104A90000100704720F07F4C80EA030023F07F473D
:104AA000ACEB070303F57C5300F0004003F1FF0378
:104AB0002DE980494FEA154B09B44FEA144325EA22
:104AC0000B4E24EA03480FF2042606EB132749088D
:104AD0003E785FEA320203FB0667C7F5000707FB73
:104AE00006F64FEA54374FEAD64606F1020607FBB0
:104AF000066CCCF1005C4FEA1C472CEA074C07FB24
:104B000006F40CFB06F504EB15464FEA961634BF87
:104B100000204FF000404FEAD13706FB07FC4FEA78
:104B20001C4C0CFB0BF7D21B03FB0CF761EB0701D2
:104B30000CFB0EF7B0EB074072EB17420CFB08F7CB
:104B400034BFA2EB0742B2EB074261EB17414FEAD9
:104B50000C444FEA910706FB07FC4FEA1C4C0CFB88
:104B60000BF7B0EBC74072EB573203FB0CF734BFC7
:104B7000A2EBC742B2EBC74261EB57310CFB0EF719
:104B8000B0EBC70072EB57720CFB08F734BFA2EB17
:104B9000C702B2EBC70261EB5771039F4FEA816115
:104BA00041EA921104EBCC044FEAD1374FEA82621A
:104BB00006FB07FC42EA90124FEA80604FEA1C4C69
:104BC0000CFB0BF7D21B03FB0CF761EB07010CFB93
:104BD0000EF7B0EB074072EB17420CFB08F734BF3F
:104BE000A2EB0742B2EB074261EB17414FEA8C554B
:104BF0004FEA910704EB9C2406FB07FC4FEA1C4C90
:104C00000CFB0BF7B0EBC74072EB573203FB0CF712
:104C100034BFA2EBC742B2EBC74261EB57310CFB8A
:104C20000EF7B0EBC70072EB57720CFB08F734BFFE
:104C3000A2EBC702B2EBC70261EB577115EB4C2533
:104C40004FEA816141EA92114FEA82624FEAD1371D
:104C500042EA901206FB07FC44F100044FEA806030
:104C60004FEA1C4C0CFB0BF7D21B03FB0CF761EB60
:104C700007010CFB0EF7B0EB074072EB17420CFB81
:104C800008F734BFA2EB0742B2EB074261EB1741D2
:104C900015EB1C154FEA813141EA92414FEA82320D
:104CA00042EA90424FEA80304FEA0C7644F1000429
:104CB00048EA03434EEA0B484FF0000EB2EB080CF3
:104CC00071EB030724BF624639464EEB0E0E4FF0E0
:104CD000000B0018524149414BEB0B0BB2EB080C97
:104CE00071EB03077BF1000B24BF624639464EEBA4
:104CF0000E0E4FF0000B0018524149414BEB0B0BCD
:104D0000B2EB080C71EB03077BF1000B24BF62468A
:104D100039464EEB0E0E51EA020718BF46F0010667
:104D200016EB0E7655F1000254F1000103D5BDE8F3
:104D30008901BDE80088BDE88901BDE80048B619D1
:104D4000524141EB0101A3F10103704780807F7E56
:104D50007D7C7B7A797877767675747372717170F1
:104D60006F6E6E6D6C6C6B6A6A69686867666665A3
:104D70006464636362616160605F5F5E5E5D5D5C31
:104D80005C5B5B5A5A5959585857575656555555A2
:104D90005454535352525251515050504F4F4F4E02
:104DA0004E4D4D4D4C4C4C4B4B4B4A4A4A49494950
:104DB0004848484747474746464645454544444492
:104DC00044434343434242424241414146EA06464C
:104DD000A3F570534FEA164646EA42564FEAD222EE
:104DE00042EA415210B54FEAD121A3F1010300F08C
:104DF00017F820F0004000F1010C00F0004701EB33
:104E000000501146BCF5006F40EA070000D210BD0B
:104E100002484FF0000140EA070010BD0000F07F9B
:104E2000002B26D4770021D01CB54FEA370703B4F6
:104E30004FF010004FF010014FF000000FBCBDE824
:104E400010400BF1010BBBF1010F08BF5FEA170720
:104E500022BF12F1010211F101014FF0004143F1B3
:104E6000000300F0004043EA00007047F9D3570800
:104E7000DAE746EA064613F1400F4FEA16461FDD11
:104E800013F1200FDFBF16430A46002120335B4297
:104E9000C8D0C3F1200746EA064602FA07F74FEAF0
:104EA000164646EA0706C3F1200722FA03F201FA82
:104EB00007F721FA03F14FF0000342EA0702B1E7D6
:104EC00046EA020646EA06464FEA164646EA010662
:104ED000BCBF46EA0646360C4FF000034FF0000216
:104EE0004FF000019EE72DE9C048934630B491E8A9
:104EF000380007C831EA400C48BF34EA430C03D5F8
:104F0000FFF7C8FDFFF78CFFF0BCBDE800882DE976
:104F1000C048934630B491E8380007C831EA400CE5
:104F200048BF34EA430C03D5FFF7B4FDFFF74EFF4B
:104F3000F0BCBDE800882DE9C048934630B491E844
:104F4000380007C810F0804F08BF13F0804F03D11E
:104F500000F019F8FFF764FFF0BCBDE800882DE908
:104F6000C048934630B491E8380007C810F0804F2D
:104F700008BF13F0804F03D100F005F8FFF726FFBC
:104F8000F0BCBDE8008820F07F4780EA030023F0F2
:104F90007F4C07EB0C03A3F57C5300F00040A3F11A
:104FA000FE0392F0000F00F0B38095F0000F00F0C8
:104FB00077802DE901494FEA11404FEA144621EA72
:104FC000004800FB06FC24EA064708FB06F607FB40
:104FD00008F800FB07F718EB06484CEB164C4FEAB5
:104FE000124B18EB07484FEA15464CEB174022EAE4
:104FF0000B4E0BFB06FC25EA06470EFB06F607FBED
:105000000EFE0BFB07F71EEB064E4CEB164C4FF05B
:1050100000061EEB074E4CEB174B18EB0B0840F14C
:10502000000018EB0E0B58EB000840F100008F1A3F
:105030004FF000013CBFC943661B14BFB5EB040C25
:1050400000213CBFC943F61B4FEA17444EEA8E0EBF
:1050500027EA04454FEA1C4704FB07622CEA074C89
:1050600005FB07F70CFB05F604FB0CFC16EB0746EB
:1050700042EB174216EB0C4642EB1C421BEB0606BA
:1050800058EB0202414146EA9E0601D5BDE801897E
:10509000B619524141EB0101A3F10103BDE80189B9
:1050A0004FEA14454FEA114724EA054621EA074C26
:1050B00005FB07F406FB07F70CFB06F105FB0CFCF0
:1050C00011EB074144EB17444FEA124711EB0C4137
:1050D00044EB1C4422EA074C05FB07F206FB07F7EA
:1050E0000CFB06F605FB0CFC16EB074642EB1742E1
:1050F00016EB0C4642EB1C456A1854F1000148BF00
:105100007047B619524141EB0101A3F10103704709
:1051100095F0000F37D04FEA11424FEA144721EAC9
:10512000024624EA074C02FB07F106FB07F70CFBDB
:1051300006F402FB0CFC14EB074441EB17414FEA69
:10514000154714EB0C4441EB1C4125EA074C02FBCC
:1051500007F506FB07F70CFB06F602FB0CFC16EB4B
:10516000074645EB174516EB0C4645EB1C4212195A
:1051700051F1000148BF7047B619524141EB01019E
:10518000A3F1010370474FEA14454FEA114724EA9F
:10519000054621EA074C05FB07F106FB07F70CFB68
:1051A00006F24FF0000605FB0CFC12EB074241EB48
:1051B000174112EB0C4251EB1C4148BF704792184B
:1051C00041EB0101A3F101037047000010B5044653
:1051D0000F2304220249034811F0A0FD10BD000076
:1051E00087D20108F805002038B50446684617F054
:1051F00074FE0146204618F01FF838BD002981686A
:1052000002D041F0010101E021F00101816070470D
:10521000084B10B5D3F8042307490A40D0E900141D
:105220002143D0E90240044321431143C3F804134E
:1052300010BD000000200140E030FCFF00210160B3
:1052400041608160C16070470029816802D041F4EB
:10525000807101E021F480718160704700298168CC
:1052600002D041F4007101E021F4007181607047C7
:1052700010B501210C02204602F098FE2046BDE840
:105280001040002102F092BE30B542680F4B0C79FD
:105290001A400B6842EA04221343436082680C4BB5
:1052A0004D791A40D1E9034323438C6844EA45040D
:1052B000234313438360C26A097D22F47002491EAE
:1052C000C9B242EA0151C16230BD0000FFFEFFFCDD
:1052D000FDF7FFC070B5072409290AD9C568A1F1F7
:1052E0000A0606EB4606B440A543B3401D43C5601D
:1052F00007E0056901EB4106B440A543B3401D43F7
:1053000005611F23072A09D2446B521E02EB820259
:1053100093409C4391400C43446370BD0D2A09D2D5
:10532000046BD21F02EB820293409C4391400C43DA
:10533000046370BDC46A0D3A02EB820293409C4341
:1053400091400C43C46270BD816841F0804181602E
:10535000704700210160017141718160C16001618C
:10536000012101757047000010B5024800680BF07C
:1053700061F810BDB40000200348006840F004004C
:1053800001490860704700000464004010B50248FD
:1053900000680BF065F810BDB400002010B502489D
:1053A00000680BF047F810BDB40000200348006807
:1053B00040F00400014908607047000004680040A4
:1053C00010B5024800680BF04BF810BDB400002087
:1053D000094910B588424FF0010101D14C0601E0A6
:1053E0004FF08064204602F0C9FD2046BDE8104021
:1053F000002102F0C3BD000000640040F0B5827AD5
:10540000012191402E4A136843F0010313602C4B95
:105410001C331C688C431C60294D067B294C0C35C1
:10542000A6B92E688E432E604688C78846EA07468E
:10543000877A04EBC707C7F840660688878846EA7C
:105440000746877A04EBC707C7F84466067B012E38
:1054500012D12E680E432E60867A056804EBC606CC
:105460004FEA3545C6F84056867A456804EBC604CF
:105470004FEA3545C4F84456114CC57A241D002D19
:10548000256806D00D4325600D4C0589143415B1EF
:1054900004E08D43F7E725688D4325600589012DDC
:1054A00002D125680D432560407B012802D1186890
:1054B00008431860106820F001001060F0BD000083
:1054C0000066004000600040002A426901D00A43A3
:1054D00000E08A434261704710B50368002223F060
:1054E00002030360036843F0010303604FF6FF7398
:1054F00000E0521C4468E40701D19A42F9D14268A5
:10550000D2073ED08A79012A02683CD022F080027C
:105510000260CA79012A026838D022F04002026093
:105520000A7A012A026834D022F0200202604A7A04
:10553000012A026830D022F0100202608A7A012A21
:1055400002682CD022F008020260CA7A012A02689E
:1055500028D022F0040202608A78CC78920742EACE
:1055600004620C7942EA04424C79098842EA045206
:10557000491E0A43C261016821F001010160002156
:1055800014E0002010BD42F08002C1E742F040026A
:10559000C5E742F02002C9E742F01002CDE742F031
:1055A0000802D1E742F00402D5E7491C4268D2075D
:1055B00001D09942F9D14068C007E2D1012010BD65
:1055C00010B500EB0113D3F8B04114F004041472C9
:1055D000D3F8B04134D0E408C2F80440D3F8B04165
:1055E00004F002045472D3F8B44104F00F0494722E
:1055F000D3F8B441240AD474D3F8B841D472D3F8A0
:10560000B841240A1473D3F8B841240C5473D3F866
:10561000B841240E9473D3F8BC41D473D3F8BC4181
:10562000240A1474D3F8BC41240C5474D3F8BC314C
:105630001B0E937439B1016941F02001016110BD65
:10564000640D1460CAE7C16841F02001C16010BD5B
:1056500000218171C171017241728172C1728170C8
:10566000C170032101710221417101210180704744
:1056700030B50246002093685B0108D490680001B1
:1056800001D5012003E09068C00037D5022002EB6D
:105690000012D2F8803103F00103C2F880310B7A96
:1056A00073B3D2F880414D681C434B7A43EAC5037B
:1056B0001C43C2F880418B7A03F00F038B72D2F83F
:1056C000843123F00F03C2F88431D2F884318C7A0C
:1056D0002343C2F88431CB7ACC6843EA0423C2F86E
:1056E0008831CB7B096943EA0121C2F88C11D2F8D9
:1056F000801141F00101C2F8801130BD042030BD9D
:10570000D2F880314C7A23430C8843EA4453C2F8E0
:105710008031D0E710B50022044B03E050F822405E
:105720001C60521C8A42F9D3186810BD0030024038
:1057300001490860086870470030024001490120B3
:105740008860704700300240044A0123834010689B
:1057500009B1184300E0984310607047007400409E
:10576000044A93148340106809B1184300E0984339
:10577000106070470074004010B501214C072046AE
:1057800002F0FCFB2046BDE81040002102F0F6BB11
:1057900030B5084C236840F6FE7282409343D1E94D
:1057A00000252A43D1E902510D432A4382401A437E
:1057B000226030BD00740040034A08B51044083030
:1057C0000090016008BD000000740040034A08B565
:1057D000104414300090016008BD000000740040C7
:1057E0000309054A012098400029116801D00143AE
:1057F00000E08143116070470474004000210160A3
:1058000041608160C160704710B50A460C0601F026
:105810007F0303EB830100EBC10102D501F58E711B
:1058200001E001F55D71D2090B704A7006F058FC79
:10583000002010BD0A4610B5090602F07F0306D508
:1058400003EB830100EBC10101F58E7105E002EB72
:10585000820100EBC10101F55D7100248C700B70B9
:10586000D2094A7006F023FC002010BD10B50A06CC
:1058700004D501F07F0106F061FD01E006F042FD74
:10588000002010BD70B50C460E0601F07F0505EB3B
:10589000850100EBC10102D501F58E7101E001F532
:1058A0005D71E4090D704C708A60CB7000D0CD80C2
:1058B000022B01D100220A7106F0D0FB002070BD3E
:1058C00010B501F07F0404EB840100EBC101C1F8C5
:1058D0008833C1F880230023C1F88C3381F87533F5
:1058E00081F87443C37801F55D71012B00D10A6121
:1058F00014F0FF0F03D006F025FC002010BD06F0C9
:105900003FFBFAE70069002261F30A1201681143C4
:10591000016070470A4610B5090602F07F0306D5FC
:1059200003EB830100EBC10101F58E7105E002EB91
:10593000820100EBC10101F55D7101248C700B70D7
:10594000D2094A7006F0E6FB002010BD70B511F0D8
:105950007F0404EB840100EBC1014FF0010581F8E5
:105960001D5181F81C41C1F82821C1F82C2101F5F5
:105970008E714FF00002C1E9053203D006F0E2FB60
:10598000002070BD06F0FCFAFAE700002DE9F041B6
:105990000646002506F056FE074655E0F80751D0AA
:1059A0003069EAB20369416BD14006EB820201F033
:1059B0000101926943EAC11194680C40E1071AD0D1
:1059C0000124426B04FA05F18A43426306EB850029
:1059D000806984601F48E9B2006842683046904799
:1059E000F078012807D135B996F81101042802D1C1
:1059F000304606F021FB200704D506EB850008247D
:105A000080698460E00604D506EB85001024806977
:105A10008460600604D506EB8500402480698460BC
:105A2000A00704D506EB8500022480698460200667
:105A300008D52946304600F067F906EB850180203D
:105A4000896988607F086D1C002FA7D10120BDE8FF
:105A5000F0810000A40200202DE9F0410646002458
:105A600006F0F6FD0746DFF8988043E0F8073FD0E0
:105A7000E1B2304606F0F2FD0546C00725D006EB40
:105A800084000125416D8D60F17801290CD1406DB4
:105A9000016904EB840006EBC000C1F31201D0F8E9
:105AA0007C23511AC0F88C13D8F80000E1B20268C8
:105AB00030469047F078012807D134B996F81101A3
:105AC000052802D1304606F0B7FAA80704D506EB40
:105AD00084000225406D8560280709D5D8F80000AC
