:020000040800F2
:1000000030AB002055A100085DA100085FA10008E9
:1000100061A1000863A1000865A1000800000000BC
:1000200000000000000000000000000067A10008C0
:1000300069A10008000000006BA10008C1040108CC
:100040006FA100086FA100086FA100086FA1000850
:100050006FA100086FA100086FA100086FA1000840
:100060006FA100086FA100086FA100086FA1000830
:100070006FA100086FA100086FA100086FA1000820
:100080006FA100086FA100086FA1000869040108B2
:100090004D0401086FA10008590401086FA1000870
:1000A0006FA100086FA100086FA100086FA10008F0
:1000B0006FA10008D90401086FA100086FA1000812
:1000C0006FA100086FA100086FA100086FA10008D0
:1000D0006FA10008BB8800086FA100086FA100088D
:1000E0006FA100086FA100086FA100086FA10008B0
:1000F0006FA100086FA100086FA100086FA10008A0
:100100006FA100086FA100086FA100086FA100088F
:100110006FA100086FA100086FA100086FA100087F
:100120006FA100086FA100086FA100086FA100086F
:100130006FA100086FA100086FA1000891040108D9
:10014000750401086FA10008810401089D040108DD
:100150006FA100086FA100086FA100086FA100083F
:100160006FA100086FA100086FA100086FA100082F
:100170006FA100086FA100086FA100086FA100081F
:100180006FA10008DFF814D00FF092FD0EF06AF8AE
:10019000004800472BF600080FF06EF930AB002046
:1001A000FEB442464B4654465D463EB40DF0ABFCB1
:1001B0003EBC90469946A246AB46FEBC00F032F8E3
:1001C000704700BF80EC200B7047C0EC200B7047DD
:1001D00090EC200B7047D0EC200B704785460D98B3
:1001E000DDF838E00F9B5DF8042B20E90C009DE85A
:1001F000FE1F854601BD4DF808ED0DF1080E4DF8C6
:1002000004ED2DE9FF1F002102B4694681B00FF013
:100210009AFCDDF840E012B0704700004CD90100B4
:10022000D4E001004DF808ED0DF1080E4DF804ED95
:100230002DE9FF1F002102B4694681B00FF0EABC2E
:1002400010B5724818F00CFF7149431C4FF00002C2
:1002500011D00B68002B1DDD4B687E2840EA03237C
:100260004B6014D0412812D0422810D043280ED021
:1002700044280CD016E00868002813D001DAC0F139
:1002800000008B6898420DDA0A60486810BD184675
:100290000A6010BD1B2801D00A6010BD8A68521D7B
:1002A000C1E900204FF0FF3010BD2DE9F0410500FD
:1002B00048D0686908B957486861284600F0EAFDE7
:1002C00080464FF0FF3700BFFFF7BAFF06461A28F7
:1002D00015D004DCBE4230D0192E09D110E04E48B2
:1002E000301802D04D49C84202D10020BDE8F0814B
:1002F0003946304608F057FB04000ED11DE0FEE7FA
:10030000BFF34F8F46480168464A01F4E06111434C
:100310000160BFF34F8FFEE7641C20782028FBD0DC
:100320006969204688470146207818B111B13EA07E
:1003300017F034F9696900208847761CC4D140461B
:1003400000F0A8FD2846D1E710B501217F2006F076
:100350006DF800F07FFB05F020FC00F001FB4FF48E
:10036000967000F064FB002332A21946334800F077
:10037000B1F84FF4612008F0D9FA314C014600235E
:1003800030A22060AFF2DD0000F0A4F8012231A11C
:10039000314803F05AFF012230A1314803F055FFE4
:1003A000206800F077FD7C2005F03CFF01281BD081
:1003B0007D2005F037FF01281FD07E2005F032FF99
:1003C00001281CD07B2005F02DFF012819D07A20B0
:1003D00005F028FF06F0CAF822A000F03AFCBDE8BC
:1003E0001040002000F056BD214822490068B0FBB3
:1003F000F1F121A017F0D2F8ECE726A002E02AA044
:1004000000E02EA017F0CAF8E4E700000801002081
:10041000B4000020F77E0008A5B0E4FFDD1AE9A4CF
:100420000CED00E00400FA052E2E2E20575446282D
:10043000256429004957444700000000310A00089C
:10044000800100205061727365436F6D20434F4DF2
:1004500030000000303A00003C050020313A000036
:1004600070070020406366672E696E690D0000000A
:100470005001002040420F000D202E2E2E205357F9
:10048000522072657365742C2025644D487A0D0ADC
:100490003E0000000D202E2E2E204957444720728A
:1004A000657365740D0A3E000D202E2E2E205757C1
:1004B00044472072657365740D0A3E000D202E2E90
:1004C0002E20706F776572206F6E20726573657471
:1004D0000D0A3E00F8B507461C4615460E46182084
:1004E00018F0E8FD009090B10760F749C0E9016598
:1004F0000968C0E90314F54C206820B94FF4007076
:1005000000F0DCFA20600422694600F0FAFA009854
:10051000F8BD38B5ED4D286800281BD00422694687
:1005200000F00CFB002815D00099E74CC868226841
:1005300090420ADC2268101A4861486809688847B6
:100540000098226801691144C16004226946286844
:1005500000F0D7FA38BDF8B5DC4C06460F462068E7
:1005600000F002FB850813E004226946206800F0D1
:10057000E5FA00980168B14205D14168B94202D15B
:1005800018F046FD04E004226946206800F0B9FA3C
:100590006D1EE9D2F8BD2DE9F843CC4D07468846DB
:1005A000286800F0E1FA8608002414E00422694675
:1005B000286800F0C3FA00980168B94206D1426881
:1005C000424502D0B8F1000F00D10446042269462A
:1005D000286800F096FA761EE8D22046BDE8F88337
:1005E0007CB5BA4D286800F0BFFA8408B8A016F0B0
:1005F000D5FF11E0042201A9286800F09FFA0198B4
:100600004169009190E80E00B3A016F0C7FF0422E4
:1006100001A9286800F075FA641EEBD27CBD70B5A4
:10062000A94E0C4631680D1801E004B1A0473068AE
:100630008542FADC70BD10B5ADF50A7D0146012298
:10064000684603F027FE18B105200DF50A7D10BDA0
:10065000A64C2168C1F818D02068FFF726FEDDE916
:1006600002018842F8D1216800208861684604F0C0
:1006700067F80020E9E72DE9F04180460AF0CCF860
:100680000646002505EB8500002408EBC007B0886E
:100690003A5D604381B2F088684380B20AF003F9A2
:1006A000641C282CF3DB6D1C142DEBDB4146AFF2F0
:1006B0003900FFF770FF8449096841F2883211441C
:1006C000C1604046BDE8F0812DE9F0470D46814606
:1006D0000021AFF25D00FFF75EFF0746B9F10000B1
:1006E0004FF000064FF0200854D0002F7ED07C68D9
:1006F0002946D4F828239047401C14D0082D3CD01C
:100700000A2D17D00D2D12D0D4E9C80101EB8101BB
:1007100004EBC102411CC4F820138554D4F8200313
:1007200028282FD031E04FF0FF30BDE8F087C4F823
:1007300020632AE0D4F82403132803D0401CC4F813
:10074000240322E0002101EB8102002004EBC2021D
:10075000131893F828301354401C2828F8DB491C40
:100760001329F0DB01EB81010020424604EBC101BB
:100770000A54401C2828FBDB07E0D4F8200320B1F2
:10078000401E00E02720C4F820034F480068401DA9
:10079000F86051E057B37C685548D4F82C130068D2
:1007A00081420BD011B1D4F828230A61C4F82C037C
:1007B0000169C4F82813AFF2EF010161002142463C
:1007C00001EB8103002004EBC3031A54401C2828CA
:1007D000FBDB491C1429F3DBC4F82463C4F8206351
:1007E00009F002FF00200AF00FF800E009E04FF6E0
:1007F000E0700AF002F83F4809F0EAFE681C10D0E9
:100800001AE04FF44C7018F055FC044644F620638F
:1008100039A20146C0F82C63AFF2A510FFF75AFECB
:10082000BAE7D4E9CA0108612146AFF2B510FFF773
:1008300092FE204618F0ECFB284676E7202248403E
:100840002E4905E0002802DA81EA400000E040007D
:10085000521EF7D2704770B50D4690F9001004464D
:100860002A2920D095F90000D0B10DF082F9064672
:1008700094F900000DF07DF9864201D1012000E0DD
:10088000002021783F2905D00021084306D0691CAB
:10089000601C13E00121F8E7012070BD002070BD4D
:1008A0000029FBD1F8E72946601CFFF7D4FF002898
:1008B000F2D128780028F1D0691C2046FFF7CBFF41
:1008C0000028EBD0E8E70000BC000020C8000020B2
:1008D0002E2E2E0D0A000000253038582C253038D9
:1008E000582C25732C25640D0A00000008010020F7
:1008F00004010020B00300204C636400B71DC10454
:1009000038B504460121080305F090FD06F01EFFEE
:1009100009480A49081A8108074806F01FFF6421A0
:1009200094FBF1F201FB124294FBF1F1009004A35D
:1009300006A016F033FE38BD0000000800000408D1
:100940004D61792031382032303137002025642E36
:10095000253032642025732C203C253038583E0049
:1009600038B54FF4C06006F015FB01208DF801008A
:1009700003248DF802408DF8030019208DF8000043
:10098000684606F00CFB02208DF801003C208DF833
:100990000000684606F003FB1F208DF80000684643
:1009A00006F0FDFA20208DF80000684606F0F7FA00
:1009B0008DF8014014208DF80000684606F0EFFA2B
:1009C00040208DF80000684606F0E9FA13208DF803
:1009D0000000684606F0E3FA3F208DF80000684604
:1009E00006F0DDFA28208DF80000684606F0D7FAF8
:1009F00017208DF80000684606F0D1FA12208DF815
:100A00000000684606F0CBFA1D208DF8000068460D
:100A100006F0C5FA1E208DF80000684606F0BFFA01
:100A200025208DF80000684606F0B9FA38BD7047F9
:100A3000704710B50121C80205F016FD4FF4C070D3
:100A400009F0A6FB412009F0AAFBBDE810407F2079
:100A500009F0BBBB7FB5684605F084FC042006F0B6
:100A6000DFFA01984FF47A71B0FBF1F14FF0FF35E6
:100A7000B1F1807F0DD221F07F404FF0E024401E85
:100A800060610F21284600F009F80020A0610720CE
:100A900020610321284600F001F87FBD0907090EF7
:100AA000002806DA00F00F0000F1E02080F8141DA5
:100AB000704700F1E02080F80014704770B5051E03
:100AC00012DD182101200DF0E3F804000CD0012103
:100AD00028460DF0DDF8A0606060656120600028A8
:100AE000204602D118F094FA002070BD10B5040021
:100AF00005D0206818F08CFA204618F089FA0020FA
:100B000010BD70B50024436813E08568EE1A012E0D
:100B100011D05E1B45696D1EAE420CD011F8015B11
:100B200003F8015B466905682E449E4200D12B46BE
:100B3000641C9442E9DB4360204670BD70B500241C
:100B4000836809E013F8015B0D5546690568641C6C
:100B50002E449E4200D12B46521E02D345689D4230
:100B6000F0D18360204670BD002804D0D0E9011286
:100B70008A4201D8881A70474069801A0844704731
:100B800008B50021009101226946FFF7D7FF08B19F
:100B9000009808BD4FF0FF3008BD03B5012201A940
:100BA000FFF7AFFF012802D04FF0FF300CBD0198D6
:100BB0000CBD70B50D4606461C2101200DF068F8ED
:100BC00004001BD03046FFF779FF20602846FFF76E
:100BD00075FFAFF25301E1606060AFF24101216146
:100BE00000216161216829B108B1204670BD084625
:100BF00018F00EFA606808B118F00AFA002070BD0B
:100C000010B504000CD02068FFF770FF6068FFF794
:100C10006DFFA06808B118F0FBF9204618F0F8F94C
:100C2000002010BD10B583680DE004689C4201D11E
:100C30004369234444685B1EA34202D14FF0FF3056
:100C400010BD8C5C1C70521EEFD2836091F90000C5
:100C500010BD70B5164D0446286848B120460CF00A
:100C6000C8FF0246286821460068BDE87040D9E701
:100C70004FF0FF3070BD01B50D48006828B1006825
:100C800001226946FFF7CEFF08BD4FF0FF3008BDD7
:100C90001CB56B46012201A903F0A3FB00980128B3
:100CA00002D04FF0FF301CBD9DF804001CBD0000B9
:100CB0000801002070B5694D421C11D0684C00231A
:100CC000A4F12802E9B14E1C25D045F8201000BF40
:100CD00034F8101052F82000BDE8704005F052BA08
:100CE0005FF0000455F8240038B1401E45F8240098
:100CF00003D100212046FFF7DDFF641C0A2CF1DB45
:100D000070BD45F8203034F8101052F82000BDE8CE
:100D1000704005F039BA45F82030D9E770B54F4C2E
:100D200032210C3C2068401C90FBF1F2206001FB5A
:100D300012000A25A8B90021A068FFF7BBFF606870
:100D4000401C90FBF5F105FB11016160A068814238
:100D500007D1401C90FBF5F105FB11001421FFF7B2
:100D6000A9FF206840F2F51190FBF1F201FB12009F
:100D7000002812D16068A06090FBF5F105FB11001E
:100D80001421FFF797FFA068401C90FBF5F105FBCD
:100D90001100BDE8704000218CE770BD2DE9FC47D3
:100DA00006460F46684605F0C4F94FF001098DF874
:100DB00004904FF0000A8DF806A01FB1284D0024C2
:100DC000283D48E0002327A21946AFF2AF00FFF705
:100DD00081FBBDE8FC8700BF56F8240090F90000B5
:100DE000613809281AD2DFE800F005070B0D0F1152
:100DF000131517001E4800E01E4845F824000FE0B8
:100E00001D48FAE71D48F8E71D48F6E71D48F4E7D6
:100E10001D48F2E71D48F0E71D48EEE745F824A01D
:100E200056F82400401C46F824000DF00EFADFF8B6
:100E3000308009FA00F001B228F81410009155F83A
:100E40002400694605F024F938F8141055F82400F8
:100E500005F09AF9641CBC42BEDBBAE7D80000205A
:100E6000CC0900205F6C6967687473686F77000055
:100E7000000002400004024000080240000C024052
:100E8000001002400014024000180240001C024002
:100E900000200240B7490B1F0A681860086010461E
:100EA000704770B50646B3480C46001F75B28142C4
:100EB00015D1206820B910E0AF490220FFF7AFFB41
:100EC00021680A69486831469047401CF4D0206880
:100ED000816911B1284604F08CFC304670BD28466B
:100EE000BDE8704004F085BC10B50446A1494FF040
:100EF000FF308C4210D1216800290FD00868C968E2
:100F0000884721688969002908D0421C06D1084613
:100F1000BDE81040FFF7BCBE2046F9E710BD0068F1
:100F2000806903F00DBC00688069D0E9021081423D
:100F300001D1012070470020704770B50C46002693
:100F40004FF4097018F0B6F805003AD094F9000093
:100F5000612808D0722802D0772832D101E001221E
:100F600022E00A2220E00A224FF0FF361CE054283B
:100F70001AD00CDC442817D004DC202814D02B28ED
:100F80001FD10DE052280FD053280DD019E0622850
:100F90000AD0632808D06E2806D0742804D010E048
:100FA00022F0080040F0030214F9010F0028DED1FE
:100FB000D2B272A1284603F06DF920B1284618F08C
:100FC00027F8002070BD002E01DAE96800E0314604
:100FD000284603F085FC284670BD70B505460C46D2
:100FE0001046FFF79CFF21462846BDE87040A4E765
:100FF00032B1012A07D0022A0AD04FF0FF307047E1
:101000000068806908E0006880698268114403E034
:1010100000688069C268511A03F062BC0068806988
:1010200003F042BB00688069C07970475149091FCD
:1010300037E7FEE72DE9F0414E4D0668083D40F2E6
:10104000B274286818B92C2018F034F828604E487B
:101050003C23B6FBF0F100FB1162B6FBF0F1B2FBF2
:10106000F3F003FB102628684FF461650660B2FBBD
:10107000F5F605FB1626B6FBF3F3B2FBF5F2C0E975
:1010800001320A1D0723B2FBF3F503FB15224FF4CF
:10109000B77382615D1E642296000EE0A70709D136
:1010A00094FBF2F702FB174757B994FBF6F706FBE0
:1010B00017472FB12F46C91B641CA70702D00BE0AE
:1010C0001F46F8E794FBF2F702FB17477FB994FB42
:1010D000F6F706FB174757B12F468F42DED9A4F229
:1010E0006C730027C161C0E90473284D20E01F46DE
:1010F000F3E700BF5FEA847C0DD194FBF2FC02FBB6
:101100001C4CBCF1000F16D194FBF6FC06FB1C4CEA
:10111000BCF1000F0FD04FF0000C00BF0CEB4C0CDB
:1011200005EB0C1C5CF823C05B1CA1EB0C010361FC
:10113000A30703D00CE04FF0010CEFE794FBF2F3B0
:1011400002FB1343A3B994FBF6F306FB13437BB1F5
:101150005FF0000303EB430305EB031C03695CF83A
:1011600023C08C45C6D9491C0762C160BDE8F08127
:101170000123EFE7080100201305000866696C658C
:101180006E616D650000000080510100F0AB010848
:1011900008B500211448FFF7DEF914480090144BFD
:1011A000144A0121144808F043F808BD08B500218D
:1011B0000D48FFF7D0F90D48104B1C300090104A35
:1011C00001210D4808F034F808BD7047704770479A
:1011D0007047704770477047704770477047704757
:1011E0007047704770470000759000080C010020A0
:1011F00050020020A0020020E0090020400300204F
:101200006C0300202DE9F0410646002501F014F89A
:10121000074655E0F80751D03069EAB20369416BDF
:10122000D14006EB820201F00101926943EAC1114B
:1012300094680C40E1071AD00124426B04FA05F1CE
:101240008A43426306EB850080698460FE48E9B208
:101250000068426830469047F078012807D135B9D8
:1012600096F81101042802D1304600F0EBFF200768
:1012700004D506EB8500082480698460E00604D567
:1012800006EB8500102480698460600604D506EBB7
:101290008500402480698460A00704D506EB8500A2
:1012A000022480698460200608D52946304600F073
:1012B00060F906EB85018020896988607F086D1CD4
:1012C000002FA7D10120BDE8F0812DE9F0470446A9
:1012D000002500F03DFB00287ED0204600F048FBB2
:1012E000061E7AD0300303D5204600F08AF9054661
:1012F000700303D52046FFF785FF0543B0074FF085
:10130000000A02D5E16802204861DFF83C834FF013
:101310000109002E18DAA07A30B1D4F80C01D4F803
:101320000C1120F0030008602069416821F00101E0
:101330004160D8F80000816920468847E1684FF095
:101340000040486145F00105300503D5204600F016
:10135000DDF80543300709D5D8F80000C1682046FC
:101360008847E1680820486145F00105F00603D58B
:10137000204600F08DF80543F00403D5204600F028
:1013800047F80543B00419D5204600F0CBFDE068CE
:10139000C768204600F0B3FD03282FD084F80290E0
:1013A000402127F47050A18000F5A050E168C8608A
:1013B000E1684FF40050486145F00105F0020AD59C
:1013C000D8F80000C16920468847E1684FF48010D2
:1013D000486145F0010501E00DE00DE0B0020AD5DD
:1013E000D8F80000016A20468847E1684FF40010F1
:1013F000486145F001052846BDE8F08784F802A061
:101400004FF4007127F47050A18000F51050CDE723
:1014100070B50446006900250126416821F00101EC
:1014200041602946204600F041FA0020FF2106E0F5
:1014300004EB800293699960526D9160401C627860
:101440008242F5D821694FF0FF3088612846216932
:1014500066F30F0066F31F40C861216945F00B0079
:101460004861216945F00B0008612069016821F499
:10147000FE610160204600F0E5FEE1684FF4805017
:10148000486171480068016920468847012070BDA5
:1014900070B50646C068816921F010018161F0686D
:1014A000056A05F00F0000EB800006EBC004C5F3F1
:1014B000434004F55D74072821D2DFE800F02020C6
:1014C00004202020150047F6F070054217D0C5F320
:1014D0000A152A463046E16800F02AF9E0682844F7
:1014E000E060A069284409E0082206F2CC513046A9
:1014F00000F01EF9A069C5F30A110844A061F06864
:10150000816941F010018161012070BD38B5044648
:1015100000208DF8000094F812018DF800004A4870
:10152000006841692046884720698068E2684FF476
:1015300000615161A17AD1B1C00718D094F81501AA
:10154000012814D19DF80000032810D1D4F80C0113
:10155000016841F001010160D4F80C01016841F01B
:10156000030101603948016841F006010160012072
:1015700038BD2DE9F0470E46054601EB860005EB28
:10158000C004D4E94C01421AD4F8240104F58E7445
:10159000904200D20246D21C970805EB860922E051
:1015A000A0EB0108A168414500D2884608F103007C
:1015B00087081FFA88F3F2B22846E16800F0A4F821
:1015C000E16801EB0800E060A16901EB0800A0619F
:1015D0006169884207D321780120884029694A6BD4
:1015E00082434A630BE0D9F81800806980B2B842A0
:1015F00005D9D4E90501814201D20028D0D10120CA
:10160000FAE62DE9F0410646002400F007FE074601
:10161000DFF8348049E0F80745D0E1B2304600F009
:1016200003FE0546C0072BD006EB84000125416D63
:101630008D60F178012912D1406D016904EB8400BD
:1016400006EBC00004E000003402002010ED00E0D2
:10165000D0F87C23C1F31201511AC0F88C13D8F8CA
:101660000000E1B2026830469047F078012807D1C7
:1016700034B996F81101052802D1304600F0E2FD98
:10168000A80704D506EB84000225406D8560280775
:1016900009D5D8F8000081683046884706EB8401F8
:1016A0000820496D88607F08641C002FB3D1012099
:1016B00009E60000F8B5002704463E460097FC4DB9
:1016C000032007F0C5FCE06800690090761CAE427C
:1016D00001D90020F8BD00980028F1DA0099002017
:1016E00041F0010100910099E2681161E1680A6925
:1016F0000092401CA84202D8009AD207F7D10320DA
:1017000007F0A6FC3846F8BD30B5C47800256CB9A2
:1017100000EB82000024DB1C9B08D0F8D00003E023
:1017200051F8042B0260641C9C42F9D3284630BD5A
:10173000034610B50020D21C9208D3F8D03003E045
:101740001C6841F8044B401C9042F9D3084610BD78
:1017500070B500220125C2704026857014461346DC
:101760008680012901D061B114E0C57208210170A1
:1017700004214FF0A04241709115C18002210172F5
:1017800008E0C3720C21017006214170C94A4FF470
:10179000A061C18002F50061C0E9032100210AE0D7
:1017A00002EB411303F5106600EB810503F530638E
:1017B000AE61491C6B6543788B42F1D802F58061BC
:1017C00041614031C0F8CC10002108E002EB411328
:1017D00000EB810503F5A063491CC5F89030037840
:1017E0008B42F3D8002108E002EB013300EB8105C6
:1017F00003F58053491CC5F8D03003788B42F3D8E9
:1018000002F56062C0F80C21204670BD70B5044638
:10181000017A0025C068012915D0C16841F0400156
:10182000C1602046FFF746FF617A4FF4341009B1DA
:101830004FF47410E1688863142007F013FCE0781B
:10184000012819D020E0816B627A21F480310AB13D
:1018500041F480118163E068C16821F0401121F4F6
:101860002021C1602046FFF725FFE07801280BD139
:10187000E1682A208860E2E7E068816821F01E01C3
:101880000A3141F020018160284670BDC068002106
:10189000826842F00102826008467047C0680021F9
:1018A000826822F0010282600846704738B5002441
:1018B00022460094009B43F020030093009B61F3B9
:1018C0008A1300930099C36819617949C068036954
:1018D0000093521C8A4202D8009B9B06F7D4032037
:1018E00007F0B6FB204638BD38B5002421460094E9
:1018F000009A42F010020092009AC3681A616C4A82
:10190000C06803690093491C914202D8009BDB0622
:10191000F7D4032007F09CFB204638BD10B5C06803
:101920000024C268012922F0C04201D019B104E0AC
:1019300042F0005201E042F08042C260322007F0E3
:1019400091FB204610BDC068406900F0010070475F
:10195000C068406910F0010F01D0002070470120DD
:101960007047C068406910F0010000D00120704746
:10197000C0684169806908407047C0684068704726
:1019800070B50446C068002635468661E168701E61
:101990004861204600F011FDE07800B91025E168AB
:1019A00045F00C5040F008008A6940F40010824372
:1019B00002438A61304670BDD0F8CC00006820F048
:1019C0002E00704770B50C46054607F04AFB2846C6
:1019D000FFF7F2FFC10403D4012C03D0C10409D5E1
:1019E0001CB107E040F4805001E020F48050D5F8AD
:1019F000CC100860BDE87040C82007F033BB70B55C
:101A00000446FFF7D9FF40F4807554F8CC0F056009
:101A10000A2007F027FB216825F480700860142055
:101A200007F020FB012070BD4269106861F30100DE
:101A3000106070472DE9F041002704463E463D46C0
:101A400007F00EFBD4F80C010560207A01280FD0B6
:101A500001212046FFF7E8FF2046FFF7D0FF60692D
:101A6000016821F004010160E07A012802D015E04C
:101A70000021EEE7E06880214162284661F30F0013
:101A8000E268602161F31F409062E022284662F321
:101A90000F0061F31F40E168C1F8000110212046EA
:101AA000FFF704FF2046FFF71FFF4FF0FF310BE069
:101AB000400D03000000044004EB860050F8902F16
:101AC00091600068C560761C2078B042F4D801218E
:101AD0002046FFF777FF2046FFF752FF3846BDE864
:101AE000F0814069806840F30000401C7047406905
:101AF00040697047F0B5074607EB81060020D6F82D
:101B000090500446431E2246AB60FB78012B00D167
:101B1000042207EB411393F8955835B1012D1FD0DE
:101B2000022D02D0032D27D10EE042F0890545F4A5
:101B3000826293F8925885B993F8945842F0400223
:101B4000D5B142F0200217E093F892C842F0990212
:101B500042F4C062BCF1000F0ED042F480720BE080
:101B600093F892C842F0010242F40872BCF1000FEF
:101B700002D042F08002F0E7D6F89050EA600122ED
:101B80008A4079698D6915438D61F9688A6942F0E7
:101B900000728A6193F8901861F39C5493F891183D
:101BA00061F3CE2493F8921861F3CF3493F893182D
:101BB00002290CD024F4003193F89528B3F8963814
:101BC00062F3934163F30A01032A03D004E044F46F
:101BD0000031F1E741F00051D6F890201160F0BDDE
:101BE000F0B5064606EB41140027D4F8A0584FF490
:101BF00080703B466DB1B4F8962815446D1EB5FB58
:101C0000F2F5ADB2854205D905461002C4F8A00828
:101C100000E0012594F89208A8B1B4F8960868434A
:101C2000C4F8A00860F3120394F8980865F3DC4345
:101C300006EB810260F35E73D2F890000361F078E6
:101C4000012803D007E0D4F8A008EBE7D2F89030E1
:101C5000D4F89C08586152F8900F03683046FFF79B
:101C600040FF60F35D73126823F0804040F0004055
:101C70001060F07898BB94F8920880BBD4F8A00864
:101C800068B394F8952832B1012A11D0022A02D003
:101C9000032A1AD10CE0F268D36AC01CC0F38F008B
:101CA0009BB2834211D2906940F0200090610CE019
:101CB00072691269C01CC0F38F0092B2824204D2D2
:101CC000F068826942F080628261B4F8A0080A4636
:101CD00083B2D4F89C0801463046FFF715FD38461C
:101CE000F0BD10B500EB81010022D1F890301968E9
:101CF00041F0404111F4402F0AD0C1F38144022C3D
:101D000006D04069D0F8100010F47F0F03D004E033
:101D1000C068C06AF8E721F000411960104610BDA4
:101D200010B500EB8100002350F8901F4FF00042E7
:101D3000012464F3DC420A610068016821F08041FB
:101D400041F000410160184610BD10B50446002066
:101D5000616988616169401E486100200BE000BF35
:101D600004EB8001D1F890100A6822F0802242F042
:101D700080420A60401C21788142F1D82046FFF75A
:101D8000B3FD2046BDE8104010218FE502691068C0
:101D900061F301001060704770B50446C06800250B
:101DA0002E468561E1686FF080404861204600F072
:101DB00004FBE07800B9102646F4872141F00810B2
:101DC000E16840F440108A69824302438A612846F0
:101DD00070BD2DE9F04104460027D0F80C013D46C6
:101DE0002B4607602069016821F4C0510160E07A48
:101DF0004026012826D103212046FFF7C7FFE068CF
:101E0000802141621846E26866F31F4061F30F00CB
:101E1000906200EB104060F30F03E06861F31F4332
:101E2000C0F8043103EB134060F30F03E06865F37F
:101E30001F43C0F8083103EB134060F30F03E06861
:101E4000C0F80C3110212046FFF730FD2046FFF787
:101E50004BFD206905612069456121694FF0FF3024
:101E600088612069C56100214FF09040FF2213E096
:101E700004EB810CDCF818E0DEF80030002B01DA0E
:101E8000034600E02B46CEF80030DCF818301D6128
:101E9000DCF818309A60491C63788B42E8D800233C
:101EA000294613E004EB830CDCF854E0DEF8005024
:101EB000002D01DA054600E00D46CEF80050DCF8B2
:101EC00054502961DCF85450AA605B1C65789D422F
:101ED000E8D82069016941F480710161E078012846
:101EE00008D1032066F38A00216940F4803066F34C
:101EF000594008632046FFF74FFF3846EFE501469B
:101F0000002009698968C1F3410139B1012903D071
:101F1000022905D0032900D1022070470320704711
:101F20000120704710B5016900238C68826911682F
:101F3000C4F341042CB1012C03D0022C04D0032C97
:101F400005D16FF30A0102E06FF30A01C91C1160A9
:101F50000069416841F480714160184610BDF0B5D8
:101F60000E7800254F780122B2402B4600EB860404
:101F7000012F19D0646D62F31F43226816040DD43B
:101F80000E8966F30A02CE78897966F3934261F38B
:101F9000995242F0805141F4004121600069C169C9
:101FA0001943C1612846F0BDA46962F30F03E4E759
:101FB00030B50C7803464D7801220020A24003EB97
:101FC0008401012D09D04C6D014662F31F41206050
:101FD0001A69D3698B43D36130BD8C69014662F3C2
:101FE0000F01F4E7F0B54B780A78002401264F6919
:101FF00000EB8202012B15D0556D2B682A69002F4A
:1020000061D08E6837447F1EB7FBF6F767F3DC427A
:10201000C2F3C947774367F312022A61C278012AE3
:1020200057D05CE095692B682A696FB1D1F808C078
:1020300067F3120267447F1EB7FBFCF767F3DC42CD
:10204000CF78012F05D008E06FF3120266F3DC426F
:1020500003E022F0C04202F100522A61C278012A54
:102060000ED0CA78012A12D04A69BAB10A789640CD
:102070000269556B35435563CA78012A07D00DE0D4
:102080000D780A6900EB8505AD696A61F4E70269BC
:102090009268120AD2070CD043F0805343F00442F6
:1020A0000B7800EB83039B691A60CA78012A03D07E
:1020B00026E043F00053F1E78A8A93B20A78C968B0
:1020C000FFF722FB1CE08F6867F3120266F3DC4225
:1020D000A3E70D780A6900EB85056D6D6A61CA7822
:1020E000012A06D14A7912B143F0005301E043F0CE
:1020F0008053097843F0044200EB8100406D026098
:102100002046F0BDF0B54A7800254C69012A15D06B
:102110000A7800EB82035A6D16681269DCB38C688A
:10212000C1F8144064F306025B6D22F4C01202F59C
:1021300000221A61C278012A30D035E083691F6815
:102140001A6934B18E68B44206D966F306024E614C
:1021500004E022F07F0201E064F3060222F4C012E0
:1021600002F500221A61C278012A05D10C780A69A9
:1021700000EB8404A469626147F004421A60C278EB
:10218000CAB94A69BAB10A78006901219140426B23
:102190000A4342630FE0FFE70C7AC3E70B780A6952
:1021A00000EB83035B6D5A61097846F0044200EB53
:1021B0008100406D02602846F0BD02464B780978E8
:1021C000002002EB8101012B05D0496D0A6842F421
:1021D00000120A6070478A691168002901DA41F02B
:1021E000804141F400111160704710B502464C78EF
:1021F0000B78002002EB8302012C09D0526D13688A
:10220000C97823F40013032904D0022902D003E083
:102210009269F4E743F08053136010BD006981694F
:10222000C0690840000C704700EB8101496D896866
:10223000006940690840704700698169C0690840C9
:1022400080B27047426D63491161C178012908D19C
:10225000426D00F2CC515161406D01684FF0802118
:102260000160704710B50446D0F81801002819D055
:1022700020698068C00715D0A07A30B1D4F80C016D
:10228000D4F80C1120F0030008602069416841F087
:1022900001014160052006F0E5FE2069416821F05A
:1022A0000101416010BD817A00290AD00169896865
:1022B000C90706D0D0F80C11D0F80C0121F00301A9
:1022C0000160704710B50446012084F81201002017
:1022D000FF2106E004EB800293699960526D9160E2
:1022E000401C62788242F5D821690020086121698A
:1022F00048612169C8612169401E88612046FFF755
:10230000F3FA2046BDE810401021FFF7CFBA4A7813
:102310000978012A00EB810006D0406D0068810237
:102320000ED54FF48050704780690068810201D556
:1023300010207047800301D520207047302070475F
:10234000800302D54FF4005070474FF4405070475F
:1023500030B44C780B78002500EB8303012C0BD0B4
:102360005C6D2368B2F5805F17D0B2F5005F17D0BF
:10237000B2F5405F0CD007E09C692368102A05D0B5
:10238000202A0DD0302A03D092B113E030BC14E7DC
:102390009A0208D54D7130BC27E743F4001309E0D9
:1023A00043F0006306E043F0806040F0802301E0EA
:1023B00023F40043236030BC7047C2684FF0FF3104
:1023C0005160C2686FF080415161C068024981610B
:1023D00070470000180008C0000800800CB50146D6
:1023E000D1F8900000680090009820F0004000F1C3
:1023F00000400090009820F0804000F18040009064
:10240000009AD1F89000026000200190019820F419
:10241000001000F5001001900198CA685061012079
:102420000CBD38B5044600200090FE480068816865
:1024300020468847009820F0005000F1005000909E
:102440000098E1684861012038BDFEB504460026C9
:1024500000250020009002900190D4F8CC00006884
:102460000290D4F8CC0000680190019820F004009C
:102470000190019820F002000190019820F00800DE
:102480000190019820F0200001900298C0F34000D4
:1024900058B1019820F00200801C0190E1480068CA
:1024A00041682046884745F001050298C0F3C00006
:1024B000002842D0019820F00800083001900298CE
:1024C000C0F38000002838D0D64800684168204614
:1024D00088470298C0F34140022804D00298C0F314
:1024E0004140012828D16069006800900298C0F33B
:1024F0004140022811D141F2707160694160009839
:1025000000F00300022818D0207A022803D102210B
:102510002046FFF789FA01260FE04BF6803160690B
:102520004160009800F00300012806D001212046F8
:10253000FFF77AFA012600E001260298C0F3401066
:1025400030B1019820F020002030019045F00105C5
:1025500016B12046FFF753FA0199D4F8CC00016078
:102560002846FEBD7FB505460C4605F1900050F8A3
:102570002460B0680390F0680290DDE90210084022
:10258000039005F1900050F8240000680190039832
:10259000C0F38000D0B100200090009820F004002B
:1025A000001D00900098B06005F1900050F82400E4
:1025B000C0680090009820F00200801C009005F197
:1025C000900050F824000099C160B4E10398C0F372
:1025D000401048B100200090009820F020002030EA
:1025E00000900098B060A6E10398C0F34020F8B1D5
:1025F00005F1900050F82400C0680090009820F089
:102600000200801C009005F1900050F82400009911
:10261000C160E1B22846FFF764FB002000900098FB
:1026200020F4007000F5007000900098B06082E126
:10263000039800F0010038B3002105F5FF6040F871
:10264000241005F1900050F82400C0680090009814
:1026500020F00200801C009005F1900050F824004A
:102660000099C160E1B22846FFF73BFB00200090D3
:10267000009820F00100401C00900098B0600121FB
:1026800005F50760015556E10398C0F3C00010B38B
:1026900000200090009820F008000830009000987A
:1026A000B06005F1900050F82400C06800900098D8
:1026B00020F00200801C009005F1900050F82400EA
:1026C0000099C160E1B22846FFF70BFB052105F533
:1026D000076001552FE10398C0F3001038B30021C3
:1026E00005F5FF6040F8241005F1900050F8240033
:1026F000C0680090009820F00200801C009005F156
:10270000900050F824000099C160E1B22846FFF71C
:10271000E8FA00200090009820F01000103000909F
:102720000098B060032105F50760015503E10398A7
:10273000C0F3C01040B305F1900050F82400C06809
:102740000090009820F00200801C009005F190009D
:1027500050F824000099C160E1B22846FFF7C1FAA1
:1027600005F5FF6050F82410491C40F8241006219C
:102770007830015500200090009820F080008030D3
:1027800000900098B060D6E00398C0F3801038B392
:10279000002105F5FF6040F8241005F1900050F885
:1027A0002400C0680090009820F00200801C009077
:1027B00005F1900050F824000099C160E1B228466C
:1027C000FFF78FFA00200090009820F04000403082
:1027D00000900098B060042105F507600155AAE05B
:1027E0000398C0F3802078B305F1900050F82400DE
:1027F000C0680090009820F00200801C009005F155
:10280000900050F824000099C160E1B22846FFF71B
:1028100068FA00200090009820F01000103000901E
:10282000009801E048020020B060082105F507602B
:10283000015500200090009820F4806000F5806031
:1028400000900098B06076E0FFE70398C0F3400086
:10285000002870D005F1900050F82400C068009066
:10286000009820F00200009005F1900050F824003C
:102870000099C16005F50760005D012815D10121AF
:1028800005F67F0001550198C0F38140022848D128
:1028900005F5096000EB4410407E80F0010105F56C
:1028A000096000EB441041763BE005F50760005DF0
:1028B000032804D1022105F67F00015531E005F51A
:1028C0000760005D04280FD105F5096000EB441096
:1028D0000079012803D1E1B22846FFF721FA02214D
:1028E00005F67F0001551CE005F50760005D052831
:1028F00004D1042105F67F00015512E005F50760BB
:10290000005D06280DD105F5FF6050F8240003286E
:1029100007D1032105F67F0001550021873840F8D3
:10292000241000200090009820F00200801C0090ED
:102930000098B06000BF012004B070BD70B586B0D3
:1029400005460C4605F1900050F82460B0680590EB
:10295000F0680490DDE904100840059005F190004E
:1029600050F8240000680390002004900598C0F3FC
:102970008000D0B100200190019820F00400001DDB
:1029800001900198B06005F1900050F82400C068F3
:102990000190019820F00200801C019005F1900048
:1029A00050F824000199C16073E00598C0F340100D
:1029B00048B100200190019820F0200020300190C3
:1029C0000198B06065E00598C0F3C00078B305F1E8
:1029D000900050F82400C0680190019820F0020097
:1029E000801C019005F1900050F824000199C1600D
:1029F000052105F50760015500200190019820F0A0
:102A00001000103001900198B060002001900198F2
:102A100020F00800083001900198B060059820F07F
:102A200010000590E1B22846FFF75BF931E0FFE7BF
:102A30000598C0F3802060B305F1900050F82400A1
:102A4000C0680190019820F00200801C019005F1FF
:102A5000900050F824000199C160E1B22846FFF7C8
:102A600040F900200190019820F0100010300190F2
:102A70000198B060082105F507600155002001901C
:102A8000019820F4806000F5806001900198B060AA
:102A900000BF0598C0F34020F8B105F1900050F850
:102AA0002400C0680190019820F00200801C019071
:102AB00005F1900050F824000199C160E1B2284668
:102AC000FFF70FF900200190019820F4007000F545
:102AD000007001900198B06042E1059800F001009B
:102AE000002871D0E878012812D105F1900050F843
:102AF00024000069029005F5096000EB44100069AC
:102B00000299C1F31201411A05F6340040F824106D
:102B1000012105F5076001550021783840F824109F
:102B200000200190019820F00100401C01900198C4
:102B3000B0600398C0F3814020B10398C0F3814096
:102B400002282AD105F1900050F82400C0680190B5
:102B5000019820F00200801C019005F1900050F8CF
:102B600024000199C160E1B22846FFF7BAF80020BD
:102B70000190019820F01000103001900198B06091
:102B800005F5096000EB4410007E80F0010105F5B9
:102B9000096000EB44100176E2E00398C0F3814045
:102BA000032899D1039820F0005000F100500390C1
:102BB00005F1900050F8240003990160012105F609
:102BC0007F000155CCE0FFE70598C0F340000028E6
:102BD00051D005F1900050F82400C0680190019890
:102BE00020F00200019005F1900050F824000199B6
:102BF000C16005F50760005D012804D1012105F6DB
:102C00007F0001552DE005F50760005D052804D122
:102C1000042105F67F00015523E005F50760005DFE
:102C2000062804D005F50760005D082808D10021BA
:102C300005F5FF6040F8241003218730015510E0AE
:102C40000398C0F3814003280BD105F5096000EB20
:102C50004410007E80F0010105F5096000EB44108E
:102C6000017600200190019820F00200801C019064
:102C70000198B06074E00598C0F3C01040B305F14E
:102C8000900050F82400C0680190019820F00200E4
:102C9000801C019005F1900050F824000199C1605A
:102CA00005F5FF6050F82410491C40F82410062157
:102CB00078300155E1B22846FFF713F80020019063
:102CC000019820F08000803001900198B06047E0CA
:102CD0000598C0F30010E8B30398C0F381400328BF
:102CE00015D105F1900050F82400C06801900198BA
:102CF00020F00200801C019005F1900050F82400A3
:102D00000199C160E1B22846FEF7EBFF18E0039895
:102D1000C0F3814020B10398C0F3814002280FD155
:102D2000039820F0004000F100400390039820F049
:102D30008040039005F1900050F824000399016051
:102D4000032105F50760015500200190019820F04E
:102D5000100000E004E0103001900198B06000BF66
:102D6000012006B070BD7CB505460024002628462B
:102D7000FEF7BDFE019000BF1BE0019880B201216B
:102D8000A1400840A0B105F1900050F8240000686F
:102D900000900098C0F3C03028B121462846FFF7C4
:102DA000CDFD064304E021462846FFF7DBFB064342
:102DB000641C2878A042E0D830467CBDFEB50446AD
:102DC0006069006900900198C0F3C30104F50960CF
:102DD00000EB41100069C01CC0F38F0674E04FF691
:102DE000FF71009801EA80050198C0F3C30104F562
:102DF000096000EB41100069A84216D20198C0F3A7
:102E0000C30104F5096000EB4110008A85B200207F
:102E10000290029820F0806000F180600290E068EB
:102E2000806902998843E16888610198C0F3C30111
:102E300004F5096000EB41100069C01CC0F38F0667
:102E40000198C0F3C302C0F3C30304F5096000EBAB
:102E500043102B46C1682046FEF756FC0198C0F38C
:102E6000C30104F5096000EB4110C06841190198E5
:102E7000C0F3C30204F5096000EB4210C160019881
:102E8000C0F3C30104F5096000EB41100069411B68
:102E90000198C0F3C30204F5096000EB4210016120
:102EA0000198C0F3C30104F5096000EB41104069CB
:102EB00041190198C0F3C30204F5096000EB421008
:102EC0004161606900690090009880B2B0420ADDFB
:102ED0000198C0F3C30104F5096000EB41100069DB
:102EE00000287FF47CAF0120FEBD7FB50446E0687A
:102EF000C06A00900198C0F3C30104F5096000EBBB
:102F000041100069C01CC0F38F0673E04FF6FF71DB
:102F1000009801EA80050198C0F3C30104F5096037
:102F200000EB41100069A84215D20198C0F3C3011B
:102F300004F5096000EB4110008A85B2002003907F
:102F4000039820F0200020300390E0688069039906
:102F50008843E16888610198C0F3C30104F5096002
:102F600000EB41100069C01CC0F38F060198C0F34C
:102F7000C302C0F3C30304F5096000EB43102B4602
:102F8000C1682046FEF7C0FB0198C0F3C30104F5F9
:102F9000096000EB4110C06841190198C0F3C302F9
:102FA00004F5096000EB4210C1600198C0F3C30151
:102FB00004F5096000EB41100069411B0198C0F362
:102FC000C30204F5096000EB421001610198C0F3EF
:102FD000C30104F5096000EB4110406941190198F3
:102FE000C0F3C30204F5096000EB42104161E068E0
:102FF000C06A0090009880B2B0420ADD0198C0F328
:10300000C30104F5096000EB4110006900287FF45A
:103010007DAF012004B070BD30B585B004460020FE
:1030200000900390039820F0100010300390E068A7
:10303000806903998843E1688861E068006A0490C8
:10304000049800F00F00009004F190009DF800102B
:1030500050F82100006801900498C0F34340022812
:1030600006D0032878D0052877D0072873D175E0DB
:103070000498C0F30A10002869DD04F509609DF882
:10308000001000EB4110C068002860D00498C0F325
:103090000A1204F509609DF8003000EB4310C16886
:1030A0002046FEF745FB049800F00F0104F5096087
:1030B00000EB4110C0680499C1F30A11014404985F
:1030C00000F00F0204F5096000EB4210C1600498A3
:1030D00000F00F0104F5096000EB4110406904990C
:1030E000C1F30A110144049800F00F0204F50960CD
:1030F00000EB4210416104F509609DF8001000EBFF
:103100004110456904F634009DF8001040F8215044
:1031100004F190009DF8001050F821000069029021
:103120000298C0F3C940002811DD019820F000404A
:1031300000F100400190019820F08040019004F1DE
:1031400090009DF80020019950F82200016006E0EF
:1031500002E002E0FFE700BF00BF00BF00BF00BF0A
:10316000039820F0100010300390E0688069039904
:103170000843E1688861012005B030BD38B50446D8
:103180000020009031480068016820468847009878
:1031900020F00800083000900098E16848610120A4
:1031A00038BD38B505460024002000902846FEF7BB
:1031B000D8FB002847D02846FEF7DAFB009000989D
:1031C00008B9002038BD0098C0F3C00018B12846E7
:1031D000FFF7D4FF04430098C0F3001018B128464D
:1031E000FFF71AFF04430098C0F3401018B12846B7
:1031F000FFF77BFE04430098C0F3806018B12846B7
:10320000FFF7DCFD04430098C0F3406018B1284686
:10321000FFF7A9FD04430098C0F3006018B12846E9
:10322000FFF713F904430098C0F3407018B1284623
:10323000FFF7F7F804430098C0F3405018B1284650
:10324000FFF7CCF804432046BCE70000480200200A
:103250002DE9F0410446007900B3256B04F13401F7
:10326000607801232A460F4606F0DFFE10B10120E8
:10327000BDE8F08100202071606AE169281A884267
:103280000CD2E67808E0E0690123054460782A461C
:10329000394606F0CAFE761E022EF4D20020E7E779
:1032A00070B50446006B0D46A8420ED02046FFF7CD
:1032B000CFFF38B9607801232A4604F1340106F0C3
:1032C00085FE08B1012070BD2563002070BD70B57A
:1032D0000446FFF7BDFF05004FD12078032845D1F4
:1032E0006079012842D1420204F1340000210646EF
:1032F00002F0CBFB552084F83202AA2084F8330276
:10330000522084F8340084F83500612084F83600B7
:10331000412184F83710722284F8182284F8192287
:1033200084F81A1284F81B02206984F81C02010A2E
:1033300084F81D12010C84F81E12000E84F81F027E
:10334000E06884F82002010A84F82112010C84F854
:103350002212000E84F82302226A0123521C2263E7
:103360006078314606F061FE0020607100226078CE
:10337000114606F08DFE00B10125284670BD826918
:10338000891E921E8A4201D800207047C26A807846
:1033900001FB002070472DE9F0410D46044602294B
:1033A00009D3A069A84206D92078012805D00228AF
:1033B00027D0032831D001205AE7606A05EB550673
:1033C00000EB56212046FFF76BFF68BBC6F30800F1
:1033D0002044761C90F83470606A00EB5621204639
:1033E000FFF75EFF00BBC6F308002044E90790F832
:1033F000340047EA002001D0000939E7C0F30B0090
:1034000036E7606A00EB15212046FFF749FF58B9FF
:10341000E8B204EB4000808E2AE7606A00EBD51129
:103420002046FFF73DFF10B14FF0FF3020E740F29C
:10343000FF1000EA8500204490F83410D0F83500E1
:1034400041EA002020F0704012E72DE9F0471746CE
:103450000D460446022902D3A069A84202D80220E0
:10346000BDE8F087217807F0FF084FF00109012936
:1034700007D0022937D0032946D0022084F80490CF
:10348000EEE7606A05EB550600EB56212046FFF794
:1034900007FF0028F2D1C6F3080020443430E907C2
:1034A00003D0017868F31F1100E03946017084F8F9
:1034B0000490606A761C00EB56212046FFF7F0FE70
:1034C0000028DBD1C6F3080121443431EA0702D0D9
:1034D000C7F3071205E00A78C7F3032302F0F002EE
:1034E0001A430A70CAE7606A00EB15212046FFF70D
:1034F000D7FE0028C2D1E9B204EB41013A0A81F8B3
:10350000348081F83520B9E7606A00EBD511204698
:10351000FFF7C6FE0028B1D140F2FF1101EA850194
:103520000A194FF07043D2F8351003EA01213943EC
:1035300002F8341F0B0A53700B0C9370090ED170F4
:103540009CE72DE9F0410F460646022916D3B069E3
:10355000B84213D900251FE039463046FFF71BFF5C
:1035600004001CD0012C09D0601C09D0002239466F
:103570003046FFF76AFF050011D103E002250EE097
:1035800001250CE03069411C05D0401C3061707988
:1035900040F0010070712746B069B842DCD8284677
:1035A00066E62DE9F0410F00054605D0FFF7F3FE72
:1035B000022808D201205BE6EE6816B1A869B04285
:1035C00007D8012605E0411CF5D0A9698142F2D84F
:1035D0003E463446A869641CA04202D80224022E4A
:1035E0000AD321462846FFF7D6FE38B1411CE2D067
:1035F0000128E0D0B442EDD1002039E66FF07042EE
:1036000021462846FFF721FF30B957B122463946F7
:103610002846FFF71AFF20B101280DD001242046CB
:1036200026E6EC602869411CF9D0401E28616879C3
:1036300040F001006871F2E74FF0FF34EFE770B53A
:10364000C18083680D460446012B34D0206881690F
:10365000994230D923B90178032904D1836A13B17F
:103660008078060110E00189A94224D9806A11E01E
:10367000FFF791FE0346401C1BD0022B1BD3206892
:103680008069984217D9AD1B2068B5421946EFD220
:10369000FFF775FEE36070B100EB1510206105F0D7
:1036A0000F013422206802EB4111084460610020C0
:1036B00070BD012070BD022070BD2DE9F041C688AB
:1036C0000446761C30040F46000C2CD0206950B301
:1036D000310759D1401C2061E168206829B1827806
:1036E000521E12EA161F04D04EE00089B0421AD9C9
:1036F0004AE0FFF750FE0546012818D9681C2FD074
:1037000020688169A94239D86FB1E168FFF749FFA4
:1037100005000AD0012D0AD0681C21D02068FFF7CF
:1037200097FDE8B905E00420A2E50720A0E5022006
:103730009EE520684FF400720021343002F0A5F9B4
:1037400029462068FFF71BFE216800274FF001087B
:1037500008630CE080F804802068FFF779FD08B169
:10376000012085E52068016B491C7F1C01632068EE
:103770008178B942EED8016BC91B0163E560294627
:103780002068FFF7FCFD2061E68006F00F0134227F
:10379000206802EB411108446061002068E570B5C3
:1037A0000E4604460021FFF74AFF88B9002521692B
:1037B0002068FFF775FD58B961690978E5290BD0D4
:1037C00051B1002501212046FFF777FF0028EED0F8
:1037D000042800D1072070BD6D1CB542F2D170BD28
:1037E0002DE9FC5F05460021FFF729FF002877D16E
:1037F000FF204FF6FF7A00908146A5F820A02969A6
:103800002868FFF74DFD06000DD16C69207848B19E
:10381000E17AE52801F03F016DD00A0704D50F29B0
:1038200069D107E0042671E00F2903D0B9F1000F38
:103830004AD04FE0E96989B3420606D5627B00921F
:1038400020F04000EA8881462A84484535D1627BD1
:103850000098824231D101912078A04620F04000AA
:10386000401E00EB80010027DFF858B601EBC006D0
:10387000012400BF1BF8071001EB0800008874B199
:1038800006F054FC0446FF2E17D2019830F81600BB
:10389000761C06F04BFCA0420FD102E02FE0504511
:1038A0000BD17F1C0D2FE5D398F80000400608D5FA
:1038B0003CB1019830F8160018B1FF2000F0FF0964
:1038C0001DE0A9F10100F9E7204602F03EF9009958
:1038D00088421BD0A869C17AC9070CD10A2102E02D
:1038E00015E0491E06D314F8012B10F8013BD21A3B
:1038F000F7D000E052B14FF0FF09A5F820A0002159
:103900002846FFF7DAFE06003FF479AF3046BDE8FF
:10391000FC9F2DE9F05FFF248B46054627460426D1
:103920004FF6FF784FF0000963E02868FFF7B8FC16
:10393000060062D16869017859B1C27AE52902F0BE
:103940003F0204D0082A06D0B446DC4506D0FF2446
:1039500041E0042651E04FF0010CF6E70F2A01D0B8
:10396000B4BB3FE04A0605D5477B21F04001EA8819
:103970000C462A84A1422CD1417BB94229D101783D
:10398000DFF840A501F03F01491E01EB810202EB87
:10399000C1010022D5F81CC0012600BF1AF8023070
:1039A00003441B8836B1FF2913D22CF811301E4670
:1039B000491C01E043450CD1521C0D2AEED300787E
:1039C000400603D5FF2904D22CF81190641E01E0B3
:1039D0000CE0FF24E4B200212846FFF76EFE06004B
:1039E00007D00AE002F0B1F8B84208D0A5F820806C
:1039F00005E02969002998D10EB1C5F8109030462C
:103A0000BDE8F09F2DE9FF5F04460C22D4E906765D
:103A10003946684602F031F89DF80B00810602D560
:103A2000062004B0ECE7C00718D00020F87201258A
:103A3000E0612B4632466946384602F049F8204696
:103A4000FFF7CEFE10B96D1C642DF2D3642D0BD0A0
:103A50000428E6D19DF80B00F872E6619DF80B0092
:103A600080070DD5002002E00720DAE7401C36F879
:103A700010100029FAD10D211930B0FBF1F600E049
:103A8000012631462046FFF78AFE050070D1761EDA
:103A90005FEA060A53D0E1882046A1EB0A01FFF74E
:103AA000CEFD050064D1A06902F04FF803902169B2
:103AB0002068FFF7F5FB05005AD16169D4F81C9026
:103AC000039848730F20C8720020087388760AF0A4
:103AD000FF0BC876ABF1010000EB800202EBC005E2
:103AE00000234FF6FF7EF74E4A1C01E0604503D0ED
:103AF00039F81500F4466D1CF75CC85516F80380BC
:103B0000070A08F8027000B960465B1C0D2BEDD364
:103B1000704502D039F8150008B94BF0400B81F818
:103B200000B021680120087100212046FFF7C5FD83
:103B300005001DD1AAF101005FEA000AB7D1216991
:103B40002068FFF7ADFB050012D12022002160693B
:103B500001F09BFFD4E905010B2201F08EFFA06963
:103B60006169C07A00F018000873216801200871AB
:103B7000284656E72DE9F041018C0446C688A1F598
:103B80007F40FF3800D131462046FFF758FD050041
:103B90001ED1E5274FF0010821692068FFF780FB5F
:103BA000050012D120220021606901F06EFF6069DA
:103BB0000770216881F80480E088B04208D20021B3
:103BC0002046FFF77AFD0500E6D0042D00D102253E
:103BD000284612E42DE9F0410C4601F10902016981
:103BE00091B3002543696FF01A062E2759576D1CB3
:103BF00020291BD0052900D13146092D01D102F819
:103C0000017BA1F1410CBCF1190F0DD893F80CC048
:103C1000092D02D34FF0100801E04FF008081CEA0C
:103C2000080F01D0203149B202F8011B0B2DDDD362
:103C3000D97A2172197FD3F81D5041EA05212160FC
:103C4000198BA180D98AE1804FF0000882F80080AA
:103C5000A669002E1DD001690025C1B1E169B1B18D
:103C6000018CA1F57F42FF3A11D0C7690BE000211A
:103C700006F042FA18B1E169491EA94201D80025AF
:103C800005E070556D1C37F8020B0028EFD106F8DF
:103C9000058085E42DE9F84F894680460D6800E0EF
:103CA0006D1C95F900002F28FAD05C28F8D000246C
:103CB000D8F81C702646A857761C80B2202818D346
:103CC0002F2816D05C2814D0FF2C50D2C0B201216E
:103CD00006F012FA5FEA000A49D0BAF1800F04D266
:103CE000014679A001F0D9FEE8BB27F814A0641CB6
:103CF000E1E7AA19C9F80020202801D2042500E034
:103D000000250021012C04D0022C2ED178882E28E9
:103D100016D138882E2813D127F814100020A0427D
:103D200001D22E2200E02022D8F818100A54401C9C
:103D30000B28F4D3D8F8181045F020020A54BEE03E
:103D400007EB440030F8020C20280DD02E280BD0B1
:103D50004CB127F814100B222021D8F8180001F0DC
:103D600094FE002607E002E0641E002CE8D1062045
:103D7000BDE8F88F761C37F816002028FAD02E28D8
:103D8000F8D01EB145F0030500E0641E2CB107EB2E
:103D9000440030F8020C2E28F7D1002082464FF064
:103DA000080B009037F8160006F101065FEA0009DB
:103DB00024D0B9F1200F04D0B9F12E0F04D1A642BE
:103DC00002D045F00305EDE70098584501D2A64220
:103DD0001AD1BBF10B0F0FD0A64201D045F003055D
:103DE0000CD84FF0080000904FEA8A6026464FF04A
:103DF0000B0B4FEA106AD5E745F00305D8F8180019
:103E00000178E52939D03AE04846B9F1800F11D35D
:103E1000002106F071F95FEA000906D029498039CE
:103E200001EB090010F8800C814645F00205B9F15C
:103E3000000F04D0014627A001F02FFE20B14FF063
:103E40005F0945F003050FE0A9F14100192802D8E8
:103E50004AF0020A08E0A9F16100192804D84130AB
:103E60004AF0010A1FFA80F9D8F81820009902F8E0
:103E700001900098401C009094E705210170BBF16F
:103E8000080F03D14FEA8A604FEA106ACAF3810033
:103E9000032803D06FEA0A01890701D145F0020522
:103EA000A90709D40AF00301012901D145F0100541
:103EB000012801D145F00805D8F81800C572002086
:103EC00056E70000D0AC0108222A3A3C3E3F7C7FF6
:103ED000000000002B2C3B3D5B5D000073B50446E9
:103EE0000199002591F900002F280FD05C280DD0F2
:103EF00020684069A060019890F90000202809D24C
:103F000000212046FFF79BFB65617CBD491C0191A8
:103F1000A560F0E701A92046FFF7BCFE0028F4D118
:103F20002046FFF75DFCA169C97A68B10428ECD18D
:103F30008A0605D5A56065614807EBD500207CBDE4
:103F40004907FCD405207CBD4907FCD46169C87AC7
:103F5000C006F7D5206801F0AAFDA060DAE710B529
:103F600004464FF0FF302268002A14D0114600E0CA
:103F7000491C91F90030202B0ED33A2BF8D112F9BD
:103F8000013B303B0A2B06D28A4204D1022B02D2DB
:103F9000491C1846216010BDF948007810BD10B5C5
:103FA000044600202071401E20632046FFF778F968
:103FB00008B1032010BDB4F83202A0F52A415539EA
:103FC00001D0022010BD94F86A00B4F86B1040EAEA
:103FD0000121EC48B0EB012F08D094F88610B4F81A
:103FE000872041EA0221B0EB012F01D1002010BD52
:103FF000012010BD2DE9FF474FF000080746C0F82B
:10400000008016460846FFF7AAFF050003D50B20DF
:1040100004B0BDE8F087DA48001D50F8254094B19F
:104020003C60207820B1607805F0C6FFC1070CD055
:1040300084F80080E8B24746607005F0ABFFC10726
:1040400008D00320E4E70C20E2E70EB1400704D4D7
:104050000020DDE71EB1400701D50A20D8E7002582
:1040600029462046FFF79BFF012824D100206A46FD
:1040700004EB001191F8F63101F5F9712BB10B7ACF
:10408000D1F8091043EA012100E0002142F8201094
:10409000401C0428ECD300264FEA020858F82650AA
:1040A0002DB129462046FFF77AFF08B909E0022022
:1040B000761C042EF2D3032801D0E0BB01E00120DE
:1040C000A6E7B4F83F00B0F5007F5CD1B4F84A0031
:1040D00028B994F85800D4F8591040EA0120E0615A
:1040E00094F844108146E170012901D002294AD197
:1040F000414394F84100A070E8B1421E104242D101
:10410000B4F84520228113073DD1B4F847602EB999
:1041100094F85430D4F8556043EA0626B4F842C007
:10412000BCF1000F2FD00CEB010303EB12139E42E6
:1041300029D3F61A00E026E0B6FBF0F018B301260A
:1041400040F6F678404500D302264FF6F678404513
:1041500000D30326801C2B44E362AC44A061C4E975
:10416000085C032E11D072B16144A162022E17D0F7
:1041700000F0010100EB400001EB500000F2FF10E5
:10418000B9EB502F0ED20D2042E7002AFBD194F854
:104190006010D4F86120800041EA0221A162EDE7BD
:1041A0004000EBE74FF0FF302061E060802060715D
:1041B000032E2FD1B4F8640001282BD12046691CAE
:1041C000FFF76EF830BB6771B4F83202A0F52A41F0
:1041D00055391FD194F83400D4F8351040EA012045
:1041E0006949884216D194F81802D4F8191240EAA5
:1041F0000120664988420DD194F81C02D4F81D12A2
:1042000040EA0120206194F82002D4F8211240EA0B
:104210000120E0605A4926704888401C4880E080B0
:10422000676115E710B538B1016829B10A781AB18C
:10423000CA888088824201D0092010BD487805F0E4
:10424000BBFEC007F9D0032010BD17B581B01446DE
:10425000029800906846FFF782FE002802DA0B20E1
:1042600004B010BD464A121D002352F8201001B1BF
:104270000B700199002900D00B7042F8201001D07A
:10428000012C01D00020EBE7002202A901A8FFF7D2
:10429000B1FEE5E72DE9F747ADF5117D06000ED03B
:1042A0004FF0000802F01F0727F0010292A902A8B0
:1042B000C6F80080FFF79EFE050004D08FE00920BD
:1042C0000DF5147DA5E68DA808900CA8099002A80C
:1042D0009299FFF703FE079C050001D104B906255A
:1042E00017F01C0F54D055B1042D03D102A8FFF7CD
:1042F00089FB0546079C47F0080755B16FE0E07A57
:1043000010F0110F01D0072569E0780701D50825C5
:1043100065E038074AD504F03EFEA073010AE17358
:10432000010C2174000E607484F80B8084F81C80EA
:1043300084F81D8084F81E8084F81F80214602982E
:1043400001F0B5FB81460021204601F0B9FB02993E
:104350000120B9F1000F087126D002984946D0F823
:1043600030A0FFF7EEF8050039D10299A9F101005C
:10437000C86051460298FEF793FF050012D02EE068
:104380004401002000464154525261417272416121
:104390002DBBE07AC10601D5042520E0B90701D57F
:1043A000C007B0D1380701D547F020070298214651
:1043B000006BC6E90704B77186F807804746029884
:1043C00001F075FB3061207FD4F81D1040EA012018
:1043D000C6E90270B76102983060C088B080284694
:1043E0006EE72DE9FC5F04460020186099461546EB
:1043F00088462046FFF716FF002812D1E0790028F2
:104400000FD1A079C0070BD0D4E90210401A0127C0
:104410004FF0020A04F1240B854200D9054680E0E2
:104420000720BDE8FC9FA068C10562D12268917891
:10443000491E01EA502111F0FF0609D108B31046C8
:104440006169FEF7A8FF02281DD3411C4CD06061B2
:1044500061692068FEF793FFA8B130440190680AB3
:10446000009027D03218206881788A4201D9891BB0
:104470000091DDE900324078414605F0A7FD98BB88
:1044800005E02069DFE784F807A00220C9E7A079EA
:1044900040060CD5A1690198081A0099884206D2F5
:1044A00008EB40204FF40072594601F0E6FA0098FC
:1044B00046022CE0A2690198824218D0A0794006F9
:1044C0000AD5206801235946407805F0AEFD58B959
:1044D000A07920F04000A07120680123594640785F
:1044E000019A05F073FD10B1E771012099E7019879
:1044F000A0612089C0F30800C0F50076AE4200D963
:104500002E46011932464046243101F0B6FAA06821
:10451000B0443044A060D9F800008119AD1BC9F83F
:104520000010002D7FF47FAF00207AE72DE9FC5FBB
:10453000884600219946154604461960FFF772FE29
:10454000002806D1E079002803D1A079800701D4A2
:10455000072066E7A068012742194FF0020A04F11C
:10456000240B824272D391E0A068C10572D1226807
:104570009178491E01EA502111F0FF0612D108B1CD
:10458000616902E0206928B900211046FFF709F8A7
:1045900000287ED001282DD0411C54D060612169B3
:1045A00001B92061A07940060BD520680123594646
:1045B0004078A26905F039FDA0BBA07920F0400049
:1045C000A07161692068FEF7DAFE98B1304401906D
:1045D000680A009027D03218206881788A4201D971
:1045E000891B0091DDE900324078414605F01DFD50
:1045F000C0B903E084F807A0022012E7A16901987E
:10460000081A009988420AD208EB40214FF4007240
:10461000584601F032FAA07920F04000A0710098CD
:10462000460229E00FE0A1690198814210D0D4E947
:10463000020188420CD22068012359464078019A31
:1046400005F0C4FC20B1E7710120EAE621E001E0B9
:104650000198A0612089C0F30800C0F50076AE4241
:1046600000D92E46204432464146243001F005FA56
:10467000A07940F04000A071A068B0443044A06030
:10468000D9F800008119AD1BC9F80010002D7FF486
:104690006BAFD4E90201884200D9E060A07940F014
:1046A0002000A0710020BCE670B50446FFF7BAFDFB
:1046B00000280ED1A1798A060BD548060ED52068B0
:1046C000012304F124014078A26905F0AEFC08B191
:1046D000012070BDA07920F04000A071E169206840
:1046E000FEF7DEFD0028F4D1256AE87A40F02000CC
:1046F000E872207B2877A089000A6877E068000CC0
:10470000A877E068000EE8772846216901F0D8F91B
:1047100004F041FCA875010AE975010C2976000E28
:1047200068760020A874E874A07920F02000A071B9
:104730002168012008712068BDE87040FEF7C7BD00
:1047400010B50446FFF7B0FF002806D12046FFF75A
:1047500069FD002801D10021216010BD01B5684626
:10476000FFF7FDFB002801DA0B2008BDF8490870AF
:10477000002008BD11B5ADF50D7D00228DA968465C
:10478000FFF738FC04000BD18AA8069009A807900F
:1047900068468D99FFF7A2FB040005D0042C11D0C8
:1047A00020460DF50E7D10BD059848B1C07AC006B3
:1047B00008D50599009801F07AF900994861EFE76A
:1047C0000298FAE70524EBE72DE9F343ADF5197DEF
:1047D0000E4699994FF00008424681F8008099A949
:1047E00083A8FFF707FC040075D196A8899002A85A
:1047F0008A90839835464FF02F094069859050E0A4
:10480000012183A8FEF71BFF040035D1002183A8F6
:10481000FFF77FF804002FD18899839801F047F9BA
:104820008590002183A8FEF70AFF040024D100210F
:1048300083A8FFF76EF804000BD18899839801F0E4
:1048400036F9B84208D0002183A8FEF736FF0400ED
:10485000EDD0042C0FD00FE09998CDE993058DA9E8
:1048600083A8FFF7B7F9999A0DF23D21107800B1AE
:104870001146002003E0022499982AE0401C0B5CBA
:10488000002BFBD1C31C9D4206D21124104620E010
:10489000401E6D1E0B5C53550028F9D16D1E02F8A9
:1048A0000590859F002FABD1A9499998097830319F
:1048B00000F8011B3A2100F8011BB54202D100F8B3
:1048C000019B06E09999495D6D1C00F8011BB542FA
:1048D000F8D380F800800DF51B7D2046BDE8F083FD
:1048E0002DE9F0470D460446FFF79CFC5FEA0008FF
:1048F0006FD1E07900286CD1E068A84203D2A17999
:10490000890700D405460027A0684FF00109A76079
:104910000DB322684FF0020A91784E0268B1691E09
:10492000401EB1FBF6F1B0FBF6F3994205D3711EC0
:104930008843A0602D1A61690CE0216949B9002102
:104940001046FEF72EFE014601283FD0481C4ED0EF
:1049500021616161D1B926E0A0798007206805D581
:10496000FEF71FFE010004D1354611E0FEF713FDEE
:104970000146481C3BD0012928D92068806988421B
:1049800024D96161A068AD1B3044A060B542E3D872
:10499000A0682844A060E80505D02068FEF7EFFC79
:1049A000A0B100EB55272089C00525D0A269BA42E5
:1049B00022D0A07904F12405400610D520680123F7
:1049C0002946407805F031FB88B904E084F807A057
:1049D0000220BDE8F087A07920F04000A071206897
:1049E00001233A464078294605F0F0FA18B184F8D8
:1049F00007900120EDE7A761D4E90201884204D9BC
:104A0000E060A07940F02000A0714046E1E713B5D6
:104A1000ADF5047D040006D0002285A980A8FFF72B
:104A2000E9FA20B122E009200DF5067D10BD80983D
:104A3000206081A8A061C4F81CD020468599FFF7AA
:104A40004DFA78B9616931B1C87AC00611D580983C
:104A500001F02DF8A06080980021C088A080204639
:104A6000FEF7EDFD042804D00028DDD000212160F0
:104A7000DAE70520FAE710B50446FFF7D3FB002874
:104A800001D10021216010BD70B5ADF5047D0E4649
:104A90000446FFF7C7FB002819D1DEB180A8A0614A
:104AA000C4F81CD000212046FEF733FF002504285F
:104AB00015D000280BD131462046FFF78BF8002196
:104AC0002046FEF7FAFD042801D1002025610DF5EE
:104AD000047D70BD00212046FEF7B1FDF7E725619A
:104AE000E9E733B5ADF50D7D0D4600228DA980A80F
:104AF000FFF780FA040012D189A88690CDF81CD265
:104B000080A88D99FFF7EAF9040008D1859828B1AB
:104B10002DB1294680A8FFF75DF800E00624204665
:104B20000DF50F7D30BD2DE9F74F14468A46002262
:104B300069462046FFF75EFA24685FEA000851D113
:104B4000A7692069B91E884204D8CAF8000049E064
:104B50004401002094F800900025B9F1010F01D024
:104B6000666A16E0022631462046FEF714FC411C18
:104B700003D0012803D028B105E0012000E0022085
:104B8000804628E06D1CA069761C8642EBD322E0AB
:104B900059B93146761C2046FEF782FB5FEA0008D1
:104BA00019D104F134004FF40071B9F1020F07D0AC
:104BB0000278D0F8013042EA0322120106D006E062
:104BC000028802B96D1C801C891E02E06D1C001D4C
:104BD000091F7F1EDCD12561607940F00100607102
:104BE000CAF800504046BDE8FE8F70B50446FFF796
:104BF00019FB05003DD1E07918B10546280005D024
:104C000037E0A079800701D4072532E0D4E902011A
:104C100081422ED9E060A17941F02001A17150B10B
:104C200061692068FEF7B7FB0646401C0BD0012ED9
:104C30000BD065B11CE021692068FEF782FC0546B7
:104C40000020206113E0012512E0022510E0206819
:104C50008169B1420FD96FF070426169FEF7F5FBCF
:104C6000050005D131462068FEF76BFC054615B1FD
:104C7000E571284670BDA0794006FAD52068012369
:104C800004F124014078A26905F0CFF90028DAD1B7
:104C9000A07920F04000A071EBE771B5ADF5157D6E
:104CA000012295A96846FFF7A5F904004FD192A803
:104CB000069009A8079068469599FFF70FF9040038
:104CC00045D10698C07A800601D506243FE0059EAE
:104CD00056B1F07AC00700D007243146009800F0A2
:104CE000E6FE054614B132E00624F6E7F07AC00687
:104CF0001DD5022D01D2022429E02422694689A86B
:104D000000F0BBFE022189A88B95FEF798FC0400F9
:104D10001DD1002189A8FEF7FCFD040003D00098F6
:104D20004069A84201D1072411E0042C0FD1684644
:104D3000FEF720FF04000AD12DB129460098FEF7A6
:104D400000FC040003D10098FEF7C1FA04460DF5FB
:104D5000167D204670BD2DE9F14FADF50E7D04F0B6
:104D60001AF9074601228EA96846FFF743F90400A5
:104D70000BD18AA8069009A8079068468E99FFF77C
:104D8000ADF8040002D0042C02D095E0082493E092
:104D90000698C07A800601D506248DE0002100988F
:104DA000FEF7FFFB060009D0012E09D0701C09D0C8
:104DB0000098FEF74DFA040006D063E0072461E096
:104DC00002245FE001245DE031460098FEF7D7FA47
:104DD000009D804634354FF400720021284600F0D3
:104DE00054FE0B222021284600F04FFE2E242C706A
:104DF0001020E872F8B28990A875C7F3072B85F8E0
:104E000017B0C7F3074A85F818A04FEA176985F865
:104E100019903146284600F053FE05F1200020226B
:104E20002946074600F029FE85F82140009802999E
:104E30000078032804D10098806A884200D10021BC
:104E4000384600F03DFE0098877814E00099012074
:104E5000C1F83080009908F1010808710098FEF748
:104E6000F7F904000ED14FF400720021284600F03B
:104E70000CFE7F1EFFB2002FE8D16846FEF7C2FD90
:104E8000040004D031460098FEF75BFB14E005985F
:104E90001021C1728999817580F817B080F818A027
:104EA00080F81990314600F00BFE0099012008713E
:104EB0000098FEF70CFA04460DF50F7D2046BDE87C
:104EC000F08F37B5ADF50C7D15460C4601228CA947
:104ED00080A8FFF78FF800281CD189A88690CDF80C
:104EE0001CD280A88C99FEF7F9FF002812D1869871
:104EF000C07A80060FD4859868B105F02701C27A80
:104F00000C408A431443C472809901200871809830
:104F1000FEF7DDF904E6062002E613B5ADF50C7DDB
:104F20000C4601228CA980A8FFF764F800281FD145
:104F300089A88690CDF81CD280A88C99FEF7CEFF68
:104F4000002815D18698C07A800612D4859880B141
:104F5000A1798175E188090AC17521790176A18855
:104F6000090A41768099012008718098FEF7AFF90F
:104F700017E4062015E433B5ADF51F7D01229FA986
:104F800004A8FFF737F8002810D104988D909CA84A
:104F90000A900DA80B9004A89F99FEF79FFF002888
:104FA00004D10A98C07A800603D506200DF5217D2C
:104FB00030BD0998F0B300F10B01152296A800F05E
:104FC0005CFD242204A98DA800F057FDA0A8FEF7DF
:104FD000C6FF00283CDB8DA8A099FEF77FFF50B3E9
:104FE0000428E3D18DA8FEF70DFD0028DED1929CA8
:104FF00013220DF25A2104F10D0000F03EFD9DF840
:105000005802012540F02000E072049805718F9944
:105010000698884233D0E07AC00630D521460498FD
:1050200000F045FD01460498FEF7A9F9010013D0F0
:10503000049801E00AE00DE0FEF732F9049A5432D8
:105040000028B3D150782E2808D018E00420ADE70E
:105050000B20ABE70820A9E70220A7E70498007817
:10506000032806D104998F98896A884201D10021CA
:1050700000E08F99104600F023FD0498057104A804
:10508000FEF778FD002891D10498FEF720F98DE70E
:10509000F7B58AB017460D4600220AA96846FEF702
:1050A000A9FF040038D10DB30026314668460296A8
:1050B000FEF7C5FA04002FD101216846FEF729FC4E
:1050C000040002D0042C0FD026E00B2228460599BC
:1050D00000F0D3FC0B20EE7201E02E5430B1401EE4
:1050E000295C2029F9D001E02E700024A7B1009896
:1050F000016AFEF7D5F804000ED100980078032865
:105100000DD0272000F13401009A35301044515C55
:10511000006841EA002038600DB02046F0BD432011
:10512000F0E72DE9F1438CB001220CA96846FEF7A7
:1051300061FF00282FD180468DF8248045460C98C9
:1051400000E06D1C415D0029FBD100E06D1EBDB388
:10515000411911F8011C2029F8D0002427460DF12F
:1051600024090C980121C05D7F1C04F0C5FF04F0E8
:10517000DDFF002104F0C0FF06000BD00146F9A0BE
:1051800000F08BFC30B9FF2E01D90A2000E00B2083
:10519000A04203D806200DB0BDE8F083FF2E03D94E
:1051A000310A09F80410641C484609F80460641CBC
:1051B000AF42D6D320210B2C03D20155641CFAE751
:1051C000FFE700216846CDF80880FEF738FA00288E
:1051D000E1D101216846FEF79CFB012440B304287D
:1051E000D9D19DF8241000200029D4D0012168468F
:1051F000FEF7D5FA0028CED120220021059800F034
:1052000044FC0B2209A9059800F037FC05990820F9
:1052100081F80B0003F0BFFE05998875059A010A15
:10522000D175059A010C000E1176059948760BE0B0
:105230009DF8240028B10B2209A9059800F01DFC57
:10524000E8E70599E5200870009804710098FEF7DA
:105250003EF8A0E72DE9F74F90B0154610A8FEF7ED
:105260007EFE002802DA0B2013B028E611990129EE
:1052700002D8691E0D4201D01320F5E7BD4951F84F
:1052800020404CB100212170C0B2039004F082FE96
:10529000C10703D00320E7E70C20E5E7400701D56D
:1052A0000A20E1E708AA0121039804F0F1FE002892
:1052B0007ED1089880287BD3119909B1002700E09E
:1052C0003F27C11B08917DB94FF4FA60B1FBF0F2A2
:1052D0000020A94B00E0401C33F810509542FAD84A
:1052E000A54A163232F81050680A5FEA000812D058
:1052F000B8F1800F01D980208046B1FBF8F001257C
:1053000040F6F672904200D302254FF6F6729042B4
:1053100003D3032520E00120EEE7032D1CD0012D4F
:1053200023D0400010F1040000F2FF10460A4FF0B5
:1053300001092020834607EB090A0AEB06005844BE
:1053400000904044C01B884247D809AA0321039813
:1053500004F09EFEA0B90EE040F2072202EB8000AE
:10536000460A4FF020090020E4E700EB4000401C13
:105370004008C01CD8E7099810B1B0F5004F01D91A
:1053800001200990099900980844401E491E88434D
:105390000099401A0990032D12D006440898A0EBFA
:1053A00009018A1BA2EB0B02B2FBF8F10D9100E0A0
:1053B000D7E0022D07D0032D0AD0012D15D019E01A
:1053C00081448244EAE740F6F672914205D311E047
:1053D00008464FF6F671884201D20E2044E70C20B1
:1053E0000290119868B1F02046E0B0F5803F06D2F7
:1053F0000120F5E7B0F5803F01D20420F0E7062058
:10540000EEE704F134004FF400720021079000F041
:105410003CFB04F5F9700121417081700021C170DD
:10542000029A0271FE224271089A43F6C1633A441D
:10543000B2FBF3F23F2343EA920C099280F806C0D4
:10544000C271037241728172C172089901730A0AB2
:1054500042730A0C8273090EC173552084F832021C
:10546000AA2084F83302012300220799039804F04C
:10547000DCFD002875D1F820343402904FF400721E
:105480000021204600F001FB0B223CA1204600F049
:10549000F4FA0021E1720220207384F80D8084F870
:1054A0000E904FEA1920E07301202074032D0BD0D9
:1054B00040026074000AA0740898B0F5803F05D2DD
:1054C000E074000A20750CE00020F2E784F8200068
:1054D000020A84F82120020C84F82220000E84F8AD
:1054E0002300029860753F202076002060764FF000
:1054F000FF0984F81A90E0762777380A6077380C2D
:10550000A077380EE07703F046FD8021292209902C
:10551000032D43D084F82700030A84F82830030CB5
:1055200084F82930000E84F82A00A675300AE07548
:1055300084F8241084F82620132213A104F12B00F0
:1055400000F09BFA552084F8FE01AA2084F8FF01A0
:1055500001233A462146039804F067FD002800D154
:105560004FE0D7E0222A2B2C2E3A3B3C3D3E3F5BBE
:105570005D7C7F0048010020DEAC0108EBFE904D11
:1055800053444F53352E30004E4F204E414D452051
:1055900020202046415420202020200084F8430071
:1055A000030A84F84430030C84F84530000E84F874
:1055B000460084F82460300A84F82500300C84F812
:1055C0002600300E84F82700022084F82C000020EA
:1055D00084F82D0084F82E0084F82F00012384F82D
:1055E000303084F83100062384F8323084F83300F8
:1055F00084F8401084F842201322FDA104F14700F2
:105600009EE7032D05D10123BA1D2146039804F01E
:105610000CFD4FF400720021204600F036FA02988B
:105620000990032D12D0012D0ED06FF0FF01014320
:10563000099121700998000A60700998000CA07007
:105640000998000EE0701EE0EE49F0E760F0FF0000
:10565000099020700998000A60700998000CA070E9
:105660000998000EE07084F8049084F8059084F89E
:10567000069084F8079084F8089084F8099084F8DC
:105680000A900F20E07252460AF1010901232146D7
:10569000039804F0CAFCE8BB4FF4007200212046D6
:1056A00000F0F3F901200AE04A4609F1010901235B
:1056B0002146039804F0B9FC60BB0998401C09908E
:1056C000B042F1D3032D0AD05E464A4609F10109E2
:1056D00001232146039804F0A8FCD8B901E046460E
:1056E000F3E7761EF1D1032D3AD15220207060707D
:1056F0006120A0704121E170722284F8E42184F8D5
:10570000E52184F8E61184F8E7010D98401E84F83D
:10571000E80100E02CE0010A84F8E911010C84F8AA
:10572000EA11000E84F8EB01022084F8EC0100205D
:1057300084F8ED0184F8EE0184F8EF01552084F837
:10574000FE01AA2084F8FF0101237A1C2146039858
:1057500004F06BFC0123FA1D2146039804F065FC5C
:1057600000221146039804F093FC00283FF485AD15
:10577000012079E52DE9FC410025904607460446C5
:105780004E1E0FE001AB012269464046FEF729FE9E
:105790000198012808D19DF900006D1C04F8010B47
:1057A0000A2801D0B542EDDB0020207015B1384643
:1057B000BDE8FC810020FBE738B545680446002DB4
:1057C00016DB60196D1C01733D2D0DDB6B462A46FF
:1057D00004F10C012068FEF7A9FE0098A84201D14F
:1057E000002501E04FF0FF356560A068401CA06017
:1057F00038BD00B595B00291002103910491014696
:1058000002A8FFF7D9FF039800280DDB024601AB81
:1058100005A90298FEF78AFE30B9019903988842DB
:1058200002D1049815B000BD4FF0FF30FAE710B573
:1058300096B004460020CDE90210049003E002A8CF
:10584000641CFFF7B9FF94F900100029F7D1039801
:1058500000280DDB024601AB05A90298FEF766FEA3
:1058600030B901990398884202D1049816B010BD4E
:105870004FF0FF30FAE70FB42DE9F0479AB00DF181
:1058800090090290002003900DF154080490239891
:1058900010F9011B2390002976D0252903D002A8F6
:1058A000FFF78AFFF3E7002510F9011B2E4623902E
:1058B000302902D02D2902D00FE0012500E0022579
:1058C00010F9011B239008E006EB860001EB40066F
:1058D0002398303E10F9011B2390A1F130000928D4
:1058E000F2D96C2901D04C2905D1239845F0040543
:1058F00010F9011B2390002946D0A1F161000A464E
:10590000192801D8203A52B24F2A44D006DC422A44
:105910003FD0432A39D0442AC1D13EE0532A0DD08A
:10592000552A3AD0582ABAD11023680701D4442AFC
:1059300035D059F8040B442A33D037E059F8047BAA
:10594000002400E0641C385D0028FBD1A80704D5C2
:105950000CE0202102A8FFF72FFF2046641CB04274
:10596000F7D303E002A87F1CFFF726FF97F900108A
:105970000029F7D103E0202102A8FFF71DFF2046F0
:10598000641CB04283D2F6E760E019F8041B49B208
:1059900085E70223C9E70823C7E70A23C5E759F8C3
:1059A000040B002802DA404245F00805002447466F
:1059B000B0FBF3F203FB1202B0FBF3F052B2092A80
:1059C00005DD782920D04FF0070C624452B2303206
:1059D0003A55641C08B1102CEAD3280703D52D20B2
:1059E00008F80400641C2746E80710D030200FE0B8
:1059F0004E4F204E414D4520202020464154333209
:105A00002020200000FFFF004FF0270CDDE72020C2
:105A1000824603E0514602A8FFF7CEFEA80703D452
:105A200038467F1CB042F5D34546641E295702A86C
:105A3000FFF7C2FE002CF8D103E0514602A8FFF7A1
:105A4000BBFE38467F1CB0429CD2F6E70398002884
:105A500010DB024601AB05A90298FEF767FD48B9C5
:105A600001990398884205D104981AB0BDE8F0075F
:105A70005DF814FB4FF0FF30F7E703E011F8013B4E
:105A800000F8013B521EF9D27047C9B202E000BFD4
:105A900000F8011B521EFBD2704700E0401C90F939
:105AA00000200AB18A42F9D190F9000070470246FD
:105AB000488B1278032A02D1898A40EA0140704754
:105AC00081760A0AC2760A0C0275090E4175704782
:105AD0007CB516461C4605460B22FFF7CEFF052C6B
