:020000040800F2
:1000000020AB0020D5B00008DDB00008DFB000084C
:10001000E1B00008E3B00008E5B00008000000000F
:10002000000000000000000000000000E7B0000831
:10003000E9B0000800000000EBB00008AD030108C3
:10004000EFB00008EFB00008EFB00008EFB0000814
:10005000EFB00008EFB00008EFB00008EFB0000804
:10006000EFB00008EFB00008EFB00008EFB00008F4
:10007000EFB00008EFB00008EFB00008EFB00008E4
:10008000EFB00008EFB00008EFB00008550301081A
:1000900039030108EFB0000845030108EFB000087C
:1000A000EFB00008EFB00008EFB00008EFB00008B4
:1000B000EFB00008C5030108EFB00008EFB000087A
:1000C000EFB00008EFB00008EFB00008EFB0000894
:1000D000EFB00008EFB00008EFB000083F0D0008D7
:1000E000EFB00008EFB00008EFB00008EFB0000874
:1000F000EFB00008EFB00008EFB00008EFB0000864
:10010000EFB00008EFB00008EFB00008EFB0000853
:10011000EFB00008EFB00008EFB00008EFB0000843
:10012000EFB00008EFB00008EFB00008EFB0000833
:10013000EFB00008EFB00008EFB000087D03010841
:1001400061030108EFB000086D030108890301088D
:10015000EFB00008EFB00008EFB00008EFB0000803
:10016000EFB00008EFB00008EFB00008EFB00008F3
:10017000EFB00008EFB00008EFB00008EFB00008E3
:10018000EFB00008EFB00008DFF814D00FF0D0FC9B
:100190000EF068F9004800470FF500080FF0E2F88C
:1001A00020AB0020FEB442464B4654465D463EB46A
:1001B0000DF037FD3EBC90469946A246AB46FEBCCC
:1001C00000F032F8704700BF80EC200B7047C0ECA5
:1001D000200B704790EC200B7047D0EC200B704741
:1001E00085460D98DDF838E00F9B5DF8042B20E97B
:1001F0000C009DE8FE1F854601BD4DF808ED0DF190
:10020000080E4DF804ED2DE9FF1F002102B46946E8
:1002100081B00FF0E0FBDDF840E012B07047000065
:10022000E8E70100E8EF01004DF808ED0DF1080ED8
:100230004DF804ED2DE9FF1F002102B4694681B09D
:100240000FF030BC10B575481AF0A6FA7449431C7B
:100250004FF0000211D00B68002B1DDD4B687E288B
:1002600040EA03234B6014D0412812D0422810D01A
:1002700043280ED044280CD016E00868002813D07C
:1002800001DAC0F100008B6898420DDA0A60486814
:1002900010BD18460A6010BD1B2801D00A6010BDB1
:1002A0008A68521DC1E900204FF0FF3010BD2DE9D2
:1002B000F041050048D0686908B95A486861284685
:1002C00001F01EF980464FF0FF3700BFFFF7BAFF7D
:1002D00006461A2815D004DCBE4230D0192E09D1AA
:1002E00010E05148301802D05049C84202D10020D5
:1002F000BDE8F0813946304600F059FD04000ED1CA
:100300001DE0FEE7BFF34F8F49480168494A01F4F9
:10031000E06111430160BFF34F8FFEE7641C20785A
:100320002028FBD06969204688470146207818B10B
:1003300011B141A017F096FC696900208847761C2E
:10034000C4D1404601F0DCF82846D1E710B50121C0
:100350007F2007F061F800F08DFB05F03BFF00F017
:1003600009FB4FF4967000F072FB002335A219468A
:10037000364800F0B9F84FF4612000F034FC344CFA
:1003800020604FF4614000F07CFC3249002332A22F
:100390000860AFF2E500216800F0A6F8012232A162
:1003A000324804F088FA012231A1324804F083FA7D
:1003B000206801F0A5F87C2006F02AFF01281BD058
:1003C0007D2006F025FF01281FD07E2006F020FFAB
:1003D00001281CD07B2006F01BFF012819D07A20B1
:1003E00006F016FF07F0B8F823A000F068FFBDE89C
:1003F0001040002001F084B8224823490068B0FB77
:10040000F1F122A017F02EFCECE727A002E02BA0D0
:1004100000E02FA017F026FCE4E700001801002000
:10042000A400002003940008A5B0E4FFDD1AE9A4AD
:100430000CED00E00400FA052E2E2E20575446281D
:10044000256429004957444700000000510A00086C
:10045000D4000020C00000205061727365436F6DAE
:1004600020434F4D31000000303A0000300500209D
:10047000313A000064070020406366672E696E69A8
:100480000D0000006001002040420F000D202E2EC4
:100490002E205357522072657365742C2025644DAD
:1004A000487A0D0A3E0000000D202E2E2E204957BE
:1004B00044472072657365740D0A3E000D202E2E90
:1004C0002E20575744472072657365740D0A3E000D
:1004D0000D202E2E2E20706F776572206F6E207289
:1004E000657365740D0A3E00F8B507461C4615464F
:1004F0000E4618201AF07AF9009090B10760F7497B
:10050000C0E901650968C0E90314F54C206820B909
:100510004FF4007000F008FE20600422694600F0ED
:1005200026FE0098F8BD38B5ED4D286800281BD090
:100530000422694600F038FE002815D00099E74CE7
:10054000C868226890420ADC2268101A486148682C
:10055000096888470098226801691144C160042233
:100560006946286800F003FE38BDF8B5DC4C064645
:100570000F46206800F02EFE850813E0042269462D
:10058000206800F011FE00980168B14205D1416871
:10059000B94202D11AF0D8F804E004226946206872
:1005A00000F0E5FD6D1EE9D2F8BD2DE9F843CC4D14
:1005B00007468846286800F00DFE8608002414E0EF
:1005C00004226946286800F0EFFD00980168B942EE
:1005D00006D14268424502D0B8F1000F00D104466E
:1005E00004226946286800F0C2FD761EE8D2204643
:1005F000BDE8F8837CB5BA4D286800F0EBFD8408AF
:10060000B8A017F02FFB11E0042201A9286800F020
:10061000CBFD01984169009190E80E00B3A017F05E
:1006200021FB042201A9286800F0A1FD641EEBD281
:100630007CBD70B5A94E0C4631680D1801E004B1BF
:10064000A04730688542FADC70BD10B5ADF50A7D73
:1006500001460122684604F053F918B105200DF552
:100660000A7D10BDA64C2168C1F818D02068FFF79C
:100670001EFEDDE902018842F8D121680020886170
:10068000684604F093FB0020E9E72DE9F04180463D
:1006900007F084FF0646002505EB8500002408EBE3
:1006A000C007B0883A5D604381B2F088684380B289
:1006B00007F0BBFF641C282CF3DB6D1C142DEBDB57
:1006C0004146AFF23900FFF770FF8449096841F2F3
:1006D00088321144C1604046BDE8F0812DE9F04701
:1006E0000D4681460021AFF25D00FFF75EFF074631
:1006F000B9F100004FF000064FF0200854D0002F51
:100700007ED07C682946D4F828239047401C14D01A
:10071000082D3CD00A2D17D00D2D12D0D4E9C801D8
:1007200001EB810104EBC102411CC4F82013855484
:10073000D4F8200328282FD031E04FF0FF30BDE857
:10074000F087C4F820632AE0D4F82403132803D0E8
:10075000401CC4F8240322E0002101EB81020020A8
:1007600004EBC202131893F828301354401C2828B5
:10077000F8DB491C1329F0DB01EB81010020424624
:1007800004EBC1010A54401C2828FBDB07E0D4F825
:10079000200320B1401E00E02720C4F820034F486A
:1007A0000068401DF86051E057B37C685548D4F8A4
:1007B0002C13006881420BD011B1D4F828230A61B0
:1007C000C4F82C030169C4F82813AFF2EF010161EA
:1007D0000021424601EB8103002004EBC3031A54BD
:1007E000401C2828FBDB491C1429F3DBC4F82463D4
:1007F000C4F8206307F0BCFD002007F0C7FE00E04E
:1008000009E04FF6E07007F0BAFE3F4807F0A4FD9C
:10081000681C10D01AE04FF44C7019F0E7FF044642
:1008200044F6206339A20146C0F82C63AFF2A5104C
:10083000FFF75AFEBAE7D4E9CA0108612146AFF2D0
:10084000B510FFF792FE204619F07EFF284676E7A6
:10085000202248402E4905E0002802DA81EA4000C3
:1008600000E04000521EF7D2704770B50D4690F977
:10087000001004462A2920D095F90000D0B10DF0CF
:1008800078FA064694F900000DF073FA864201D119
:10089000012000E0002021783F2905D000210843F5
:1008A00006D0691C601C13E00121F8E7012070BD2F
:1008B000002070BD0029FBD1F8E72946601CFFF736
:1008C000D4FF0028F2D128780028F1D0691C2046F6
:1008D000FFF7CBFF0028EBD0E8E70000AC000020DA
:1008E000B80000202E2E2E0D0A00000025303858AA
:1008F0002C253038582C25732C25640D0A00000057
:100900001801002014010020940100204C636400B1
:10091000B71DC10438B504460121080306F07CFD6B
:1009200006F0F2F809480A49081A8108074806F053
:10093000F3F8642194FBF1F201FB124294FBF1F114
:10094000009004A306A017F08DF938BD0000000840
:10095000000004084A756C20203420323031370002
:100960002025642E253032642025732C203C253030
:1009700038583E0038B54FF4C06005F0E9FC01205E
:100980008DF8010003248DF802408DF80300192032
:100990008DF80000684605F0E0FC02208DF80100AB
:1009A0003C208DF80000684605F0D7FC1F208DF82C
:1009B0000000684605F0D1FC20208DF80000684654
:1009C00005F0CBFC8DF8014014208DF8000068463E
:1009D00005F0C3FC40208DF80000684605F0BDFC22
:1009E00013208DF80000684605F0B7FC3F208DF815
:1009F0000000684605F0B1FC28208DF8000068462C
:100A000005F0ABFC17208DF80000684605F0A5FC4A
:100A100012208DF80000684605F09FFC1D208DF81F
:100A20000000684605F099FC1E208DF8000068461D
:100A300005F093FC25208DF80000684605F08DFC3C
:100A400027208DF80000684605F087FC38BD704708
:100A5000704710B50121C80206F0FCFC4FF4C070CD
:100A60000AF030FF41200AF034FFBDE810407F203B
:100A70000AF045BF7FB5684606F06AFC042005F021
:100A8000ADFC01984FF47A71B0FBF1F14FF0FF35F6
:100A9000B1F1807F0DD221F07F404FF0E024401E65
:100AA00060610F21284600F009F80020A0610720AE
:100AB00020610321284600F001F87FBD0907090ED7
:100AC000002806DA00F00F0000F1E02080F8141D85
:100AD000704700F1E02080F8001470472DE9F041E4
:100AE00090B00546684606F089F90121880506F0B0
:100AF00093FCDFF80084404606F0D0F8FE4F4FF03C
:100B00000066CDE9006768680024694600680290C5
:100B10004020CDE90304C002CDE90940C011CDE970
:100B20000540089407940D9440460E9406F03EF953
:100B30000121404606F073F9DFF8B883A8F1780880
:100B4000404606F0ABF8CDE90067286869460068C2
:100B5000CDE902048020049040000990404606F050
:100B600025F90121404606F05AF90122C021381F1B
:100B70000AF041FE10B0BDE8F081F8B5064600204D
:100B80000090DE480268DE494FF0FF358A420BD004
:100B900002682C468A4201D004680160012269463D
:100BA0003046009400F0E3FA01226946304600F036
:100BB000FBFA08B10098F8BD2846F8BD0846D149AF
:100BC0000968C9010ED5D0490968C9070AD0CE49BC
:100BD00080390968C90705D04FF060410A68002ACA
:100BE000FCD008707047F0B50646802187B00846F3
:100BF00000F015FB0546AFF27D00E860AFF2430060
:100C000028610121102006F02FFC00244FF4007011
:100C1000B94FADF81400ADF810403F1FADF81240C9
:100C2000ADF8164004A938460AF03AFDADF8084080
:100C30000C20ADF80440ADF80A000096ADF806406F
:100C4000ADF80C40694638460AF0CDFC2846FFF75F
:100C500045FF012138460AF037FD07B02846F0BDB0
:100C600013B5A648012201A94068406800F07FFA48
:100C70000446012240F22771A4480AF0C4FD204630
:100C80001CBDF0B589B0064607A806F048FA022058
:100C90008DF8200040029E4D002407908DF82240E0
:100CA00007A9284606F0EAF901208DF82300C002C2
:100CB000079007A9284606F0E1F907220A212846ED
:100CC00006F065FA07220B21284606F060FA80211B
:100CD000084600F0A4FA0546AFF27B000121286126
:100CE000880406F0B7FB4FF40070ADF81800874F8A
:100CF000ADF81440ADF81640ADF81A4005A93846D5
:100D00000AF0CEFCADF80C400C20ADF80840ADF870
:100D10000E000196ADF80A40ADF8104001A9384622
:100D20000AF061FC012138460AF0CEFC012240F2B3
:100D3000255138460AF067FD09B02846F0BDF8B5E0
:100D40000020724C0090202120460AF074FD6B4D6B
:100D500070B140F2255120460AF096FD20460AF077
:100D6000DDFC0090686801226946006800F0FFF928
:100D7000802120460AF05FFD002811D040F227763E
:100D8000314620460AF080FD6868012269464068C5
:100D900000F00AFA28B1009881B220460AF0BAFCA5
:100DA000F8BD0022314620460AF02DFDF8BD70B591
:100DB000044658480D460668B06820B93068406956
:100DC00000F0B2F9B0600A2C17D005DCB4F1FF3F97
:100DD0003ED0082C04D118E00D2C0ED07F2C14D05E
:100DE000426901688B1842685B1E61B2934217D05A
:100DF000531C43601170CDB92AE042680021117084
:100E0000016881604160084670BDD0E901129142DD
:100E10001ED0491E4160DDB13FA016F023FF17E050
:100E20001170ADB13D49082000F071FB0CF094FF4A
:100E30000068005D10F03E0F04D03849204600F0F5
:100E400066FB05E03E2322463C2135A016F00AFF52
:100E5000002070BD30B500231D4600E0401C90F915
:100E60000040202CFAD07CB141F823005B1C03E049
:100E7000202C00D10570401C90F9004024B1944210
:100E8000F6D100F8015BEAE7184630BD0A2801DA1E
:100E9000303070473730704710B504460CF05CFFB7
:100EA0000068015D81EA8100000609D5202904D08F
:100EB00020460CF05EFF373810BDA4F1300010BDA5
:100EC000002010BD70B50C460646002504E0761CD7
:100ED000FFF7E2FF40EA0515641E09D30CF03CFF62
:100EE000016896F90000095C81EA81010906EED4E7
:100EF000284670BDB864024004100140BC000020C8
:100F0000A55AA55AFCED00E0800E00E00048004024
:100F100000080240180100200820080014010020E9
:100F200025632530325825630000000010B50446C3
:100F3000012903DD2009491EFFF7F8FF04F00F0027
:100F4000FFF7A4FFBDE810406E4900F0E0BA00E0F2
:100F5000401C01780029FBD170472DE9F04105467E
:100F600000EB252000EB254000EB2560F82901DA95
:100F70000C4600E0F82406190F1B2A46611D62A0EA
:100F8000761D16F06FFE05E015F9010B02210644EF
:100F9000FFF7CCFF641EF7D20221F043FFF7C6FF34
:100FA0001FB139462846FFF7D8FF4FF0FF30E2E582
:100FB0002DE9F843054600EB252000EB254000EB2A
:100FC00025603E2901D20C4600E03E2400EB840758
:100FD000A1EB0409052000EB84012A464AA07F1DED
:100FE00016F040FEE8460CE001CD0026CDF80000EA
:100FF00018F9060002210744FFF798FF761C042E1B
:10100000F6D3641EF0D20221F843FFF78FFFB9F147
:10101000000003D001462846FFF7CAFF4FF0FF301B
:10102000BDE8F8832DE9F0410546002602223AA1E9
:101030000CF0FDFE394C50B90221A81CFFF742FF0D
:1010400020610421281DFFF73DFF02266061022276
:1010500033A128460CF0EBFE50B90221A81CFFF783
:1010600031FF20610621281DFFF72CFF0326606158
:1010700002222CA128460CF0DAFE4FF0FF3828B1EE
:1010800036B30027A7603846E76017E00221A81CA6
:10109000FFF718FF20610821281DFFF713FF042622
:1010A0006061EEE705EB40000221801CFFF70AFFBC
:1010B000A1680844A060E068401CE0602169491C08
:1010C0008842EFDBA068401C10F0FF0FA06001D049
:1010D000404650E5E7600CE0304405EB400002215B
:1010E000001DFFF7EFFEE26861698854E068401C6C
:1010F000E0602069811BE068491E8142ECDC002031
:1011000039E50000140100200D0A53332530325810
:10111000253038580000000053310000BC0000208A
:10112000533200005333000070B5051E12DD182144
:1011300001200CF0ADFE04000CD0012128460CF07B
:10114000A7FEA0606060656120600028204602D193
:1011500019F0FAFA002070BD10B5040005D020681F
:1011600019F0F2FA204619F0EFFA002010BD70B520
:101170000024436813E08568EE1A012E11D05E1B2F
:1011800045696D1EAE420CD011F8015B03F8015B9E
:10119000466905682E449E4200D12B46641C944249
:1011A000E9DB4360204670BD70B50024836809E028
:1011B00013F8015B0D5546690568641C2E449E4278
:1011C00000D12B46521E02D345689D42F0D1836068
:1011D000204670BD002804D0D0E901128A4201D80F
:1011E000881A70474069801A0844704708B5002182
:1011F000009101226946FFF7D7FF08B1009808BDAA
:101200004FF0FF3008BD03B5012201A9FFF7AFFF82
:10121000012802D04FF0FF300CBD01980CBD70B515
:101220000D4606461C2101200CF032FE04001BD0A6
:101230003046FFF779FF20602846FFF775FFAFF2D1
:101240005301E1606060AFF2410121610021616101
:10125000216829B108B1204670BD084619F074FA1A
:10126000606808B119F070FA002070BD10B5040074
:101270000CD02068FFF770FF6068FFF76DFFA06873
:1012800008B119F061FA204619F05EFA002010BD8D
:1012900010B583680DE004689C4201D14369234482
:1012A00044685B1EA34202D14FF0FF3010BD8C5C3E
:1012B0001C70521EEFD2836091F9000010BD70B512
:1012C000164D0446286848B120460CF092FD0246AF
:1012D000286821460068BDE87040D9E74FF0FF302C
:1012E00070BD01B50D48006828B10068012269464B
:1012F000FFF7CEFF08BD4FF0FF3008BD1CB56B46B1
:10130000012201A903F0A3FB0098012802D04FF0AD
:10131000FF301CBD9DF804001CBD0000180100201A
:1013200070B5694D421C11D0684C0023A4F128020D
:10133000E9B14E1C25D045F8201000BF34F810103C
:1013400052F82000BDE8704005F012BF5FF00004C5
:1013500055F8240038B1401E45F8240003D100217F
:101360002046FFF7DDFF641C0A2CF1DB70BD45F859
:10137000203034F8101052F82000BDE8704005F01D
:10138000F9BE45F82030D9E770B54F4C32210C3CFE
:101390002068401C90FBF1F2206001FB12000A253E
:1013A000A8B90021A068FFF7BBFF6068401C90FB54
:1013B000F5F105FB11016160A068814207D1401C75
:1013C00090FBF5F105FB11001421FFF7A9FF206840
:1013D00040F2F51190FBF1F201FB1200002812D14E
:1013E0006068A06090FBF5F105FB11001421FFF788
:1013F00097FFA068401C90FBF5F105FB1100BDE8CC
:10140000704000218CE770BD2DE9FC4706460F4671
:10141000684605F084FE4FF001098DF804904FF006
:10142000000A8DF806A01FB1284D0024283D48E091
:10143000002327A21946AFF2AF00FFF755F8BDE829
:10144000FC8700BF56F8240090F900006138092895
:101450001AD2DFE800F005070B0D0F111315170066
:101460001E4800E01E4845F824000FE01D48FAE73A
:101470001D48F8E71D48F6E71D48F4E71D48F2E768
:101480001D48F0E71D48EEE745F824A056F8240073
:10149000401C46F824000CF0D8FFDFF8308009FA31
:1014A00000F001B228F81410009155F824006946A4
:1014B00005F0E4FD38F8141055F8240005F05AFE44
:1014C000641CBC42BEDBBAE7E8000020C009002073
:1014D0005F6C6967687473686F7700000000024092
:1014E0000004024000080240000C024000100240CC
:1014F0000014024000180240001C0240002002407C
:10150000B7490B1F0A68186008601046704770B52D
:101510000646B3480C46001F75B2814215D12068BB
:1015200020B910E0AF490220FFF783F821680A696B
:10153000486831469047401CF4D02068816911B159
:10154000284604F08CFC304670BD2846BDE870404B
:1015500004F085BC10B50446A1494FF0FF308C4221
:1015600010D1216800290FD00868C9688847216810
:101570008969002908D0421C06D10846BDE8104000
:10158000FFF7BCBE2046F9E710BD0068806903F094
:101590000DBC00688069D0E90210814201D10120B0
:1015A00070470020704770B50C4600264FF4097054
:1015B00019F01CF905003AD094F90000612808D010
:1015C000722802D0772832D101E0012222E00A22DB
:1015D00020E00A224FF0FF361CE054281AD00CDC21
:1015E000442817D004DC202814D02B281FD10DE06C
:1015F00052280FD053280DD019E062280AD0632852
:1016000008D06E2806D0742804D010E022F008001C
:1016100040F0030214F9010F0028DED1D2B272A10A
:10162000284603F06DF920B1284619F08DF8002006
:1016300070BD002E01DAE96800E03146284603F06B
:1016400085FC284670BD70B505460C461046FFF770
:101650009CFF21462846BDE87040A4E732B1012A2C
:1016600007D0022A0AD04FF0FF3070470068806927
:1016700008E0006880698268114403E000688069BE
:10168000C268511A03F062BC0068806903F042BB73
:1016900000688069C07970475149091F37E7FEE744
:1016A0002DE9F0414E4D0668083D40F2B2742868BD
:1016B00018B92C2019F09AF828604E483C23B6FB44
:1016C000F0F100FB1162B6FBF0F1B2FBF3F003FBAB
:1016D000102628684FF461650660B2FBF5F605FB3D
:1016E0001626B6FBF3F3B2FBF5F2C0E901320A1D90
:1016F0000723B2FBF3F503FB15224FF4B7738261A6
:101700005D1E642296000EE0A70709D194FBF2F754
:1017100002FB174757B994FBF6F706FB17472FB1A3
:101720002F46C91B641CA70702D00BE01F46F8E731
:1017300094FBF2F702FB17477FB994FBF6F706FB21
:10174000174757B12F468F42DED9A4F26C7300279A
:10175000C161C0E90473284D20E01F46F3E700BFD4
:101760005FEA847C0DD194FBF2FC02FB1C4CBCF1C3
:10177000000F16D194FBF6FC06FB1C4CBCF1000FCD
:101780000FD04FF0000C00BF0CEB4C0C05EB0C1C09
:101790005CF823C05B1CA1EB0C010361A30703D021
:1017A0000CE04FF0010CEFE794FBF2F302FB134364
:1017B000A3B994FBF6F306FB13437BB15FF0000380
:1017C00003EB430305EB031C03695CF823C08C4562
:1017D000C6D9491C0762C160BDE8F0810123EFE76B
:1017E000180100202705000866696C656E616D654B
:1017F0000000000080510100CCBA010808B50021AA
:101800001448FEF7B2FE14480090144B144A01210C
:10181000144808F0CDFC08BD08B500210D48FEF7BE
:10182000A4FE0D48104B1C300090104A01210D48B9
:1018300008F0BEFC08BD704770477047704770479E
:1018400070477047704770477047704770477047E0
:1018500070470000F59F00081C0100205C0200207A
:10186000AC020020D40900204C03002078030020A3
:101870002DE9F0410646002501F014F8074655E031
:10188000F80751D03069EAB20369416BD14006EBE9
:10189000820201F00101926943EAC11194680C408F
:1018A000E1071AD00124426B04FA05F18A4342632E
:1018B00006EB850080698460FE48E9B200684268F2
:1018C00030469047F078012807D135B996F81101D4
:1018D000042802D1304600F0EBFF200704D506EBC8
:1018E0008500082480698460E00604D506EB850045
:1018F000102480698460600604D506EB85004024CE
:1019000080698460A00704D506EB85000224806905
:101910008460200608D52946304600F060F906EBC1
:1019200085018020896988607F086D1C002FA7D100
:101930000120BDE8F0812DE9F0470446002500F0C4
:101940003DFB00287ED0204600F048FB061E7AD0E2
:10195000300303D5204600F08AF90546700303D50D
:101960002046FFF785FF0543B0074FF0000A02D578
:10197000E16802204861DFF83C834FF00109002E46
:1019800018DAA07A30B1D4F80C01D4F80C1120F098
:10199000030008602069416821F001014160D8F826
:1019A0000000816920468847E1684FF000404861A7
:1019B00045F00105300503D5204600F0DDF805436C
:1019C000300709D5D8F80000C16820468847E1688B
:1019D0000820486145F00105F00603D5204600F0D7
:1019E0008DF80543F00403D5204600F047F8054381
:1019F000B00419D5204600F0CBFDE068C76820464A
:101A000000F0B3FD03282FD084F80290402127F482
:101A10007050A18000F5A050E168C860E1684FF403
:101A20000050486145F00105F0020AD5D8F80000E1
:101A3000C16920468847E1684FF48010486145F04D
:101A4000010501E00DE00DE0B0020AD5D8F8000074
:101A5000016A20468847E1684FF40010486145F06C
:101A600001052846BDE8F08784F802A04FF4007114
:101A700027F47050A18000F51050CDE770B50446F2
:101A8000006900250126416821F0010141602946D5
:101A9000204600F041FA0020FF2106E004EB80021E
:101AA00093699960526D9160401C62788242F5D8CA
:101AB00021694FF0FF3088612846216966F30F00E5
:101AC00066F31F40C861216945F00B004861216938
:101AD00045F00B0008612069016821F4FE61016096
:101AE000204600F0E5FEE1684FF4805048617148FF
:101AF0000068016920468847012070BD70B5064620
:101B0000C068816921F010018161F068056A05F003
:101B10000F0000EB800006EBC004C5F3434004F562
:101B20005D74072821D2DFE800F020200420202067
:101B3000150047F6F070054217D0C5F30A152A467E
:101B40003046E16800F02AF9E0682844E060A069C6
:101B5000284409E0082206F2CC51304600F01EF974
:101B6000A069C5F30A110844A061F068816941F0D9
:101B700010018161012070BD38B5044600208DF848
:101B8000000094F812018DF800004A48006841698D
:101B90002046884720698068E2684FF400615161FF
:101BA000A17AD1B1C00718D094F81501012814D139
:101BB0009DF80000032810D1D4F80C01016841F011
:101BC00001010160D4F80C01016841F003010160DA
:101BD0003948016841F006010160012038BD2DE956
:101BE000F0470E46054601EB860005EBC004D4E93C
:101BF0004C01421AD4F8240104F58E74904200D2AC
:101C00000246D21C970805EB860922E0A0EB0108EA
:101C1000A168414500D2884608F1030087081FFAF1
:101C200088F3F2B22846E16800F0A4F8E16801EB1D
:101C30000800E060A16901EB0800A06161698842C9
:101C400007D321780120884029694A6B82434A637F
:101C50000BE0D9F81800806980B2B84205D9D4E900
:101C60000501814201D20028D0D10120FAE62DE9F8
:101C7000F0410646002400F007FE0746DFF83480F6
:101C800049E0F80745D0E1B2304600F003FE0546D2
:101C9000C0072BD006EB84000125416D8D60F178E3
:101CA000012912D1406D016904EB840006EBC000EC
:101CB00004E000004002002010ED00E0D0F87C239A
:101CC000C1F31201511AC0F88C13D8F80000E1B228
:101CD000026830469047F078012807D134B996F869
:101CE0001101052802D1304600F0E2FDA80704D515
:101CF00006EB84000225406D8560280709D5D8F8D9
:101D0000000081683046884706EB84010820496D51
:101D100088607F08641C002FB3D1012009E6000011
:101D2000F8B5002704463E460097FC4D032008F016
:101D30004FF9E06800690090761CAE4201D900209E
:101D4000F8BD00980028F1DA0099002041F0010167
:101D500000910099E2681161E1680A690092401CF3
:101D6000A84202D8009AD207F7D1032008F030F930
:101D70003846F8BD30B5C47800256CB900EB820058
:101D80000024DB1C9B08D0F8D00003E051F8042BA2
:101D90000260641C9C42F9D3284630BD034610B54E
:101DA0000020D21C9208D3F8D03003E01C6841F820
:101DB000044B401C9042F9D3084610BD70B5002278
:101DC0000125C2704026857014461346868001297D
:101DD00001D061B114E0C5720821017004214FF0F7
:101DE000A04241709115C1800221017208E0C372C6
:101DF0000C21017006214170C94A4FF4A061C180D5
:101E000002F50061C0E9032100210AE002EB411361
:101E100003F5106600EB810503F53063AE61491CE4
:101E20006B6543788B42F1D802F5806141614031A6
:101E3000C0F8CC10002108E002EB411300EB810553
:101E400003F5A063491CC5F8903003788B42F3D8A2
:101E5000002108E002EB013300EB810503F580531C
:101E6000491CC5F8D03003788B42F3D802F5606284
:101E7000C0F80C21204670BD70B50446017A0025DB
:101E8000C068012915D0C16841F04001C1602046F9
:101E9000FFF746FF617A4FF4341009B14FF4741024
:101EA000E1688863142008F09DF8E078012819D0D3
:101EB00020E0816B627A21F480310AB141F4801113
:101EC0008163E068C16821F0401121F42021C160E4
:101ED0002046FFF725FFE07801280BD1E1682A2092
:101EE0008860E2E7E068816821F01E010A3141F074
:101EF00020018160284670BDC0680021826842F0E0
:101F00000102826008467047C0680021826822F0A2
:101F1000010282600846704738B5002422460094CA
:101F2000009B43F020030093009B61F38A1300930E
:101F30000099C36819617949C06803690093521C0C
:101F40008A4202D8009B9B06F7D4032008F040F891
:101F5000204638BD38B5002421460094009A42F04E
:101F600010020092009AC3681A616C4AC068036943
:101F70000093491C914202D8009BDB06F7D4032052
:101F800008F026F8204638BD10B5C0680024C268A5
:101F9000012922F0C04201D019B104E042F0005200
:101FA00001E042F08042C260322008F01BF8204677
:101FB00010BDC068406900F001007047C06840690A
:101FC00010F0010F01D00020704701207047C06859
:101FD000406910F0010000D001207047C0684169DD
:101FE000806908407047C0684068704770B5044613
:101FF000C068002635468661E168701E486120464B
:1020000000F011FDE07800B91025E16845F00C50B2
:1020100040F008008A6940F40010824302438A615C
:10202000304670BDD0F8CC00006820F02E0070471C
:1020300070B50C46054607F0D4FF2846FFF7F2FFBF
:10204000C10403D4012C03D0C10409D51CB107E09D
:1020500040F4805001E020F48050D5F8CC100860A6
:10206000BDE87040C82007F0BDBF70B50446FFF75B
:10207000D9FF40F4807554F8CC0F05600A2007F0B2
:10208000B1FF216825F480700860142007F0AAFFD2
:10209000012070BD4269106861F301001060704753
:1020A0002DE9F041002704463E463D4607F098FFE3
:1020B000D4F80C010560207A01280FD001212046B8
:1020C000FFF7E8FF2046FFF7D0FF6069016821F0C5
:1020D00004010160E07A012802D015E00021EEE75A
:1020E000E06880214162284661F30F00E2686021C8
:1020F00061F31F409062E022284662F30F0061F313
:102100001F40E168C1F8000110212046FFF704FFDD
:102110002046FFF71FFF4FF0FF310BE0400D03009B
:102120000000044004EB860050F8902F9160006896
:10213000C560761C2078B042F4D801212046FFF714
:1021400077FF2046FFF752FF3846BDE8F08140692F
:10215000806840F30000401C704740694069704748
:10216000F0B5074607EB81060020D6F890500446EC
:10217000431E2246AB60FB78012B00D1042207EB03
:10218000411393F8955835B1012D1FD0022D02D07F
:10219000032D27D10EE042F0890545F4826293F8C1
:1021A000925885B993F8945842F04002D5B142F064
:1021B000200217E093F892C842F0990242F4C062FC
:1021C000BCF1000F0ED042F480720BE093F892C87D
:1021D00042F0010242F40872BCF1000F02D042F05A
:1021E0008002F0E7D6F89050EA6001228A407969CF
:1021F0008D6915438D61F9688A6942F000728A61C0
:1022000093F8901861F39C5493F8911861F3CE24DD
:1022100093F8921861F3CF3493F8931802290CD0F5
:1022200024F4003193F89528B3F8963862F393417B
:1022300063F30A01032A03D004E044F40031F1E718
:1022400041F00051D6F890201160F0BDF0B506467F
:1022500006EB41140027D4F8A0584FF480703B4699
:102260006DB1B4F8962815446D1EB5FBF2F5ADB20C
:10227000854205D905461002C4F8A00800E00125F2
:1022800094F89208A8B1B4F896086843C4F8A00876
:1022900060F3120394F8980865F3DC4306EB8102BF
:1022A00060F35E73D2F890000361F078012803D0E8
:1022B00007E0D4F8A008EBE7D2F89030D4F89C08F7
:1022C000586152F8900F03683046FFF740FF60F303
:1022D0005D73126823F0804040F000401060F07899
:1022E00098BB94F8920880BBD4F8A00868B394F81F
:1022F000952832B1012A11D0022A02D0032A1AD11C
:102300000CE0F268D36AC01CC0F38F009BB283421A
:1023100011D2906940F0200090610CE0726912695E
:10232000C01CC0F38F0092B2824204D2F06882696E
:1023300042F080628261B4F8A0080A4683B2D4F801
:102340009C0801463046FFF715FD3846F0BD10B534
:1023500000EB81010022D1F89030196841F0404132
:1023600011F4402F0AD0C1F38144022C06D04069F9
:10237000D0F8100010F47F0F03D004E0C068C06AEA
:10238000F8E721F000411960104610BD10B500EBD0
:102390008100002350F8901F4FF00042012464F3A5
:1023A000DC420A610068016821F0804141F000418F
:1023B0000160184610BD10B50446002061698861AF
:1023C0006169401E486100200BE000BF04EB800102
:1023D000D1F890100A6822F0802242F080420A6010
:1023E000401C21788142F1D82046FFF7B3FD2046FA
:1023F000BDE8104010218FE50269106861F301000B
:102400001060704770B50446C06800252E4685618F
:10241000E1686FF080404861204600F004FBE078FE
:1024200000B9102646F4872141F00810E16840F415
:1024300040108A69824302438A61284670BD2DE9B3
:10244000F04104460027D0F80C013D462B460760BA
:102450002069016821F4C0510160E07A402601281A
:1024600026D103212046FFF7C7FFE06880214162A3
:102470001846E26866F31F4061F30F00906200EBBC
:10248000104060F30F03E06861F31F43C0F80431AC
:1024900003EB134060F30F03E06865F31F43C0F8DC
:1024A000083103EB134060F30F03E068C0F80C3110
:1024B00010212046FFF730FD2046FFF74BFD206935
:1024C00005612069456121694FF0FF30886120690D
:1024D000C56100214FF09040FF2213E004EB810C16
:1024E000DCF818E0DEF80030002B01DA034600E0EB
:1024F0002B46CEF80030DCF818301D61DCF81830BF
:102500009A60491C63788B42E8D80023294613E07F
:1025100004EB830CDCF854E0DEF80050002D01DA07
:10252000054600E00D46CEF80050DCF85450296115
:10253000DCF85450AA605B1C65789D42E8D820699D
:10254000016941F480710161E078012808D103201C
:1025500066F38A00216940F4803066F359400863CD
:102560002046FFF74FFF3846EFE501460020096996
:102570008968C1F3410139B1012903D0022905D08D
:10258000032900D1022070470320704701207047C3
:1025900010B5016900238C6882691168C4F3410495
:1025A0002CB1012C03D0022C04D0032C05D16FF3E5
:1025B0000A0102E06FF30A01C91C11600069416859
:1025C00041F480714160184610BDF0B50E780025C9
:1025D0004F780122B2402B4600EB8604012F19D020
:1025E000646D62F31F43226816040DD40E8966F3EE
:1025F0000A02CE78897966F3934261F3995242F0E8
:10260000805141F4004121600069C1691943C161F1
:102610002846F0BDA46962F30F03E4E730B50C78F7
:1026200003464D7801220020A24003EB8401012DD6
:1026300009D04C6D014662F31F4120601A69D369CD
:102640008B43D36130BD8C69014662F30F01F4E71F
:10265000F0B54B780A78002401264F6900EB82021E
:10266000012B15D0556D2B682A69002F61D08E681B
:1026700037447F1EB7FBF6F767F3DC42C2F3C94766
:10268000774367F312022A61C278012A57D05CE0CF
:1026900095692B682A696FB1D1F808C067F31202F7
:1026A00067447F1EB7FBFCF767F3DC42CF78012F4E
:1026B00005D008E06FF3120266F3DC4203E022F07B
:1026C000C04202F100522A61C278012A0ED0CA78B3
:1026D000012A12D04A69BAB10A7896400269556B4C
:1026E00035435563CA78012A07D00DE00D780A6991
:1026F00000EB8505AD696A61F4E702699268120A28
:10270000D2070CD043F0805343F004420B7800EB27
:1027100083039B691A60CA78012A03D026E043F03C
:102720000053F1E78A8A93B20A78C968FFF722FB5F
:102730001CE08F6867F3120266F3DC42A3E70D78B2
:102740000A6900EB85056D6D6A61CA78012A06D1B8
:102750004A7912B143F0005301E043F08053097805
:1027600043F0044200EB8100406D02602046F0BD62
:10277000F0B54A7800254C69012A15D00A7800EB9B
:1027800082035A6D16681269DCB38C68C1F8144074
:1027900064F306025B6D22F4C01202F500221A6196
:1027A000C278012A30D035E083691F681A6934B1D4
:1027B0008E68B44206D966F306024E6104E022F048
:1027C0007F0201E064F3060222F4C01202F5002247
:1027D0001A61C278012A05D10C780A6900EB8404D9
:1027E000A469626147F004421A60C278CAB94A69B2
:1027F000BAB10A78006901219140426B0A434263F1
:102800000FE0FFE70C7AC3E70B780A6900EB83035C
:102810005B6D5A61097846F0044200EB8100406D1F
:1028200002602846F0BD02464B780978002002EB92
:102830008101012B05D0496D0A6842F400120A603B
:1028400070478A691168002901DA41F0804141F43A
:1028500000111160704710B502464C780B780020CB
:1028600002EB8302012C09D0526D1368C97823F45E
:102870000013032904D0022902D003E09269F4E78F
:1028800043F08053136010BD00698169C06908403E
:10289000000C704700EB8101496D8968006940694F
:1028A0000840704700698169C069084080B270477C
:1028B000426D63491161C178012908D1426D00F26E
:1028C000CC515161406D01684FF08021016070472B
:1028D00010B50446D0F81801002819D02069806886
:1028E000C00715D0A07A30B1D4F80C01D4F80C117F
:1028F00020F0030008602069416841F00101416057
:10290000052007F06FFB2069416821F0010141605B
:1029100010BD817A00290AD001698968C90706D0EB
:10292000D0F80C11D0F80C0121F0030101607047C0
:1029300010B50446012084F812010020FF2106E0B2
:1029400004EB800293699960526D9160401C62783B
:102950008242F5D821690020086121694861216916
:10296000C8612169401E88612046FFF7F3FA2046BE
:10297000BDE810401021FFF7CFBA4A780978012A44
:1029800000EB810006D0406D006881020ED54FF447
:102990008050704780690068810201D5102070471F
:1029A000800301D52020704730207047800302D576
:1029B0004FF4005070474FF44050704730B44C789B
:1029C0000B78002500EB8303012C0BD05C6D236892
:1029D000B2F5805F17D0B2F5005F17D0B2F5405F57
:1029E0000CD007E09C692368102A05D0202A0DD05E
:1029F000302A03D092B113E030BC14E79A0208D514
:102A00004D7130BC27E743F4001309E043F0006345
:102A100006E043F0806040F0802301E023F40043AF
:102A2000236030BC7047C2684FF0FF315160C2680C
:102A30006FF080415161C0680249816170470000B8
:102A4000180008C0000800800CB50146D1F89000BD
:102A500000680090009820F0004000F100400090D5
:102A6000009820F0804000F180400090009AD1F85A
:102A70009000026000200190019820F4001000F501
:102A8000001001900198CA68506101200CBD38B552
:102A9000044600200090FE48006881682046884770
:102AA000009820F0005000F1005000900098E1687C
:102AB0004861012038BDFEB50446002600250020EF
:102AC000009002900190D4F8CC0000680290D4F8F5
:102AD000CC0000680190019820F00400019001985A
:102AE00020F002000190019820F008000190019868
:102AF00020F0200001900298C0F3400058B10198E6
:102B000020F00200801C0190E148006841682046E6
:102B1000884745F001050298C0F3C000002842D064
:102B2000019820F00800083001900298C0F380005E
:102B3000002838D0D6480068416820468847029867
:102B4000C0F34140022804D00298C0F3414001285C
:102B500028D16069006800900298C0F341400228C3
:102B600011D141F2707160694160009800F003007A
:102B7000022818D0207A022803D102212046FFF72C
:102B800089FA01260FE04BF68031606941600098B8
:102B900000F00300012806D001212046FFF77AFA51
:102BA000012600E001260298C0F3401030B10198E0
:102BB00020F020002030019045F0010516B120469C
:102BC000FFF753FA0199D4F8CC0001602846FEBD06
:102BD0007FB505460C4605F1900050F82460B068BA
:102BE0000390F0680290DDE902100840039005F1BF
:102BF000900050F82400006801900398C0F3800012
:102C0000D0B100200090009820F00400001D00903A
:102C10000098B06005F1900050F82400C068009062
:102C2000009820F00200801C009005F1900050F800
:102C300024000099C160B4E10398C0F3401048B18A
:102C400000200090009820F0200020300090009894
:102C5000B060A6E10398C0F34020F8B105F1900000
:102C600050F82400C0680090009820F00200801CFA
:102C7000009005F1900050F824000099C160E1B285
:102C80002846FFF764FB00200090009820F40070B5
:102C900000F5007000900098B06082E1039800F0A9
:102CA000010038B3002105F5FF6040F8241005F15C
:102CB000900050F82400C0680090009820F00200B6
:102CC000801C009005F1900050F824000099C1602C
:102CD000E1B22846FFF73BFB00200090009820F06F
:102CE0000100401C00900098B060012105F50760CC
:102CF000015556E10398C0F3C00010B300200090C6
:102D0000009820F00800083000900098B06005F1AD
:102D1000900050F82400C0680090009820F0020055
:102D2000801C009005F1900050F824000099C160CB
:102D3000E1B22846FFF70BFB052105F507600155B9
:102D40002FE10398C0F3001038B3002105F5FF60B0
:102D500040F8241005F1900050F82400C06800905D
:102D6000009820F00200801C009005F1900050F8BF
:102D700024000099C160E1B22846FFF7E8FA00207C
:102D80000090009820F01000103000900098B06083
:102D9000032105F50760015503E10398C0F3C01056
:102DA00040B305F1900050F82400C06800900098EE
:102DB00020F00200801C009005F1900050F82400E3
:102DC0000099C160E1B22846FFF7C1FA05F5FF603E
:102DD00050F82410491C40F8241006217830015581
:102DE00000200090009820F0800080300090009833
:102DF000B060D6E00398C0F3801038B3002105F529
:102E0000FF6040F8241005F1900050F82400C068DD
:102E10000090009820F00200801C009005F19000C6
:102E200050F824000099C160E1B22846FFF78FFAFC
:102E300000200090009820F0400040300090009862
:102E4000B060042105F507600155AAE00398C0F3BE
:102E5000802078B305F1900050F82400C0680090FD
:102E6000009820F00200801C009005F1900050F8BE
:102E700024000099C160E1B22846FFF768FA0020FB
:102E80000090009820F0100010300090009801E0B1
:102E900054020020B060082105F5076001550020AC
:102EA0000090009820F4806000F580600090009809
:102EB000B06076E0FFE70398C0F34000002870D0D0
:102EC00005F1900050F82400C0680090009820F0B0
:102ED0000200009005F1900050F824000099C160B4
:102EE00005F50760005D012815D1012105F67F0079
:102EF00001550198C0F38140022848D105F50960C9
:102F000000EB4410407E80F0010105F5096000EB04
:102F1000441041763BE005F50760005D032804D1CD
:102F2000022105F67F00015531E005F50760005DDF
:102F300004280FD105F5096000EB44100079012841
:102F400003D1E1B22846FFF721FA022105F67F00FE
:102F500001551CE005F50760005D052804D104213A
:102F600005F67F00015512E005F50760005D0628B3
:102F70000DD105F5FF6050F82400032807D1032187
:102F800005F67F0001550021873840F82410002005
:102F90000090009820F00200801C00900098B06023
:102FA00000BF012004B070BD70B586B005460C4668
:102FB00005F1900050F82460B0680590F068049026
:102FC000DDE904100840059005F1900050F8240058
:102FD00000680390002004900598C0F38000D0B1F1
:102FE00000200190019820F00400001D019001983C
:102FF000B06005F1900050F82400C068019001987D
:1030000020F00200801C019005F1900050F824008F
:103010000199C16073E00598C0F3401048B10020E9
:103020000190019820F02000203001900198B060BC
:1030300065E00598C0F3C00078B305F1900050F842
:103040002400C0680190019820F00200801C0190CB
:1030500005F1900050F824000199C160052105F5A3
:103060000760015500200190019820F010001030F9
:1030700001900198B06000200190019820F00800B4
:10308000083001900198B060059820F0100005907C
:10309000E1B22846FFF75BF931E0FFE70598C0F39E
:1030A000802060B305F1900050F82400C0680190C2
:1030B000019820F00200801C019005F1900050F86A
:1030C00024000199C160E1B22846FFF740F90020D1
:1030D0000190019820F01000103001900198B0602C
:1030E000082105F50760015500200190019820F4A2
:1030F000806000F5806001900198B06000BF059885
:10310000C0F34020F8B105F1900050F82400C068E9
:103110000190019820F00200801C019005F19000C0
:1031200050F824000199C160E1B22846FFF70FF979
:1031300000200190019820F4007000F500700190CB
:103140000198B06042E1059800F00100002871D0BC
:10315000E878012812D105F1900050F824000069A8
:10316000029005F5096000EB441000690299C1F373
:103170001201411A05F6340040F82410012105F52A
:10318000076001550021783840F824100020019094
:10319000019820F00100401C01900198B060039854
:1031A000C0F3814020B10398C0F3814002282AD1A6
:1031B00005F1900050F82400C0680190019820F0BB
:1031C0000200801C019005F1900050F82400019944
:1031D000C160E1B22846FFF7BAF8002001900198DB
:1031E00020F01000103001900198B06005F50960E2
:1031F00000EB4410007E80F0010105F5096000EB52
:1032000044100176E2E00398C0F38140032899D18D
:10321000039820F0005000F10050039005F1900059
:1032200050F8240003990160012105F67F00015543
:10323000CCE0FFE70598C0F34000002851D005F12D
:10324000900050F82400C0680190019820F002001E
:10325000019005F1900050F824000199C16005F536
:103260000760005D012804D1012105F67F000155AA
:103270002DE005F50760005D052804D1042105F661
:103280007F00015523E005F50760005D062804D0A6
:1032900005F50760005D082808D1002105F5FF60ED
:1032A00040F8241003218730015510E00398C0F343
:1032B000814003280BD105F5096000EB4410007E26
:1032C00080F0010105F5096000EB44100176002053
:1032D0000190019820F00200801C01900198B060DC
:1032E00074E00598C0F3C01040B305F1900050F8A9
:1032F0002400C0680190019820F00200801C019019
:1033000005F1900050F824000199C16005F5FF60B7
:1033100050F82410491C40F824100621783001553B
:10332000E1B22846FFF713F800200190019820F041
:103330008000803001900198B06047E00598C0F3AC
:103340000010E8B30398C0F38140032815D105F1BC
:10335000900050F82400C0680190019820F002000D
:10336000801C019005F1900050F824000199C16083
:10337000E1B22846FEF7EBFF18E00398C0F3814066
:1033800020B10398C0F3814002280FD1039820F0A8
:10339000004000F100400390039820F0804003902B
:1033A00005F1900050F8240003990160032105F510
:1033B0000760015500200190019820F0100000E006
:1033C00004E0103001900198B06000BF012006B009
:1033D00070BD7CB50546002400262846FEF7BDFEDC
:1033E000019000BF1BE0019880B20121A14008407C
:1033F000A0B105F1900050F82400006800900098FA
:10340000C0F3C03028B121462846FFF7CDFD064362
:1034100004E021462846FFF7DBFB0643641C2878BE
:10342000A042E0D830467CBDFEB504466069006924
:1034300000900198C0F3C30104F5096000EB41104E
:103440000069C01CC0F38F0674E04FF6FF7100984E
:1034500001EA80050198C0F3C30104F5096000EB9F
:1034600041100069A84216D20198C0F3C30104F5C7
:10347000096000EB4110008A85B20020029002989A
:1034800020F0806000F180600290E068806902991D
:103490008843E16888610198C0F3C30104F50960BD
:1034A00000EB41100069C01CC0F38F060198C0F307
:1034B000C302C0F3C30304F5096000EB43102B46BD
:1034C000C1682046FEF756FC0198C0F3C30104F51D
:1034D000096000EB4110C06841190198C0F3C302B4
:1034E00004F5096000EB4210C1600198C0F3C3010C
:1034F00004F5096000EB41100069411B0198C0F31D
:10350000C30204F5096000EB421001610198C0F3A9
:10351000C30104F5096000EB4110406941190198AD
:10352000C0F3C30204F5096000EB42104161606919
:1035300000690090009880B2B0420ADD0198C0F3A3
:10354000C30104F5096000EB4110006900287FF415
:103550007CAF0120FEBD7FB50446E068C06A0090E4
:103560000198C0F3C30104F5096000EB4110006944
:10357000C01CC0F38F0673E04FF6FF71009801EA9C
:1035800080050198C0F3C30104F5096000EB411008
:103590000069A84215D20198C0F3C30104F509607F
:1035A00000EB4110008A85B200200390039820F0C0
:1035B000200020300390E068806903998843E16827
:1035C00088610198C0F3C30104F5096000EB411064
:1035D0000069C01CC0F38F060198C0F3C302C0F39A
:1035E000C30304F5096000EB43102B46C168204675
:1035F000FEF7C0FB0198C0F3C30104F5096000EBBE
:103600004110C06841190198C0F3C30204F5096074
:1036100000EB4210C1600198C0F3C30104F50960DA
:1036200000EB41100069411B0198C0F3C30204F58F
:10363000096000EB421001610198C0F3C30104F579
:10364000096000EB4110406941190198C0F3C302C1
:1036500004F5096000EB42104161E068C06A009027
:10366000009880B2B0420ADD0198C0F3C30104F5AE
:10367000096000EB4110006900287FF47DAF012054
:1036800004B070BD30B585B00446002000900390B2
:10369000039820F0100010300390E06880690399CF
:1036A0008843E1688861E068006A0490049800F04B
:1036B0000F00009004F190009DF8001050F82100D8
:1036C000006801900498C0F34340022806D0032804
:1036D00078D0052877D0072873D175E00498C0F317
:1036E0000A10002869DD04F509609DF8001000EB60
:1036F0004110C068002860D00498C0F30A1204F595
:1037000009609DF8003000EB4310C1682046FEF7C9
:1037100045FB049800F00F0104F5096000EB41102F
:10372000C0680499C1F30A110144049800F00F0223
:1037300004F5096000EB4210C160049800F00F012D
:1037400004F5096000EB411040690499C1F30A11C6
:103750000144049800F00F0204F5096000EB4210E8
:10376000416104F509609DF8001000EB41104569C6
:1037700004F634009DF8001040F8215004F1900048
:103780009DF8001050F82100006902900298C0F3E3
:10379000C940002811DD019820F0004000F10040F0
:1037A0000190019820F08040019004F190009DF874
:1037B0000020019950F82200016006E002E002E0DA
:1037C000FFE700BF00BF00BF00BF00BF039820F0AD
:1037D000100010300390E068806903990843E168A5
:1037E0008861012005B030BD38B504460020009046
:1037F00031480068016820468847009820F008009A
:10380000083000900098E1684861012038BD38B563
:1038100005460024002000902846FEF7D8FB00282B
:1038200047D02846FEF7DAFB0090009808B9002040
:1038300038BD0098C0F3C00018B12846FFF7D4FF88
:1038400004430098C0F3001018B12846FFF71AFF90
:1038500004430098C0F3401018B12846FFF77BFEE0
:1038600004430098C0F3806018B12846FFF7DCFDE0
:1038700004430098C0F3406018B12846FFF7A9FD43
:1038800004430098C0F3006018B12846FFF713F90D
:1038900004430098C0F3407018B12846FFF7F7F8CA
:1038A00004430098C0F3405018B12846FFF7CCF805
:1038B00004432046BCE70000540200202DE9F041FB
:1038C0000446007900B3256B04F1340160780123CC
:1038D0002A460F4607F069FB10B10120BDE8F081D0
:1038E00000202071606AE169281A88420CD2E678CB
:1038F00008E0E0690123054460782A46394607F06C
:1039000054FB761E022EF4D20020E7E770B5044681
:10391000006B0D46A8420ED02046FFF7CFFF38B906
:10392000607801232A4604F1340107F00FFB08B147
:10393000012070BD2563002070BD70B50446FFF7FF
:10394000BDFF05004FD12078032845D160790128BB
:1039500042D1420204F134000021064602F0CBFBC2
:10396000552084F83202AA2084F83302522084F8C9
:10397000340084F83500612084F83600412184F851
:103980003710722284F8182284F8192284F81A1247
:1039900084F81B02206984F81C02010A84F81D12B5
:1039A000010C84F81E12000E84F81F02E06884F8EF
:1039B0002002010A84F82112010C84F82212000E60
:1039C00084F82302226A0123521C22636078314664
:1039D00007F0EBFA0020607100226078114607F0D2
:1039E00017FB00B10125284670BD8269891E921E11
:1039F0008A4201D800207047C26A807801FB00200B
:103A000070472DE9F0410D460446022909D3A0690B
:103A1000A84206D92078012805D0022827D00328FB
:103A200031D001205AE7606A05EB550600EB5621BC
:103A30002046FFF76BFF68BBC6F308002044761CE6
:103A400090F83470606A00EB56212046FFF75EFF65
:103A500000BBC6F308002044E90790F8340047EAA9
:103A6000002001D0000939E7C0F30B0036E7606A97
:103A700000EB15212046FFF749FF58B9E8B204EBE7
:103A80004000808E2AE7606A00EBD5112046FFF7E0
:103A90003DFF10B14FF0FF3020E740F2FF1000EA89
:103AA0008500204490F83410D0F8350041EA002019
:103AB00020F0704012E72DE9F04717460D46044606
:103AC000022902D3A069A84202D80220BDE8F087EB
:103AD000217807F0FF084FF00109012907D00229DA
:103AE00037D0032946D0022084F80490EEE7606ABC
:103AF00005EB550600EB56212046FFF707FF00288F
:103B0000F2D1C6F3080020443430E90703D001782D
:103B100068F31F1100E03946017084F80490606A70
:103B2000761C00EB56212046FFF7F0FE0028DBD183
:103B3000C6F3080121443431EA0702D0C7F3071263
:103B400005E00A78C7F3032302F0F0021A430A7073
:103B5000CAE7606A00EB15212046FFF7D7FE002870
:103B6000C2D1E9B204EB41013A0A81F8348081F80C
:103B70003520B9E7606A00EBD5112046FFF7C6FE95
:103B80000028B1D140F2FF1101EA85010A194FF076
:103B90007043D2F8351003EA0121394302F8341F8B
:103BA0000B0A53700B0C9370090ED1709CE72DE932
:103BB000F0410F460646022916D3B069B84213D920
:103BC00000251FE039463046FFF71BFF04001CD0DC
:103BD000012C09D0601C09D0002239463046FFF77D
:103BE0006AFF050011D103E002250EE001250CE07B
:103BF0003069411C05D0401C3061707940F00100F3
:103C000070712746B069B842DCD8284666E62DE9CF
:103C1000F0410F00054605D0FFF7F3FE022808D259
:103C200001205BE6EE6816B1A869B04207D801260C
:103C300005E0411CF5D0A9698142F2D83E463446E0
:103C4000A869641CA04202D80224022E0AD321468D
:103C50002846FFF7D6FE38B1411CE2D00128E0D05B
:103C6000B442EDD1002039E66FF07042214628467B
:103C7000FFF721FF30B957B1224639462846FFF7F2
:103C80001AFF20B101280DD00124204626E6EC6061
:103C90002869411CF9D0401E2861687940F0010074
:103CA0006871F2E74FF0FF34EFE770B5C1808368C9
:103CB0000D460446012B34D020688169994230D9E1
:103CC00023B90178032904D1836A13B180780601EE
:103CD00010E00189A94224D9806A11E0FFF791FE22
:103CE0000346401C1BD0022B1BD3206880699842DE
:103CF00017D9AD1B2068B5421946EFD2FFF775FE04
:103D0000E36070B100EB1510206105F00F01342263
:103D1000206802EB411108446061002070BD012061
:103D200070BD022070BD2DE9F041C6880446761CA6
:103D300030040F46000C2CD0206950B3310759D104
:103D4000401C2061E168206829B18278521E12EA85
:103D5000161F04D04EE00089B0421AD94AE0FFF79E
:103D600050FE0546012818D9681C2FD020688169AB
:103D7000A94239D86FB1E168FFF749FF05000AD0C1
:103D8000012D0AD0681C21D02068FFF797FDE8B903
:103D900005E00420A2E50720A0E502209EE52068BA
:103DA0004FF400720021343002F0A5F92946206852
:103DB000FFF71BFE216800274FF0010808630CE0A5
:103DC00080F804802068FFF779FD08B1012085E5BF
:103DD0002068016B491C7F1C016320688178B9420F
:103DE000EED8016BC91B0163E56029462068FFF727
:103DF000FCFD2061E68006F00F013422206802EB12
:103E0000411108446061002068E570B50E46044623
:103E10000021FFF74AFF88B9002521692068FFF7D4
:103E200075FD58B961690978E5290BD051B10025B4
:103E300001212046FFF777FF0028EED0042800D1AB
:103E4000072070BD6D1CB542F2D170BD2DE9FC5F3D
:103E500005460021FFF729FF002877D1FF204FF604
:103E6000FF7A00908146A5F820A029692868FFF70D
:103E70004DFD06000DD16C69207848B1E17AE52846
:103E800001F03F016DD00A0704D50F2969D107E081
:103E9000042671E00F2903D0B9F1000F4AD04FE09A
:103EA000E96989B3420606D5627B009220F04000A2
:103EB000EA8881462A84484535D1627B009882424F
:103EC00031D101912078A04620F04000401E00EB47
:103ED00080010027DFF858B601EBC006012400BFBF
:103EE0001BF8071001EB0800008874B107F0DEF83A
:103EF0000446FF2E17D2019830F81600761C07F002
:103F0000D5F8A0420FD102E02FE050450BD17F1C25
:103F10000D2FE5D398F80000400608D53CB1019874
:103F200030F8160018B1FF2000F0FF091DE0A9F1DC
:103F30000100F9E7204602F03EF9009988421BD0C3
:103F4000A869C17AC9070CD10A2102E015E0491E0F
:103F500006D314F8012B10F8013BD21AF7D000E079
:103F600052B14FF0FF09A5F820A000212846FFF725
:103F7000DAFE06003FF479AF3046BDE8FC9F2DE93C
:103F8000F05FFF248B460546274604264FF6FF7850
:103F90004FF0000963E02868FFF7B8FC060062D123
:103FA0006869017859B1C27AE52902F03F0204D06C
:103FB000082A06D0B446DC4506D0FF2441E004269A
:103FC00051E04FF0010CF6E70F2A01D0B4BB3FE0FF
:103FD0004A0605D5477B21F04001EA880C462A8431
:103FE000A1422CD1417BB94229D10178DFF840A50B
:103FF00001F03F01491E01EB810202EBC1010022E9
:10400000D5F81CC0012600BF1AF8023003441B88F3
:1040100036B1FF2913D22CF811301E46491C01E09D
:1040200043450CD1521C0D2AEED30078400603D52F
:10403000FF2904D22CF81190641E01E00CE0FF244B
:10404000E4B200212846FFF76EFE060007D00AE022
:1040500002F0B1F8B84208D0A5F8208005E029693F
:10406000002998D10EB1C5F810903046BDE8F09FF8
:104070002DE9FF5F04460C22D4E9067639466846EE
:1040800002F031F89DF80B00810602D5062004B03D
:10409000ECE7C00718D00020F8720125E0612B463C
:1040A00032466946384602F049F82046FFF7CEFE10
:1040B00010B96D1C642DF2D3642D0BD00428E6D109
:1040C0009DF80B00F872E6619DF80B0080070DD596
:1040D000002002E00720DAE7401C36F81010002923
:1040E000FAD10D211930B0FBF1F600E0012631467E
:1040F0002046FFF78AFE050070D1761E5FEA060AA9
:1041000053D0E1882046A1EB0A01FFF7CEFD050060
:1041100064D1A06902F04FF8039021692068FFF78D
:10412000F5FB05005AD16169D4F81C9003984873D7
:104130000F20C8720020087388760AF0FF0BC8763B
:10414000ABF1010000EB800202EBC00500234FF64B
:10415000FF7EF74E4A1C01E0604503D039F8150098
:10416000F4466D1CF75CC85516F80380070A08F87A
:10417000027000B960465B1C0D2BEDD3704502D078
:1041800039F8150008B94BF0400B81F800B02168F0
:104190000120087100212046FFF7C5FD05001DD153
:1041A000AAF101005FEA000AB7D121692068FFF790
:1041B000ADFB050012D120220021606901F09BFFB8
:1041C000D4E905010B2201F08EFFA0696169C07A74
:1041D00000F018000873216801200871284656E78E
:1041E0002DE9F041018C0446C688A1F57F40FF38D7
:1041F00000D131462046FFF758FD05001ED1E527C6
:104200004FF0010821692068FFF780FB050012D1FB
:1042100020220021606901F06EFF6069077021684B
:1042200081F80480E088B04208D200212046FFF7E0
:104230007AFD0500E6D0042D00D10225284612E4BF
:104240002DE9F0410C4601F10902016991B3002505
:1042500043696FF01A062E2759576D1C20291BD071
:10426000052900D13146092D01D102F8017BA1F1C8
:10427000410CBCF1190F0DD893F80CC0092D02D3D5
:104280004FF0100801E04FF008081CEA080F01D0B9
:10429000203149B202F8011B0B2DDDD3D97A2172EE
:1042A000197FD3F81D5041EA05212160198BA180A7
:1042B000D98AE1804FF0000882F80080A669002EBC
:1042C0001DD001690025C1B1E169B1B1018CA1F531
:1042D0007F42FF3A11D0C7690BE0002106F0CCFE07
:1042E00018B1E169491EA94201D8002505E07055C1
:1042F0006D1C37F8020B0028EFD106F8058085E425
:104300002DE9F84F894680460D6800E06D1C95F94F
:1043100000002F28FAD05C28F8D00024D8F81C70B0
:104320002646A857761C80B2202818D32F2816D0EE
:104330005C2814D0FF2C50D2C0B2012106F09CFEA4
:104340005FEA000A49D0BAF1800F04D2014679A091
:1043500001F0D9FEE8BB27F814A0641CE1E7AA1914
:10436000C9F80020202801D2042500E00025002102
:10437000012C04D0022C2ED178882E2816D1388812
:104380002E2813D127F814100020A04201D22E228B
:1043900000E02022D8F818100A54401C0B28F4D34F
:1043A000D8F8181045F020020A54BEE007EB44008C
:1043B00030F8020C20280DD02E280BD04CB127F855
:1043C00014100B222021D8F8180001F094FE0026CA
:1043D00007E002E0641E002CE8D10620BDE8F88F5B
:1043E000761C37F816002028FAD02E28F8D01EB1F7
:1043F00045F0030500E0641E2CB107EB440030F8E3
:10440000020C2E28F7D1002082464FF0080B0090B6
:1044100037F8160006F101065FEA000924D0B9F169
:10442000200F04D0B9F12E0F04D1A64202D045F0DE
:104430000305EDE70098584501D2A6421AD1BBF119
:104440000B0F0FD0A64201D045F003050CD84FF05A
:10445000080000904FEA8A6026464FF00B0B4FEAA7
:10446000106AD5E745F00305D8F818000178E5296A
:1044700039D03AE04846B9F1800F11D3002106F057
:10448000FBFD5FEA000906D02949803901EB0900EC
:1044900010F8800C814645F00205B9F1000F04D0F8
:1044A000014627A001F02FFE20B14FF05F0945F033
:1044B00003050FE0A9F14100192802D84AF0020AC9
:1044C00008E0A9F16100192804D841304AF0010A36
:1044D0001FFA80F9D8F81820009902F80190009886
:1044E000401C009094E705210170BBF1080F03D137
:1044F0004FEA8A604FEA106ACAF38100032803D0AA
:104500006FEA0A01890701D145F00205A90709D41C
:104510000AF00301012901D145F01005012801D15C
:1045200045F00805D8F81800C572002056E70000CD
:10453000ACBB0108222A3A3C3E3F7C7F00000000D1
:104540002B2C3B3D5B5D000073B5044601990025B3
:1045500091F900002F280FD05C280DD02068406909
:10456000A060019890F90000202809D2002120467F
:10457000FFF79BFB65617CBD491C0191A560F0E7DD
:1045800001A92046FFF7BCFE0028F4D12046FFF722
:104590005DFCA169C97A68B10428ECD18A0605D509
:1045A000A56065614807EBD500207CBD4907FCD4B8
:1045B00005207CBD4907FCD46169C87AC006F7D5DF
:1045C000206801F0AAFDA060DAE710B504464FF0BC
:1045D000FF302268002A14D0114600E0491C91F9EE
:1045E0000030202B0ED33A2BF8D112F9013B303B8F
:1045F0000A2B06D28A4204D1022B02D2491C184649
:10460000216010BDF948007810BD10B504460020A7
:104610002071401E20632046FFF778F908B103207F
:1046200010BDB4F83202A0F52A41553901D002205C
:1046300010BD94F86A00B4F86B1040EA0121EC4810
:10464000B0EB012F08D094F88610B4F8872041EA27
:104650000221B0EB012F01D1002010BD012010BDBF
:104660002DE9FF474FF000080746C0F800801646C6
:104670000846FFF7AAFF050003D50B2004B0BDE8EC
:10468000F087DA48001D50F8254094B13C6020784E
:1046900020B1607806F050FCC1070CD084F800808F
:1046A000E8B24746607006F035FCC10708D0032029
:1046B000E4E70C20E2E70EB1400704D40020DDE778
:1046C0001EB1400701D50A20D8E70025294620461B
:1046D000FFF79BFF012824D100206A4604EB00115C
:1046E00091F8F63101F5F9712BB10B7AD1F8091077
:1046F00043EA012100E0002142F82010401C042878
:10470000ECD300264FEA020858F826502DB129466E
:104710002046FFF77AFF08B909E00220761C042E34
:10472000F2D3032801D0E0BB01E00120A6E7B4F8F2
:104730003F00B0F5007F5CD1B4F84A0028B994F886
:104740005800D4F8591040EA0120E06194F8441070
:104750008146E170012901D002294AD1414394F8F0
:104760004100A070E8B1421E104242D1B4F8452089
:10477000228113073DD1B4F847602EB994F8543024
:10478000D4F8556043EA0626B4F842C0BCF1000FE5
:104790002FD00CEB010303EB12139E4229D3F61A20
:1047A00000E026E0B6FBF0F018B3012640F6F678FC
:1047B000404500D302264FF6F678404500D3032645
:1047C000801C2B44E362AC44A061C4E9085C032E66
:1047D00011D072B16144A162022E17D000F0010124
:1047E00000EB400001EB500000F2FF10B9EB502F3E
:1047F0000ED20D2042E7002AFBD194F86010D4F8C5
:104800006120800041EA0221A162EDE74000EBE770
:104810004FF0FF302061E06080206071032E2FD1C7
:10482000B4F8640001282BD12046691CFFF76EF80C
:1048300030BB6771B4F83202A0F52A4155391FD157
:1048400094F83400D4F8351040EA012069498842D0
:1048500016D194F81802D4F8191240EA01206649DA
:1048600088420DD194F81C02D4F81D1240EA0120B0
:10487000206194F82002D4F8211240EA0120E0607F
:104880005A4926704888401C4880E080676115E7D7
:1048900010B538B1016829B10A781AB1CA88808880
:1048A000824201D0092010BD487806F045FBC007C0
:1048B000F9D0032010BD17B581B0144602980090BE
:1048C0006846FFF782FE002802DA0B2004B010BD14
:1048D000464A121D002352F8201001B10B700199B5
:1048E000002900D00B7042F8201001D0012C01D01B
:1048F0000020EBE7002202A901A8FFF7B1FEE5E7DF
:104900002DE9F747ADF5117D06000ED04FF00008F8
:1049100002F01F0727F0010292A902A8C6F8008042
:10492000FFF79EFE050004D08FE009200DF5147DF1
:10493000A5E68DA808900CA8099002A89299FFF707
:1049400003FE079C050001D104B9062517F01C0FD2
:1049500054D055B1042D03D102A8FFF789FB0546B9
:10496000079C47F0080755B16FE0E07A10F0110F8F
:1049700001D0072569E0780701D5082565E03807EB
:104980004AD505F0C8FAA073010AE173010C21743D
:10499000000E607484F80B8084F81C8084F81D80FD
:1049A00084F81E8084F81F802146029801F0B5FB30
:1049B00081460021204601F0B9FB02990120B9F19E
:1049C000000F087126D002984946D0F830A0FFF7B2
:1049D000EEF8050039D10299A9F10100C8605146ED
:1049E0000298FEF793FF050012D02EE0540100203C
:1049F0000046415452526141727241612DBBE07ACE
:104A0000C10601D5042520E0B90701D5C007B0D102
:104A1000380701D547F0200702982146006BC6E908
:104A20000704B77186F807804746029801F075FBC6
:104A30003061207FD4F81D1040EA0120C6E90270E1
:104A4000B76102983060C088B08028466EE72DE9D3
:104A5000FC5F0446002018609946154688462046AB
:104A6000FFF716FF002812D1E07900280FD1A079B6
:104A7000C0070BD0D4E90210401A01274FF0020AF8
:104A800004F1240B854200D9054680E00720BDE8EB
:104A9000FC9FA068C10562D122689178491E01EA95
:104AA000502111F0FF0609D108B310466169FEF7E5
:104AB000A8FF02281DD3411C4CD0606161692068A9
:104AC000FEF793FFA8B130440190680A009027D008
:104AD0003218206881788A4201D9891B0091DDE96A
:104AE00000324078414606F031FA98BB05E0206973
:104AF000DFE784F807A00220C9E7A07940060CD5BB
:104B0000A1690198081A0099884206D208EB402052
:104B10004FF40072594601F0E6FA009846022CE084
:104B2000A2690198824218D0A07940060AD520686F
:104B300001235946407806F038FA58B9A07920F098
:104B40004000A0712068012359464078019A06F080
:104B5000FDF910B1E771012099E70198A061208962
:104B6000C0F30800C0F50076AE4200D92E46011908
:104B700032464046243101F0B6FAA068B0443044D1
:104B8000A060D9F800008119AD1BC9F80010002DF4
:104B90007FF47FAF00207AE72DE9FC5F8846002193
:104BA0009946154604461960FFF772FE002806D1A3
:104BB000E079002803D1A079800701D4072066E7B7
:104BC000A068012742194FF0020A04F1240B824227
:104BD00072D391E0A068C10572D122689178491E14
:104BE00001EA502111F0FF0612D108B1616902E01B
:104BF000206928B900211046FFF709F800287ED067
:104C000001282DD0411C54D06061216901B9206177
:104C1000A07940060BD52068012359464078A26947
:104C200006F0C3F9A0BBA07920F04000A071616933
:104C30002068FEF7DAFE98B130440190680A0090CF
:104C400027D03218206881788A4201D9891B0091C7
:104C5000DDE900324078414606F0A7F9C0B903E02B
:104C600084F807A0022012E7A1690198081A0099A8
:104C700088420AD208EB40214FF40072584601F0F6
:104C800032FAA07920F04000A0710098460229E095
:104C90000FE0A1690198814210D0D4E90201884255
:104CA0000CD22068012359464078019A06F04EF94B
:104CB00020B1E7710120EAE621E001E00198A0615E
:104CC0002089C0F30800C0F50076AE4200D92E4618
:104CD000204432464146243001F005FAA07940F0E4
:104CE0004000A071A068B0443044A060D9F8000032
:104CF0008119AD1BC9F80010002D7FF46BAFD4E90A
:104D00000201884200D9E060A07940F02000A07143
:104D10000020BCE670B50446FFF7BAFD00280ED1AE
:104D2000A1798A060BD548060ED52068012304F127
:104D300024014078A26906F038F908B1012070BD5D
:104D4000A07920F04000A071E1692068FEF7DEFD47
:104D50000028F4D1256AE87A40F02000E872207B30
:104D60002877A089000A6877E068000CA877E068D7
:104D7000000EE8772846216901F0D8F905F0CBF854
:104D8000A875010AE975010C2976000E68760020E5
:104D9000A874E874A07920F02000A0712168012097
:104DA00008712068BDE87040FEF7C7BD10B5044625
:104DB000FFF7B0FF002806D12046FFF769FD002865
:104DC00001D10021216010BD01B56846FFF7FDFB50
:104DD000002801DA0B2008BDF8490870002008BD42
:104DE00011B5ADF50D7D00228DA96846FFF738FCA1
:104DF00004000BD18AA8069009A8079068468D99EF
:104E0000FFF7A2FB040005D0042C11D020460DF5BD
:104E10000E7D10BD059848B1C07AC00608D5059929
:104E2000009801F07AF900994861EFE70298FAE7F3
:104E30000524EBE72DE9F343ADF5197D0E4699996D
:104E40004FF00008424681F8008099A983A8FFF737
:104E500007FC040075D196A8899002A88A908398CF
:104E600035464FF02F094069859050E0012183A815
:104E7000FEF71BFF040035D1002183A8FFF77FF860
:104E800004002FD18899839801F047F9859000217B
:104E900083A8FEF70AFF040024D1002183A8FFF7AE
:104EA0006EF804000BD18899839801F036F9B84266
:104EB00008D0002183A8FEF736FF0400EDD0042CB3
:104EC0000FD00FE09998CDE993058DA983A8FFF73E
:104ED000B7F9999A0DF23D21107800B111460020E2
:104EE00003E0022499982AE0401C0B5C002BFBD1C4
:104EF000C31C9D4206D21124104620E0401E6D1EA8
:104F00000B5C53550028F9D16D1E02F80590859F62
:104F1000002FABD1A94999980978303100F8011BCD
:104F20003A2100F8011BB54202D100F8019B06E0CE
:104F30009999495D6D1C00F8011BB542F8D380F8C2
:104F400000800DF51B7D2046BDE8F0832DE9F0477C
:104F50000D460446FFF79CFC5FEA00086FD1E0793C
:104F600000286CD1E068A84203D2A179890700D457
:104F700005460027A0684FF00109A7600DB322681D
:104F80004FF0020A91784E0268B1691E401EB1FBD3
:104F9000F6F1B0FBF6F3994205D3711E8843A06089
:104FA0002D1A61690CE0216949B900211046FEF70C
:104FB0002EFE014601283FD0481C4ED02161616180
:104FC000D1B926E0A0798007206805D5FEF71FFE3D
:104FD000010004D1354611E0FEF713FD0146481CDF
:104FE0003BD0012928D920688069884224D9616191
:104FF000A068AD1B3044A060B542E3D8A068284447
:10500000A060E80505D02068FEF7EFFCA0B100EB3A
:1050100055272089C00525D0A269BA4222D0A0799F
:1050200004F12405400610D5206801232946407864
:1050300005F0BBFF88B904E084F807A00220BDE8B2
:10504000F087A07920F04000A071206801233A4643
:105050004078294605F07AFF18B184F807900120BE
:10506000EDE7A761D4E90201884204D9E060A079A4
:1050700040F02000A0714046E1E713B5ADF5047D96
:10508000040006D0002285A980A8FFF7E9FA20B124
:1050900022E009200DF5067D10BD8098206081A8D2
:1050A000A061C4F81CD020468599FFF74DFA78B965
:1050B000616931B1C87AC00611D5809801F02DF828
:1050C000A06080980021C088A0802046FEF7EDFDFA
:1050D000042804D00028DDD000212160DAE7052073
:1050E000FAE710B50446FFF7D3FB002801D10021F1
:1050F000216010BD70B5ADF5047D0E460446FFF786
:10510000C7FB002819D1DEB180A8A061C4F81CD06B
:1051100000212046FEF733FF0025042815D0002883
:105120000BD131462046FFF78BF800212046FEF7D1
:10513000FAFD042801D1002025610DF5047D70BD24
:1051400000212046FEF7B1FDF7E72561E9E733B519
:10515000ADF50D7D0D4600228DA980A8FFF780FAE0
:10516000040012D189A88690CDF81CD280A88D9910
:10517000FFF7EAF9040008D1859828B12DB1294636
:1051800080A8FFF75DF800E0062420460DF50F7DAE
:1051900030BD2DE9F74F14468A4600226946204665
:1051A000FFF75EFA24685FEA000851D1A769206919
:1051B000B91E884204D8CAF8000049E05401002012
:1051C00094F800900025B9F1010F01D0666A16E04D
:1051D000022631462046FEF714FC411C03D001286C
:1051E00003D028B105E0012000E00220804628E03D
:1051F0006D1CA069761C8642EBD322E059B931467A
:10520000761C2046FEF782FB5FEA000819D104F104
:1052100034004FF40071B9F1020F07D00278D0F8D2
:10522000013042EA0322120106D006E0028802B9E8
:105230006D1C801C891E02E06D1C001D091F7F1E55
:10524000DCD12561607940F001006071CAF800503E
:105250004046BDE8FE8F70B50446FFF719FB050018
:105260003DD1E07918B10546280005D037E0A07996
:10527000800701D4072532E0D4E9020181422ED90A
:10528000E060A17941F02001A17150B1616920680D
:10529000FEF7B7FB0646401C0BD0012E0BD065B1C4
:1052A0001CE021692068FEF782FC05460020206191
:1052B00013E0012512E0022510E020688169B14267
:1052C0000FD96FF070426169FEF7F5FB050005D15B
:1052D00031462068FEF76BFC054615B1E57128469E
:1052E00070BDA0794006FAD52068012304F124019D
:1052F0004078A26905F059FE0028DAD1A07920F0A3
:105300004000A071EBE771B5ADF5157D012295A9BF
:105310006846FFF7A5F904004FD192A8069009A8A6
:10532000079068469599FFF70FF9040045D1069854
:10533000C07A800601D506243FE0059E56B1F07A7A
:10534000C00700D007243146009800F0E6FE05466D
:1053500014B132E00624F6E7F07AC0061DD5022D1E
:1053600001D2022429E02422694689A800F0BBFE6C
:10537000022189A88B95FEF798FC04001DD100211D
:1053800089A8FEF7FCFD040003D000984069A842FC
:1053900001D1072411E0042C0FD16846FEF720FF4D
:1053A00004000AD12DB129460098FEF700FC040044
:1053B00003D10098FEF7C1FA04460DF5167D20468C
:1053C00070BD2DE9F14FADF50E7D04F0A4FD07464B
:1053D00001228EA96846FFF743F904000BD18AA881
:1053E000069009A8079068468E99FFF7ADF804006B
:1053F00002D0042C02D095E0082493E00698C07AED
:10540000800601D506248DE000210098FEF7FFFB01
:10541000060009D0012E09D0701C09D00098FEF7B3
:105420004DFA040006D063E0072461E002245FE047
:1054300001245DE031460098FEF7D7FA009D8046D2
:1054400034354FF400720021284600F054FE0B2240
:105450002021284600F04FFE2E242C701020E872E8
:10546000F8B28990A875C7F3072B85F817B0C7F372
:10547000074A85F818A04FEA176985F81990314650
:10548000284600F053FE05F1200020222946074659
:1054900000F029FE85F82140009802990078032841
:1054A00004D10098806A884200D10021384600F07B
:1054B0003DFE0098877814E000990120C1F8308003
:1054C000009908F1010808710098FEF7F7F9040047
:1054D0000ED14FF400720021284600F00CFE7F1E12
:1054E000FFB2002FE8D16846FEF7C2FD040004D0E9
:1054F00031460098FEF75BFB14E005981021C1725D
:105500008999817580F817B080F818A080F81990F3
:10551000314600F00BFE0099012008710098FEF75B
:105520000CFA04460DF50F7D2046BDE8F08F37B527
:10553000ADF50C7D15460C4601228CA980A8FFF71D
:105540008FF800281CD189A88690CDF81CD280A89D
:105550008C99FEF7F9FF002812D18698C07A800650
:105560000FD4859868B105F02701C27A0C408A43B0
:105570001443C4728099012008718098FEF7DDF908
:1055800004E6062002E613B5ADF50C7D0C460122BB
:105590008CA980A8FFF764F800281FD189A88690FD
:1055A000CDF81CD280A88C99FEF7CEFF002815D12B
:1055B0008698C07A800612D4859880B1A1798175C9
:1055C000E188090AC17521790176A188090A417625
:1055D0008099012008718098FEF7AFF917E4062042
:1055E00015E433B5ADF51F7D01229FA904A8FFF78F
:1055F00037F8002810D104988D909CA80A900DA827
:105600000B9004A89F99FEF79FFF002804D10A98E9
:10561000C07A800603D506200DF5217D30BD09989E
:10562000F0B300F10B01152296A800F05CFD2422D6
:1056300004A98DA800F057FDA0A8FEF7C6FF00281A
:105640003CDB8DA8A099FEF77FFF50B30428E3D17F
:105650008DA8FEF70DFD0028DED1929C13220DF2DD
:105660005A2104F10D0000F03EFD9DF8580201257D
:1056700040F02000E072049805718F9906988842E6
:1056800033D0E07AC00630D52146049800F045FDBD
:1056900001460498FEF7A9F9010013D0049801E02F
:1056A0000AE00DE0FEF732F9049A54320028B3D133
:1056B00050782E2808D018E00420ADE70B20ABE787
:1056C0000820A9E70220A7E704980078032806D15C
:1056D00004998F98896A884201D1002100E08F994E
:1056E000104600F023FD0498057104A8FEF778FD2C
:1056F000002891D10498FEF720F98DE7F7B58AB01C
:1057000017460D4600220AA96846FEF7A9FF0400C5
:1057100038D10DB30026314668460296FEF7C5FA29
:1057200004002FD101216846FEF729FC040002D0B5
:10573000042C0FD026E00B222846059900F0D3FC5C
:105740000B20EE7201E02E5430B1401E295C20295E
:10575000F9D001E02E700024A7B10098016AFEF78D
:10576000D5F804000ED10098007803280DD027202A
:1057700000F13401009A35301044515C006841EA70
:10578000002038600DB02046F0BD4320F0E72DE941
:10579000F1438CB001220CA96846FEF761FF002896
:1057A0002FD180468DF8248045460C9800E06D1C72
:1057B000415D0029FBD100E06D1EBDB3411911F818
:1057C000011C2029F8D0002427460DF124090C984B
:1057D0000121C05D7F1C05F04FFC05F067FC002136
:1057E00005F04AFC06000BD00146F9A000F08BFC46
:1057F00030B9FF2E01D90A2000E00B20A04203D8C7
:1058000006200DB0BDE8F083FF2E03D9310A09F858
:105810000410641C484609F80460641CAF42D6D3E7
:1058200020210B2C03D20155641CFAE7FFE700216D
:105830006846CDF80880FEF738FA0028E1D101214A
:105840006846FEF79CFB012440B30428D9D19DF89B
:10585000241000200029D4D001216846FEF7D5FA93
:105860000028CED120220021059800F044FC0B2214
:1058700009A9059800F037FC0599082081F80B006C
:1058800004F049FB05998875059A010AD175059AB6
:10589000010C000E1176059948760BE09DF8240066
:1058A00028B10B2209A9059800F01DFCE8E705992D
:1058B000E5200870009804710098FEF73EF8A0E714
:1058C0002DE9F74F90B0154610A8FEF77EFE002890
:1058D00002DA0B2013B028E61199012902D8691EBB
:1058E0000D4201D01320F5E7BD4951F820404CB1DD
:1058F00000212170C0B2039005F00CFBC10703D05A
:105900000320E7E70C20E5E7400701D50A20E1E79F
:1059100008AA0121039805F07BFB00287ED1089896
:1059200080287BD3119909B1002700E03F27C11BD4
:1059300008917DB94FF4FA60B1FBF0F20020A94B59
:1059400000E0401C33F810509542FAD8A54A1632B0
:1059500032F81050680A5FEA000812D0B8F1800FE0
:1059600001D980208046B1FBF8F0012540F6F6729F
:10597000904200D302254FF6F672904203D30325DE
:1059800020E00120EEE7032D1CD0012D23D04000A4
:1059900010F1040000F2FF10460A4FF00109202028
:1059A000834607EB090A0AEB06005844009040447E
:1059B000C01B884247D809AA0321039805F028FB99
:1059C000A0B90EE040F2072202EB8000460A4FF039
:1059D00020090020E4E700EB4000401C4008C01C08
:1059E000D8E7099810B1B0F5004F01D9012009900E
:1059F000099900980844401E491E88430099401A9E
:105A00000990032D12D006440898A0EB09018A1BC7
:105A1000A2EB0B02B2FBF8F10D9100E0D7E0022DF2
:105A200007D0032D0AD0012D15D019E081448244FE
:105A3000EAE740F6F672914205D311E008464FF6C8
:105A4000F671884201D20E2044E70C200290119892
:105A500068B1F02046E0B0F5803F06D20120F5E7BE
:105A6000B0F5803F01D20420F0E70620EEE704F114
:105A700034004FF400720021079000F03CFB04F565
:105A8000F9700121417081700021C170029A027188
:105A9000FE224271089A43F6C1633A44B2FBF3F224
:105AA0003F2343EA920C099280F806C0C271037248
:105AB00041728172C172089901730A0A42730A0C19
:105AC0008273090EC173552084F83202AA2084F82B
:105AD0003302012300220799039805F066FA002893
