:020000040800F2
:1080000090AD0020458200084D8200084F82000894
:1080100051820008538200085582000800000000C9
:10802000000000000000000000000000578200086F
:1080300059820008000000005B820008CDE80008BB
:108040005F8200085F8200085F8200085F8200088C
:108050005F8200085F8200085F8200085F8200087C
:108060005F8200085F8200085F8200085F8200086C
:108070005F8200085F8200085F8200085F8200085C
:108080005F8200085F8200085F820008C9AE0008B6
:10809000A5AE00085F820008B5AE00085F82000848
:1080A00051EA00085F8200085F8200085F820008D2
:1080B0005F820008A9EA00085F8200085F8200086A
:1080C0005F8200085F8200085F8200085F8200080C
:1080D0005F8200085F8200085F820008A9F0000844
:1080E0005F8200085F8200085F8200085F820008EC
:1080F0005F8200085F8200085F8200085F820008DC
:108100005F8200085F8200085F8200085F820008CB
:108110005F8200085F8200085F8200085F820008BB
:108120005F8200085F8200085F8200085F820008AB
:108130005F8200085F8200085F820008FDAE0008D1
:10814000D9AE00085F820008E9AE00086DD70008CC
:108150005F8200085F8200085F8200085F8200087B
:108160005F8200085F8200085F8200085F8200086B
:108170005F8200085F8200085F8200085F8200085B
:108180005F8200085F820008DFF814D002F072FA04
:1081900000F00CFD004800476308020801F020FED3
:1081A00090AD0020FEB442464B4654465D463EB478
:1081B00000F075F83EBC90469946A246AB46FEBC20
:1081C00000F032F8704700BF80EC200B7047C0EC25
:1081D000200B704790EC200B7047D0EC200B7047C1
:1081E00085460D98DDF838E00F9B5DF8042B20E9FB
:1081F0000C009DE8FE1F854601BD4DF808ED0DF110
:10820000080E4DF804ED2DE9FF1F002102B4694668
:1082100081B002F07AF9DDF840E012B0704700005A
:10822000FCDF010004E801004DF808ED0DF1080E37
:108230004DF804ED2DE9FF1F002102B4694681B01D
:1082400002F0CAB90648804706480047FEE7FEE745
:10825000FEE7FEE7FEE7FEE7FEE7FEE7FEE7FEE7F6
:10826000ADE900088981000870B5054601F0E5F820
:108270000446284601F06CF838B12946A06901F09F
:1082800001F9C169491CC16102E0A5F12000C16981
:10829000012902D1A1698161A061012070BD70B581
:1082A00001F0CBF8846905460CB901F0B5F804F18A
:1082B0002006304601F04CF868B1E06926680128D4
:1082C00002D0401EE0610BE0A16904F17800A961D1
:1082D00001F091F804E0E069012801D1A069A861EA
:1082E000304670BD012301F007B9002301F004B945
:1082F000004870473C55020810B50446FFF7F8FFE8
:108300000068005D00F0010010BDA0F161011929B5
:1083100000D82038704700000649074A08685043D3
:1083200043F2390210440860400870470149086070
:1083300070470000A80500206D4EC64138B5D0E951
:108340000221491E01EB410102EBC1014268C1EB70
:10835000011102EB81010268C1EB011102EB810204
:10836000D0E9043101EB410103EB81013023A1F598
:10837000527191FBF3F4174D6C4302EBC41291FB65
:10838000F3F403FB141100921A2902DB124B1A4476
:1083900000920C2291FBF2F3104C6343009C04EB1F
:1083A000C313009391FBF2F302FB13110C4A08E094
:1083B000491E40F2A324535C6343009C04EBC313A7
:1083C00000930029F4DC0146684601F0F7FB0098B1
:1083D00038BD00003F0C0F008051010067C2030050
:1083E0004055020840EA01039B0703D009E008C991
:1083F000121F08C0042AFAD203E011F8013B00F86A
:10840000013B521EF9D27047D2B201E000F8012BB5
:10841000491EFBD270470022F6E710B513460A4604
:1084200004461946FFF7F0FF204610BD421E12F821
:10843000013F002BFBD111F8013B02F8013B002B5F
:10844000F9D17047CAB2401E10F8011F8A4202D00B
:108450000029F9D100207047421C10F8011B0029A7
:10846000FBD1801A704710B5002200E0521C835CDB
:108470008C5CA34201D1002BF8D1D8B2E1B2401AF2
:1084800010BD034611F8012B00F8012B002AF9D189
:108490001846704730B505460020034600E05B1CD7
:1084A000934205D2EC5CC85C201A01D1002CF6D1B5
:1084B00030BD000070B50F4D00B92868002412E0EF
:1084C0000A4602E09E4203D0521C1378002BF9D1D9
:1084D000DAB2224305D02BB124B1002100F8011BF0
:1084E00004E00446401C0678002EE9D128602046AE
:1084F00070BD0000AC05002010B54843044618F0DC
:10850000B5F9002805D00021002C02D0641E0155C9
:10851000FAE710BD0FB400B58DB010A909900B900B
:1085200000914FF0FF300A9000200C900548069013
:10853000054807906A4609A80F9901F0C5FB0DB0E0
:108540005DF814FBE59C0008039D00082DE9FF5F22
:108550001D464FF0FF3BD5E9014691465F464FF07F
:108560000008A9697F1C01988847296A82468847C4
:108570000028F6D1BAF1FF3F0CD024F4C064002EDD
:1085800019DD600614D5BAF12B0F09D0BAF12D0F01
:108590000ED103E0584604B0BDE8F09F44F4806477
:1085A000A9697F1C01988847761E8246002E02DD4D
:1085B000BAF1300F03D0B9F1000F26D032E0A9692B
:1085C000761E44F400747F1C019888478246002E72
:1085D00005DDBAF1780F06D0BAF1580F03D0B9F122
:1085E000000F10D01EE0B9F1000F02D0B9F1100F4A
:1085F00018D1A969761E24F400747F1C019888475D
:108600008246102002E0082000E00A20814609E0AE
:1086100008FB0908A969761E44F400747F1C0198C0
:1086200088478246002E05DD4946504601F038FB5A
:108630000028EDDAE96901988847A00502D46FF0B7
:108640000100A8E7E00725D1600613D5600502D533
:10865000C8F1000000E0404629680A1D2A60096848
:10866000220501D5087015E0220701D5088011E028
:1086700008600FE02868011D29600068210502D507
:1086800080F8008006E0210702D5A0F8008001E014
:10869000C0F8008038467EE72DE9FF5FD2E901A7E8
:1086A0004FF00008916999461446DDF838B0464607
:1086B00001988847054659EA0B0005D009E0A169F1
:1086C000761C019888470546216A28468847002875
:1086D000F5D1681C03D05FEACA7005D015E04FF0F1
:1086E000FF3004B0BDE8F09F2068011D2160D0F884
:1086F00000800AE05FEACA7001D108F8015BA16955
:10870000761C7F1E019888470546002F1ADD681CDD
:1087100018D0B9F1000F0DD0E81705EBD060421169
:1087200020F01F0059F822102A1A0120904001421F
:10873000E0D107E0BBF1000FDCD1216A2846884771
:108740000028D7D0E16901988847BBF1000F07D115
:10875000002E05DD5FEACA7002D1002188F8001002
:10876000A068B84203DDBBF1000F03D017B16FF072
:108770000100B6E73046B4E72DE9FF4F087881B035
:108780009946FF2805D0491C2D2804D00024002339
:1087900008E000230BE00124F9E703EB830300EB7F
:1087A0004303491C0878FF28F7D104B15B4200203D
:1087B0000090147801462D2C01D02B2C04D1521C92
:1087C0002D2C12D00024009400251678FF2E0ED0F8
:1087D0000A24A0FB04C801FB0481002700FB071149
:1087E000521C16EB0C006941EFE70124EBE79944BA
:1087F00050EA01020ED00024AA4D2646DFF8A882D6
:1088000001F0BAFB82468B46B9F1000009DAC9F1E2
:1088100000071BE001980021C0E9001105B0BDE888
:10882000F08F074612E0F80707D022462B46304665
:10883000414600F051FB0646884622462B4610462C
:10884000194600F049FB04460D467F10002FEAD17F
:10885000B9F1000F324643465046594602DA00F05D
:10886000ADFB01E000F038FB009A0AB181F0004155
:10887000019AC2E90001D1E72DE9FF4F1F468DB0F3
:10888000D7E901464FF0FF382E2045464FF000094A
:108890000B90B9696D1C0E988847396A82468847E3
:1088A0000028F6D1BAF1FF3F0AD024F4D064002E9C
:1088B00011DDBAF12B0F08D0BAF12D0F0BD102E068
:1088C000404611B0ABE744F48064B9696D1C0E9862
:1088D00088478246761E6946600501D52D2000E056
:1088E0002B208DF8000001F1010B0DF1200809E0AB
:1088F000B9696D1C0E98884782460F9844F400743D
:10890000761E0560002E02DDBAF1300FF0D00B9913
:108910008A453ED144F0800406E00F99681CA9F115
:10892000010944F400740860B9696D1C761E0E9844
:10893000884782463028F0D02BE00B998A4505D134
:10894000200603D444F08004761E18E0504614F04C
:1089500099FC08B30DF11301761E44F400748B45A5
:1089600008D2AAF130000BF8010B200607D5A9F1B7
:10897000010003E0200602D409F101008146A005B0
:1089800002D50F99681C0860B9696D1C0E9888475C
:108990008246002ED1DC53E0002E51DDBAF1650F86
:1089A00002D0BAF1450F4BD1A00549D5B9696D1C6C
:1089B00024F44074761E0E9888478246002E0CDD03
:1089C0002B2804D0BAF12D0F07D144F48074B96973
:1089D0006D1C0E9888478246761EE00501D52D2134
:1089E00000E02B2108F8011BCDF82C8021E00DF1CF
:1089F0002901761E44F4007488450CD2AAF1300097
:108A000010F0FF0088F8000002D10B99884509D9C1
:108A100008F1010806E0E00501D5244801E042F232
:108A20000F708146B9696D1C0E98884782460F9871
:108A30000560002E04DD504614F024FC0028D6D139
:108A4000F9690E988847FF208BF8000088F800002D
:108A50000020069007904B466A4608A906A8FFF733
:108A60008BFEA00502D46FF001002AE714F0240F5A
:108A70000AD0E00714D1DDE906123868031D3B6017
:108A80000068C0E900120BE0DDE9060101F098FA88
:108A90000146E00704D13868021D3A6000680160B1
:108AA00028460EE7000024400000F03FF1D8FFFF09
:108AB0002DE9F04791460F4680460446002614F8FB
:108AC000015B2DB1FFF714FC0068405DC007F6D1D3
:108AD0002B2D02D02D2D18D0641E4A463946204633
:108AE00001F020F927B13968A14201D1C7F800800F
:108AF00071054FF002040BD54042002803DD13F04E
:108B000065FC0460A007BDE8F08746F48066E4E7F2
:108B10000028F8DA13F05AFC04606FF00040F2E726
:108B20002DE9F05F93460F4680460446002613F079
:108B30004DFCD0F80090824614F8015B2DB1FFF790
:108B4000D7FB0068405DC007F6D12B2D02D02D2D3C
:108B50001AD0641E0021CAF800105A463946204631
:108B600001F0E0F8014627B13868A04201D1C7F80A
:108B70000080DAF80000022809D0CAF800907005D9
:108B800005D54842BDE8F09F46F48066E2E7084616
:108B9000F8E770B5064613F019FC046805460A228A
:108BA00000213046FFF784FF2C6070BD70B5054C86
:108BB000054D03E0206820448047241DAC42F9D1D4
:108BC00070BD00000C6202081C6202082DE9F04131
:108BD000074615460E46102017F048FE04000AD03E
:108BE0006760C4E9026501F0EDF801682160046086
:108BF0000020BDE8F0810120FBE7F0B480EA01022B
:108C0000D40F4200B2EB410F02D202460846114691
:108C10004A0042D0C30DDDB2C1F3C752AD1A202DB8
:108C200035DAC1F3160141F4000204B15242C5F134
:108C3000200602FA06F12A411044B3EBD05F23D09C
:108C4000C4B1012DA0EBC35009DCF0BC4FF00042D1
:108C500002EAC352DBB200F5000001F0EBB84000BD
:108C600000F1807000EBC350A0F1807040EAD17039
:108C7000490009E0490841EAC071A0EBC35000F582
:108C80000000400800EBC350F0BC01F0CAB86142DC
:108C9000012202EB4101001BF6E7F0BC704781F0B6
:108CA0000041AAE780F00040A7E780EA010210B582
:108CB00002F00043400022D04A001FD0010E01EB19
:108CC0001261C0F35600C2F3560240F4000042F4B1
:108CD0000002A0FB022000047F39140400D0401CD5
:108CE00050EA124001D44000491EC2B20C0604EB07
:108CF000D010401C4008802A02D003E0002010BDA4
:108D000020F00100002900DA0020184310BD30B423
:108D100080EA010202F0004530F0004221F00040FC
:108D200013D090B1C30DD40DC2F31601C0F31600D9
:108D3000E41A41F4000140F400027D34914201D371
:108D4000641C00E04900002C02DA30BC00207047AF
:108D50004FF400000023914201D3891A03434008D5
:108D60004FEA4101F7D151B1914202D14FF0004198
:108D700005E002D24FF0010101E06FF0010103EBC9
:108D8000C450284430BC01F04CB82DE9FE4F804659
:108D900081EA0300C00F0C46009021F0004123F04F
:108DA0000045B8EB0200A94105D240462146904655
:108DB0001C460B46024623F00040104347D0270DC7
:108DC000C7F30A00C3F30A510290401A01904028E9
:108DD0006BDAC3F3130040F4801B0098924620B175
:108DE0000023D2EB030A63EB0B0B01985946C0F149
:108DF0004002504600F0ABFE06460D46504659462E
:108E0000019A00F0C3FE10EB08006141002487EADC
:108E1000115284EAE7731A4340D0009A62B3019A70
:108E2000012A4FEA075215DC001B61EB02014FF0EB
:108E3000004202EA0752CDE90042001C41F58011D0
:108E400032462B4601F033F803B0BDE8F08F4046C0
:108E50002146F9E7001B61EB0201001C41F580137C
:108E600000185B412018A2F5001747EB030140EA08
:108E7000D570B6196D4111E06D084FEA360645EA26
:108E8000C0754FEA0752001B61EB0201001C41F55F
:108E9000801149084FEA30000019514132462B46F3
:108EA00003B0BDE8F04F00F0F3BF0098012240008E
:108EB0000023D0EB020263EBE073009821464FEAF7
:108EC000E074B8EB000061EB0401E9E783F00043D4
:108ED0005BE781F0004158E72DE9FE4F81EA03048A
:108EE00004F0004421F0004100944FF0000B23F007
:108EF000004350EA01045ED052EA03045BD0C3F39E
:108F00000A54C1F30A552C44A4F2F3340194A0FB93
:108F10000254C1F3130141F48011C3F3130343F46A
:108F2000801301FB024400FB034E840A970A44EAC3
:108F3000815447EA8357A4FB076802958D0A05FB15
:108F400007854FEA932C04FB0C542705029D4FEA3A
:108F5000065847EA1637B5EB08056EEB070C870E87
:108F6000920E47EA811742EA8312A7FB0201B6EB91
:108F70000B0164EB00042B0D43EA0C335E1844EB49
:108F80001C50DA465146E7FB0201C5F313044FEAD1
:108F90000B3343EA14534FEA0432019C43EA0603BD
:108FA000A4F10C040294009CCDE900B400F07FFF12
:108FB00003B0BDE8F08F00200146F9E72DE9F04D40
:108FC00081EA030404F0004B21F0004514464FF001
:108FD000000A23F0004150EA050220D054EA0102C1
:108FE0001DD0C5F30A570246C5F31303C1F313009E
:108FF000C1F30A5640F4801543F48013A7EB06082A
:10900000101BD64608F2FD3873EB050002D308F1B9
:10901000010801E092185B41B8F1000F03DA00206B
:109020000146BDE8F08D00204FF4801106468446CD
:109030000EE0171B73EB050705D3121B63EB05034B
:1090400006434CEA010C49084FEA300092185B4194
:1090500050EA0107EDD152EA030012D082EA04007F
:1090600083EA0501084305D0101BAB4106D201225B
:10907000002306E000224FF0004302E06FF00102FF
:1090800053101AEB06004CEB085110EB0A0041EBB1
:109090000B01BDE8F04D00F0FBBEC10F80EAE070AF
:1090A0000844CA079623002100F0C4BE962300227C
:1090B000114600F0BFBE0EB5C10F80EAE070084453
:1090C000CA07002140F233438DE80E000A460B46E2
:1090D00000F0EDFE03B000BD0EB540F23341029149
:1090E0000021CDE900110A460B4600F0E0FE03B076
:1090F00000BD00F0004220F00040C10DC0F316009A
:1091000040F400007F2901DA00207047962903DC33
:10911000C1F19601C84001E096398840002AF4D098
:109120004042704720F00040C10DC0F3160040F4EB
:1091300000007F2901DA00207047962903DCC1F185
:109140009601C840704796398840704770B5C1F3A2
:109150000A5201F000450024C1F3130140F2FF332D
:1091600041F480119A4201DA002070BD40F233438D
:109170009A42A2F2334203DC524200F0F7FC00E0D4
:1091800090402C43F1D0404270BDC1F30A5210B55B
:10919000C1F3130140F2FF3341F480119A4201DA26
:1091A000002010BD40F233439A42A2F2334203DC66
:1091B000524200F0DBFC10BD904010BD30B5041EE3
:1091C00071F1000404DB4FF00044404264EB010104
:1091D000141E73F1000405DB1C464FF0004352429D
:1091E00063EB04038B4208BF824230BD30B5041EDE
:1091F00071F1000404DB4FF00044404264EB0101D4
:10920000141E73F1000405DB1C464FF0004352426C
:1092100063EB0403994208BF904230BD002801DB94
:10922000C0F10040002901DBC1F1004181427047DB
:1092300070B5054600F001F904461DB1284600F05E
:1092400087F808B1A06801E055F8140C20610120EE
:109250002073BDE8704000F0DFB8040001D000F0DA
:1092600081F82046FFF7E4FF2DE9F14DD0E90C85A8
:1092700081B00646D0F828A000F0DFF80446A6F139
:109280002007304600F06EF8304600F061F808B173
:10929000606800E0B868206100F0EEFFBDE8FC8D7A
:1092A00000F060F86669BE4202D100F07FF80DE080
:1092B0003069606100F07AF805E000F053F800F0E2
:1092C000ABF800F073F860693061666100273C46D6
:1092D00006F1200B11E02E686B46002231465846FD
:1092E00000F03EFF08B100F0D5FE3146104811F005
:1092F00003FF00B101274544641C5445EBD38FB1F3
:10930000684612F0D9F8042000F094FE694612F085
:10931000CBF80446684612F0DEF8064A04492046B7
:1093200000F003FF5846FFF783FF00F03FF8B5E772
:1093300084590208D7B4010802680B689A4205D123
:1093400040684968884201D1012070470020704779
:1093500010B50349FFF7F0FF80F0010010BD0000D9
:109360004C57020870B50546466A00F066F8044698
:109370002846FFF7EDFF20B12946606900F082F82A
:1093800007E0A5F12000C169491EC1612168491E9D
:1093900021604169491C4161016911B9616901613B
:1093A0006061284601F02EF9304670BD70B500F0BE
:1093B00044F8446905460CB900F02EF86069401E77
:1093C000606117D104F120063046FFF7C1FF216923
:1093D0006961E56928B104F17800266800F00BF8AE
:1093E00001E000202061002D04D13046BDE870402E
:1093F00001F038B970BD10B5044600F01EF8783C95
:10940000C069214600F00CFE002804D12046BDE8CA
:10941000104016F0F9BF10BD10B500F00EF801694C
:1094200019B100220261884701E080688047AFF3EC
:109430000080000010B5AFF3008070B500F0C8FCEC
:1094400004680546A4B9202017F010FA040011D0D2
:10945000094900202C60C4E900010849A16020737B
:10946000206160610649A06109B100F0C5FDE061BD
:10947000204670BDAFF3008093A200083594000829
:109480000000000070B504000D4609D004F1200072
:10949000FFF752FF20B12068A84201D1204670BDDD
:1094A000002000F0C7FDD5E90023A0F15801C1E973
:1094B0000023002240F85C2C40F8642C40F8682C13
:1094C00040F8785D70BD0000017A51B9417A89B1E8
:1094D000491E417241680A1D426009680160042109
:1094E0000172C9B2491E017201680A0E09020160C7
:1094F00010467047B02070472DE9FF4D8CB05FEAF1
:10950000000B4FF0000016460D460790099005909D
:1095100008900DD0BBF1010F0AD0BBF1020F01D0B2
:10952000002204E2A86BA864E86B04902C6C0FE0A6
:1095300095F85000C007E86C049078D10F9818B1E6
:1095400004980068C0F30740049901EB800442E0EE
:109550000F98022811D02788002F68D06088241D1A
:1095600000F00102394662F35F0161B1012934D094
:1095700002297DD00329EBD12FE12768002FECD001
:1095800060680834ECE7BBF1000F24D0A96C00231D
:1095900001EB000806A9009130460F22194600F0A1
:1095A00092FE0698804516D808EB0701814212D931
:1095B000A96CA963201D0499C5E90F102846FEF780
:1095C00053FE0028ACD020680F2240F31E00044454
:1095D0003046049423E0241DBAE7BBF1000F27D0E6
:1095E00006A90023009130460D22194600F06BFEBB
:1095F0000698296A88426ED1E86AA0426BD1206839
:1096000004A940F31E0004440023009130460F22B9
:109610000494194600F040FE30460022049504A947
:1096200000230091194600F037FE22463DE2D6E0C5
:10963000A96C002301EB00080AA9009130460F2213
:10964000194600F040FE0A987F1E804543D808EB7B
:10965000070181423FD96768B81C0ED0781C0ED034
:10966000206806ABC20F3946284600F079FD00E0BD
:1096700033E078B302281DD004E0022257E105F15F
:109680005800069004A90023009130460D22194687
:1096900000F019FE0498EC6228620698686220685F
:1096A000022140F31E0002192846FEF78BFD3A46C0
:1096B00080215FE004A90023009130460D22194665
:1096C00000F001FE0498EC6228620698A86205F199
:1096D0002800E3E7FFE708343AE72168069121F024
:1096E0000048BBF1000F10D00AA9002300913046BA
:1096F0000D22194600F0E7FD0A98296A884240D1F8
:10970000E86AA0423DD101203CE0A96C401E01EB7B
:10971000000A0AA90023009130460F22194600F0E2
:10972000D2FD0A9882453AD80AEB0701814236D920
:1097300004F1040A00270AE06B4600222846DAF802
:10974000001000F00DFD20B90AF1040A7F1C474506
:10975000F2D3474523D104A90023009130460D22BE
:10976000194600F0B0FD0498EC6228620020D34A4C
:10977000022168622846FEF725FD062010B0BDE8EC
:10978000F08D002058B10020C5E90A80042028632C
:10979000201D68630698404506D101200790069871
:1097A000404515D1002014E004EB8800002250F859
:1097B000041F134641F31E010C1804A90091304602
:1097C0000495114600F068FD30460F22049465E1CF
:1097D000042000EB88000444FDE60122A7E0049881
:1097E000006801900498001D02900F9810B3019832
:1097F000000C8DF80D0001980004019002208DF8F6
:109800000C0001A8FFF760FE0446B0281AD03F2CD8
:1098100041D800F03F01042000EB810706A90D2488
:109820000023009130462246194600F04CFD069870
:10983000384442E000208DF80D00019800020190AC
:109840000320DCE70998B0B905980028C5D004A822
:10985000002300900E221946304600F034FD049992
:10986000059105A90023009130460F22194600F00A
:1098700013FD012008900798002870D0002204A949
:109880000091304613460495114600F005FD0898F6
:10989000002878D0FEE07F2C19D800F03F0104208A
:1098A00000EB810706A90D240023009130462246D3
:1098B000194600F008FD0698C01B049004A8002378
:1098C000009022461946304600F0E6FC99E78F2CBE
:1098D0001AD80007040C01A8FFF7F6FD54EA00149B
:1098E0003FF4CBAE002322461946304600F002FD7D
:1098F00008B103221BE0200401D501200990600477
:10990000E4D5012005907CE79F2C16D800F00F02CB
:109910000D2A0BD00F2A09D006A9002300910D248F
:109920003046194600F0CFFC0698C6E70422012114
:109930002846FEF747FC092020E7AF2C10D804F09A
:1099400007000121401C81400A01103A200703D57D
:10995000012042F4804205900023194658E0AAE015
:10996000B72C35D8B12C0FD0B22C15D0B328DDD1FF
:1099700001A8FFF7A9FD00F00F0100F0F000491C5D
:1099800041EA00322BE073E001A8FFF79DFD0200E1
:10999000CCD00F2AE0D9C9E700273C4601A8FFF741
:1099A00093FD00F07F01A1400F43000601D5E41DA7
:1099B000F4E706A90D2400230091304622461946FB
:1099C00000F081FC069800EB870000F5017074E759
:1099D000BF2C07D800F00700401C40F400220123F0
:1099E000012115E0C72C25D809D101A8FFF76CFD8E
:1099F00002009BD00F2A99D80023042108E0C62C2E
:109A00000DD000F00700401C40F42022032319462B
:109A1000304600F06FFC00283FF458AF69E701A81A
:109A2000FFF752FD00F00F0100F0F000491C41EA81
:109A30000032EBE7C82C0BD0C92C09D0CF2CAAD907
:109A4000D72CA8D800F00700401C40F400220DE0FD
:109A500001A8FFF739FD00F00F01491C00F0F000EC
:109A600041EA0032C82C01D102F580120523B7E784
:109A700004A8002300900F221946304600F023FC72
:109A80000499059105A90023009130460E2219463C
:109A900000F002FC094930460F22049104A900237A
:109AA0000091194600F0F8FB044A03212846FEF70E
:109AB00089FB072062E6082060E600006992000842
:109AC00030B50B46014600202022012409E021FA8E
:109AD00002F59D4205D303FA02F5491B04FA02F58B
:109AE0002844151EA2F10102F1DC30BD2DE9F05F22
:109AF0000546002092469B468846064681464024FD
:109B00001BE0284641464746224600F02FF85346C0
:109B10005A46C01A914110D311461846224600F009
:109B200016F82D1A67EB01084F4622460120002146
:109B300000F00DF817EB00094E41201EA4F10104BE
:109B4000DFDC484631462A464346BDE8F09F202ADE
:109B500004DB203A00FA02F1002070479140C2F184
:109B6000200320FA03F3194390407047202A04DBB6
:109B7000203A21FA02F00021704721FA02F3D04086
:109B8000C2F120029140084319467047202A06DBA3
:109B9000CB17203A41FA02F043EAE07306E041FABB
:109BA00002F3D040C2F120029140084319467047A9
:109BB000014900F003B80000502D002010B50068E6
:109BC0003C22B0FBF2F302FB1303B0FBF2F00B609C
:109BD000B0FBF2F302FB1303B0FBF2F018224B6070
:109BE000B0FBF2F302FB1303B0FBF2F0021D8B603B
:109BF0000723B2FBF3F403FB1422800040F2B553B9
:109C000000F66C308A61B0FBF3F2B0FBF3F403FBB7
:109C10001400443280084A61C8613B2802D392078D
:109C200000D0401C0022074C13460A61E25C8242CD
:109C300003D8801A5B1C0B61F8E7401CC86008461B
:109C400010BD0000805802080246C9B200E0401C66
:109C50000378002BFBD102E003788B4203D0401E37
:109C60009042F9D2002070470FB400B58DB010A912
:109C700009900B9000914FF0FF300A9000200C905B
:109C800005480690054807906A4609A80F9900F014
:109C90001BF80DB05DF814FBE59C0008039D00085F
:109CA0003A2800D2303820F02002412A01D3A2F114
:109CB0003700884201D34FF0FF30704702681144EB
:109CC0001378016018467047D16004495161044916
:109CD000116200211161114600F012BDBD9C000807
:109CE000F9820008426842B1016811F8013B23B1D2
:109CF000521EC0E90012184670470121C160881E3B
:109D0000704742685AB1C368016843B983688B429F
:109D100005D0491E521CC0E90012002070474FF0C8
:109D2000FF3070472DE9F05F824600780027154626
:109D30008B460AF10104B946302801D09DB113E0E9
:109D400014F8010B0127782803D0582801D045B119
:109D50000AE00DB1102D07D10027102514F8010BD2
:109D600002E0082500E00A250026B0460EE005FBCB
:109D7000080005FB06F1012701EB10461FFA80F8E9
:109D8000B6F5803F00D3B94614F8010B2946FFF71A
:109D900087FF0028EBDABBF1000F05D00FB1641E7E
:109DA00000E05446CBF80040B9F1000F06D012F0A5
:109DB0000DFB02210160C81EBDE8F09F48EA064085
:109DC000FAE7000000487047E405002003487047A8
:109DD0000248001D011F8860001D7047E805002033
:109DE0002DE9F0410646FFF7EDFF8046454613E0BA
:109DF00016B1E068B0420ED120682860D4E90101B4
:109E0000D8F800708847204616F0FEFAD8F800000F
:109E1000B842EBD100E025462C68002CE8D1BDE823
:109E2000F0810029A8BF7047401C490008BF20F0FE
:109E30000100704710B4B0FA80FC00FA0CF050EA50
:109E4000010404BF10BC704749B1CCF1200421FAD1
:109E500004F411FA0CF118BF012121430843A3EBCC
:109E60000C01CB1D4FEA00614FEA102042BF0020D9
:109E700010BC704700EBC35010440029A4BF10BCB5
:109E80007047401C490008BF20F0010010BC70471B
:109E900010B5141E73F1000408DA401C41F10001F2
:109EA00092185B411A4301D120F0010010BD2DE949
:109EB000F04D92469B4611B1B1FA81F202E0B0FA40
:109EC00080F220329046FFF742FE04460F4640EAF9
:109ED0000A0041EA0B0153465A46084313D0114683
:109EE00053EA010019D0C8F140025046FFF73EFE88
:109EF00005460E46504659464246FFF728FE08439F
:109F000005D0012004E020463946BDE8F08D002050
:109F1000054346EAE0762C4337430A986305E40A92
:109F2000A0EB08000022FD0A44EA47540A3002D59B
:109F300000200146E9E7010510196941DDE90845FE
:109F400000196941BDE8F04DA2E770B521F000436A
:109F500003430CD0C1F30A550024D5EB040564EB90
:109F60000403D617AD1AB34102DB0020014670BDD1
:109F7000201841EB025170BD0EB540F233420292FF
:109F80000022CDE900221346FFF791FF03B000BD88
:109F9000C1F30A52C1F3130140F2FF3341F48011BF
:109FA0009A4202DA00200146704740F233439A4257
:109FB000A2F2334202DC5242FFF7D8BDFFF7C7BD21
:109FC00001F0004330B421F0004150EA010206D014
:109FD0000A0DA2F56072C1F31301002A02DC30BC45
:109FE00000207047440F44EAC104C100E01830BCAF
:109FF00000EBC250FFF715BF10B5882016F036FCF5
:10A00000002801D00021017010BD802902D808B1BC
:10A01000017809B100207047012100F8081B704742
:10A0200018B100F10802914201D0002070470021D0
:10A030000170704770B50446FFF7FFF978340546A4
:10A040002646204616F012FC040007D13146E86986
:10A05000FFF7DBFF040001D1FFF7EAF80AA104F1E2
:10A060002000D1E90021C0E900210021A162E162C4
:10A0700061612161A161E161A868E0606868A06038
:10A0800004F1780070BD000041524D00432B2B00BD
:10A090000000000070B5FFF7D0F94469054614B917
:10A0A0000020FFF7C5F8E06904F12006401CE061DC
:10A0B0003046FFF74DF9002801D0266803E02868F4
:10A0C00000F10100286002D04FF0000200E0226899
:10A0D0004FF000013046FEF775F83046FEF78DF878
:10A0E0003046FFF7BAF8000073B50C46FFF7A5F944
:10A0F00054F80C1C203C31B1E169491EE161016852
:10A10000491E01607CBD616804F1780509B12846EB
:10A1100088472846BDE87C40FFF76DB9FFF722F974
:10A120002846FFF768F9FFF7B5FF70B50D46A0F1B7
:10A1300058044C49A160012140F85C1C40E91E52C2
:10A14000FFF77BF901682A46491C0160002120467F
:10A15000FEF738F82046FEF750F82046FFF77DF866
:10A160002DE9FF4D9A4693460E468046FFF7F0F8DC
:10A17000002875D1A8F12000012708F158080568CA
:10A180000024CDF808803146284610F0B5FF10B104
:10A19000CAF8008062E0284612F0BDF8019030460F
:10A1A00012F0B9F800903049019810F0A5FF20B9DD
:10A1B0002D49009810F0A0FF20B1DDE9001010F04B
:10A1C000ABFF08BB2849019810F096FFC0B1307A68
:10A1D000297A00F0030001F00301641C31EA000257
:10A1E0003ED130EA010100D077B1C00700D100278D
:10A1F0000298ED68F6680028C5D000680290C2E7B2
:10A20000012C02D06CB109D02AE01849304610F078
:10A2100073FF18B1BBF1000F22D1B9E7BBF1000FFA
:10A220001ED11349019810F067FF20B91149019818
:10A2300010F062FFA0B100200090019033462A4642
:10A2400003A902A812F022F9002804D00399CAF841
:10A2500000101CB1022004B0BDE8F08D0120FAE727
:10A260000020F8E7E9A00008DC580208F4590208C9
:10A27000E8580208F458020810B5FFF7DEF8016943
:10A2800019B100220261884701E040688047AFF3BE
:10A290000080FFF7C1B8000010B5029C31B1012960
:10A2A0000DD003290BD004290BD108E04BB90F2A9C
:10A2B00007D800EB820021684160002010BD01201A
:10A2C00010BD022010BD10B5029C31B101290DD086
:10A2D00003290BD004290BD108E04BB90F2A07D86A
:10A2E00000EB820040682060002010BD012010BDFE
:10A2F000022010BD2DE9F04DC0B09846044631B1A2
:10A30000012918D0032979D0042979D176E0B8F150
:10A31000000F75D190B2231D00F40052A16B05E02F
:10A32000C50701D020C91D6040081B1D0028F7D1BA
:10A33000F2BBA1635EE0150C96B2102D01D2012094
:10A3400000E000208246A819102801D9012700E06A
:10A350000027B8F1010F03D0B8F1050F50D101E08B
:10A360003FBB01E020284BD84FF0000BBAF1000FA3
:10A3700008D02078012805D184F800B004F1480005
:10A3800080EC200B47B16078012805D184F801B03A
:10A3900004F1C800C0EC200BBAF1000F02D06846EF
:10A3A00080EC200B20A883460FB1C0EC200B01E00D
:10A3B00020E025E06B46A06B08E0014603EBC502F8
:10A3C000D1E900C1C2E900C108306D1C761EF4D28B
:10A3D0004146B8F1010F00D0002100EB8100A063DD
:10A3E000BAF1000F02D0184690EC200B17B1584676
:10A3F000D0EC200B002040B0BDE8F08D0120FAE742
:10A400000220F8E710B50468904801F1080243689B
:10A4100003444FF0FF30934204D0136843F31E030C
:10A42000134400E003460A6842F31E021144A142AD
:10A4300002D89C4201D3012010BD002010BD33B5CD
:10A440000446824881B0824D01684268014410444C
:10A45000401AC21002980823801E029002A800959C
:10A4600000F0FAFB7B49002370B1026842F31E0240
:10A470000244A2644268012A09D0002A0ADA001DB7
:10A48000E064012020650BE00422636115E00222F4
:10A49000636112E042F31E02001D1044C4E913037D
:10A4A000E26C1068002815DAC0F3036050B101288F
:10A4B0000AD002280CD0012263612046FDF782FEFB
:10A4C00009203EBD644800E06448606100203EBD54
:10A4D0006348FAE740F31E001044F6E70C460546D1
:10A4E0002846216CFFF7ABFF50B9206C28616B69DF
:10A4F0002246294601209847072803D00828EFD094
:10A50000AFF30080201DFDF76BFEF0B50446C06878
:10A51000D3B00E46012768B3582016F0A7F90500FE
:10A520002AD0142204F10C0105F10C0000F0B8F857
:10A53000182204F1200105F1200000F0B1F804F127
:10A54000380005F1380C0FC88CE80F00E560F06B9F
:10A5500030644022311D01A800F0A2F88DF800708F
:10A560008DF8017012AF32AD20461099FFF767FFEA
:10A57000D0B910E0E760EAE7052236492046FDF74A
:10A5800021FE05E09DF8010010B92846D0EC200B13
:10A5900053B00920F0BD63696A4621460020984700
:10A5A000062809D00828DFD09DF800000028E9D14E
:10A5B000384690EC200BE5E79DF8000010B93846CE
:10A5C00090EC200B9DF8010010B92846D0EC200B30
:10A5D00031462046FFF782FF0546006908640C46B5
:10A5E0000A466B69294602209847072803D00828A5
:10A5F00004D0AFF30080201DFDF7F2FD2146284670
:10A60000FFF76CFF70B5C1680546D1B101291AD0BA
:10A610000C46142205F10C000C3100F041F8182210
:10A6200004F1200105F1200000F03AF804F13800AF
:10A6300038350FC885E80F002046BDE8704015F09A
:10A64000E3BEAFF300800020E86070BD2082000808
:10A6500005A40008010000FFEB820008E582000865
:10A66000000000008268002A02D001460120104745
:10A6700070470000064C074D06E0E06840F001031B
:10A6800094E8070098471034AC42F6D3FDF780FDFC
:10A69000EC6102080C620208004870478C580208FE
:10A6A00010B5441A0346944209D28418114403E0B9
:10A6B00011F8013D04F8013D521EF9D210BD40EAE7
:10A6C0000104A40703D009E010C9121F10C3042A13
:10A6D000FAD203E011F8014B03F8014B521EF9D2F4
:10A6E00010BD10B503460020904201D20C5C1C54F2
:10A6F0000C5C002C01D0401CF6E710BDFDF7B3BE8A
:10A700002DE9F34F8BB04FF0000801F10C000C461F
:10A710004FF0010B46460DF1080A019062690121D4
:10A7200001989047051E2DD0252D2CD0216A8847F1
:10A73000C0B16269012101989047216A88470028C9
:10A74000F7D1411E62690198904700E0761CA1692B
:10A750000B988847216A88470028F7D1E1690B9850
:10A760008847DBE7A1690B9888470746A84201D1D3
:10A77000761CD3E7E1690B9888477F1C02D1B8F1BA
:10A78000000F6FD046E1002762693D4639460198C7
:10A7900090472A2804D16269012101989047012538
:10A7A000DFF884926269012101989047A0F130019D
:10A7B0000A290AD24F45E5DC07EB870100EB410788
:10A7C000303FDFD445F01005ECE7E90601D46FF027
:10A7D00000476C280AD04C2814D0682815D06A2865
:10A7E0000DD074281CD07A281AD01DE0626901218E
:10A7F000019890476C2802D045F0040514E045F01C
:10A8000002050DE045F020050AE06269012101988A
:10A810009047682802D045F0080505E045F400653A
:10A820006269012101989047C4E9015765283DD02C
:10A8300019DC58287AD00CDC452837D004DC2528D0
:10A8400026D0412831D131E046282FD047282CD1BD
:10A850002CE05B2877D0612828D063287CD064283E
:10A8600023D15AE0D0E06F2848D008DC66281DD0FC
:10A8700067281BD0692821D06E2816D127E07028C0
:10A8800045D0732868D0752847D078280DD14DE081
:10A89000A1690B988847054625283FF469AFE1690F
:10A8A0000B9888476D1C3FF46AAFB3E023466A46B5
:10A8B0006FF001000B99FDF7DFFF9EE045F04000CF
:10A8C0006060A80723464FF0000236D43EE0E80758
:10A8D0007FF447AF2068011D21600068290501D57C
:10A8E00006701BE7290701D5068017E7A90703D5DE
:10A8F000F117C0E9006111E706600FE745F040007D
:10A900006060A80723464FF0080216D41EE040F608
:10A910000E0125EA0100606016E045F0400060602D
:10A92000A80723464FF00A0207D40FE045F0400085
:10A930006060A80708D5234610226FF001000B992C
:10A9400000F074F859E007E0234610226FF0010090
:10A950000B99FDF7FBFD50E04FF000094F464B46C9
:10A96000632802D05B2806D040E0E80601D401202D
:10A97000A06001273AE062690121019890475E28B2
:10A9800005D14FF001096269494601989047216954
:10A9900039B900210A46534643F82120491C0829A9
:10A9A000FADBB0B3216969B9C11700EBD162531169
:10A9B0000AEB830122F01F02821A01200B689040EB
:10A9C00003430B6062690121019890475D28E8D13B
:10A9D000B9F1000F09D00020514651F82020D24390
:10A9E00041F82020401C0828F7DB02AB22460097E4
:10A9F0006FF001000B99FDF74FFE00280CDA401CA8
:10AA000008D1BBF1000F05D04FF0FF300DB0BDE80D
:10AA1000F08FFFE74046F9E7E90701D108F10108A7
:10AA200006444FF0000B79E6CCCCCC0C2DE9FF4F5F
:10AA30001C4681B00021D4E9016791464FF0FF35F3
:10AA40008A468846A1696D1C02988847216A834618
:10AA500088470028F6D1BBF1FF3F0CD026F4C06632
:10AA6000002F1ADD700615D5BBF12B0F0AD0BBF1F4
:10AA70002D0F0FD104E04FF0FF3005B0BDE8F08F8F
:10AA800046F48066A1696D1C029888477F1E834644
:10AA9000002F02DDBBF1300F03D0B9F1000F2AD037
:10AAA00025E0A1696D1C46F400767F1E0298884758
:10AAB0008346002F05DDBBF1780F06D0BBF1580FA0
:10AAC00003D0B9F1000F10D011E0B9F1000F02D09E
:10AAD000B9F1100F0BD1A1696D1C26F400767F1E11
:10AAE000029888478346102000E0082081464FEAFC
:10AAF000E970009017E00A20F8E74346AAFB09280E
:10AB000003FB0980DDF800C07F1E0AFB0C0112EB7D
:10AB10000B0A41EBEB78A16946F4007605F10105DB
:10AB2000029888478346002F06DD49465846FFF7BE
:10AB3000B7F85FEA000BE0D5E16902988847B005F5
:10AB400002D46FF0010098E7F00718D1700610D515
:10AB50007005514605D50023D1EB030163EB0802D4
:10AB600000E042462068031D23600068C0E900122F
:10AB700005E02068011D21600068C0E900A82846A2
:10AB80007BE770472DE9F04D00231A461B1A8A41D6
:10AB900003DB00200146BDE8F08DC1F30A52C1F38A
:10ABA000130141F480154FF0000BD10702D10018BA
:10ABB0006D41521E0027044640F2FF11384601EB5A
:10ABC000620A3E468046024600204FF48011FEF79E
:10ABD000CDFFC2197141BB1846EB0100B4EB030C69
:10ABE00075EB000C04D3E41A65EB000517460E461E
:10ABF000241908F101006D4180463428E3DDF9197C
:10AC000046EB0600091BA84103D24FF0FF32134662
:10AC100001E0002213461BEB070046EB0A51BDE89A
:10AC2000F04DFFF735B9000038B5684610F08CFAE2
:10AC30000420FFF7FFF9694610F07EFA04466846E3
:10AC400010F091FA024A03492046FFF76EFA00001D
:10AC500067B101083C5902082DE9F05F9946154695
:10AC60000F4683464FF0FF36DDF828A011E0A81903
:10AC7000441009FB047080460146584652469047EE
:10AC8000002802D004DA254603E04046BDE8F09FE4
:10AC90002646A5EB06000128E9DC0020F6E770B5A2
:10ACA0008C1810F8015B15F0070301D110F8013B77
:10ACB0002A1106D110F8012B03E010F8016B01F8FE
:10ACC000016B5B1EF9D12B0705D40023521E0DD456
:10ACD00001F8013BFAE710F8013BCB1A921C03E0A4
:10ACE00013F8015B01F8015B521EF9D5A142D8D3DC
:10ACF000002070BDFEF75AFBFEF758FBFDF752FA35
:10AD0000FEF754FBFDF74EFA10B504460E2304225D
:10AD10000249034811F073FB10BD0000032B020829
:10AD20000C06002038B50446684617F0B2FC014610
:10AD3000204617F0BFFE38BD0029816802D041F0DF
:10AD4000010101E021F0010181607047084B10B55D
:10AD5000D3F8042307490A40D0E900142143D0E97D
:10AD60000240044321431143C3F8041310BD000003
:10AD700000200140E030FCFF002101604160816063
:10AD8000C16070470029816802D041F4807101E000
:10AD900021F48071816070470029816802D041F4FC
:10ADA000007101E021F400718160704710B501214C
:10ADB0000C02204602F006FE2046BDE810400021AD
:10ADC00002F000BE30B542680F4B0C791A400B6898
:10ADD00042EA04221343436082680C4B4D791A40C7
:10ADE000D1E9034323438C6844EA450423431343D6
:10ADF0008360C26A097D22F47002491EC9B242EA28
:10AE00000151C16230BD0000FFFEFFFCFDF7FFC035
:10AE100070B5072409290AD9C568A1F10A0606EB0D
:10AE20004606B440A543B3401D43C56007E005692D
:10AE300001EB4106B440A543B3401D4305611F2308
:10AE4000072A09D2446B521E02EB820293409C43B4
:10AE500091400C43446370BD0D2A09D2046BD21F8C
:10AE600002EB820293409C4391400C43046370BD0B
:10AE7000C46A0D3A02EB820293409C4391400C431A
:10AE8000C46270BD816841F08041816070470021DB
:10AE90000160017141718160C16001610121017531
:10AEA0007047000010B5024800680AF051FE10BD5E
:10AEB000A80000200348006840F004000149086031
:10AEC000704700000464004010B5024800680AF0B2
:10AED00055FE10BDA800002010B5024800680AF019
:10AEE00037FE10BDA80000200348006840F00400B1
:10AEF00001490860704700000468004010B502482E
:10AF000000680AF03BFE10BDA8000020094910B5FA
:10AF100088424FF0010101D14C0601E04FF08064FE
:10AF2000204602F037FD2046BDE81040002102F027
:10AF300031BD000000640040F0B5827A01219140EB
:10AF40002E4A136843F0010313602C4B1C331C681A
:10AF50008C431C60294D067B294C0C35A6B92E6804
:10AF60008E432E604688C78846EA0746877A04EBF8
:10AF7000C707C7F840660688878846EA0746877A83
:10AF800004EBC707C7F84466067B012E12D12E6872
:10AF90000E432E60867A056804EBC6064FEA3545F7
:10AFA000C6F84056867A456804EBC6044FEA354534
:10AFB000C4F84456114CC57A241D002D256806D0CE
:10AFC0000D4325600D4C0589143415B104E08D4303
:10AFD000F7E725688D4325600589012D02D1256895
:10AFE0000D432560407B012802D118680843186092
:10AFF000106820F001001060F0BD00000066004005
:10B0000000600040002A426901D00A4300E08A4300
:10B010004261704710B50368002223F00203036009
:10B02000036843F0010303604FF6FF7300E0521C16
:10B030004468E40701D19A42F9D14268D2073ED070
:10B040008A79012A02683CD022F080020260CA7923
:10B05000012A026838D022F0400202600A7A012AEE
:10B06000026834D022F0200202604A7A012A026883
:10B0700030D022F0100202608A7A012A02682CD0B5
:10B0800022F008020260CA7A012A026828D022F05F
:10B09000040202608A78CC78920742EA04620C7952
:10B0A00042EA04424C79098842EA0452491E0A43A2
:10B0B000C261016821F001010160002114E000205B
:10B0C00010BD42F08002C1E742F04002C5E742F005
:10B0D0002002C9E742F01002CDE742F00802D1E7B2
:10B0E00042F00402D5E7491C4268D20701D09942D8
:10B0F000F9D14068C007E2D1012010BD10B500EBC6
:10B100000113D3F8B04114F004041472D3F8B04121
:10B1100034D0E408C2F80440D3F8B04104F002048B
:10B120005472D3F8B44104F00F049472D3F8B441CC
:10B13000240AD474D3F8B841D472D3F8B841240A9D
:10B140001473D3F8B841240C5473D3F8B841240EC7
:10B150009473D3F8BC41D473D3F8BC41240A14745B
:10B16000D3F8BC41240C5474D3F8BC311B0E937437
:10B1700039B1016941F02001016110BD640D146015
:10B18000CAE7C16841F02001C16010BD0021817192
:10B19000C171017241728172C1728170C1700321EB
:10B1A00001710221417101210180704730B50246D1
:10B1B000002093685B0108D49068000101D501204C
:10B1C00003E09068C00037D5022002EB0012D2F8ED
:10B1D000803103F00103C2F880310B7A73B3D2F8E7
:10B1E00080414D681C434B7A43EAC5031C43C2F8B7
:10B1F00080418B7A03F00F038B72D2F8843123F0F5
:10B200000F03C2F88431D2F884318C7A2343C2F818
:10B210008431CB7ACC6843EA0423C2F88831CB7BF3
:10B22000096943EA0121C2F88C11D2F8801141F07A
:10B230000101C2F8801130BD042030BDD2F8803148
:10B240004C7A23430C8843EA4453C2F88031D0E758
:10B2500010B50022044B03E050F822401C60521C41
:10B260008A42F9D3186810BD0030024001490860D5
:10B27000086870470030024001490120886070472B
:10B2800000300240044A01238340106809B118438A
:10B2900000E098431060704700740040044A931423
:10B2A0008340106809B1184300E09843106070476C
:10B2B0000074004010B501214C07204602F06AFBE3
:10B2C0002046BDE81040002102F064BB30B5084CB8
:10B2D000236840F6FE7282409343D1E900252A4359
:10B2E000D1E902510D432A4382401A43226030BD06
:10B2F00000740040034A08B5104408300090016013
:10B3000008BD000000740040034A08B51044143022
:10B310000090016008BD0000007400400309054A68
:10B32000012098400029116801D0014300E08143C9
:10B330001160704704740040002101604160816029
:10B34000C160704710B50A460C0601F07F0303EB9D
:10B35000830100EBC10102D501F58E7101E001F519
:10B360005D71D2090B704A7006F096FB002010BD8B
:10B370000A4610B5090602F07F0306D503EB8301E8
:10B3800000EBC10101F58E7105E002EB820100EBDB
:10B39000C10101F55D7100248C700B70D2094A70F7
:10B3A00006F061FB002010BD10B50A0604D501F0BF
:10B3B0007F0106F09FFC01E006F080FC002010BD3C
:10B3C00070B50C460E0601F07F0505EB850100EB1C
:10B3D000C10102D501F58E7101E001F55D71E4094D
:10B3E0000D704C708A60CB7000D0CD80022B01D1E3
:10B3F00000220A7106F00EFB002070BD10B501F0AE
:10B400007F0404EB840100EBC101C1F88833C1F86B
:10B4100080230023C1F88C3381F8753381F874439D
:10B42000C37801F55D71012B00D10A6114F0FF0FA3
:10B4300003D006F063FB002010BD06F07DFAFAE7AA
:10B440000069002261F30A1201681143016070472C
:10B450000A4610B5090602F07F0306D503EB830107
:10B4600000EBC10101F58E7105E002EB820100EBFA
:10B47000C10101F55D7101248C700B70D2094A7015
:10B4800006F024FB002010BD70B511F07F0404EB22
:10B49000840100EBC1014FF0010581F81D5181F8D5
:10B4A0001C41C1F82821C1F82C2101F58E714FF003
:10B4B0000002C1E9053203D006F020FB002070BD78
:10B4C00006F03AFAFAE700002DE9F04106460025B9
:10B4D00006F094FD074655E0F80751D03069EAB20E
:10B4E0000369416BD14006EB820201F001019269D0
:10B4F00043EAC11194680C40E1071AD00124426B61
:10B5000004FA05F18A43426306EB85008069846092
:10B510001F48E9B20068426830469047F078012839
:10B5200007D135B996F81101042802D1304606F04A
:10B530005FFA200704D506EB850008248069846043
:10B54000E00604D506EB850010248069846060065F
:10B5500004D506EB8500402480698460A00704D5EB
:10B5600006EB8500022480698460200608D5294600
:10B57000304600F067F906EB850180208969886014
:10B580007F086D1C002FA7D10120BDE8F0810000CD
:10B59000A80300202DE9F0410646002406F034FD02
:10B5A0000746DFF8988043E0F8073FD0E1B2304625
:10B5B00006F030FD0546C00725D006EB84000125C6
:10B5C000416D8D60F17801290CD1406D016904EB6A
:10B5D000840006EBC000C1F31201D0F87C23511A9D
:10B5E000C0F88C13D8F80000E1B2026830469047EA
:10B5F000F078012807D134B996F81101052802D155
:10B60000304606F0F5F9A80704D506EB84000225BC
:10B61000406D8560280709D5D8F80000816830465C
:10B62000884706EB84010820496D88607F08641C08
:10B63000002FB9D10120BDE8F0810000A80300204F
:10B6400070B50646C068816921F010018161F0681B
:10B65000056A05F00F0000EB800006EBC004C5F39F
:10B66000434004F55D74072821D2DFE800F0202074
:10B6700004202020150047F6F070054217D0C5F3CE
:10B680000A152A463046E16806F0D5FCE0682844F1
:10B69000E060A069284409E0082206F2CC51304657
:10B6A00006F0C9FCA069C5F30A110844A061F0685E
:10B6B000816941F010018161012070BD38B50446F7
:10B6C00000208DF8000094F812018DF80000154854
:10B6D000006841692046884720698068E2684FF425
:10B6E00000615161A17AD1B1C00718D094F8150159
:10B6F000012814D19DF80000032810D1D4F80C01C2
:10B70000016841F001010160D4F80C01016841F0C9
:10B71000030101600448016841F006010160012055
:10B7200038BD0000A803002010ED00E070B504460D
:10B73000006900250126416821F001014160294688
:10B74000204606F0D7FA0020FF2106E004EB800235
:10B7500093699960526D9160401C62788242F5D87D
:10B7600021694FF0FF3088612846216966F30F0098
:10B7700066F31F40C861216945F00B0048612169EB
:10B7800045F00B0008612069016821F4FE61016049
:10B79000204606F02DF9E1684FF4805048610348D7
:10B7A0000068016920468847012070BDA803002079
:10B7B00070B5044606F064FC0122002384F81221CF
:10B7C00084F814311946402511E000BF01EB8100D7
:10B7D00004EBC00080F81D2180F81C11A0F8221194
:10B7E00080F81F31C0E94953491CC0F830316078F6
:10B7F0008842EBD8002110E001EB810004EBC0028D
:10B8000082F8753382F87413A2F87A1382F87733CA
:10B81000C2E9DF53491CC2F8883360788842EBD80C
:10B82000204606F047F8204605F0ECFE00212046B1
:10B8300006F086FC204605F025FF2046BDE8704056
:10B8400006F017BA2DE9F0470E46054601EB8600D3
:10B8500005EBC004D4E94C01421AD4F8240104F5E4
:10B860008E74904200D20246D21C970805EB8609DE
:10B8700023E000BFA0EB0108A168414500D2884643
:10B8800008F1030087081FFA88F3F2B22846E1683E
:10B8900007F054FBE16801EB0800E060A16901EBEF
:10B8A0000800A0616169884207D32178012088409F
:10B8B00029694A6B82434A630BE0D9F81800806912
:10B8C00080B2B84205D9D4E90501814201D20028ED
:10B8D000D0D10120BDE8F087074A904201D2074845
:10B8E00001E005481038064A8B0001EA020101D543
:10B8F000C160704781607047106402400060024080
:10B900007D0F7D0F0029016802D041F0010101E0A7
:10B9100021F00101016070472DE9F04190B005462A
:10B92000684600F013F90121880502F003F8DFF8FA
:10B930008880404600F044F8204F4FF00066CDE983
:10B940000067686800246946006802904020CDE9DD
:10B950000304C002CDE90940C011CDE905400894B7
:10B9600007940D9440460E9400F0C4F8012140461F
:10B97000FFF7C8FFDFF84080A8F17808404600F0E4
:10B980001FF8CDE90067286869460068CDE9020420
:10B990008020049040000990404600F0ABF801215F
:10B9A0004046FFF7AFFF0122C021381F03F0D6FB4E
:10B9B00010B0BDE8F0810000B864024004100140FE
:10B9C0002DE9F043016821F00101016000210160CF
:10B9D00041608160C1600161212141613C493C4A73
:10B9E0003D251039904202D18D60BDE8F083384A80
:10B9F0004FF474661832904201D18E60F5E7344AF4
:10BA00004FF474173032904201D18F60EDE7304A25
:10BA10004FF0746C4832904202D1C1F808C0E4E79C
:10BA20002B4B2C4A6033984201D1CA60DDE7284C89
:10BA3000294B7834A04201D1CB60D6E7DFF8908063
:10BA4000264C08F19008404501D1CC60CDE7DFF8E5
:10BA500080804FF03D5908F1A808404502D1C1F857
:10BA60000C90C2E71E49DFF878800839404501D1C3
:10BA70000D60BAE71A4D1835A84201D10E60B4E73F
:10BA8000174D3035A84201D10F60AEE7144D48354F
:10BA9000A84202D1C1F800C0A7E7114D1049603596
:10BAA000091FA84201D10A609FE70D4A78329042EF
:10BAB00001D10B6099E70A4A9032904201D10C60A3
:10BAC00093E7074AA83290428FD1C1F800908CE7E3
:10BAD000106002403D000020400F002000003D208B
:10BAE00010640240014600200968C90700D0012007
:10BAF0007047000030B50368124ACC6813400A68EA
:10BB00002243D1E905452C432243CC6922430C6AE8
:10BB100022434C6A22438C6A22434C6B22438C6B37
:10BB200022431A430260426922F00703D1E90B2441
:10BB300022431A4342610A6942604A688260896806
:10BB4000C16030BD3F801CF0416070470021016042
:10BB500041608160C160016141618161C1610162D7
:10BB600041628162C1620163416381637047000089
:10BB700030B58FB080B190F900104C296BD016DC35
:10BB8000312908D00CDC23297BD02B297AD02D2910
:10BB900079D0302978D141E1A3A010F01BFB16E148
:10BBA000402972D0422917D04429F3D17CE074296E
:10BBB0006CD006DC532973D057292ED06429E9D1E3
:10BBC0009EE0762904D077297ED07829E2D116E14B
:10BBD000652001F07FFEFAE02C2202A9401C15F03E
:10BBE00017FF002850D001280CDD102200210398F7
:10BBF000FCF75EFF0446102200210298FCF758FF74
:10BC00000470E4E0102200210298FCF751FF017853
:10BC100086A000BF10F0DEFAD9E02C2202A9401C59
:10BC200015F0F6FE0028DDD001280CDD10220021E1
:10BC30000398FCF73DFF0446102200210298FCF710
:10BC400037FF0480C3E0102200210298FCF730FF88
:10BC5000018878A0DEE72C2202A9401C15F0D8FE4E
:10BC60000028BFD0012813DD102200210398FCF723
:10BC70001FFF0446102200210298FCF719FF046000
:10BC8000A5E0A6E0C6E0C1E093E0B4E066E007E02E
:10BC9000102200210298FCF70BFF016867A0B9E7AA
:10BCA00015F0C0FD0FB030BD2C2202A9401C15F0CC
:10BCB000AFFE02287DDB4FF0FF34032803D1049848
:10BCC000007869280ED000E079E02146039814F04E
:10BCD0001DFC05462146029814F018FC294615F073
:10BCE0006BFD74E025462146039814F00FFC0446D2
:10BCF0002946029814F00AFC214614F041FD66E042
:10BD00002021FCF79FFB0EAA0DA9CDE900120CAB78
:10BD10000BAA4CA1FCF7FEFB04460AA9002001F087
:10BD200037FF002C48DD0B988DF82800012C02DD30
:10BD30000C988DF82A00022C02DD0D988DF8290050
:10BD4000032C03DD0E9864308DF82B00012001F0E8
:10BD50001DFD0AA9002001F08DFF28E02021FCF73D
:10BD600071FB0CA900910BAB0AAA39A1401CFCF78E
:10BD7000D1FB044601A9002001F02EFF00208DF820
:10BD80000700002C18DD0A988DF80400012C02DD54
:10BD90000B988DF80500022C02DD0C988DF806003A
:10BDA000012001F0F3FC01A9002001F0B1FF002007
:10BDB00000E036E001F0EAFC01F04CFD07E0002273
:10BDC0001146401CFCF7ACFE244912F011F800208B
:10BDD00068E723A1FCF76EFB21A10020FCF76AFBBA
:10BDE00004461FA10020FCF765FB214616F047FA28
:10BDF00001461CA00EE7401C12F01EF852E700217D
:10BE0000194811F0D3FF14F006FD4BE7401C00F079
:10BE100091FA47E7401C00F03DFC43E700F026F8AC
:10BE200040E701203EE700000D0A3E002C2530329D
:10BE3000580000002C253034580000002C253038E4
:10BE40005800000025642C25642F25642F256400EC
:10BE500025643A25643A25640000000061DD01088C
:10BE6000200000002025640005D301082DE9F04FD3
:10BE7000ADF2946D4FF4807605006C46CDF864D633
:10BE8000CDF868661ED0287800282BD020220DF22D
:10BE90006C61284615F0BCFD0446DDF86C06FCF725
:10BEA000DBFA83460246F9A0DDF86C16FCF7F2FADD
:10BEB000F74F40B35A46F7A0DDF86C16FCF7EAFAE4
:10BEC00008B335E0F4A010F085F9FF21684612F0C0
:10BED00093FF20B96946F14813F0C6FC18B1F0A0F1
:10BEE00010F078F9C8E16846FCF7B6FA20446946D4
:10BEF00010F8010C2F2804D0EAA000BF10F06AF956
:10BF0000BAE1E9A0FAE7284612F042FF00287DD105
:10BF1000FF21684612F070FF0028F8D16946DF481B
:10BF200013F0A2FC0028F2D1AFF2BF0039684861DB
:10BF30005A46DEA0DDF86C16FCF7ACFA38B9022CD4
:10BF400065D1DDF8700612F0F9FE002877D15A4667
:10BF5000D8A0DDF86C16FCF79DFAD04D4FF6FF78AF
:10BF60000DF2556998BB012C02D1D5A0CDF8700611
:10BF70000DF24C61C94813F06EFD0028E6D1286926
:10BF800028B3298C414502D0DDF864A600E0CA46FA
:10BF90005146DDF8700616F072F9A8B15146C9A0F5
:10BFA00010F018F99DF85406C00602D5C7A1C8A024
:10BFB00002E0C9A0DDF84C1610F00CF9BDF85216DD
:10BFC000BDF8500615F09CF928690028D0D15A46D2
:10BFD000C3A0DDF86C16FCF75DFA28B900226846AC
:10BFE000DDF8701613F0C4FF5A46BEA0DDF86C16DB
:10BFF000FCF750FA28B901226846DDF8701613F0F4
:10C00000B7FF5A46B8A0DDF86C1601E071E0DCE03D
:10C01000FCF740FA08BB012C02D1A9A0CDF87006AC
:10C020000DF24C619D4813F016FD00288ED1286951
:10C0300098B1298C414503D0DDF864A601E094E075
:10C04000CA465146DDF8700616F019F910B150468F
:10C0500013F007FE28690028E2D15A46A4A0DDF8B3
:10C060006C16FCF717FA40B9022C42D00DF5CE60E1
:10C0700003C813F01DFD00283BD15A469EA0DDF8F1
:10C080006C16FCF707FAD0B9022C18D1012240A88F
:10C09000DDF8701613F048FB002866D17EA010F082
:10C0A00099F805E012F099FE014695A010F092F87B
:10C0B000DDE94201884240A8F4D112F077FE5A46E9
:10C0C00090A0DDF86C16FCF7E5F938B9022C7CD1AC
:10C0D000DDF8700612F0B5FF002846D15A468BA055
:10C0E000DDF86C16FCF7D6F9F0BB022C02D0032C5D
:10C0F00019D079E03A21DDF87006FCF7A3F9411C6C
:10C1000001290DD008782F2800D1491CC9A8FCF7B7
:10C11000B8F9C9A9DDF87006FCF7A5F930B109E056
:10C12000DDF87016F2E7DDF87416EFE779A1C9A81B
:10C13000FCF77CF9C9A8FCF78FF9C9A9084410F8E5
:10C14000010C3A2804D1C9A8DDF87016FCF76EF985
:10C15000012240A8DDF8701613F0E6FA28B90A2289
:10C16000C9A90DF2244001E023E052E013F0DCFA0B
:10C1700060BB08E040A813F0BFFE0DF2244114F0AC
:10C180001DF9401C03D0DDE942018842F2D1DDE90E
:10C190004201884240A806D012F008FE0DF2244069
:10C1A00012F004FE35E012F001FE0DF2244012F010
:10C1B000FDFD5A4659A0DDF86C16FCF76BF988B105
:10C1C0005A4658A0DDF86C1601E019E02CE0FCF7A7
:10C1D00061F998B15A4655A0DDF86C16FCF75AF98A
:10C1E000F0B349E0022C04D001200DF2946DBDE8BB
:10C1F000F08FDDF8700600F0EBFAF6E7032C01DAB9
:10C200000320F2E7012240A8DDF8701613F08CFA43
:10C2100008B10520E9E712220DF22440DDF874167A
:10C2200013F082FAC9ACB8B140A8B9E7CDF84846D6
:10C2300009E010220DF5C961FCF73AFC40B20DF29D
:10C24000244113F045FBC9A8FCF706F90119DDF8F4
:10C250004806891E8142ECD840AA3146C9A800E0B0
:10C260000CE013F067FE0028E0D140A812F09EFD1C
:10C270000DF2244012F09AFD0020B6E739682C48F0
:10C2800048610020FFF774FCAFE70000303A00007F
:10C2900070010020313A00000D0A0000A0160020B5
:10C2A0003F3A2F0025732F002573000063646972E5
:10C2B000000000006469726563746F7279000000A9
:10C2C0002A0000000D0A252D313673002F000000D2
:10C2D000252D387300000000252D38640000000073
:10C2E0006C7300006572000064656C657465000025
:10C2F00072656E616D650000747970650000000004
:10C30000256300006D6B646972000000636F7079D3
:10C31000000000005F436F707900000066696C6583
:10C3200000000000666F726D617400003E00000046
:10C3300071BB0008F0B590F9001089B001244FF0EE
:10C34000FF376D4664296ED00EDC4FF47A664629BD
:10C350006BD004DC41295ED044291ED122E14C2956
:10C360005CD0502919D13DE06C390A2915D2DFE89B
:10C3700001F0ACFC141414B61414050E012001F0E5
:10C3800005FA02F0CBF9002001F000FA30E120229A
:10C39000294615F03DFB022802D0012009B0F0BD6E
:10C3A00000F0D2FE9349C82011F022FD019890F9C7
:10C3B000000066280CD0682802D07328E6D10CE073
:10C3C00004F0BEFF8D498C48086000F0BDFE0FE10F
:10C3D00004F0B5FF00F088FE0AE104F0B0FF00F0C1
:10C3E0009BFE05E1304606F084FE002000F08AF94D
:10C3F00004460146252282A00FF0ECFE0A2C02DD45
:10C40000384600F07FF985A00FF0E4FE4FF49670F7
:10C4100006F06FFEECE011F073FCE9E03946002015
:10C4200014F0F8FFE4E0D7E0FFE72022294615F0FA
:10C43000EFFA022801DA0320B0E701984FF48055A3
:10C4400090F90000662815D0752801D00220A5E7D4
:10C4500074A00FF0BFFE6749052011F0C9FC7748B2
:10C4600013F04AFD411CF6D079288FD12A460121CC
:10C4700073A025E073A00FF0ADFE304606F039FE44
:10C480005C49052011F0B4FC6C4813F035FD411CEB
:10C49000F6D0792816D171A00FF09CFE002430262A
:10C4A00006EBC40000F024FA08280CD06EA000BFF0
:10C4B0000FF090FE641C052CF2DB2A4601216BA0D4
:10C4C00012F076FE94E06AA0F2E72C222946401C86
:10C4D00015F09EFA0146684600F058FC88E02C22D0
:10C4E0002946401C15F094FAF0B3624C3BE0394603
:10C4F000009814F00BF8D4F80012884231D10025CE
:10C500005DA00FF067FE0026A919605CC043C1B2B0
:10C510005AA00FF05FFE761C102EF5DB0026A9193D
:10C520006056C043C1B221395E2904D2C1B23AA0DB
:10C530000FF050FE02E04EA00FF04CFE761C102EC5
:10C54000EDDB1035B5F5007FDADB4E480FF042FE2B
:10C5500011F006FC394813F0CFFC411CF8D01B2821
:10C5600046D004F5017401E005E007E0D4F80002CC
:10C57000401CBCD13CE002F07FF839E02C22294677
:10C58000401C15F045FA06463F4F08E055F82600D6
:10C59000FCF7FFFA396804FA00F081433960761E2F
:10C5A000F4D225E02549394A401C096811602C2243
:10C5B000294615F02DFA0646354F0AE0002255F8B7
:10C5C00026001146FCF774FA04FA00F13868884333
:10C5D0003860761EF2D20BE02022294615F018FAB8
:10C5E000022805D10198FCF7D4FA024911F000FCA9
:10C5F0000020D3E661DD0108B50501083003002005
:10C600000D0A3E5061636B696E6720736563746FDA
:10C6100072732E2E2E2025642563000020446F6E39
:10C62000650000000D466F726D61742075736220A5
:10C630002E2E2E5B792F6E5D000000007001002011
:10C64000313A00000D466F726D617420666C617343
:10C6500068202E2E2E5B792F6E5D000020657261A2
:10C6600073696E67200000003F000000303A000050
:10C670002E000000000004080D0A0000253032588A
:10C68000200000002C5F0208C000002030010020C4
:10C69000BC000020F0B590F9001089B04C2929D0D9
:10C6A0006D2904D0772919D0012009B0F0BD2C22C2
:10C6B0006946401C15F0ACF904466F460125104E42
:10C6C00009E000BF57F82400FCF763FA316805FA67
:10C6D00000F008433060641EF4D20FE02C2269465B
:10C6E000401C15F095F948B10098FCF752FA06F095
:10C6F00000FD03E00021084614F08CFE0020D4E782
:10C70000C00000202DE9F04700252F4CADF5007D3D
:10C710008046AA4630274FF400366D1C06F0DDFC3B
:10C7200004F501708146D4F8001201E000F50170B3
:10C73000D0F80022914202D0521CF7D126E0501CC2
:10C7400024D00AF1010A204620494C460844B04250
:10C7500003DAD4F80002401CDFD1B8F1000F02D098
:10C76000384600F0C5F8D4F8000206F50036401C43
:10C7700007F10807D1D1B8F1000F1ED0384600F0FC
:10C78000B7F800200DF5007DBDE8F0870020694670
:10C7900054F82020D24341F82020401C8028F7DBA9
:10C7A00006F09BFCB8F1000FCDD0012369460020B4
:10C7B000D4F8002201F020FFC5E764210AFB01F054
:10C7C00090FBF5F0DEE70000000004080402FCF72F
:10C7D00070B5204C0646204D206848B146B33178EC
:10C7E000042929D032461DA10FF0E6FC002070BDBF
:10C7F0004FF409710120FBF77FFE206028B113225E
:10C80000314612F091FF10B106E0062070BD20689D
:10C81000C16812F07FFB20B1206813F0F5FD052000
:10C8200070BD10A120680FF0C7FCAFF25B000EE0F6
:10C830000DA00FF0CFFCD9E713F0C7F9206812F074
:10C84000B5FA206813F0E0FD002020600748296851
:10C850004861CBE7040300207001002025730D0A16
:10C86000000000000D0000000D0A00006DBE000871
:10C8700010B51A4813F074FF1949431C4FF0000219
:10C8800011D00B68002B1DDD4B687E2840EA032386
:10C890004B6014D0412812D0422810D043280ED02B
:10C8A00044280CD016E00868002813D001DAC0F143
:10C8B00000008B6898420DDA0A60486810BD18467F
:10C8C0000A6010BD1B2801D00A6010BD8A68521D85
:10C8D000C1E900204FF0FF3010BD000070010020C2
:10C8E000B000002001490860704700000C3C024085
:10C8F00010B5044600F08EF8F320FFF7F3FF00BFF9
:10C9000006F0EBFB0221204600F004F80128F7D0E6
:10C9100010BD000070B50646002529B1012927D0B9
:10C92000022928D04FF4407500F086F808281ED15F
:10C93000124C206820F4407020602068284320605A
:10C94000206820F0F8002060206846F002010843CB
:10C950002060206840F48030206000F06DF821688D
:10C9600021F002012160216821F0F801216070BDF1
:10C970004FF48075D8E74FF40075D5E7103C0240BE
:10C980000B4908200A68D20301D5012070470A68C4
:10C99000D20601D5052070470A6812F0EF0F01D0CA
:10C9A0000620704709688907FBD5072070470000FB
:10C9B0000C3C024070B50C46054600F02BF8F32005
:10C9C000FFF790FF06F089FB2146284600F004F8A7
:10C9D0000128F7D070BD000070B50D46064600F086
:10C9E0002BF8082813D10A4C206820F440702060EE
:10C9F000206840F400702060206840F00100206052
:10CA0000356000F019F8216821F00101216070BD46
:10CA1000103C024005480068002805DA0348044934
:10CA20000C3801600349016070470000103C02406F
:10CA300023016745AB89EFCD08B508208DF80000CC
:10CA4000FFF79EFF8DF800009DF800000128F7D049
:10CA50009DF8000008BD00008000A0F1C040002942
:10CA6000016802D041F0010101E0024A1140016079
:10CA700070470000FEFF0F0010B5D0E9011211430E
:10CA8000D0E903231A4311434269114382691143D8
:10CA9000C2691143026A1143426A1143826A114317
:10CAA000C26A1143026B114302689200A2F1C042B4
:10CAB00011608168082907D101688900A1F1C0418E
:10CAC0000A6842F040020A60416BD1E9002342EA61
:10CAD00003128B688C891B0243EA04431A430B8AB6
:10CAE00042EA03520B7D896942EA03620A43016804
:10CAF0008900A1F1C0414A60C16AB1F5804F08D0F8
:10CB000000686FF070418000A0F1C040C0F80411CF
:10CB100010BD816BD1E9002342EA03128B680C8AB5
:10CB20001B0243EA04531A430B7D896942EA0362FC
:10CB300000680A438000A0F1C040C0F8042110BD85
:10CB4000F0B50023012403270D6804FA03F2154011
:10CB5000954242D1D0F800C05E0007FA06F52CEAF3
:10CB6000050CC0F800C091F804C0D0F800E00CFA41
:10CB700006FC4CEA0E0CC0F800C091F804C0BCF1F1
:10CB8000010F02D0BCF1020F1FD1D0F808C02CEA6F
:10CB9000050CC0F808C091F805C0D0F808E00CFA00
:10CBA00006FC4CEA0E0CC0F808C0D0F804C02CEA11
:10CBB000020CC0F804C0426891F806C00CFA03FCED
:10CBC0001FFA8CFC42EA0C024260C268AA43C260AF
:10CBD000CA79C568B2402A43C2605B1C102BB3D32C
:10CBE000F0BD4B07DB0E9A40C90810B500EB810081
:10CBF000016A0F249C40A1430162016A1143016252
:10CC000010BD006980B270470246002012690A42D6
:10CC100000D00120704741837047018370474FF671
:10CC2000FF7101600021017141718171C171704713
:10CC30004069806880B27047D0F8CC000068C0F3CB
:10CC400041407047084490F87F08704700EB81002E
:10CC5000D0F83408704710B5044600221046C4F8D6
:10CC6000F42704EB8203C3F8F807C3F83408A318C9
:10CC700083F87008521CD2B20F2AF2D30820A4F80D
:10CC80009608204605F0FCF9204604F013FE2046E5
:10CC900004F0B8FC0121204605F052FA204604F0C9
:10CCA00089FD204604F0E5FF002010BDD0F8F40710
:10CCB000704710B505F0CFF9002010BD00224318D1
:10CCC00083F87F2800EB4113C3F8A42805F0EEB8E1
:10CCD000F0B416490A78012A09D0CA680025802ACA
:10CCE00000D1CD60D1E902329A4202D10D70F0BC80
:10CCF000704702D9C2F1800301E0A3EB02031C4696
:10CD00000B61402B96B205D940234032403CC1E92B
:10CD1000032403E02244C1E90325A3B201220A70DF
:10CD200003498A19F0BC8121FEF7AEBB48040020FC
:10CD30008817002002494CF6CC400860704700007C
:10CD400000300040034A01460020D2680A4200D069
:10CD5000012070470030004002494AF6AA200860CE
:10CD600070470000003000400149486070470000F3
:10CD700000300040014988607047000000300040EA
:10CD80000149086070470000003000402DE9FC4771
:10CD900006460F466846FFF742FF4FF001098DF83F
:10CDA00004908DF8069017B10024274D38E0002339
:10CDB00026A21946284810F099FEBDE8FC8700BF5E
:10CDC00056F8240090F900006138092839D2DFE8CC
:10CDD00000F005072A2C2E30323436001F4800E0C0
:10CDE0001F4845F8240056F82400401C46F824004B
:10CDF000FBF7CFFEDFF8508009FA00F008F12808B1
:10CE000001B228F81410009155F824006946FFF784
:10CE100097FE38F8141055F82400FFF7FEFE641C46
:10CE2000BC42CDDBC9E70F48DBE70F48D9E70F4825
:10CE3000D7E70F48D5E70F48D3E70F48D1E70F48AA
:10CE4000CFE70020CDE70000D40B00205F6C6967BE
:10CE5000687473686F77000005D301080000024012
:10CE60000004024000080240000C02400010024092
:10CE70000014024000180240001C02400020024042
:10CE800038B54FF4C06000F057FC01208DF8010068
:10CE900003248DF802408DF8030019208DF800005E
:10CEA000684600F017FC02208DF801003C208DF848
:10CEB0000000684600F00EFC1F208DF80000684658
:10CEC00000F008FC20208DF80000684600F002FC0D
:10CED0008DF8014014208DF80000684600F0FAFB40
:10CEE00040208DF80000684600F0F4FB13208DF818
:10CEF0000000684600F0EEFB3F208DF80000684619
:10CF000000F0E8FB28208DF80000684600F0E2FB06
:10CF100017208DF80000684600F0DCFB12208DF829
:10CF20000000684600F0D6FB1D208DF80000684622
:10CF300000F0D0FB1E208DF80000684600F0CAFB10
:10CF400025208DF80000684600F0C4FB27208DF8EE
:10CF50000000684600F0BEFB38BD0000F0B589B0A7
:10CF6000074607A8FFF75BFE02208DF820000602A7
:10CF7000274D00248DF8224007A928460796FFF781
:10CF8000DFFD01208DF823008002079007A92846C5
:10CF9000FFF7D6FD072209212846FFF722FE0722C8
:10CFA0000A212846FFF71DFE8021084610F040F9AF
:10CFB00005461848E860184828610121102000F053
:10CFC000F5FCADF81860154EADF81440ADF81640FC
:10CFD000ADF81A4005A9304602F0A8F8ADF80C40AB
:10CFE0000C20ADF80840ADF80E000197ADF80A40EE
:10CFF000ADF8104001A9304602F0D8F82846FEF7F7
:10D000008BFC0121304602F09FF809B02846F0BDA4
:10D0100000000240D90402084D130208001001402C
:10D02000F0B589B0064607A8FFF7F9FD02208DF894
:10D0300020004002294D002407908DF8224007A9C6
:10D040002846FFF77DFD01208DF82300C0020790E0
:10D0500007A92846FFF774FD07220A212846FFF793
:10D06000C0FD07220B212846FFF7BBFD80210846A3
:10D0700010F0DEF805461A4801212861880400F006
:10D080007DFC4FF40070ADF81800164FADF8144059
:10D09000ADF81640ADF81A4005A9384602F046F83A
:10D0A000ADF80C400C20ADF80840ADF80E0001962C
:10D0B000ADF80A40ADF8104001A9384602F076F804
:10D0C0000121384602F040F8012240F2255138464D
:10D0D00002F053F809B02846F0BD000000080240F5
:10D0E000B91302080048004008B50021054810F0B7
:10D0F0005DFE05480090054B054A0121054802F0F8
:10D1000043FA08BD4915010874010020C40300203A
:10D1100014040020100C002008B50021054810F070
:10D1200045FE05480090054B054A0121054802F0DF
:10D130002BFA08BD4915010890010020B404002015
:10D14000E0040020100C002008B5002306A21946B8
:10D15000084810F0CBFC08480090084B084A012111
:10D16000084803F0F7FA08BD55534220686F7374FE
:10D170000000000049150108340300206405002068
:10D18000C4160020100C002030B5002405462146AE
:10D19000204600F055F94FF0C04122200880034896
:10D1A00003490580641C8C42FBD330BD0000106035
:10D1B000003B01002DE9FC4101213A2000F0BAFBBF
:10D1C0004CF23370009002208DF804008DF80500B9
:10D1D0000024514F8DF806408DF8074069463846C7
:10D1E000FFF7AEFC0C2200213846FFF7FAFC0C22B8
:10D1F00001213846FFF7F5FC0C2204213846FFF7E1
:10D20000F0FC0C2205213846FFF7EBFC0C2208212C
:10D210003846FFF7E6FC0C2209213846FFF7E1FC0F
:10D220000C220A213846FFF7DCFC0C220E2138467E
:10D23000FFF7D7FC0C220F213846FFF7D2FC4FF640
:10D240008070364E009069463046FFF779FC0C221C
:10D2500007213046FFF7C5FC0C2208213046FFF7B6
:10D26000C0FC0C2209213046FFF7BBFC0C220A212E
:10D270003046FFF7B6FC0C220B213046FFF7B1FC1D
:10D280000C2211463046FFF7ACFC0C220D21304633
:10D29000FFF7A7FC0C220E213046FFF7A2FC0C2260
:10D2A0000F213046FFF79DFC082569463046009562
:10D2B000FFF746FC0C2203213046FFF792FC80204A
:10D2C000009069463846FFF73BFC0C220A2138469D
:10D2D000FFF787FC009501258DF804508DF8054077
:10D2E0008DF806408DF8074069463846FFF728FC60
:10D2F0008DF804508DF805506E038DF806400096A9
:10D300008DF8074069463846FFF71AFC3146384623
:10D31000FFF783FCBDE8FC81000C024000100240D6
:10D32000064B10B45B68203AD2B21C68DB885343CA
:10D3300004EB430210BC00F003B80000DC01002045
:10D340002DE9F043894604460146904600264846AA
:10D3500000F076F81B4F1C4D2EE04FF0C04222200B
:10D36000108000201EE00C23B2FBF3F3DB004FF033
:10D37000800C0CFA03FC38F816304CFA00FC1CEA5E
:10D38000030F01D10C2A08D94FF0010C0CFA00FC54
:10D3900013EA0C0F03D10C2A01D96A8800E02A880D
:10D3A0003A80401C8A888242DDD8641CA4B221469F
:10D3B000484600F045F8761C6968C888B042CCD869
:10D3C000BDE8F08300001060DC01002000B5012101
:10D3D00097B0084600F0C6FA01200F9000200921FE
:10D3E000CDE9100112901021CDE9020114901590A1
:10D3F0001390009001900490059006900902079008
:10D40000CDE908010A900B900C900FA80D900E909A
:10D410006846FFF731FB01210020FFF71DFB17B025
:10D4200000BD00000148406870470000DC0100209A
:10D4300001B5BDF800000149488008BDDC010020AD
:10D440000B4600B501464E2000F014F819464F2057
:10D450005DF804EB00F00EB8014948607047000029
:10D46000DC01002001B5BDF800000149088008BDBD
:10D47000DC0100204FF0C04210800148018070475D
:10D480000000106070B50E4905460E4C087B38B997
:10D49000886828B1607818B901212846FDF7D8FFBF
:10D4A00081212846FDF7D4FF6078022807D128465D
:10D4B000BDE870401F23024A0121FDF79FBF70BDE8
:10D4C000482A0020280500202DE9F041284C074675
:10D4D00004F1200660687060A068B06001213846E1
:10D4E00002F027F8234D1F280AD1234920688842DB
:10D4F00006D1617B012903D8A07B08B1102807D988
:10D50000607B2022052100F009FF0220687006E000
:10D51000174A38460F3200F0CFFC002804DA3846AC
:10D52000BDE8F041FFF7AEBF287802281ED00128E1
:10D530001CD003281AD0698891B1A3680F4A3846D5
:10D540008B4200D219468BB2B168C91AB160002172
:10D55000317304212970BDE8F0418121FDF794BFAA
:10D560003846BDE8F041002100F096B8BDE8F081F2
:10D57000482A00202805002055534243481A00201D
:10D5800010B5094C6278022A08D009060BD5012A89
:10D5900009D0BDE81040012100F07EB88121FDF7DF
:10D5A00057FF0020607010BD2805002010B504460C
:10D5B0000C480078022805D0032801D0042810D197
:10D5C000002109E0084800F10F02417B204600F0ED
:10D5D00073FC002805DA01212046BDE8104000F068
:10D5E0005BB810BD28050020482A002010B504466D
:10D5F0000C48007880B1012813D10B4800F10F02CC
:10D60000417B204600F058FC00280ADA2046BDE89D
:10D610001040012100F040B82046BDE81040FFF75F
:10D6200053BF10BD28050020482A002001490020D2
:10D63000087070472805002010B504460C480021EA
:10D64000017041700B480068016800208847012183
:10D650002046FDF7A9FE81212046FDF7A5FE2046C4
:10D660001F23BDE81040044A0121FDF7C7BE00009A
:10D67000280500202C030020482A0020044900220D
:10D680001F230A7001224A70024A0121FDF7B6BE2B
:10D6900028050020482A002010B50C4A04460A48F4
:10D6A000106011730A4900200D2308708121204663
:10D6B000FDF7EAFE054A20461F23203ABDE8104048
:10D6C0000121FDF79BBE000055534253682A0020FC
:10D6D0002805002030B50F22C47801780123FCB161
:10D6E000144C246801F1E02104F4E064C4F5E06422
:10D6F000C4F30724C4F10405E2404478AC408578C3
:10D70000154025432A0181F80024007800F01F010C
:10D710008B404009800000F1E020C0F8003130BDAE
:10D7200001F01F0083404809800000F1E020C0F8AC
:10D73000803130BD0CED00E0024908430249086029
:10D74000704700000000FA050CED00E00907090E23
:10D75000002806DA00F00F0000F1E02080F8141D28
:10D76000704700F1E02080F80014704710B50648BB
:10D7700004F038FC18B1044803F0BFFC02E0024892
:10D7800002F04AF810BD0000100C002001490862A8
:10D790007047000000000E422DE9F041050047D01F
:10D7A000686908B923486861284610F095F98046F1
:10D7B0004FF0FF37FFF75CF806461A2815D004DC57
:10D7C000BE4230D0192E09D110E01B48301802D0CB
:10D7D0001A49C84202D10020BDE8F08139463046DE
:10D7E00010F04CFB04000ED11DE0FEE7BFF34F8F9D
:10D7F00013480168134A01F4E06111430160BFF36B
:10D800004F8FFEE7641C20782028FBD069692046F2
:10D8100088470146207818B111B10BA00EF0DAFC50
:10D82000696900208847761CC4D1404610F054F93D
:10D830002846D1E771BB0008A5B0E4FFDD1AE9A4D2
:10D840000CED00E00400FA052E2E2E205754462839
:10D850002564290000B587B005A9002000F0BCF9B7
:10D8600004A9002000F094F99DF816009DF8151009
:10D87000CDE902109DF813309DF8142003F26C736B
:10D880009DF811000A49CDE9003201EB80001C39F6
:10D8900050F8043C9DF810009DF8122001EB800028
:10D8A00050F8041C03A00EF095FC07B000BD00006A
:10D8B000E40000202534732C2533642F2533732F87
:10D8C00025642C2533643A253032643A253032649D
:10D8D0000000000038B504460121080300F02AF8D2
:10D8E000FDF7CAFC09480A49081A81080748FDF7EC
:10D8F000AFFC642194FBF1F201FB124294FBF1F1C5
:10D90000009004A306A00EF065FC38BD008000085E
:10D910000000040844656320203420323031370091
:10D920002025642E25303264202573203C25303894
:10D93000583E0000044A0029116801D0014300E06C
:10D94000814311607047000030380240044A0029CA
:10D95000116801D0014300E081431160704700006D
:10D9600034380240044A0029116801D0014300E024
:10D97000814311607047000038380240044A002992
:10D98000116801D0014300E081431160704700003D
:10D9900040380240044A0029116801D0014300E0E8
:10D9A000814311607047000020380240044A00297A
:10D9B000116801D0014300E081431160704700000D
:10D9C00044380240044A0029116801D0014300E0B4
:10D9D000814311607047000024380240024801680A
:10D9E00041F08071016070477438024070B5204A80
:10D9F0001168204C11F00C0104D01F4E042903D0F3
:10DA0000082903D004601BE0066019E01849091FCB
:10DA10000B68C3F380550B6803F03F0315B1B6FBE9
:10DA2000F3F301E0B4FBF3F30C680968C4F3881462
:10DA30006343C1F30141491C4900B3FBF1F10160AB
:10DA400011680F2303EA11110C4B5C5C0168E14083
:10DA500041601468072505EA94241C5D21FA04F44A
:10DA60008460126805EA52329A5CD140C16070BD90
:10DA7000083802400024F40040787D01CC010020E9
:10DA800002460020510901290BD002290CD0084977
:10DA9000096802F01F02012393400B4200D00120CD
:10DAA000704703497439F3E70149091FF0E70000A3
:10DAB00074380240054900220A700A70012802D019
:10DAC000042801D10520087070470000703802401A
:10DAD0000149086070470000800E47420149086014
