:020000040800F2
:10000000D8910120691301087113010873130108C5
:100010007513010877130108791301080000000027
:100020000000000000000000000000007B13010839
:100030007D130108000000007F130108A54200089D
:100040008313010883130108831301088313010834
:100050008313010883130108831301088313010824
:100060008313010883130108831301088313010814
:100070008313010883130108831301088313010804
:100080008313010883130108831301081F4C000820
:100090004B4C000883130108574C000883130108D8
:1000A00083130108831301088313010883130108D4
:1000B00083130108274600088313010883130108EE
:1000C00083130108831301088313010883130108B4
:1000D000831301088313010883130108D368000800
:1000E0008313010883130108831301088313010894
:1000F0008313010883130108831301088313010884
:100100008313010883130108831301088313010873
:100110008313010883130108831301088313010863
:100120008313010883130108831301088313010853
:10013000831301088313010883130108254C000869
:10014000514C000883130108654C0008B7420008B1
:100150008313010883130108831301088313010823
:100160008313010883130108831301088313010813
:100170008313010883130108831301088313010803
:10018000831301088313010800F002F800F0C7F898
:100190000AA090E8000C82448344AAF10107DA45E2
:1001A00001D100F0BCF8AFF2090EBAE80F0013F06D
:1001B000010F18BFFB1A43F001031847409A0200D1
:1001C000609A02000A444FF0000C10F8013B13F053
:1001D000070408BF10F8014B1D1108BF10F8015BA0
:1001E000641E05D010F8016B641E01F8016BF9D193
:1001F00013F0080F1EBF10F8014BAD1C0C1B09D1EA
:100200006D1E58BF01F801CBFAD505E014F8016B5B
:1002100001F8016B6D1EF9D59142D6D370470000ED
:100220000023002400250026103A28BF78C1FBD8FF
:10023000520728BF30C148BF0B6070476E291CF0C1
:10024000FC8170291BF0BD83662926F01380652987
:1002500026F01080672926F00D80612926F00C8099
:1002600003681B0A28BF41F0800169291BF02E8317
:1002700064291BF02B8375291BF028836F291CF040
:10028000088578291BF08983E9291CF0A384E429D7
:100290001CF0A084F5291CF09D84EF291CF0058535
:1002A000F8291BF088830368DB0928BF41F080012F
:1002B00063291CF0128473291CF01784E3291DF0B4
:1002C0005F85F3291DF06485002070471FB525F078
:1002D000C7FF9DE803001CF0E9F81BF0C2FD1CF00D
:1002E000BDF804000020002124F0F8FB206000206D
:1002F000002124F0C7FB401C60600020002124F096
:1003000003FCA0600020002124F0D2FBE0601BF081
:10031000D9FF1FBD10B500201CF0E0FF10BD1EF07E
:10032000D6FD1146FFF7D2FF1EF0CCFD1FF0D8FA24
:1003300003B4FFF7EFFF03BC06F079FF0B49D1F8D8
:1003400000C04A685CF8043B1068184442F8040B8B
:100350008C4528BFA1F1DC0C8A4228BFA1F1DC0248
:10036000C1F800C04A6020F000407047E81001204A
:10037000FEB442464B4654465D463EB41BF0CFFFAA
:100380003EBC90469946A246AB46FEBC00F032F811
:10039000704700BF80EC200B7047C0EC200B70470B
:1003A00090EC200B7047D0EC200B704785460D98E1
:1003B000DDF838E00F9B5DF8042B20E90C009DE888
:1003C000FE1F854601BD4DF808ED0DF1080E4DF8F4
:1003D00004ED2DE9FF1F002102B4694681B01EF033
:1003E000C4FCDDF840E012B070470000CC99020078
:1003F00004A102004DF808ED0DF1080E4DF804EDD2
:100400002DE9FF1F002102B4694681B01EF014BD22
:1004100070B50546F54886B0006806F039FE064618
:100420001422F34968461BF058FE0DF10B040CE052
:10043000F0481BF0FCFC411C0BD09DF80A1008553D
:100440009DF80A00401C8DF80A009DF80A00082853
:10045000EED3304606F01CFE9DF80A00002804D0BA
:10046000694605F5A47004F0F3FC06B070BDF0B465
:100470000778E14BE14C01EB810602EB8205072F87
:1004800045D2DFE807F004090E121E2A3600F0BC40
:1004900000F5A87001F0E8BBF0BC00F5037002F0B5
:1004A00050B9F0BCC03002F0FBBE588900EB4600EA
:1004B00081B25981608900EB450082B26281D0A08F
:1004C00022E0988900EB460081B29981A08900EB77
:1004D000450082B2A281D0A016E0D88900EB460088
:1004E00081B2D981E08900EB450082B2E281D0A0DF
:1004F0000AE0188A00EB460081B21982208A00EBDC
:10050000450082B22282D0A0F0BC1BF047B9F0BCFB
:10051000704770B5044600780D46A84202D0D0A0BE
:100520001BF03CF90022257020461146FFF79FFF83
:1005300070BD2DE9F043AE4985B01546814600F502
:10054000A4781422143968461BF0C7FDC5A01BF01F
:1005500025F907214846FFF7DCFF6946404604F0CD
:1005600077FC00270DF10B068DF80A70A1481BF0EF
:100570005EFC0446401C0CD0AC420AD09DF80A0038
:1005800084559DF80A00401CC0B28DF80A00082866
:10059000ECD39DF80A0018B16946404604F058FCB7
:1005A00005F08BFDAC42DFD18DF80A7069464046FC
:1005B00004F04EFC07214846FFF7ABFFB0A01BF04C
:1005C000EDF805B0BDE8F0832DE9F04304460C30AA
:1005D000ADF24C4D0E46814605F017F80146B04885
:1005E0004FF47A780B1A04F5A87704F50375814265
:1005F0006FD038DC19296DD011DC01F10101182907
:1006000069D2DFE801F0659CF0EFEEEDEC9C9C9C7C
:10061000EB9C9C9C9C9C9CEAE9E89CE79CE6A14A9C
:1006200004F2CB20550105F10855B1F5604F7BD0A0
:1006300010DCB1F5004F78D005DC1A2976D0B1F581
:10064000005F7CD1CFE1B1F5204F70D0B1F5404FC4
:1006500075D1E3E194480844052870D2DFE800F042
:10066000383838828E009149581A8B4230D021DCBC
:10067000062B49D006DC062B61D2DFE803F060834D
:100680002929298D40F6EE32A3F6EE304FF0FF31E6
:1006900093426ED006DCA3F53063EC3B6AD0012BAD
:1006A0004DD12EE1012876D08149401847D10DF275
:1006B0004C4D87E7B0F5E06F64D014DCB0F5407FB7
:1006C00050D009DCB0F5807FD0D0B0F5007F36D1B6
:1006D000BDE155E0ABE132E0B0F5806F4ED0B0F552
:1006E000C06F2CD14CE0B0F5803FF1D006DCB0F506
:1006F000006FEDD0B0F57F4F21D1A8E1B0F5813F7B
:100700004AD06C49C8421AD16BA01BF047F80020B0
:1007100006F0BEFC4FEA000405F0CFFC204605F0D1
:1007200090FB0028F8D103E054E16EE18CE163E135
:1007300066A01BF033F8204606F0AAFC87E1F1B270
:10074000484604F027FF0028C2D0484604F054FF72
:100750000146204600F0BCFC010046D05EA01BF024
:100760001DF874E194F8E800C10704D020F00100FE
:10077000F1E0CAE0C2E040F00100ECE0002102E05C
:10078000012100E002212046FFF7C3FE4146484612
:1007900004F035FF5BE1B6E0122254A101A809F094
:1007A00077FE08BB01A9384601F053FB01A9284692
:1007B00002F0B2F801A904F1C00002F04DFD01A958
:1007C00004F5307003F025FD01A80AF06BF801A8CC
:1007D000F6E0B7E0AAE0D4E0CFE0D6E0BEE0AAE0E1
:1007E0009FE09CE099E096E086E02EE1C0000020CA
:1007F000D06A020818010020C8070020DC0700208A
:100800000D3A636F6F6C65722E2E2E2E2E2E2E20BB
:100810002535642C253564000D3A626F74746C655F
:100820002E2E2E2E2E2E2E202535642C25356400BE
:100830000D3A636F6D70726573736F722E2E2E207A
:100840002535642C253564000D3A6169722E2E2EF3
:100850002E2E2E2E2E2E2E202535642C253564008E
:100860000D0A3A002072656D6F746520636F6E73B8
:100870006F6C65206F70656E2E2E2E200D0A3E0067
:10088000202E2E2E72656D6F746520636F6E736FF0
:100890006C6520636C6F7365640D0A3E0000000098
:1008A000554F1B0000000020B0B0E4FF29E2155BAB
:1008B000C526C0E400FDFEFF656E746572696E6753
:1008C000206C69622E2E2E0D0A3E00002E2E2E6503
:1008D0007869740D0A3A0000202E2E2E777466284F
:1008E00025303258290D0A3A00000000303A2F6CAA
:1008F0006D2E696E69000000FEA064E000220121F7
:1009000005E0002203E00A4600E001220021204623
:10091000FFF7ADFD9BE0032104E0042102E0052187
:1009200000E006212046FFF7F4FD90E012210C20A4
:100930000EF099FB8BE0052240F20B212046FFF7D9
:10094000F8FD84E094F8E800810702D520F0020069
:1009500001E040F0020084F8E80078E01422EA495F
:10096000EA481BF075FBE948018A0091C389828936
:100970004189E7A01AF012FF69E0384601F073FCE4
:1009800065E0284602F088F861E0384601F080FA18
:10099000E0B1284601F0CDFFD0B11222E5A18AA82E
:1009A00009F076FD0028A7D18AA9384601F012FC8B
:1009B0008AA9284602F054F88AA809F073FF8AA889
:1009C00009F0BCFFDFA01AF0E9FE40E0E1A0FAE781
:1009D000E8A0F8E7002184F8CB121FF09BFD287BEC
:1009E00088B3ECA0EFE7012184F8CB121FF092FD51
:1009F000287B40B3F0A0E6E7022184F8CB121FF079
:100A000089FD287BF8B1F3A0DDE7032184F8CB1240
:100A10001FF080FD287BB0B1F5A0D4E7042184F855
:100A2000CB121FF077FD287B68B1F8A0CBE7BFF3AE
:100A30004F8FFD480168FD4A01F4E06111430160F8
:100A4000BFF34F8FFEE702E0FEE7AEA0BBE7012059
:100A50002DE670B504460E46002006F019FB05464B
:100A6000304606F03FFB01462046FFF7ADFD044649
:100A7000284606F00DFB204670BD73B5054601986B
:100A800000240178632943D008DC132949D0442984
:100A90000DD0452923D0532906D142E0642906D040
:100AA00065291CD073293CD0047001207CBD202115
:100AB00021F061FFDE4D01900BE0401C0A2201A9EC
:100AC00001901BF056F9800000EB451000F1085032
:100AD00004700198C8B301780029EED135E02021D7
:100AE00021F049FFD24D01902D1D0BE0401C0A2240
:100AF00001A901901BF03DF9800000EB451000F1C9
:100B000008500470019800B301780029EED11CE070
:100B1000202121F030FF014605F5307003F01FFA67
:100B20007CBD082021F04AFF064603F0D7FB95F86C
:100B3000E80020F0040085F8E800D5F8040120B1B1
:100B400000200DF0FCFCC5F8044101980470002061
:100B50007CBD2DE9F34F81B00446029A01260025A1
:100B60001078632847D008DC13284ED044280ED0D4
:100B7000452826D0532806D147E0642807D06528A9
:100B80001FD0732841D015700120BDE8FE8F2021B1
:100B9000104621F0F0FEA64C02900BE0401C0A2209
:100BA00002A902901BF0E5F8800000EB441000F170
:100BB00008500670029800287BD001780029EDD1FA
:100BC00077E02021104621F0D6FE994C0290241D9A
:100BD0000BE0401C0A2202A902901BF0CAF8800018
:100BE00000EB441000F1085006700298F0B3017851
:100BF0000029EED15DE02021104621F0BCFE014627
:100C000004F5307003F042F9BFE70BF0B9F9D4E90D
:100C1000442140F247194FF4804A04F5847B8A420C
:100C20001AD00B460E46104604E000BFB3E8801110
:100C3000A0E88011B342F9D1D4F8143100E00C30AF
:100C40009842FCD1881A0C2190FBF1F0A0EB8000B7
:100C500003EB8000C4F814016FF01F0000904E46B3
:100C60004B46574652467349584600E021E024F06F
:100C70002DF871486F49009033463A46891E584610
:100C800024F024F86FF4FC606A49009033463A4639
:100C9000891C584624F01AF8042021F08FFE0646DD
:100CA00005F080F8C4F8040114F8E80F40F00400DF
:100CB000207002980570002067E72DE9F3435C4E31
:100CC00005462DED048B85B04FF000090A9A117886
:100CD000632909D009DC02F10100452906D006DCB0
:100CE000422905D04429A9E048E1AEE022E1A7E08D
:100CF00017E100000D0A2066696C65206572726F4D
:100D0000722E2E2E0D0A3A00B4070020C8070020CC
:100D10000D0A3A6F66667365742E2E2E20202533D9
:100D2000642C2533642C2533642C2533640D0A3A56
:100D300000000000303A2F6C696D6974732E696E83
:100D4000690000000D0A2073617665642E2E2E0D59
:100D50000A3A00000D0A2070756D702070726F6382
:100D6000657373696E67206572726F722E2E2E0D19
:100D70000A3A00000D0A2066616E2070726F63658A
:100D80007373696E67206572726F722E2E2E0D0A54
:100D90003A0000000D0A3A0D0A3A666F6F747377D5
:100DA0006974636820646973636F6E6E65637465EC
:100DB00064200D0A3A0000000D0A3A0D0A3A666FE7
:100DC0006F7473776974636820737461746520311C
:100DD0000D0A3A000D0A3A0D0A3A666F6F7473777E
:100DE0006974636820737461746520320D0A3A0077
:100DF0000D0A3A0D0A3A666F6F7473776974636807
:100E000020737461746520330D0A3A000D0A3A0D9F
:100E10000A3A666F6F7473776974636820737461DC
:100E2000746520340D0A3A000CED00E00400FA0568
:100E300000000020AE070020DEF7FFFF0DD17BE0B1
:100E40004C295CD0572908D161E0642974D0652908
:100E500078D0762909D078296DD082F800900120C9
:100E600005B0BDEC048BBDE8FC83DFF8FC83B8F86B
:100E7000080024F0AFFE9FEDFD9B53EC192B24F0EE
:100E8000A1FC9FEDFC8B53EC182B24F0F3FE9FED9F
:100E9000FB1B53EC112B24F095FC06460F46B8F8CB
:100EA000060024F097FE53EC192B24F08BFC53EC36
:100EB000182B24F0DFFE9FEDF31B53EC112B24F0D5
:100EC00081FC04460D46B8F8040024F083FE53EC80
:100ED000192B24F077FC53EC182B24F0CBFE9FED5C
:100EE000EB1B53EC112B24F0C5FE8DE8F00041EC18
:100EF000100BE8A053EC102B1AF050FC70E01022FD
:100F00000AA90A901AF035FF0168EAA006E010224B
:100F10000AA90A901AF02DFF0188E8A01AF03EFCF9
:100F20005EE010220AA90A901AF023FF0178E5A0DA
:100F3000F4E701E006E02DE00821E4A032681AF0B1
:100F40002DFC4DE0B5F8C90200900024684645012B
:100F5000E04F05F108550BE0287828B157F8242018
:100F60002146DDA01AF01AFC00984010641C009085
:100F700000980028F0D1DDA07168CFE7202110464D
:100F800021F0F9FC1AF0B0FE014605F5307003F0CF
:100F9000B1F865E7012108030CF0A8F90BF01EFD7C
:100FA0004FF0FF3415E0401C10220AA90A901AF0F5
:100FB000E0FE05460146204605F014FA04462846A0
:100FC0000BF010FD01462246CEA01AF0E7FB05F01B
:100FD00009FB0A9801780029E5D1CDA01AF0DEFBC3
:100FE0000A99002081F800903AE773B50446019A07
:100FF0000025501C1178572923D006DC422934D013
:1010000045295CD04C2906D108E0632941D06529E7
:1010100055D06B2958D0157001207CBD102201A934
:1010200001901AF0A6FE044606E0401C102201A919
:1010300001901AF09EFE01C4019801780029F4D1B4
:1010400042E0102201A901901AF093FE044607E045
:10105000401C102201A901901AF08BFE24F8020B0B
:10106000019801780029F3D12EE0102201A9019006
:101070001AF07FFE044607E0401C102201A90190EF
:101080001AF077FE04F8010B019801780029F3D1DA
:101090001AE02021104621F06EFC014604F5307064
:1010A00002F0C7FF7CBD401C0A2201A901901AF082
:1010B00060FE06FA00F1204600F084F800E0012608
:1010C000019801780029EED10198057000207CBDBF
:1010D00070B5054608780026ADF50A7D0C4605F585
:1010E000A4723D281ED00CDC2D282AD004DC002858
:1010F00063D02B2811D11FE03B285ED03C280CD1B7
:1011000056E0402839D004DC3E284BD03F2804D19B
:101110000DE076281AD077281BD00E7001200DF52F
:101120000A7D70BD2846491CFFF75FFFF7E7284698
:10113000491CFFF7C2FDF2E72846491CFFF709FDED
:10114000EDE72846491CFFF798FCE8E70B2005F07F
:10115000ABF92021204621F00EFC044608E0601C7B
:101160000022044611461AF004FE6A4905F02BF8E5
:1011700014B120780028F2D11FE04C1C0122214636
:10118000684609F085F928B10320C8E76946284672
:10119000FFF75FFCDDE902018842F7D1684609F0FC
:1011A000CDFB0AE04C1C2146104604F02DF804E06B
:1011B000611C0C46104604F05EF826700020AEE775
:1011C000096885E7F3B5544985B00446069849682F
:1011D0000840069003D040F6B831002001E0142109
:1011E000012005F065FEB4F8C90206998143084361
:1011F0000691A4F8C902069858B3102147480BF08D
:1012000023FF032084F8C8021422454968461AF0D7
:1012100064FFB4F8C802ADF80B0094F8CA028DF868
:101220000D0003F0FCFD694603F012FE94F8C802BD
:1012300003280ED001A823F08CFE024639A168468F
:1012400023F0ECFF01462046FFF7BAFF684624F082
:1012500056F806A846013048002445011D4F05F107
:10126000085506F1085670E0B407002000000000A1
:10127000E0FFEF406666666666660A40E3C6B83120
:101280006E8CBB3F8BF80452C979C93F0000000047
:10129000000000400D0A56353D25342E31662C568F
:1012A00031323D25342E31662C5632343D25342ED4
:1012B000316600002C253038580000002C253034D1
:1012C000580000002C253032580000002025302A1C
:1012D00058200000700700200D0A6572726F72209E
:1012E000253033643A202573000000000D0A657232
:1012F000726F72206D61736B3D253038580D0A3A5C
:10130000000000000D0A253038582C2530385800D0
:101310000D0A0000BB60000800000020000402402D
:10132000A0970208406572726F722E6C65640000AF
:10133000307830B157F824202146AFF264001AF01B
:101340002DFA06984010641C06900698002802D0DA
:10135000287A0028ECD107B0F0BD2DE9F041044611
:10136000806805F095FE074603F08BF8054604F506
:10137000A87000F0FEFA054304F5037001F00EF9C1
:1013800040EA050604F1C00001F0F2FD40EA060162
:101390002046FFF717FF03F09FFA03F0EDFA21460E
:1013A00004F5A47003F097FD2046FFF731F83846A6
:1013B000BDE8F04105F06CBE70B5044600F530752F
:1013C0000146AFF2690004F09AFE2146B14804F0EC
:1013D00096FE2146B04804F092FE284602F03AFDFF
:1013E000A0F53074B4381FF083FBA0F50374BC384B
:1013F0001FF0F4FF90381FF0F7FFC03870BD30B514
:10140000ADF50B7D983004F05FF8002540F8885C5E
:1014100040F88C5D00F10801C0F88810B43001F08C
:10142000E3FBA0F1C0040121883003F021FCA0F50A
:10143000A474083000F00AFAA0F5A874BC3001F0DA
:1014400027F8A0F50374B43002F044FCA0F5307422
:1014500000F8085F0123A0F8015040F2CB208FA2D2
:1014600005552146AFF20D1004F008FE0122AFF63B
:101470008431684609F00CF8D0B9694604F5A870C3
:1014800000F0D2FC694604F5037001F000FA6946E9
:1014900004F1C00001F0B0FE03E069462046FFF70A
:1014A000D8FADDE902018842F7D1684609F046FA28
:1014B0000122AFF28071684608F0EAFF60B9694620
:1014C00004F5A87000F0BFFD694604F5037001F053
:1014D000A4FA684609F032FA71A01AF05FF976A012
:1014E0001AF05CF978A01AF059F97BA01AF056F9B5
:1014F0007DA01AF053F982A01AF050F9AFF2F01063
:101500001AF04CF984A01AF049F9AFF608001AF065
:1015100045F9082184480BF097FD002005F0B8FD3F
:10152000A06007212046FEF7F4FF8AA823F011FDF2
:1015300002467EA189A823F071FE01462046FFF7EE
:101540003FFE89A823F0DBFE0DF50B7D204630BD64
:1015500010B5ADF5347D6846FFF751FF04F0ADFDE1
:10156000029805F095FD044673481AF060FC0146A8
:101570006846FFF729F818B1204605F089FDEDE728
:101580006846FFF719FF0DF5347D002010BD0C23D0
:1015900004226A496A4821F0E9BA2DE9F04F684C03
:1015A0008FB004F108000190001D04F120073E1DDA
:1015B000009004F1100B04F1140A04F1180904F16D
:1015C0001C08351D02A823F0C4FC02465DA120467C
:1015D00023F024FE03A823F0BCFC02465CA1201DDE
:1015E00023F01CFE04A823F0B4FC02465BA1019882
:1015F00023F014FE05A823F0ACFC02465AA1009883
:1016000023F00CFE06A823F0A4FC02465CA1584679
:1016100023F004FE07A823F09CFC02465DA150467F
:1016200023F0FCFD08A823F094FC02465FA1484685
:1016300023F0F4FD09A823F08CFC024662A1404689
:1016400023F0ECFD0AA823F084FC024665A138468D
:1016500023F0E4FD0BA823F07CFC024667A1304692
:1016600023F0DCFD0CA823F074FC02466AA1284696
:1016700023F0D4FD0DA823F06CFC02466BA1281DBD
:1016800023F0CCFD6F4A704900201AF0F3FB0FB035
:10169000BDE8F08F254E0008773900086C6D00001A
:1016A0000D0A5B46345D20202D2073707261792015
:1016B0006F6E2F6F666600000D0A5B46355D202059
:1016C0002D2070756D7000000D0A5B46365D202080
:1016D0002D2066616E0000000D0A5B46375D2020FC
:1016E0002D207370726179000D0A5B4631315D20E7
:1016F0002D20736176652073657474696E6773005D
:101700000D0A5B4631325D202D20657869742061B9
:1017100070702E20202020000D0A4374726C592016
:101720002D2072657365740000040240406F6E6F77
:1017300066662E6C6564000018010020FF520208E6
:101740007007002035562020737570706C7900008A
:1017500031325620737570706C7900003234562027
:10176000737570706C790000737072617920696EA6
:101770007075742070726573737572650000000077
:10178000636F6F6C65722074656D706572617475DE
:101790007265000070756D70207370656564206FF0
:1017A0007574206F662072616E67650070756D706C
:1017B000207072657373757265206F7574206F6623
:1017C0002072616E6765000070756D7020637572C0
:1017D00072656E74206F7574206F662072616E671B
:1017E0006500000066616E207370656564206F752A
:1017F00074206F662072616E67650000656D6572AA
:1018000067656E637920627574746F6E207072659F
:10181000737365640000000068616E6470696563DD
:101820006520656A6563746564000000696C6C65B9
:1018300067616C207374617475732072657175656E
:1018400073740000000000088F15000810B502F046
:1018500045FD03F0E6FD0021083003F0F3F8142104
:10186000C0F898103221C0F89C101921C0F8A010BF
:101870002821C0F8A410F8490968F84B01F6B831DE
:10188000C0F894100021C0F8B010C0F8AC1043F2BA
:10189000D402C0F8A8105A81F14B43F2F4325A81B5
:1018A000C0F88C10083810BD70B5044602F0E1FD98
:1018B000D4F8A8106FF01802514300EB8102D4E96C
:1018C00028031B1A5A43D4F8AC3064256B4303EB4E
:1018D000810192FBF1F10144814215DD02F0C9FD65
:1018E0000146D4F8A8006FF01802504301EB8002C3
:1018F000D4E928135B1A5A43D4F8AC306B4303EB9A
:10190000800092FBF0F00844D4F8A41088422EDA4C
:1019100002F0AFFD0146D4F8A8006FF01802504362
:1019200001EB8002D4E928135B1A5A43D4F8AC3097
:1019300064256B4303EB800092FBF0F0084488427F
:1019400015DD02F096FD0146D4F8A8006FF01802EC
:10195000504301EB8002F4E928135B1A5A43E36811
:101960006424634303EB800092FBF0F001440846DB
:1019700070BD2DE9F05F04462DED048B00266FF05D
:101980000041D0F89C006425884204D1002108461B
:101990000BF094F85AE1D4F8A400D4F8A010C0EBEE
:1019A0000030C1EB013190FBF5F091FBF5F1471AE6
:1019B00002F05FFD0146D4F8A8006FF01802504312
:1019C00001EB80014F43D4F8AC106422514301EB8A
:1019D000800097FBF0F1D4F8A000C0EB003090FB42
:1019E000F5F2114490FBF5F2914223DDD4F8A410F6
:1019F00090FBF5F0C1EB013191FBF5F10F1A02F00C
:101A000038FD0146D4F8A8006FF01802504301EBEE
:101A100080014F43D4F8AC106422514301EB8000A5
:101A2000D4F8A01097FBF0F0C1EB013191FBF5F178
:101A3000014401E090FBF5F1D4F8A400C0EB0030C4
:101A400090FBF5F291424ADAD4F8A01090FBF5F041
:101A5000C1EB013191FBF5F1471A02F00AFD014695
:101A6000D4F8A8006FF01802504301EB80014F43F7
:101A7000D4F8AC106422514301EB800097FBF0F1E5
:101A8000D4F8A000C0EB003090FBF5F2114490FBBD
:101A9000F5F2914223DDD4F8A41090FBF5F0C1EBF0
:101AA000013191FBF5F10F1A02F0E3FC0146D4F885
:101AB000A8006FF01802504301EB80014F43D4F8A7
:101AC000AC106422514301EB8000D4F8A01097FBC6
:101AD000F0F0C1EB013191FBF5F1084401E090FB1E
:101AE000F5F081B200200AF0E9FFD4F8B010DFF879
:101AF00068A104F1080B00297ED0D4F8B4000028B6
:101B00007AD0D4F8B800002876D0D4F89C10DAF84F
:101B100000000A27DFF84C8181426DDA584603F055
:101B200029F8B94690FBF9F024F03DF841EC190B87
:101B3000584603F01FF824F036F841EC180B204605
:101B4000FFF7B2FE24F02FF841EC100BD4F8B000F0
:101B500004F000F853EC182B51EC100B24F096FA1B
:101B600041EC100B20F0F0FE53EC192B51EC100B54
:101B700024F07EF900D22026B8F80A70B7FBF9F0FD
:101B800024F028F841EC190B384624F023F841ECF6
:101B9000180B2046FFF788FE24F005F841EC100BE7
:101BA000D4F8B40003F0D6FF53EC182B51EC100B13
:101BB00024F06CFA41EC100B20F0C6FE53EC192B0C
:101BC00051EC100B24F054F901D246F04006B8F85D
:101BD0001270B7FBF9F023F0FDFF41EC190B38460A
:101BE00023F0F8FF41EC180B2046FFF75DFE23F0D1
:101BF000DAFF41EC100B00E016E0D4F8B80003F077
:101C0000A9FF53EC182B51EC100B24F03FFA41ECD8
:101C1000100B20F099FE53EC192B51EC100B24F013
:101C200027F901D246F08006584602F0A3FF90FB48
:101C3000F5F000EB8001DAF8000090FBF1F201FB17
:101C4000120018B91421082005F032F9BDEC048BFC
:101C50003046BDE8F09F0000AC000020C80700201F
:101C6000DC070020B40700202DE9F04304462DEDE9
:101C7000028B87B0D0F894001044002815DD0428AA
:101C800000DB0420C4F8940029B1FE4A126802F671
:101C9000B832C4F89C20FC4D012808D002281AD084
:101CA00003282CD0042851D13DE00020EAE7D4F8E5
:101CB000A0000844052801DD024600E00522D4F812
:101CC000A4108A4203DA052802DC052000E0084659
:101CD000C4F8A0003AE0D4F8A4000144D4F8A0006D
:101CE000814201DD0A4600E002465F2A03DA8142B2
:101CF00002DD084600E05F20C4F8A40026E0D4F826
:101D0000A8000844002801DD024600E00022D4F8C3
:101D1000AC108A4203DA002802DC002000E008460A
:101D2000C4F8A80012E0D4F8AC000144D4F8A8002C
:101D3000814201DD0A4600E00246322A03DA81428E
:101D400002DD084600E03220C4F8AC00CF484089EC
:101D500023F040FF41EC180BCD496889A946498919
:101D6000401A23F020FF53EC182B23F02BFD88465C
:101D7000074602F07EFB23F016FF9FEDC61B53ECD7
:101D8000112B23F01FFD05460E462046FFF78CFD64
:101D90008DE8E00101462522C0A019F0FFFCD4F82F
:101DA0009400002828DDB9F8120023F013FF9FEDFE
:101DB000C41B53EC112B23F05DFF9FEDC31B53ECB1
:101DC000112B23F057FF9FEDC21B53EC112B23F077
:101DD000F9FC9FEDC11B53EC112B23F04BFFCDE918
:101DE0000401D4E92A1225208DE80700D4E928133C
:101DF0000246BBA019F0D2FCD4F894000621C0F131
:101E0000050001EB800502E0BEA019F0C7FCD4F884
:101E1000940010B128466D1EF6D207B02046BDECE6
:101E2000028BBDE8F0433FE510B5A2B004460A4678
:101E3000802102A819F0D6FF04F1AC01081F031F8E
:101E4000CDE900011A1FB0A102A819F089FE22B045
:101E500010BD1CB5D0E92A23CDE90023D0E9282301
:101E60000C46ACA1204619F0A5FC1CBDD0F89C1076
:101E70006FF00042914205D18249096801F6B831FC
:101E8000C0F89C1070476FF00041C0F89C1070477C
:101E90002DE9F04F04462DED028B8BB0D4E9285785
:101EA000D0F8B02082B1D4F8B41069B1D4F8B80039
:101EB00050B180460020C4F8B800C4F8B40092467F
:101EC0008946C4F8B0001AE0202020F077FD0646CD
:101ED0000022042103F027FC8246202020F06EFD22
:101EE00006460022042103F01EFC8146202020F03B
:101EF00065FD06460022042103F015FC804690A0F3
:101F000019F04CFC04F108002E46DFF87CB1089073
:101F10003CE000BFC4F8A4608B4940F6B830C4F878
:101F2000A06004F050F9089802F024FE23F03BFE74
:101F300041EC180B304623F036FECDE9000141ECB0
:101F4000100BB0EE481AF0EE681A504603F064FC2D
:101F5000BBF80A0023F03EFE41EC110BDDE9000165
:101F600041EC100B484603F057FCBBF8120023F07D
:101F700031FE41EC110BDDE9000141EC100B404654
:101F800003F04AFC71A019F009FC761DBE42C1DBCA
:101F90003E463BE0C4F8A4606B4940F6B830C4F854
:101FA000A06004F010F9089802F0E4FD23F0FBFDB6
:101FB00041EC180B304623F0F6FDCDE9001041EC62
:101FC000100BB0EE481AF0EE681A504603F024FCED
:101FD000BBF80A0023F0FEFD41EC110BDDE9000126
:101FE00040EC101B484603F017FCBBF8120023F02E
:101FF000F1FD41EC110BDDE9000140EC101B404606
:1020000003F00AFC52A019F0C9FB761FAE42C1DCF6
:10201000C4E92857504603F01DFD00280ED048465D
:1020200003F018FD002809D0404603F013FD0028F6
:1020300004D0C4F8B0A0C4E92D9801200BB0BDECC9
:10204000028BBDE8F08F70B50446A2B00D4620208B
:1020500020F0B4FC06460022042103F064FBC4F81F
:10206000B000202020F0AAFC06460022042103F044
:102070005AFBC4F8B400202020F0A0FC0022064641
:10208000042167E0AC000020B4070020DC0700203A
:10209000C807002000000000000059400D3A70758C
:1020A0006D7020202020202025356425632C2534C8
:1020B0002E316C6627432C25342E316C66000000CF
:1020C000000000000000303F6666666666660A40F3
:1020D000CDCCCCCCCCCC0040000000000000B03F08
:1020E00020202025326425632D25326425632C258C
:1020F000326427432D25326427432C25342E336C3C
:10210000660000000800000025642C25642C25646E
:102110002C2564002535642C2535642C2535642C4C
:102120002535642020202020202020202020202051
:10213000202020202F2E2E2070756D700D0A00009B
:102140000D70756D70200000BB6000082E0000004F
:102150000820080003F0E7FAC4F8B8002A468021F6
:1021600002A8B03419F03EFE2068826902F118011D
:1021700002F11000CDE9000102F10803ACA102A8B0
:1021800019F0EEFC2A46802102A819F02BFE6068A7
:10219000826902F1180102F11000CDE9000102F19B
:1021A0000803A3A102A819F0DBFC2A46802102A89B
:1021B00019F018FEA068826902F1180102F11000FE
:1021C000CDE9000102F1080399A102A819F0C8FCA9
:1021D00022B070BD30B5044687B054F8B00F0D463C
:1021E00097A1806990ED060B8DED040B90ED040B2B
:1021F0008DED020B90ED020B8DED000B90ED000BC1
:10220000284653EC102B19F0D5FA60688CA1806930
:1022100090ED060B8DED040B90ED040B8DED020B94
:1022200090ED020B8DED000B90ED000B284653EC6A
:10223000102B19F0BFFAA06881A1806990ED060B00
:102240008DED040B90ED040B8DED020B90ED020B68
:102250008DED000B90ED000B284653EC102B19F080
:10226000A9FA07B030BD2DE9F04F04462DED048BDF
:102270008DB0D4E92850D4F8B0208146A2B1D4F86A
:10228000B41089B1D4F8B80070B1824600200A9227
:10229000C4F8B800C4F8B400C4F8B00004F10800F1
:1022A0008B460B902E4657E000200DB0BDEC048B02
:1022B000C7E600BFC4F8A46066494FF47A70C4F85A
:1022C000A06003F080FF6448408A23F083FC074647
:1022D00088462046FFF7E8FA23F065FC41EC100B36
:1022E000504603F037FC5C48B0EE408AF0EE608A5E
:1022F000408923F06FFCCDE902012046FFF7D4FAB4
:1023000023F051FC41EC100B584603F023FCB0EED7
:10231000409AF0EE609A0B9802F02CFC23F043FCFC
:10232000CDE900012046FFF7BFFA23F03CFC41EC69
:10233000100B0A9803F00EFCCDE908788DED068BA2
:10234000DDE90201CDE904018DED029B53EC102B78
:1023500042A019F023FA761D48464E45AADB0646F0
:1023600052E000BFC4F8A4603A494FF47A70C4F850
:10237000A06003F028FF3848408A23F02BFC074672
:1023800088462046FFF790FA23F00DFC41EC100B35
:10239000504603F0DFFB3048B0EE408AF0EE608A32
:1023A000408923F017FCCDE902012046FFF77CFAB3
:1023B00023F0F9FB41EC100B584603F0CBFBB0EED9
:1023C000409AF0EE609A0B9802F0D4FB23F0EBFBFE
:1023D000CDE900012046FFF767FA23F0E4FB41EC6A
:1023E000100B0A9803F0B6FBCDE908788DED068B4B
:1023F000DDE90201CDE904018DED029B53EC102BC8
:1024000016A019F0CBF9761FAE42ABDC1E4819F0CE
:102410000EFD401C3FF446AF1CA019F0BFF9E4E9E3
:1024200028590A98C4F818A0C4E9040B01203CE715
:10243000256C662C256C662C256C662C256C66003C
:10244000256C662C256C662C256C662C256C660D1F
:102450000A000000BB600008B40700200D0A253404
:102460002E336C662C25342E336C662C25342E339B
:102470006C662C25342E336C662C25342E336C661A
:102480002C25342E336C6600180100200D0A3A000A
:1024900010B501F023FF0121083002F0D3FA142116
:1024A000C0F898105F21C0F89C101921C0F8A01046
:1024B0002821C0F8A410FF4A0021C0F8A810126813
:1024C00041F288331A44C0F89420C0F88C100838C0
:1024D00010BD70B5044601F0CCFFD4F8A8106FF021
:1024E0001802514300EB8102D4E928031B1A5A4316
:1024F000D4F8AC3064256B4303EB810192FBF1F11E
:102500000144814215DD01F0B4FF0146D4F8A80072
:102510006FF01802504301EB8002D4E928135B1AD4
:102520005A43D4F8AC306B4303EB800092FBF0F0DD
:102530000844D4F8A41088422EDA01F09AFF01462C
:10254000D4F8A8006FF01802504301EB8002D4E9E0
:1025500028135B1A5A43D4F8AC3064256B4303EB61
:10256000800092FBF0F00844884215DD01F081FF05
:102570000146D4F8A8006FF01802504301EB800226
:10258000F4E928135B1A5A43E3686424634303EBBA
:10259000800092FBF0F00144084670BD2DE9F04147
:1025A00004462DED048B00256FF00041C24FD0F89A
:1025B0009C00C14E0837884202D130683860BBE0C9
:1025C00001F057FF0146D4F8A8006FF018025043FD
:1025D00001EB8002D4E928135B1A5A43D4F8AC30DB
:1025E0004FF0640C03FB0CF303EB800092FBF0F064
:1025F0000844884218DD01F03CFF0146D4F8A800E9
:102600006FF01802504301EB8002D4E928135B1AE3
:102610005A43D4F8AC304FF0640C03FB0CF303EBDB
:10262000800092FBF0F00144D4F8A400814232DA39
:1026300001F01FFFD4F8A8106FF01802514300EB0F
:102640008102D4E928031B1A5A43D4F8AC304FF066
:10265000640C03FB0CF303EB810192FBF1F10144E9
:10266000814218DD01F005FF0146D4F8A8006FF0A3
:102670001802504301EB8002D4E928135B1A5A4335
:10268000D4F8AC304FF0640C03FB0CF303EB800088
:1026900092FBF0F00844316848436426B0FBF6F042
:1026A0003860844FD4F8B01004F1080899B3D4F816
:1026B0009C00396888422EDA404602F05BFA0A2113
:1026C00090FBF1F023F06FFA41EC180B404602F05A
:1026D00051FA23F068FA41EC190B2046FFF7F9FE96
:1026E00023F061FA41EC100BD4F8B00003F032FA99
:1026F00053EC192B51EC100B23F0C8FC41EC100BE0
:1027000020F01EFD53EC182B51EC100B23F0B0FB06
:1027100001D24FF48075404602F02CFA90FBF6F09F
:10272000396800EB800091FBF0F200FB121018B941
:102730001421072004F0BCFBBDEC048B2846BDE847
:10274000F081FEB50446D0F894001044002815DD51
:10275000042800DB0420C4F8940031B1554A126803
:1027600041F288331A44C4F89C20012808D002287A
:102770001AD003282CD0042851D13DE00020EAE7EC
:10278000D4F8A0000844052801DD024600E0052237
:10279000D4F8A4108A4203DA052802DC052000E000
:1027A0000846C4F8A0003AE0D4F8A4000144D4F8E4
:1027B000A000814201DD0A4600E002465F2A03DAFA
:1027C000814202DD084600E05F20C4F8A40026E054
:1027D000D4F8A8000844002801DD024600E00022E9
:1027E000D4F8AC108A4203DA002802DC002000E0B2
:1027F0000846C4F8A80012E0D4F8AC000144D4F8AC
:10280000A800814201DD0A4600E00246322A03DACE
:10281000814202DD084600E03220C4F8AC0001F03D
:1028200028FE23F0C0F99FED251B53EC112B22F05D
:10283000C9FF05460E462046FFF74BFECDE9005680
:10284000014625221FA018F0A9FFD4F89400002803
:102850000ADDD4E92A1225208DE80700D4E92813DF
:1028600002461FA018F09AFFD4F89400C0F10500AA
:10287000850002E022A018F091FFD4F8940010B176
:1028800028466D1EF6D22046BDE8FE4021E610B572
:10289000A2B004460A46802102A819F0A3FA04F166
:1028A000AC01081F031FCDE900011A1F15A102A8E2
:1028B0002EE00000AC0000202C08004000000000CA
:1028C000000059400D3A66616E2020202020202013
:1028D00025356425632C25342E316C662743000092
:1028E000202020202020202025326425632D253221
:1028F0006425632C25326427432D25326427430049
:102900000800000025642C25642C25642C25640017
:1029100019F026F922B010BD1CB5D0E92A23CDE963
:102920000023D0E928230C4690A1204618F042FF4E
:102930001CBD2DE9F04704462DED028BD4E9285744
:10294000D0F8B00020B180460020C4F8B00008E004
:10295000202020F033F806460022042102F0E3FE96
:1029600080468DA018F01AFF2E4640F6B83904F1C3
:10297000080A1EE0C4F8A46089494846C4F8A0606B
:1029800003F021FC504602F0F5F823F00CF941EC7D
:10299000180B304623F007F941EC100BB0EE481A43
:1029A000F0EE681A404602F037FF7EA018F0F6FEFF
:1029B0000A36BE42DEDB3E461FE000BFC4F8A4601C
:1029C00077494846C4F8A06003F0FDFB504602F08A
:1029D000D1F823F0E8F841EC180B304623F0E3F887
:1029E00041EC100BB0EE481AF0EE681A404602F0C7
:1029F00013FF6DA018F0D2FE0A3EAE42DEDCC4E941
:102A00002857404603F026F8002802D00120C4F8D9
:102A1000B080BDEC028BBDE8F08770B50446A2B073
:102A20000D4620201FF0CAFF06460022042102F0B6
:102A30007AFE44F8B00F2A46802102A819F0D2F994
:102A40002068826902F1180102F11000CDE900014D
:102A500002F1080355A102A819F082F822B070BD56
:102A600010B5D0F8B00086B00C46826953A120465C
:102A700092ED060B8DED040B92ED040B8DED020B28
:102A800092ED020B8DED000B92ED000B53EC102B31
:102A900018F090FE06B010BD2DE9FC5F0446D4E9A5
:102AA00028508146D4F8B00000285DD0824600202E
:102AB00004F1080BC4F8B0002E4620E0C4F8A4606E
:102AC0003749C820C4F8A06003F07DFB584602F0E7
:102AD00051F823F068F8074688462046FFF7F9FCCE
:102AE00023F061F841EC100B504603F033F8CDE9C8
:102AF000007853EC102B36A018F050FE761C484698
:102B00004E45DBDB064620E0C4F8A4602449C8201B
:102B1000C4F8A06003F057FB584602F02BF823F0EE
:102B200042F8074688462046FFF7D3FC23F03BF8DF
:102B300041EC100B504603F00DF8CDE9007853EC52
:102B4000102B23A018F02AFE761EAE42DCDC2448AF
:102B500019F06DF9401CAFD022A018F01FFEC4F888
:102B6000B0A0C4E928590120BDE8FC9F2535642C9C
:102B70002535642C2535642C253564202020202023
:102B80002020202020202020202020202F2E2E201A
:102B900066616E0D0A0000000D66616E2020000067
:102BA000BB6000082E00000008200800256C662C81
:102BB000256C662C256C662C256C6600256C662CB5
:102BC000256C662C256C662C256C660D0A000000B1
:102BD0000D0A25342E336C662C25342E336C66009A
:102BE000180100200D0A3A00F8B5002501F076FB27
:102BF000292100F150040D54684622F0A8F901463D
:102C0000204622F0A3F905604560A0F10801856027
:102C10004D60A0F150040C200D601FF0CFFE064661
:102C2000012207211EF024FCA0630C201FF0C6FE29
:102C30000646012206211EF01BFC60630C201FF0DB
:102C4000BDFE0646012205211EF012FCE0620C20AA
:102C50001FF0B4FE0646002204211EF009FC20638A
:102C60004FF48040FE494200C88188810882FD49B6
:102C70000A8245F233328A81C881E5606561256444
:102C80002061E563A06094F8280020F0070084F834
:102C90002800A561E06A1EF0CEFB206B1EF0CBFB86
:102CA000606B1EF0C8FBA06B1EF0C5FB6562256261
:102CB0009FEDED0BE56184ED1E0B9FEDED0B2046C6
:102CC00084ED200B84ED1C0B84ED1A0B84ED180BA6
:102CD000F8BD70B504462DED108B9FEDE7DB01F0DC
:102CE000FBFD94ED18AB94ED1E0B054653EC1A2B2F
:102CF00051EC100B23F0CAF99FEDE11B53EC112BA3
:102D000022F060FD94ED1A8B41EC1F0B53EC182B55
:102D100051EC1A0B23F0BAF99FEDDB1B53EC112B8E
:102D200022F050FD94ED1CEB41EC190B53EC1E2BE3
:102D300051EC1A0B23F0AAF953EC1D2B22F042FDA3
:102D400041EC1B0B53EC1E2B51EC180B23F09EF99E
:102D500053EC1D2B22F036FD94ED20CB41EC1A0BE9
:102D600053EC1C2B51EC1E0B23F090F99FEDC41B70
:102D700053EC112B22F026FD41EC1E0B53EC1C2BC7
:102D800051EC180B23F082F99FEDBF1B53EC112B74
:102D900022F018FD41EC1C0B0621284601F0CBFD6A
:102DA00022F001FF53EC1B2B22F064FF9FEDB81BB8
:102DB00053EC112B22F006FD41EC1B0BE06A1EF0D8
:102DC00042FB0100B44D04F1480006469FEDB38B71
:102DD00005D0B0EE489AF0EE689AB24A01E0B14AE6
:102DE0002232294621F09AFF206B1EF02CFB20B1E5
:102DF000B0EE48CAF0EE68CA04E01F222946304609
:102E000021F08CFFA06B1EF01EFB18B1B0EE48AA9B
:102E1000F0EE68AA53EC192B51EC1F0B23F036F996
:102E200053EC1B2B23F032F99FED9F1B53EC112B1E
:102E300022F0C8FC9FED9E8B53EC182B22F01AFF5A
:102E400094ED181B53EC112B22F000FC41EC1F0BEE
:102E500053EC1A2B84ED18FB51EC190B23F016F9E7
:102E600053EC1C2B23F012F99FED931B53EC112B09
:102E700022F0A8FC53EC182B22F0FCFE94ED1A1B58
:102E800053EC112B22F0E2FB41EC1C0B53EC1B2BFF
:102E900084ED1ACB51EC1A0B22F0D8FB53EC1E2B0D
:102EA00023F0F4F89FED861B53EC112B22F08AFCE3
:102EB00053EC182B22F0DEFE94ED1C1B53EC112B6F
:102EC00022F0C4FB41EC1A0B84ED1CAB9FED7E8B12
:102ED00051EC1F0B53EC182B22F0CCFE22F036FEE7
:102EE0006D4D0C3DE8819FED740B51EC190B53ECCB
:102EF000102B22F0BFFE9FED641B53EC112B22F030
:102F0000B9FE53EC1C2B22F0A1FB53EC182B22F042
:102F1000B1FE22F01BFEA88153EC1D2B51EC1B0BC4
:102F200022F0A8FE53EC1A2B22F090FB53EC182B46
:102F300022F0A0FE22F00AFE28824CF2F010A880B7
:102F40004BF64610E8804CF65A0028814AF6FF708E
:102F500028805F49E06930B10A68904203DD0020B3
:102F6000BDEC108B70BD08680A30E0610120F7E706
:102F70002DE9F0470446DFF820910026C06B544D40
:102F8000A9F10C093746A0B3B9F80C00A16840F2CA
:102F9000EE28081AC217E16800EB127001EB20104E
:102FA000E06010F5004F0FDAE760E06A1EF043FAC8
:102FB00042469621206B1EF02DFA286800F5FA7023
:102FC0002062606A401C6062E068B0F5004F17DD67
:102FD000E76042469621E06A1EF01CFA206B1EF064
:102FE0002AFA286800F5FA702062606A401C606264
:102FF00006E0FFE7E06A1EF01EFA206B1EF015FAED
:10300000184AE06B0A23118ADFF85480414391FB90
:10301000F3F3B8F810C063442361928964235043EA
:10302000226CB8F80C1003EB820250434FF47A7212
:1030300090FBF2F00844A060616A04F12900824626
:10304000052906D184F829701DF078FA606A401CC1
:103050006062216A2A680120914243DA616A39E09C
:10306000C8070020DC07002000000000000010401E
:10307000000000000000F03F0000000000C07240AF
:103080000000000000002440000000000000594043
:103090000000000000409F40AC070020000000003E
:1030A00000000000DEF7FFFF7B14AE47E17A843FAB
:1030B000FCA9F1D24D62503F9A9999999999A93FEB
:1030C0002D431CEBE2361A3F000000000000D04008
:1030D000AC000020052904DD84F8290050461DF0CD
:1030E0002DFA6762206C38B194F82800C00703D02D
:1030F000A06B1EF09AF902E0A06B1EF09CF9E06B49
:10310000B8B394F82810C80734D0B9F81000226971
:10311000101A626910444FF47A026061904203DC35
:10312000002802DA002000E01046606189070BD514
:103130002968322291FBF2F302FB13110A2903DA08
:10314000606B1EF072F906E0C11700EBD14041132D
:10315000606B1EF04FF9EB48B8F80E10C289484278
:1031600012EB800000D54042B0EB510F05DD082680
:1031700003E0FFE7606B1EF05EF994F8280040075B
:1031800037D52046FFF7A5FD98B3606C88B30025BE
:103190004FF00C0819E000BF05EB450100EB81077B
:1031A000D4F8489038890BF054F93868B98801226E
:1031B0000088401AF98890FBF1F0C0F1E20081B27A
:1031C0001FFA89F00BF058FA6D1CD4E914010A1AA1
:1031D00092FBF8F1A942DFD1A06C4FF4A071401C22
:1031E00090FBF1F201FB1200A06410B9606C02F0D8
:1031F000AFFD3046BDE8F08730B5A3B004460D46BC
:103200000A46802102A818F0EDFDBF48811ECDE9D5
:103210000010031F821FBDA102A818F0A1FC2A46BE
:10322000802102A818F0DEFDBC48811ECDE9001007
:10323000031F821FB5A102A818F092FC2A46802124
:1032400002A818F0CFFD04F140031A1FB4A102A890
:1032500018F086FC23B030BD7CB50446AA480D4664
:103260001038028AC189CDE9001283894289AEA152
:10327000284618F09FFAA9481038028AC189CDE97A
:10328000001283894289B4A1284618F093FAD4E940
:103290000F2302B02846BDE87040BAA118F08ABAE0
:1032A00070B504462DED068B84B090F828004307D6
:1032B000A069104407D5002803DD032808DB03209C
:1032C00006E0002004E00028FBDD012800DB0120EF
:1032D000A06170B1012816D09FEDB7AB1FED989B90
:1032E0009FEDB78B022818D09FEDB7AB032807D10D
:1032F00069E0E06B401804D40A2800DB0A20E06390
:10330000B6E00020FBE7206C401804D40A2800DB5C
:103310000A202064ACE00020FBE7084622F043FCD2
:103320000E4646EC100B054653EC192B51EC100BD6
:1033300022F048FA94ED1E1B53EC112B22F086F973
:1033400053EC182B22F05AFC12D346EC105B53ECD2
:10335000192B51EC100B22F035FA94ED1E1B53EC97
:10336000112B22F073F953EC1A2B22F047FC23D2D5
:1033700046EC105B53EC192B51EC100B22F022FAA7
:1033800094ED1E1B53EC112B22F060F953EC182B1B
:1033900022F034FC14D346EC105B53EC192B51ECA7
:1033A000100B22F00FFA94ED1E1B53EC112B22F0A0
:1033B0004DF941EC180B03E0B0EE4A8AF0EE6A8A50
:1033C00084ED1E8B54E0084622F0EDFB0E4646ECE1
:1033D000100B054653EC192B51EC100B22F0F2F9AF
:1033E00094ED201B53EC112B22F030F953EC182BE9
:1033F00022F004FC12D346EC105B53EC192B51EC79
:10340000100B22F0DFF994ED201B53EC112B22F06E
:103410001DF953EC1A2B22F0F1FB23D246EC105B82
:1034200053EC192B51EC100B22F0CCF994ED201B2E
:1034300053EC112B22F00AF953EC182B22F0DEFB8F
:1034400014D346EC105B53EC192B51EC100B22F00B
:10345000B9F994ED201B53EC112B22F0F7F841EC55
:10346000180B03E0B0EE4A8AF0EE6A8A84ED208BF6
:1034700094F828004FF0010540071CD594ED200B6F
:1034800053A08DED020B94ED1E0B8DED000BD4E9D6
:103490000F1218F083F9A069C0F1030005EB800456
:1034A00002E054A018F07AF92046641EF9D204B064
:1034B000BDEC068B70BD19481038C08922F08AFB1C
:1034C00041EC180B10490F481039C089C989401ABE
:1034D00022F069FB53EC182B22F074F9CDE90001BE
:1034E000D4E90F1244A018F059F9A069C0F1020004
:1034F00005EB800402E03FA018F050F92046641E5E
:10350000F9D2D4E7B4070020D80700202568752C2D
:103510002568752C2568752C25687500EC0700203A
:1035200025642C25640000002535642C2535642C89
:103530002535642C253564202020202020202020C3
:1035400020202020202020202F2E2E206F66667322
:1035500065740D0A000000002535642C2535642CA7
:103560002535642C25356420202020202020202093
:1035700020202020202020202F2E2E206761696E01
:103580000D0A00002535642C2535642020202020DC
:10359000202020202020202020202020202020202B
:1035A00020202020202020202F2E2E206169722C08
:1035B0002048324F0D0A00000000000000001240B9
:1035C000000000000000E03F000000000000F83FA5
:1035D0000D3A6169722F776174657220202025335E
:1035E000642C2533642C25332E316C662C25332E28
:1035F000316C6600080000000D3A6169722F776136
:103600007465722020202533642C2533642C2533E7
:103610002E316C660000000030B500231D4600E02E
:10362000401C0478202CFBD074B141F823005B1CB3
:1036300003E0202C00D10570401C047824B1944292
:10364000F7D100F8015BECE7184630BD2DE9F041F9
:1036500016460F46044600E0641C25782DB118F08C
:1036600003F80068405D2028F6D1324639462046EE
:10367000BDE8F041D0E770B5CCB2C1F307239C425E
:1036800001D2254600E01D46C1F30741A94200D200
:103690000D469C4201D9204600E01846814200D9DF
:1036A0000846451BD070EDB268B1C5EB0526B6FBE8
:1036B000F0F69670844209D1581AC0EB00108000D1
:1036C00090FBF5F013E00020907016E0834207D1E4
:1036D000081BC0EB0010800090FBF5F0783006E08E
:1036E000E01AC0EB0010800090FBF5F0F030108085
:1036F00000B2002802DA00F5B470108070BD08B284
:1037000000EE100AC1F3074000EE900A10B5080E53
:1037100001EE100A2DED048BB8EEC00AF8EE600A37
:10372000B8EE418A14469FEDFC1AC0EE818AF5EE90
:10373000C08AF1EE10FA09D1BCEEC80A10EE100AE8
:10374000A07060701070BDEC048B10BDDFEDF30A4B
:1037500080EE209AB0EE490A1FF0FCFCFDEEC00A94
:1037600010EE900A00EE900A0528B8EEE00AF7EE97
:10377000000AB0EE601A79EE401A30EEE80A08EE60
:10378000E11A20EE080A70EEE11ABCEEC00A48EE1B
:10379000E10A21EE081A10EE101ABCEEC11AC9B2E5
:1037A00060EE880A00EE101A11EE101AFCEEE00A24
:1037B000C9B201EE101A10EE901AB8EE400AB8EE37
:1037C000411AC9B200EE901AF8EE600A3ED2DFE864
:1037D00000F0030B18252D00BCEEC81AFCEEE00A21
:1037E00011EE100A207006E0FCEEC10A10EE900AFD
:1037F000FCEEC80A2070BCEEC00A10EE900A6070A1
:1038000020E0BCEEC00A10EE100ABCEEC80A207020
:1038100010EE100ABCEEE00A607013E0BCEEC00AC5
:1038200010EE100ABCEEC10A207006E0FCEEE00AC1
:10383000BCEEC00A10EE900A207010EE100ABCEE2A
:10384000C80A607010EE100AA0707CE7FCEEC80A8F
:10385000BCEEC00A10EE900A207010EE100ABCEE0A
:10386000C10A6070EEE72DE9F14FAD48002682B045
:103870004FF0800B4FF03509142482464EE00025AE
:1038800046E000BF0AEB8807B868A0B300EB8500EC
:103890006A4601680298FFF732FF3A6905EB450175
:1038A00000205B4602EB41119DF8027023FA00F202
:1038B000174204D001EB800CCCF8409002E001EB01
:1038C00080073C649DF80170174202D041F82090B7
:1038D00001E041F820409DF80070174204D001EB50
:1038E0008007C7F8209002E001EB80021462401CC0
:1038F0000828D9DB0BE0FFE73A6905EB450100201A
:1039000002EB411141F82040401C1828FADB6D1CE5
:103910005AF828105046A942B4DC761C06EB8608FB
:10392000804D50F828104FF080470029A7D1284635
:1039300009F0DFF90021384609F0A4FE00213846DD
:1039400009F06AFE284609F018FA0028FAD1029810
:10395000808881B2284609F0EAF97349284609F0BF
:103960002CFA0121284609F0C4F90121384609F052
:1039700089FEBDE8FE8F2DE9F14F694C82B000262B
:103980004FF0020A4FF0010B4FF0030960680090FE
:10399000207B00250D283ED2DFE800F03D413E0AA5
:1039A00007CC60C85DF9F8F7F60000208DF8030039
:1039B00000202DE0A268BDF8001022F82010A268B7
:1039C0000AEB80019DF802305354A76809EB80038D
:1039D0009DF80320F95C914209D2A2EB010C4FF053
:1039E0000A029CFBF2F202F1010211440AE00BD937
:1039F000A1EB020C4FF00A029CFBF2F2A1EB0201D8
:103A0000A1F10101F95401E005F1010500F1010006
:103A100021688142CEDC4AE100208DF803000020BD
:103A20005246494612E000BFA568BDF8003025F8AF
:103A30002030A76802EB80059DF802307B55A56811
:103A400001EB80079DF80330EB55401C236883424F
:103A5000EADC1D462BE100208DF80300206834E0ED
:103A6000A2686FF0030101EB8001515A22F8201087
:103A70006FF00102A16802EB80020AEB80038A5C0E
:103A8000CA54A2684FF0FF3709EB800307EB8007A9
:103A9000D15CD75DB94209D2A7EB01074FEAE77CB9
:103AA00007EB9C7C0BEBAC0739440AE00BD9A1EB8C
:103AB00007074FEAE77C07EB9C77A1EBA701A1F191
:103AC0000101D15401E005F10105401EC8D1A168F2
:103AD000BDF800000880A1689DF802008870A06809
:103AE0009DF80320C178914209D2A2EB01024FEA6E
:103AF000E27302EB93730BEBA30211440AE07AD951
:103B0000A1EB02024FEAE27302EB9372A1EBA20176
:103B1000A1F10101C170CAE000007F4300007042C2
:103B20000800002028600240400F00104FF0000005
:103B30008DF803004FF00000CC463AE0A2684FF049
:103B4000040101EB8001515A22F820104FF00602C7
:103B5000A16802EB80024FF007078B5C0AEB800242
:103B600007EB80078B54A2680CEB8003D15CD75D18
:103B7000B9420DD2A7EB01074FEAE77807EB987837
:103B80000BEBA80739440EE043E06CE045E06DE044
:103B90000BD9A1EB07074FEAE77807EB9877A1EB82
:103BA000A701A1F10101D15401E005F1010500F1E6
:103BB00001002168A1F101018142BFDCA168BDF8CB
:103BC000002021F82020A3680AEB80019DF8022044
:103BD0005A54A26809EB80039DF80310D05C884218
:103BE0000AD2A1EB00014FEAE17701EB97770BEBEB
:103BF000A70108440BE059E058D9A0EB01014FEAB6
:103C0000E17701EB9771A0EBA100A0F10100D05486
:103C10004DE04FF000008DF803004FF0000713E077
:103C20004FF0040101EB870800EB080100EB87006F
:103C30001EF0AFFE30B1A06800EB87024044006880
:103C4000106000E06D1C7F1C2068401EB842A06818
:103C5000E6DC00EB870069461EF09BFE30B3A068EF
:103C600000EB87001FE000208DF80300276812E0BA
:103C70006FF0030101EB870800EB080100EB870000
:103C80001EF087FE30B1A06800EB87024044006858
:103C9000106000E06D1CA0687F1EE9D169461EF02F
:103CA00078FE18B1A0680099016000E06D1C207BCF
:103CB00028B12068761CA84201D10020207354F856
:103CC000140F00287FF462AE16B10298FFF7CBFD07
:103CD00000204EE62DE9F04F064699B0FA48002440
:103CE00001E00C44143001680029FAD1F748651C42
:103CF000854201D3AFF3008005EB450040011EF083
:103D000044FE306004EB44004101012000EB9100CF
:103D10007060ED4D002013E0B8F1804F01D3AFF398
:103D200000804FEA88001EF030FEA86031680BEB7F
:103D30004B0001EB4010286155F8141B01EB0B0000
:103D4000D5F80080DFF888930427DFF888A30024E3
:103D50008346B8F1000FDFD10A23DFA23146AFF26C
:103D6000E93002F08BF901258DF8635002208DF8BF
:103D700060008DF8624003208DF861002A46022120
:103D8000484609F06EF917A94846179709F0E0F878
:103D9000684608F09DFF0121480509F0A7FA504642
:103DA00008F0E6FE306802904020039070680490AE
:103DB0006804CDE90940C011CDE9054080000790B5
:103DC000800008904FF0C06000900B97CDE90C5434
:103DD000C34801900E946946504608F051FFAF0762
:103DE000384609F049FB0121084609F09DFA0FA861
:103DF00009F000FC4A20ADF83C401090ADF83E4080
:103E00000FA9384609F0C6FBADF84A506020ADF85E
:103E100048001494ADF8544012A9384609F0A4FCA7
:103E20000821384609F089FD0121384609F01CFFB8
:103E30000121384609F026FC00220F21384609F0FE
:103E400055FF01221102384609F054FF19B03046DF
:103E5000BDE8F08F70B505460146AFF2E54002F0CF
:103E60004EF928681EF08DFD0024974E06E000BF35
:103E700006EB800080681EF084FD641C04EB840067
:103E800056F820100029F3D1284670BD70B50846B9
:103E900094A118F007F801788B4C342913D008DC72
:103EA000302910D031290ED032290CD0332908D135
:103EB00009E0352907D0662914D06C2926D072294B
:103EC00038D0032070BD012517F00EFF00EB8000F5
:103ED00004EB800083A10573002017F0E3FF0028A6
:103EE000F2D13AE07FA1002017F0DCFF03250AE0C1
:103EF00017F0FAFE00EB800004EB80007AA1057356
:103F0000002017F0CFFF0028F2D126E075A1002095
:103F100017F0C8FF09250AE017F0E6FE00EB800065
:103F200004EB800070A10573002017F0BBFF002890
:103F3000F2D112E06BA1002017F0B4FF0A250AE0CD
:103F400017F0D2FE00EB800004EB800066A1057341
:103F5000002017F0A7FF0028F2D1002070BD70B537
:103F6000084660A117F09EFF0178574C342913D002
:103F700008DC302910D031290ED032290CD0332959
:103F800008D109E0352907D0662915D06C2927D03A
:103F9000722939D0032070BD5FF0020517F0A4FE2E
:103FA00000EB800004EB80004EA10573002017F0A9
:103FB00079FF0028F2D13AE04AA1002017F072FF01
:103FC00004250AE017F090FE00EB800004EB80006F
:103FD00045A10573002017F065FF0028F2D126E007
:103FE00040A1002017F05EFF0B250AE017F07CFED1
:103FF00000EB800004EB80003BA10573002017F06C
:1040000051FF0028F2D112E036A1002017F04AFF3C
:104010000C250AE017F068FE00EB800004EB80003E
:1040200031A10573002017F03DFF0028F2D10020D8
:1040300070BD70B50A4605462CA1104617F032FF38
:10404000017833290ED006DC30290BD0312909D074
:1040500032294DD106E0342904D0352902D0742903
:1040600046D11EE017F040FE044620A1002017F0C4
:1040700019FF17F039FE0146134804EB840200EBE8
:1040800082040020A18019A117F00CFF17F02CFE6C
:10409000A07116A1002017F005FF17F025FEE071B2
:1040A00010E012A1002017F0FDFE17F01DFE0446DF
:1040B000401FB0F5797F1BD22946AFF2457002F060
:1040C0003EF80461002070BD08000020ABAAAA02DF
:1040D000000002402860024057533238313200005D
:1040E0004C000040202C00002C0000002C20000080
:1040F0000220E8E730B5A7B005460C4623A801F03A
:10410000E3F9002140F8881C40F88C1D00F10801FB
:10411000C0F888104C4904EB840001EB80044BA0EC
:10412000E379A279B4F9041017F038FB4D4817F081
:104130007EFE0146684601F068FA4B49421A884201
:1041400029D00ADCB0F1FF3F5ED01B284DD0474993
:1041500040180BD0012857D113E0012A23D044483E
:10416000101829D0B0F5807F4ED12DE0B4F90400AD
:10417000411CB1F5B47F02DB40F2671009E0401C3E
:1041800007E0B4F90400411E012901DA012000E032
:10419000401EA08020E0A079411CFF2901D9FF200A
:1041A00008E0401C06E0A079411E012901DA012047
:1041B00000E0401EA0710FE0E079411CFF2901D909
:1041C000FF2008E0401C06E0E079411E012901DAE9
:1041D000012000E0401EE071E379A279B4F90410F7
:1041E00024A017F0DBFA002008E027B0002030BD43
:1041F000A168626801EB8001401C0A60216881426D
:10420000F6DC2846FFF72FFB1F490A2001F0DBFFF1
:104210008CE77CB50E4600240B4D0DE005EB8002CB
:10422000D1799079CDE90001B2F90430224617A185
:10423000304617F0BFFA641C04EB840055F82010D8
:104240000029EBD17CBD0000080000200A0D485376
:10425000423A25642C25642C25642020202020202F
:104260000000000018010020435B1B00BFA4E4FF16
:10427000C525C0E40D4853423A25642C25642C25FD
:104280006420202020202000BB6000083D636F6C6C
:104290006F722025642C25642C25642C25640D0A5E
:1042A000000000000B480168491C01604FF0FF301E
:1042B000014602F0FDBD10B5074803F050FC002890
:1042C000054803D0BDE8104005F069B8BDE81040CE
:1042D00003F0F9B8AC0000206C0D00202DE9F04F80
:1042E0000546B348B34F00240168DFF8CCB29BB059
:1042F0004FF480764FF00A084FF400694FF0030A3C
:1043000000297DD1056007F03BFE0121304609F010
:1043100015F817A807F07CFE17941894199417A89D
:104320001A9407F064FE01214FF4C00008F0DEFF8C
:10433000384608F01DFCA04802A94C30CDE90040E9
:104340009E4881E81101B000CDF81C90CDE90540F0
:10435000C000CDE9080600010A9001260420CDE93D
:104360000C640B90694638460E9408F089FC0121D4
:10437000384608F0BEFC15A808F03BFE0E208DF86C
:1043800058A0159057468DF85B4015A98C4808F049
:10439000DFFD15A98B48159708F0DAFD1F20159051
:1043A00015A9894808F0D4FD0FA807F016FE8DF86E
:1043B00040600F948DF84160CDF84C9011948DF8C9
:1043C00050800FA95E46584607F0E6FD01220523FE
:1043D0001146304607F055FE0222052311463046AD
:1043E00007F04FFE032205231146304607F049FE31
:1043F000052304220821304607F043FE052300E090
:1044000033E01A460921304607F03BFE0523062219
:104410000A21304607F035FE052307220B213046DE
:1044200007F02FFE052308220C21304607F029FE55
:10443000052309220D21304607F023FE05230A2219
:104440000E21304607F01DFE0121304607F096FE92
:104450000121304607F0E2FD0121304607F084FEDD
:10446000304607F048FE6C602C601BB02846BDE863
:10447000F08F5248554A143002F1100100881BF0A9
:10448000BFBF70B54D4C4D481434002501882288BB
:10449000891ACB1701EB137102EB2111218041889E
:1044A0006288891ACB1701EB137102EB211161802D
:1044B0008188A288891ACB1701EB137102EB2111B5
:1044C000A180C188E288891ACB1701EB137102EB36
:1044D0002111E18001892289891ACB1701EB13711F
:1044E00002EB2111218141896289891ACB1701EBE5
:1044F000137102EB211161818189A289891ACB177D
:1045000001EB137102EB2111A181C189E289891AA2
:10451000CB1701EB137102EB2111E181018A228A91
:10452000891ACB1701EB137102EB21112182408A0A
:10453000618A401AC21700EB127001EB20106082F2
:104540004FF480711E4808F069FD30B110211D48FC
:1045500008F064FD08B14FF400751D480068C828D4
:1045600024DDA08842F2C861A0F52E408C38884234
:1045700001D945F00105E08844F61C21A0EB41007B
:10458000884201D945F00205208942F61201A0F5C2
:1045900034405138884201D945F00405FFF769FFDE
:1045A00041F28831884201DD45F01005284670BD92
:1045B000940000207064024000200140A007002009
:1045C000000002400004024000080240E46A0208C1
:1045D000AC00002010B502688A1A026002D502F50C
:1045E000803202601446642A17DDD0F8882000EB80
:1045F000820293689460D0F88820521CD41702EB92
:10460000D46424F01F04121BC0F8882000EB82023F
:1046100094681B1B0468234493600160FD4909688A
:104620003231416010BD70B5FB4D0221284609F0C2
:104630004EFBFA4C01280AD1284609F0F3FA01464C
:104640002068FFF7C7FF0221284609F04CFB042130
:10465000284609F03CFB01280AD1284609F0E4FA73
:1046600001466068FFF7B6FF0421284609F03BFBCE
:104670000821284609F02BFB01280AD1284609F019
:10468000D5FA0146A068FFF7A5FF0821284609F0E2
:104690002AFB1021284609F01AFB01280CD12846D4
:1046A00009F0C6FA0146E068FFF794FF2846BDE826
:1046B0007040102109F017BB70BD2DE9F04F8BB091
:1046C000834602260327D64DDFF85883DFF858A328
:1046D00000244FF0010908A808F08BFC8DF8276032
:1046E0008DF824608DF826408DF82570012209216F
:1046F000284608F0B6FC01220B21284608F0B1FC40
:1047000001220D21284608F0ACFC01220E2128468A
:1047100008F0A7FC4FF4D440089008A9284608F0F8
:1047200017FC032206214546404608F09AFC032266
:104730000721284608F095FC03220821284608F0A6
:1047400090FC03220921284608F08BFC4FF470707E
:10475000089008A9284608F0FBFB8DF827908DF8F3
:1047600024608DF826404D468DF8257002220C21DC
:104770005646504608F075FC4FF48050089008A942
:10478000304608F0E5FB05A808F034FF684609F05C
:1047900051F8A64EA649A74F30688DF81E50B0FBC1
:1047A000F1F0401EADF814002020ADF816004FF4D3
:1047B000FA600690384608F05FFE0121084608F0CE
:1047C000BDFD05A9B846384608F0E4FE9A4F3846C4
:1047D00008F052FE0121022008F0B0FD05A9BA46FA
:1047E000384608F0D7FE954F384608F045FE0121BF
:1047F000042008F099FD05A808F0FCFEADF814406F
:10480000ADF8164030684CF25031B0FBF1F0069034
:1048100005A9B946384608F0BDFEADF8025060263D
:10482000ADF800600294ADF80C406946474640463A
:1048300008F032FF6946D046504608F02DFF694621
:10484000384608F091FF6946404608F08DFF6946FA
:10485000384608F04DFF6946C246404608F048FF1A
:104860006946B846384608F0B9FF6946574650468B
:1048700008F0B4FFADF802500294ADF80C40ADF86A
:10488000006069464C46484608F006FF012145464F
:10489000404609F0E9F90121384609F0E5F901211E
:1048A000204609F0E1F90121284608F0EBFE01213C
:1048B000384608F0E7FE0121204608F0E3FE2021FB
:1048C000584617F069FC20210BF1200017F064FC1A
:1048D0000BB05846BDE8F08F70B5594C20680028E1
:1048E00006D140201EF06AF80546FFF7E6FE20607C
:1048F00070BD10464F4A08291AD2DFE801F00406BD
:10490000080A0C0F12155063704790637047D0630C
:104910007047106470474849343107E046493831E0
:1049200004E045493C3101E04349403108607047AB
:104930004FF0FF3070473F4808291AD2DFE801F0F6
:104940000406080A0C0F1215406B7047806B704705
:10495000C06B7047006C70473748343007E036480A
:10496000383004E034483C3001E0334840300068DF
:1049700070474FF0FF307047F0B50024254E0546D4
:104980004FF4E16C4FEA040755F82400B0B13168E8
:10499000884213DC45F8247021462846FFF7CBFFF8
:1049A000604501D1002205E021462846FFF7C3FFFC
:1049B00020B9624621462846FFF79BFF05EB84019C
:1049C000086A18B13268904200DC0F62641C082C3F
:1049D000DADBF0BD50F8212022B900EB8100006A3B
:1049E000002800D001207047F0B51E460C46054651
:1049F000059FFFF77EFF07480168314445F8241002
:104A0000006805EB84013844086221462846BDE869
:104A1000F04090E7AC00002000040040F0070020C8
:104A20000010024000080240000C0240600100201B
:104A300000093D0000000140000401400008004062
:104A4000980000202DE9F04F634E044600253068A1
:104A500089B08B46002870D1706800286DD1B0688D
:104A600000286AD1F0680227DFF87081DFF870A1B2
:104A70004FF00109002860D103A808F0BAFA8DF8B8
:104A800010708DF8115002220621404608F0E9FA14
:104A900002220721404608F0E4FAC0208DF8139066
:104AA0000390C8468DF8107003A94C4808F050FADE
:104AB0005746504608F0E0FC0121022008F034FC83
:104AC00005A808F097FD684609F070F83C20ADF89D
:104AD00014004FF6FF700690ADF8165005A9384641
:104AE00008F058FD684609F061F80A20ADF80200A8
:104AF0000F20ADF80480ADF80800ADF80650ADF811
:104B000000506946384608F0FFFF0420ADF8000069
:104B10006946384608F0F8FF0121384608F0B2FD32
:104B200001220221384609F0BEF80122042138464C
:104B300009F0B9F81D2000F038F846F82B40656000
:104B400020202560C4F8880005E000BF04EB800049
:104B50008560D4F88800401EC4F88800411CF5D157
:104B6000204609B0B6E610B504461D2000F028F82E
:104B7000204610BD70B504461D2000F021F8D4F881
:104B8000880004EB80008068C11700EBD1604511FC
:104B90001D2000F00AF8134960680968884202DAAB
:104BA0004FF0FF3070BD284670BD00F01F0201219C
:104BB00091404009800000F1E020C0F800117047EA
:104BC00000F01F02012191404009800000F1E02027
:104BD000C0F8801170470000F0070020000002407C
:104BE00000040040AC00002000B585B014216846E8
:104BF00017F0D2FAFC481422694600680068406841
:104C000002F09AF80100F94804D0694607F0A4FCC4
:104C100005B000BD0022012107F012FEF8E7F248BE
:104C20000068E1E7F0480068DEE700B585B06A4655
:104C30000021EE4807F020FDEB4814226946006889
:104C40000068006802F05BF8E2E7E7480068ECE71C
:104C5000E5480068E9E7E548001D016841F0040106
:104C600001607047E248016841F00401016070474B
:104C70002DE9F04FDFF870830746DE4DD8F80000CD
:104C8000DFF86893012402268BB08B464FF0000AB0
:104C900000287DD108A808F0ACF98DF824608DF8C3
:104CA000274008A92846089408F052F98DF82640B4
:104CB00008A92846089608F04BF909220021284641
:104CC00008F0CFF909220121284608F0CAF901218C
:104CD000480608F029FB0121880608F025FB04A8F6
:104CE00007F0E0FB484607F0F5FA8DF818A08DF8BC
:104CF00019A08DF816A08DF81AA04FF4FA60554649
:104D00008DF817408DF81B40014602F050F83860CE
:104D100003214FF47E4AC8F80070BBF1000F02D0A7
:104D20008DF8124001E08DF81250884608468DF843
:104D3000131009218DF814108DF815000420ADF81A
:104D4000100004A9CB46484607F0D7FA4FF480403C
:104D50008DF80B50ADF800008DF80C40ADF8085000
:104D6000ADF804A08DF80D40D146ADF80250ADF875
:104D700006508DF80A50684607F033FB4FF4904018
:104D8000ADF80000ADF804908DF80A40684600E0E8
:104D900041E007F026FB44F26010ADF80000ADF8EA
:104DA00004908DF80A60684607F01BFB4FF48060A2
:104DB000ADF800004FF6E070ADF804008DF80A8001
:104DC000684607F00EFB4FF4C06007F081F88DF8DD
:104DD0001D408DF81E608DF81F4014208DF81C00BA
:104DE00007A807F07AF840208DF81C0007A807F004
:104DF00074F813208DF81C0007A807F06EF83F2008
:104E00008DF81C0007A807F068F801220221584617
:104E100007F016FD7D600BB03846BDE8F08F724894
:104E20000068704770B50446D0F84C0100280ED0D9
:104E300002F02EF90546704816F0F9FF01462046AB
:104E4000FBF7C2FB2846BDE8704002F021B970BDF7
:104E500073B504460068406801F084FF634D002884
:104E600024DC62480830006810F0E05F1ED028465D
:104E7000019907F071FB01221146284607F0E0FC7A
:104E80005E48400100F108500078002822D05C48BC
:104E9000016842F2107091FBF0F200FB12110198D0
:104EA000026858A016F07AFC00240CE02068042266
:104EB00001A9406801F023FFDDE72044C17A55A035
:104EC00016F06CFC641C0198817AA142F5DC53A0B9
:104ED00016F064FC7CBDF0B58DB005460C4614217F
:104EE00003A817F059F9686800B32868406801F012
:104EF00039FF296849684969081A142816D9142104
:104F000008A817F049F940F24B2008906868082279
:104F10000DF12B01406801F00FFF10F0FF008DF83C
:104F20002A0003D008A92846FFF792FF28680068E6
:104F300001F018FF002848D02868142203A900684F
:104F400001F0FAFE002840D02C4803AE400100F1E9
:104F500008500079D0B12A48006842F2107190FBE5
:104F6000F1F201FB12012EA0039A16F017FC0027A4
:104F700005E0F019C17A27A016F010FC7F1C9DF8FF
:104F80001600B842F5DC25A016F008FC039840F2A4
:104F90000222A0F20221904272D018DC202870D0A8
:104FA000B0F5007F44D0A0F5007001380DD19DF818
:104FB00017000A2800D30A20C4F8FC009DF8180046
:104FC0000A2800D30A20C4F800010DB0F0BD092959
:104FD0007ED00A297DD04929F7D1A06802F058F87F
:104FE00005460024EAE000009C0000200064004028
:104FF00004680040000C024018010020000000205E
:10500000AC0000200D0A3A253034643E2530325879
:105010002000000020253032580000000D0A3A0020
:105020000D0A3A253034643C253032582000000007
:105030009DF8160018B39DF81720B04D00203AB126
:10504000E914012A1ED0022A31D0032A33D15EE0AE
:1050500084F8C802A4F8C90202A81FF07AFF024629
:10506000A7A101A820F0DAF801462046FCF7A8F82D
:1050700001A820F044F91021284607F0E3FF1DE0C5
:105080005CE0BCE094F8C80208B1022813D101200A
:1050900084F8C80209A81FF05CFF02469CA108A87A
:1050A00020F0BCF801462046FCF78AF82BE094F883
:1050B000C802012818D02046FCF784F8142297492A
:1050C00008A817F00AF8B4F8C802ADF82B0001E000
:1050D0004AE07BE094F8CA028DF82D00904808A9B8
:1050E0000068FFF7B5FE70E7022084F8C80209A83F
:1050F0001FF02FFF02468BA108A820F08FF8014671
:105100002046FCF75DF808A820F0F9F8D6E7032060
:1051100084F8C80209A81FF01CFF024684A108A851
:1051200020F07CF801462046FCF74AF808A820F059
:10513000E6F81021284607F087FFBFE794F8E8005B
:1051400020F0030084F8E8009DF817100029CAD069
:10515000012906D00229C6D140F0020084F8E800F7
:1051600033E740F00100F9E79DF81600B0B1686838
:1051700058B98021084601F01AFE00236FA221468B
:105180006860AFF25F3000F079FF68689DF8162024
:105190000DF11701006801F0B2FD16E72146AFF2EC
:1051A0007B3000F0ACFF686801F028FE68600CE717
:1051B00030196549C07A16F03CFE641C9DF8160053
:1051C000A042F5DC284601F063FFFEE65F48006878
:1051D00001F05EFF054600240CE05D490A2000F066
:1051E000F2FF00E037195849F87A16F022FE401C09
:1051F000F3D0641C9DF81600A042F3DCE2E79DF8B2
:105200001700AA28ACD1FEE773B586B00646142174
:10521000684616F0C1FF102207A9079816F071FD25
:1052200000250DF10B04009001E0491C079107993E
:1052300008782028F9D08DF80A500BE0102207A931
:1052400016F05FFD9DF80A1008559DF80A00401CF5
:105250008DF80A000798017819B19DF80A100829FD
:10526000ECD369463046FFF7F3FD07980078002835
:10527000DDD108B070BD73B586B00646142168460E
:1052800016F08AFF102207A9079816F03AFD314D53
:10529000009001E0491C0791079908782028F9D06F
:1052A00000208DF80A000DF10B040BE0102207A975
:1052B00016F027FD9DF80A1008559DF80A00401CBD
:1052C0008DF80A000798017819B19DF80A1008298D
:1052D000ECD300220221284607F0B2FA30681422EB
:1052E0006946006801F00BFD01220221284607F003
:1052F000A7FA079800780028CED1BAE70004024048
:10530000407374616E6462792E6C65640000000005
:105310004072656164792E6C65640000A097020894
:105320009C000020406163746976652E6C656400A2
:10533000406572726F722E6C6564000043414E20AE
:10534000636F6E736F6C650014010020C000002055
:10535000BB600008006400403EB5534C01211020A2
:1053600007F0E2FF684608F045F9504850490068E8
:10537000B0FBF1F001900020ADF80000ADF808009E
:10538000ADF802006946204608F004F920212046C5
:1053900008F00BFD0121204608F074F93EBD30B540
:1053A00093B000240420CDE90F04424D0FA9102032
:1053B000129407F03FFB4FF0606000903E48019070
:1053C0003E480290402003906420CDE90404281553
:1053D000069040000790800008904011099040021C
:1053E000CDE90A040120CDE90C040E9469462C464F
:1053F000284607F045FC0121102007F03DFB012164
:10540000204607F076FC0121102007F02BFB01213C
:10541000102007F075FB0121102007F02DFB13B0C1
:1054200030BD70B50546264886B00024016840F6B8
:10543000FF76A9BB056004A807F0DBFD684607F00E
:105440000BFB03208DF81400302004908DF81740DA
:1054500004A91C4807F07CFD0121480707F064FF00
:1054600007F0DCFA019469460020039407F0E2FAA1
:105470000121002007F0F6FA34463146002007F0FB
:105480001DFB2146002007F020FB6946102007F095
:10549000D1FA012007F0FDFA0121102007F0E2FA0D
:1054A00006B0284670BD00000010004060010020DA
:1054B00050400100A0600240187400400008002025
:1054C000A0000020000002402DE9FC470546002610
:1054D00001242D4F4FF47048DFF8B090684607F074
:1054E00088FD18208DF8044000908DF8066069460C
:1054F000384607F02DFD1821384607F0A5FD68460F
:1055000007F077FD8DF804408DF806408DF80740D0
:10551000444669464F464846CDF8008007F018FDDE
:105520002146384607F08EFD3846AE6007F07DFD17
:1055300000F46040686028602846BDE8FC8770B5CC
:10554000124E0446304607F070FD00F4604160687A
:105550000F4D814209D0304607F067FD00F46040EE
:10556000606028681430A0600BE0A16849B12A6827
:10557000914206DA0021A1602168884201D02060B2
:1055800070BD4FF0FF3070BD0004024000080240C3
:10559000AC00002070B5044608300D460A2929D019
:1055A00005DCB5F1FF3F25D0082D04D109E00D2D14
:1055B00012D07F2D05D07F2D14D92EA016F0EEF835
:1055C00018E0D4F88810814214D0491E2BA0C4F8EA
:1055D000881016F0E3F80DE054F8882F00211170C0
:1055E000206070BD26A016F0D9F854F8880F411C31
:1055F00021600570002070BDD0F888007047214AF6
:105600001268114449424160704730B41D4C4268F1
:105610004D1C4FF0000310D0002A1DDD02687E29CA
:1056200041EA0222026014D0412912D0422910D04E
:1056300043290ED044290CD017E0002A15D001DAF6
:10564000C2F1000221688A420FDA4360006830BC70
:10565000704743601046FAE71B2902D043600846B2
:10566000F5E72268521DC0E9001230BC8C30FFF70C
:1056700066BF00003C25583E0000000008200800DE
:1056800025630000AC0000202DE9F04F01272DED2F
:10569000048B81B0984691468A4683469FEDFE8BE7
:1056A0003D4600240E9E33E015EA080F2ED1711EF0
:1056B000894525DA384620F076FA41EC190B08EBDB
:1056C000050309F10102514658460096FFF7DCFF39
:1056D00006FB04910AEBC10090ED001B51EC100B8E
:1056E00053EC112B20F0C6FA53EC192B20F0C2FA20
:1056F00053EC182B1FF0AAFF41EC180B7F4205E07A
:1057000006FB04910AEBC10090ED008B6D00641C58
:10571000B442C9DB01B0B0EE480AF0EE680ABDEC55
:10572000048BBDE8F08F70B504468D00C4E9041207
:105730004D434FF00056B54201D3AFF30080E8006F
:1057400005461DF022F92A46002116F0F8FC2060DB
:1057500020694500B54201D3AFF30080E80005465B
:105760001DF013F92A46002116F0E9FC606020695B
:105770004500B54201D3AFF30080E80005461DF0B7
:1057800004F92A46002116F0DAFCA061204670BD1B
:1057900070B50446086920618500496945434FF0AA
:1057A00000566161B54201D3AFF30080E8000546C1
:1057B0001DF0EBF82A46002116F0C1FC206020699C
:1057C0004500B54201D3AFF30080E80005461DF067
:1057D000DCF82A46002116F0B2FC60602069450022
:1057E000B54201D3AFF30080E80005461DF0CDF8C7
:1057F0002A46002116F0A3FCA061204670BD10B51A
:10580000044600681DF0BDF8A0691DF0BAF8606894
:105810001DF0B7F8204610BD2DE9F04704462DEDE8
:10582000088BB0EE41AAF0EE61AAB0EE409AF0EE1D
:10583000609A08201DF0C2F805462069000120F09A
:10584000C9F9C5E90001206870B1606860B1A0695C
:1058500050B19FED938B606958B101284FD0022859
:105860001BD0032818D12EE0BDEC088B0020BDE82A
:10587000F08785ED008B01260BE03046B0EE490A3B
:10588000F0EE690A1DF062F805EBC600761C80EDAB
:10589000000B2069B042F0DC87E085ED008B01262B
:1058A0000DE03046B0EE490AF0EE690A1DF04EF800
:1058B0001DF09AFA05EBC600761C80ED000B2069FE
:1058C000B042EEDC71E085ED008B012613E030463E
:1058D000B0EE490AF0EE690A1DF038F81DF084FABE
:1058E00053EC102B51EC180B1FF06CFF05EBC602AC
:1058F000761CC2E900012069B042E8DC55E00026D0
:105900009FED69BB01271DE0304620F04CF941ECCA
:10591000180B53EC1B2B51EC190B20F0ABF994ED49
:10592000021B53EC112B1FF04DFF53EC182B20F0F2
:10593000A1F941EC100B1DF0F3F905EBC600761C44
:1059400080ED000B206900EBD07007EB6000B042E7
:10595000DADC012622E0304620F025F941EC180B74
:1059600053EC1B2B51EC190B20F084F994ED021B26
:1059700053EC112B1FF026FF53EC182B20F07AF973
:1059800041EC100B1EF0B0FA206900EBD07006EB72
:10599000600005EBC000761C80ED000B206900EB79
:1059A000D07007EB6000B042D5DC00273EE0002657
:1059B00005EBC7091EE000BF05EBC60099ED001B13
:1059C00090ED000B51EC110B53EC102B20F052F921
:1059D00041EC100B08FB0760216801EBC00851EC9B
:1059E000100B98ED001B53EC112B1FF02FFE761CB3
:1059F000C8E9000120698046B042DDDC99ED000B6A
:105A000053EC1A2B51EC100B20F034F941EC100B35
:105A1000606800EBC70651EC100B96ED001B53ECD1
:105A2000112B1FF013FEC6E900017F1C2069B8424C
:105A3000BDDC28461CF0A5FF206890ED000BBDECF6
:105A4000088B51EC100BBDE8F04720F04FB880ED0B
:105A5000022BE1E670B504462DED028B82B00168A1
:105A6000C9B16068B8B1A069A8B1206900230090ED
:105A70001A462046FFF708FEB0EE408AF0EE608A34
:105A80009FED050B51EC180B53EC102B1FF0F2FFA0
:105A900017D020680CE014E00000000000000000B7
:105AA000000000000000F03F182D4454FB21194075
:105AB00090ED000B51EC100B20F018F82169884292
:105AC00004DA002002B0BDEC028B70BD08201CF08F
:105AD00075FF05462069404320F065F80026C5E9BA
