:020000040800F2
:10000000B8B30020692C0008712C0008732C00087C
:10001000752C0008772C0008792C000800000000DF
:100020000000000000000000000000007B2C000821
:100030007D2C0008000000007F2C0008A588000827
:10004000832C0008832C0008832C0008832C0008D4
:10005000832C0008832C0008832C0008832C0008C4
:10006000832C0008832C0008832C0008832C0008B4
:10007000832C0008832C0008832C0008832C0008A4
:10008000832C0008832C0008832C000839550008B5
:1000900015550008832C000825550008832C0008FE
:1000A000832C0008832C0008832C0008832C000874
:1000B000832C0008398A0008832C0008832C000850
:1000C000832C0008832C0008832C0008832C000854
:1000D000832C0008832C0008832C0008399000082A
:1000E000832C0008832C0008832C0008832C000834
:1000F000832C0008832C0008832C0008832C000824
:10010000832C0008832C0008832C0008832C000813
:10011000832C0008832C0008832C0008832C000803
:10012000832C0008832C0008832C0008832C0008F3
:10013000832C0008832C0008832C00086D550008D0
:1001400049550008832C000859550008B17C000867
:10015000832C0008832C0008832C0008832C0008C3
:10016000832C0008832C0008832C0008832C0008B3
:10017000832C0008832C0008832C0008832C0008A3
:10018000832C0008832C0008DFF814D004F004FD51
:1001900003F046F9004800473190010804F0E8F800
:1001A000B8B30020FEB442464B4654465D463EB4CA
:1001B00002F087FD3EBC90469946A246AB46FEBC87
:1001C00000F032F8704700BF80EC200B7047C0ECA5
:1001D000200B704790EC200B7047D0EC200B704741
:1001E00085460D98DDF838E00F9B5DF8042B20E97B
:1001F0000C009DE8FE1F854601BD4DF808ED0DF190
:10020000080E4DF804ED2DE9FF1F002102B46946E8
:1002100081B004F00CFCDDF840E012B07047000043
:10022000D0D2010078DA01004DF808ED0DF1080E8A
:100230004DF804ED2DE9FF1F002102B4694681B09D
:1002400004F05CBC2DE9F0410446007900B3256B55
:1002500004F13401607801232A460F4618F0C2FCED
:1002600010B10120BDE8F08100202071606AE169D1
:10027000281A88420CD2E67808E0E0690123054498
:1002800060782A46394618F0ADFC761E022EF4D26C
:100290000020E7E770B50446006B0D46A8420ED07B
:1002A0002046FFF7CFFF38B9607801232A4604F1D2
:1002B000340118F051FC08B1012070BD2563002005
:1002C00070BD70B50446FFF7BDFF05004FD1207823
:1002D000032845D16079012842D1420204F134005B
:1002E0000021064602F0CBFB552084F83202AA20FA
:1002F00084F83302522084F8340084F835006120F9
:1003000084F83600412184F83710722284F81822CC
:1003100084F8192284F81A1284F81B02206984F8E0
:100320001C02010A84F81D12010C84F81E12000E32
:1003300084F81F02E06884F82002010A84F8211280
:10034000010C84F82212000E84F82302226A012391
:10035000521C22636078314618F044FC0020607122
:1003600000226078114618F0C9FB00B1012528462B
:1003700070BD8269891E921E8A4201D80020704792
:10038000C26A807801FB002070472DE9F0410D46DC
:100390000446022909D3A069A84206D92078012879
:1003A00005D0022827D0032831D001205AE7606AFF
:1003B00005EB550600EB56212046FFF76BFF68BBA7
:1003C000C6F308002044761C90F83470606A00EB95
:1003D00056212046FFF75EFF00BBC6F3080020440D
:1003E000E90790F8340047EA002001D0000939E716
:1003F000C0F30B0036E7606A00EB15212046FFF7DB
:1004000049FF58B9E8B204EB4000808E2AE7606AE1
:1004100000EBD5112046FFF73DFF10B14FF0FF3044
:1004200020E740F2FF1000EA8500204490F83410E5
:10043000D0F8350041EA002020F0704012E72DE9A5
:10044000F04717460D460446022902D3A069A84288
:1004500002D80220BDE8F087217807F0FF084FF0AE
:100460000109012907D0022937D0032946D00220EB
:1004700084F80490EEE7606A05EB550600EB562120
:100480002046FFF707FF0028F2D1C6F308002044FA
:100490003430E90703D0017868F31F1100E03946D2
:1004A000017084F80490606A761C00EB56212046A7
:1004B000FFF7F0FE0028DBD1C6F3080121443431F8
:1004C000EA0702D0C7F3071205E00A78C7F303234F
:1004D00002F0F0021A430A70CAE7606A00EB1521C5
:1004E0002046FFF7D7FE0028C2D1E9B204EB410154
:1004F0003A0A81F8348081F83520B9E7606A00EB68
:10050000D5112046FFF7C6FE0028B1D140F2FF11F9
:1005100001EA85010A194FF07043D2F8351003EA59
:100520000121394302F8341F0B0A53700B0C9370EE
:10053000090ED1709CE72DE9F0410F4606460229CD
:1005400016D3B069B84213D900251FE039463046AA
:10055000FFF71BFF04001CD0012C09D0601C09D040
:10056000002239463046FFF76AFF050011D103E04B
:1005700002250EE001250CE03069411C05D0401C2D
:100580003061707940F0010070712746B069B8425F
:10059000DCD8284666E62DE9F0410F00054605D077
:1005A000FFF7F3FE022808D201205BE6EE6816B1E1
:1005B000A869B04207D8012605E0411CF5D0A96919
:1005C0008142F2D83E463446A869641CA04202D853
:1005D0000224022E0AD321462846FFF7D6FE38B160
:1005E000411CE2D00128E0D0B442EDD1002039E630
:1005F0006FF0704221462846FFF721FF30B957B10E
:10060000224639462846FFF71AFF20B101280DD0AF
:100610000124204626E6EC602869411CF9D0401EE2
:100620002861687940F001006871F2E74FF0FF340B
:10063000EFE770B5C18083680D460446012B34D0C6
:1006400020688169994230D923B90178032904D1FE
:10065000836A13B18078060110E00189A94224D988
:10066000806A11E0FFF791FE0346401C1BD0022B6D
:100670001BD320688069984217D9AD1B2068B5420A
:100680001946EFD2FFF775FEE36070B100EB15106D
:10069000206105F00F013422206802EB411108446B
:1006A0006061002070BD012070BD022070BD2DE989
:1006B000F041C6880446761C30040F46000C2CD04E
:1006C000206950B3310759D1401C2061E16820688E
:1006D00029B18278521E12EA161F04D04EE000891A
:1006E000B0421AD94AE0FFF750FE0546012818D952
:1006F000681C2FD020688169A94239D86FB1E168A0
:10070000FFF749FF05000AD0012D0AD0681C21D04F
:100710002068FFF797FDE8B905E00420A2E507206F
:10072000A0E502209EE520684FF4007200213430DD
:1007300002F0A5F929462068FFF71BFE2168002773
:100740004FF0010808630CE080F804802068FFF790
:1007500079FD08B1012085E52068016B491C7F1CEB
:10076000016320688178B942EED8016BC91B01632F
:10077000E56029462068FFF7FCFD2061E68006F071
:100780000F013422206802EB41110844606100200F
:1007900068E570B50E4604460021FFF74AFF88B9A8
:1007A000002521692068FFF775FD58B9616909784E
:1007B000E5290BD051B1002501212046FFF777FF35
:1007C0000028EED0042800D1072070BD6D1CB54272
:1007D000F2D170BD2DE9FC5F05460021FFF729FF2E
:1007E000002877D1FF204FF6FF7A00908146A5F8C8
:1007F00020A029692868FFF74DFD06000DD16C691E
:10080000207848B1E17AE52801F03F016DD00A0770
:1008100004D50F2969D107E0042671E00F2903D020
:10082000B9F1000F4AD04FE0E96989B3420606D515
:10083000627B009220F04000EA8881462A84484585
:1008400035D1627B0098824231D101912078A04657
:1008500020F04000401E00EB80010027DFF858B672
:1008600001EBC006012400BF1BF8071001EB0800D4
:10087000008874B102F0E4F90446FF2E17D2019803
:1008800030F81600761C02F0DBF9A0420FD102E02E
:100890002FE050450BD17F1C0D2FE5D398F80000B9
:1008A000400608D53CB1019830F8160018B1FF2079
:1008B00000F0FF091DE0A9F10100F9E7204602F070
:1008C0003EF9009988421BD0A869C17AC9070CD1AA
:1008D0000A2102E015E0491E06D314F8012B10F896
:1008E000013BD21AF7D000E052B14FF0FF09A5F852
:1008F00020A000212846FFF7DAFE06003FF479AF7A
:100900003046BDE8FC9F2DE9F05FFF248B4605468D
:10091000274604264FF6FF784FF0000963E0286869
:10092000FFF7B8FC060062D16869017859B1C27A54
:10093000E52902F03F0204D0082A06D0B446DC457F
:1009400006D0FF2441E0042651E04FF0010CF6E709
:100950000F2A01D0B4BB3FE04A0605D5477B21F002
:100960004001EA880C462A84A1422CD1417BB9423D
:1009700029D10178DFF840A501F03F01491E01EBC4
:10098000810202EBC1010022D5F81CC0012600BF84
:100990001AF8023003441B8836B1FF2913D22CF811
:1009A00011301E46491C01E043450CD1521C0D2A52
:1009B000EED30078400603D5FF2904D22CF811901D
:1009C000641E01E00CE0FF24E4B200212846FFF79A
:1009D0006EFE060007D00AE002F0B1F8B84208D077
:1009E000A5F8208005E02969002998D10EB1C5F845
:1009F00010903046BDE8F09F2DE9FF5F04460C22C1
:100A0000D4E906763946684602F031F89DF80B00C5
:100A1000810602D5062004B0ECE7C00718D00020FC
:100A2000F8720125E0612B4632466946384602F0ED
:100A300049F82046FFF7CEFE10B96D1C642DF2D3A5
:100A4000642D0BD00428E6D19DF80B00F872E66106
:100A50009DF80B0080070DD5002002E00720DAE7A3
:100A6000401C36F810100029FAD10D211930B0FBC6
:100A7000F1F600E0012631462046FFF78AFE050028
:100A800070D1761E5FEA060A53D0E1882046A1EBBA
:100A90000A01FFF7CEFD050064D1A06902F04FF80E
:100AA000039021692068FFF7F5FB05005AD16169C1
:100AB000D4F81C90039848730F20C8720020087364
:100AC00088760AF0FF0BC876ABF1010000EB8002DC
:100AD00002EBC00500234FF6FF7EF74E4A1C01E0F3
:100AE000604503D039F81500F4466D1CF75CC85515
:100AF00016F80380070A08F8027000B960465B1C0C
:100B00000D2BEDD3704502D039F8150008B94BF024
:100B1000400B81F800B021680120087100212046B7
:100B2000FFF7C5FD05001DD1AAF101005FEA000A2B
:100B3000B7D121692068FFF7ADFB050012D1202253
:100B40000021606901F09BFFD4E905010B2201F04F
:100B50008EFFA0696169C07A00F0180008732168EF
:100B600001200871284656E72DE9F041018C044622
:100B7000C688A1F57F40FF3800D131462046FFF7F7
:100B800058FD05001ED1E5274FF0010821692068B6
:100B9000FFF780FB050012D120220021606901F0DF
:100BA0006EFF60690770216881F80480E088B042B8
:100BB00008D200212046FFF77AFD0500E6D0042D7B
:100BC00000D10225284612E42DE9F0410C4601F13E
:100BD0000902016991B3002543696FF01A062E27B7
:100BE00059576D1C20291BD0052900D13146092DEC
:100BF00001D102F8017BA1F1410CBCF1190F0DD814
:100C000093F80CC0092D02D34FF0100801E04FF00B
:100C100008081CEA080F01D0203149B202F8011B74
:100C20000B2DDDD3D97A2172197FD3F81D5041EAFB
:100C300005212160198BA180D98AE1804FF000083D
:100C400082F80080A669002E1DD001690025C1B17F
:100C5000E169B1B1018CA1F57F42FF3A11D0C769BA
:100C60000BE0002101F0D2FF18B1E169491EA94251
:100C700001D8002505E070556D1C37F8020B0028DF
:100C8000EFD106F8058085E42DE9F84F89468046C6
:100C90000D6800E06D1C95F900002F28FAD05C2843
:100CA000F8D00024D8F81C702646A857761C80B2CD
:100CB000202818D32F2816D05C2814D0FF2C50D20F
:100CC000C0B2012101F0A2FF5FEA000A49D0BAF1E7
:100CD000800F04D2014679A001F0D9FEE8BB27F8C5
:100CE00014A0641CE1E7AA19C9F80020202801D249
:100CF000042500E000250021012C04D0022C2ED177
:100D000078882E2816D138882E2813D127F8141069
:100D10000020A04201D22E2200E02022D8F8181094
:100D20000A54401C0B28F4D3D8F8181045F02002C0
:100D30000A54BEE007EB440030F8020C20280DD026
:100D40002E280BD04CB127F814100B222021D8F8F4
:100D5000180001F094FE002607E002E0641E002C5B
:100D6000E8D10620BDE8F88F761C37F81600202859
:100D7000FAD02E28F8D01EB145F0030500E0641E1D
:100D80002CB107EB440030F8020C2E28F7D10020DC
:100D900082464FF0080B009037F8160006F1010666
:100DA0005FEA000924D0B9F1200F04D0B9F12E0F69
:100DB00004D1A64202D045F00305EDE7009858455E
:100DC00001D2A6421AD1BBF10B0F0FD0A64201D01F
:100DD00045F003050CD84FF0080000904FEA8A60F8
:100DE00026464FF00B0B4FEA106AD5E745F0030596
:100DF000D8F818000178E52939D03AE04846B9F129
:100E0000800F11D3002101F001FF5FEA000906D035
:100E10002949803901EB090010F8800C814645F022
:100E20000205B9F1000F04D0014627A001F02FFE02
:100E300020B14FF05F0945F003050FE0A9F1410033
:100E4000192802D84AF0020A08E0A9F1610019281D
:100E500004D841304AF0010A1FFA80F9D8F8182066
:100E6000009902F801900098401C009094E7052139
:100E70000170BBF1080F03D14FEA8A604FEA106A94
:100E8000CAF38100032803D06FEA0A01890701D160
:100E900045F00205A90709D40AF00301012901D18F
:100EA00045F01005012801D145F00805D8F81800D3
:100EB000C572002056E7000094A60108222A3A3C99
:100EC0003E3F7C7F000000002B2C3B3D5B5D000023
:100ED00073B504460199002591F900002F280FD021
:100EE0005C280DD020684069A060019890F900004E
:100EF000202809D200212046FFF79BFB65617CBDBD
:100F0000491C0191A560F0E701A92046FFF7BCFE4E
:100F10000028F4D12046FFF75DFCA169C97A68B1C9
:100F20000428ECD18A0605D5A56065614807EBD594
:100F300000207CBD4907FCD405207CBD4907FCD4BA
:100F40006169C87AC006F7D5206801F0AAFDA060E3
:100F5000DAE710B504464FF0FF302268002A14D0BB
:100F6000114600E0491C91F90030202B0ED33A2B9A
:100F7000F8D112F9013B303B0A2B06D28A4204D148
:100F8000022B02D2491C1846216010BDF948007896
:100F900010BD10B5044600202071401E206320467D
:100FA000FFF778F908B1032010BDB4F83202A0F5BC
:100FB0002A41553901D0022010BD94F86A00B4F8D6
:100FC0006B1040EA0121EC48B0EB012F08D094F8F7
:100FD0008610B4F8872041EA0221B0EB012F01D13D
:100FE000002010BD012010BD2DE9FF474FF0000883
:100FF0000746C0F8008016460846FFF7AAFF05001E
:1010000003D50B2004B0BDE8F087DA48001D50F886
:10101000254094B13C60207820B1607817F0D4FD71
:10102000C1070CD084F80080E8B24746607017F022
:101030004DFDC10708D00320E4E70C20E2E70EB124
:10104000400704D40020DDE71EB1400701D50A2087
:10105000D8E7002529462046FFF79BFF012824D129
:1010600000206A4604EB001191F8F63101F5F971A0
:101070002BB10B7AD1F8091043EA012100E00021DD
:1010800042F82010401C0428ECD300264FEA020846
:1010900058F826502DB129462046FFF77AFF08B9A7
:1010A00009E00220761C042EF2D3032801D0E0BB15
:1010B00001E00120A6E7B4F83F00B0F5007F5CD165
:1010C000B4F84A0028B994F85800D4F8591040EA06
:1010D0000120E06194F844108146E170012901D0BB
:1010E00002294AD1414394F84100A070E8B1421E60
:1010F000104242D1B4F84520228113073DD1B4F803
:1011000047602EB994F85430D4F8556043EA062667
:10111000B4F842C0BCF1000F2FD00CEB010303EB7D
:1011200012139E4229D3F61A00E026E0B6FBF0F037
:1011300018B3012640F6F678404500D302264FF654
:10114000F678404500D30326801C2B44E362AC4470
:10115000A061C4E9085C032E11D072B16144A162A0
:10116000022E17D000F0010100EB400001EB50000F
:1011700000F2FF10B9EB502F0ED20D2042E7002AEB
:10118000FBD194F86010D4F86120800041EA02217C
:10119000A162EDE74000EBE74FF0FF302061E06037
:1011A00080206071032E2FD1B4F8640001282BD168
:1011B0002046691CFFF76EF830BB6771B4F8320245
:1011C000A0F52A4155391FD194F83400D4F83510D0
:1011D00040EA01206949884216D194F81802D4F8EF
:1011E000191240EA0120664988420DD194F81C0288
:1011F000D4F81D1240EA0120206194F82002D4F8AE
:10120000211240EA0120E0605A4926704888401CBB
:101210004880E080676115E710B538B1016829B1F1
:101220000A781AB1CA888088824201D0092010BD8C
:10123000487817F0C9FCC007F9D0032010BD17B5D6
:1012400081B01446029800906846FFF782FE00289D
:1012500002DA0B2004B010BD464A121D002352F8DA
:10126000201001B10B700199002900D00B7042F8D9
:10127000201001D0012C01D00020EBE7002202A9B0
:1012800001A8FFF7B1FEE5E72DE9F747ADF5117DC0
:1012900006000ED04FF0000802F01F0727F00102F1
:1012A00092A902A8C6F80080FFF79EFE050004D0B0
:1012B0008FE009200DF5147DA5E68DA808900CA8F7
:1012C000099002A89299FFF703FE079C050001D13F
:1012D00004B9062517F01C0F54D055B1042D03D1C5
:1012E00002A8FFF789FB0546079C47F0080755B1A0
:1012F0006FE0E07A10F0110F01D0072569E0780760
:1013000001D5082565E038074AD517F013FEA0730C
:10131000010AE173010C2174000E607484F80B80E3
:1013200084F81C8084F81D8084F81E8084F81F8057
:101330002146029801F0B5FB81460021204601F0CC
:10134000B9FB02990120B9F1000F087126D002986B
:101350004946D0F830A0FFF7EEF8050039D10299E0
:10136000A9F10100C86051460298FEF793FF0500FD
:1013700012D02EE0540100200046415452526141E7
:10138000727241612DBBE07AC10601D5042520E0CF
:10139000B90701D5C007B0D1380701D547F02007FC
:1013A00002982146006BC6E90704B77186F80780EA
:1013B0004746029801F075FB3061207FD4F81D107C
:1013C00040EA0120C6E90270B76102983060C08827
:1013D000B08028466EE72DE9FC5F044600201860C7
:1013E0009946154688462046FFF716FF002812D179
:1013F000E07900280FD1A079C0070BD0D4E9021002
:10140000401A01274FF0020A04F1240B854200D94B
:10141000054680E00720BDE8FC9FA068C10562D1B9
:1014200022689178491E01EA502111F0FF0609D186
:1014300008B310466169FEF7A8FF02281DD3411CBE
:101440004CD0606161692068FEF793FFA8B1304419
:101450000190680A009027D03218206881788A426B
:1014600001D9891B0091DDE900324078414617F02F
:1014700073FB98BB05E02069DFE784F807A0022032
:10148000C9E7A07940060CD5A1690198081A00990E
:10149000884206D208EB40204FF40072594601F012
:1014A000E6FA009846022CE0A2690198824218D020
:1014B000A07940060AD5206801235946407817F0E4
:1014C00091FB58B9A07920F04000A0712068012359
:1014D00059464078019A17F03FFB10B1E77101209F
:1014E00099E70198A0612089C0F30800C0F5007653
:1014F000AE4200D92E46011932464046243101F051
:10150000B6FAA068B0443044A060D9F80000811950
:10151000AD1BC9F80010002D7FF47FAF00207AE7E3
:101520002DE9FC5F8846002199461546044619605E
:10153000FFF772FE002806D1E079002803D1A079D8
:10154000800701D4072066E7A068012742194FF001
:10155000020A04F1240B824272D391E0A068C10513
:1015600072D122689178491E01EA502111F0FF06DC
:1015700012D108B1616902E0206928B90021104642
:10158000FFF709F800287ED001282DD0411C54D047
:101590006061216901B92061A07940060BD52068FE
:1015A000012359464078A26917F01CFBA0BBA07923
:1015B00020F04000A07161692068FEF7DAFE98B162
:1015C00030440190680A009027D032182068817852
:1015D0008A4201D9891B0091DDE9003240784146F9
:1015E00017F000FBC0B903E084F807A0022012E75F
:1015F000A1690198081A009988420AD208EB402193
:101600004FF40072584601F032FAA07920F0400001
:10161000A0710098460229E00FE0A169019881427B
:1016200010D0D4E9020188420CD220680123594627
:101630004078019A17F090FA20B1E7710120EAE6AC
:1016400021E001E00198A0612089C0F30800C0F505
:101650000076AE4200D92E46204432464146243020
:1016600001F005FAA07940F04000A071A068B044F4
:101670003044A060D9F800008119AD1BC9F80010F2
:10168000002D7FF46BAFD4E90201884200D9E060FD
:10169000A07940F02000A0710020BCE670B504469F
:1016A000FFF7BAFD00280ED1A1798A060BD54806AE
:1016B0000ED52068012304F124014078A26917F0B7
:1016C00091FA08B1012070BDA07920F04000A0710E
:1016D000E1692068FEF7DEFD0028F4D1256AE87A8A
:1016E00040F02000E872207B2877A089000A687704
:1016F000E068000CA877E068000EE87728462169CA
:1017000001F0D8F917F016FCA875010AE975010C6B
:101710002976000E68760020A874E874A07920F07D
:101720002000A0712168012008712068BDE8704088
:10173000FEF7C7BD10B50446FFF7B0FF002806D17D
:101740002046FFF769FD002801D10021216010BD6E
:1017500001B56846FFF7FDFB002801DA0B2008BD44
:10176000F8490870002008BD11B5ADF50D7D0022C7
:101770008DA96846FFF738FC04000BD18AA80690B3
:1017800009A8079068468D99FFF7A2FB040005D0D1
:10179000042C11D020460DF50E7D10BD059848B1E2
:1017A000C07AC00608D50599009801F07AF9009929
:1017B0004861EFE70298FAE70524EBE72DE9F343E8
:1017C000ADF5197D0E4699994FF00008424681F813
:1017D000008099A983A8FFF707FC040075D196A89B
:1017E000899002A88A90839835464FF02F09406966
:1017F000859050E0012183A8FEF71BFF040035D13E
:10180000002183A8FFF77FF804002FD188998398DF
:1018100001F047F98590002183A8FEF70AFF040034
:1018200024D1002183A8FFF76EF804000BD188991A
:10183000839801F036F9B84208D0002183A8FEF75A
:1018400036FF0400EDD0042C0FD00FE09998CDE9BD
:1018500093058DA983A8FFF7B7F9999A0DF23D2159
:10186000107800B11146002003E0022499982AE084
:10187000401C0B5C002BFBD1C31C9D4206D21124E3
:10188000104620E0401E6D1E0B5C53550028F9D118
:101890006D1E02F80590859F002FABD1A94999983C
:1018A0000978303100F8011B3A2100F8011BB542DC
:1018B00002D100F8019B06E09999495D6D1C00F882
:1018C000011BB542F8D380F800800DF51B7D204642
:1018D000BDE8F0832DE9F0470D460446FFF79CFC78
:1018E0005FEA00086FD1E07900286CD1E068A84277
:1018F00003D2A179890700D405460027A0684FF0DC
:101900000109A7600DB322684FF0020A91784E02D8
:1019100068B1691E401EB1FBF6F1B0FBF6F39942C7
:1019200005D3711E8843A0602D1A61690CE02169FE
:1019300049B900211046FEF72EFE014601283FD08E
:10194000481C4ED021616161D1B926E0A0798007A1
:10195000206805D5FEF71FFE010004D1354611E0D1
:10196000FEF713FD0146481C3BD0012928D9206809
:101970008069884224D96161A068AD1B3044A060B1
:10198000B542E3D8A0682844A060E80505D02068E7
:10199000FEF7EFFCA0B100EB55272089C00525D04C
:1019A000A269BA4222D0A07904F12405400610D5DC
:1019B000206801232946407817F014F988B904E01B
:1019C00084F807A00220BDE8F087A07920F040004D
:1019D000A071206801233A464078294617F0BCF8E8
:1019E00018B184F807900120EDE7A761D4E902015E
:1019F000884204D9E060A07940F02000A071404600
:101A0000E1E713B5ADF5047D040006D0002285A9F9
:101A100080A8FFF7E9FA20B122E009200DF5067D44
:101A200010BD8098206081A8A061C4F81CD0204619
:101A30008599FFF74DFA78B9616931B1C87AC00666
:101A400011D5809801F02DF8A06080980021C08801
:101A5000A0802046FEF7EDFD042804D00028DDD04C
:101A600000212160DAE70520FAE710B50446FFF708
:101A7000D3FB002801D10021216010BD70B5ADF568
:101A8000047D0E460446FFF7C7FB002819D1DEB1DE
:101A900080A8A061C4F81CD000212046FEF733FFC7
:101AA0000025042815D000280BD131462046FFF729
:101AB0008BF800212046FEF7FAFD042801D1002012
:101AC00025610DF5047D70BD00212046FEF7B1FDB6
:101AD000F7E72561E9E733B5ADF50D7D0D46002249
:101AE0008DA980A8FFF780FA040012D189A88690FA
:101AF000CDF81CD280A88D99FFF7EAF9040008D12F
:101B0000859828B12DB1294680A8FFF75DF800E03F
:101B1000062420460DF50F7D30BD2DE9F74F144604
:101B20008A46002269462046FFF75EFA24685FEA8B
:101B3000000851D1A7692069B91E884204D8CAF8A3
:101B4000000049E05401002094F800900025B9F10C
:101B5000010F01D0666A16E0022631462046FEF7E4
:101B600014FC411C03D0012803D028B105E001205A
:101B700000E00220804628E06D1CA069761C8642A9
:101B8000EBD322E059B93146761C2046FEF782FBA2
:101B90005FEA000819D104F134004FF40071B9F183
:101BA000020F07D00278D0F8013042EA0322120176
:101BB00006D006E0028802B96D1C801C891E02E076
:101BC0006D1C001D091F7F1EDCD12561607940F06E
:101BD00001006071CAF800504046BDE8FE8F70B544
:101BE0000446FFF719FB05003DD1E07918B1054621
:101BF000280005D037E0A079800701D4072532E01E
:101C0000D4E9020181422ED9E060A17941F020019E
:101C1000A17150B161692068FEF7B7FB0646401C10
:101C20000BD0012E0BD065B11CE021692068FEF7B6
:101C300082FC05460020206113E0012512E0022508
:101C400010E020688169B1420FD96FF0704261697C
:101C5000FEF7F5FB050005D131462068FEF76BFC69
:101C6000054615B1E571284670BDA0794006FAD544
:101C70002068012304F124014078A26916F0B2FF24
:101C80000028DAD1A07920F04000A071EBE771B50F
:101C9000ADF5157D012295A96846FFF7A5F9040069
:101CA0004FD192A8069009A8079068469599FFF72A
:101CB0000FF9040045D10698C07A800601D50624A4
:101CC0003FE0059E56B1F07AC00700D007243146A8
:101CD000009800F0E6FE054614B132E00624F6E76F
:101CE000F07AC0061DD5022D01D2022429E024225B
:101CF000694689A800F0BBFE022189A88B95FEF7F2
:101D000098FC04001DD1002189A8FEF7FCFD040009
:101D100003D000984069A84201D1072411E0042CA7
:101D20000FD16846FEF720FF04000AD12DB12946E5
:101D30000098FEF700FC040003D10098FEF7C1FAFA
:101D400004460DF5167D204670BD2DE9F14FADF529
:101D50000E7D17F0EFF8074601228EA96846FFF7BF
:101D600043F904000BD18AA8069009A80790684699
:101D70008E99FFF7ADF8040002D0042C02D095E054
:101D8000082493E00698C07A800601D506248DE0E9
:101D900000210098FEF7FFFB060009D0012E09D0B4
:101DA000701C09D00098FEF74DFA040006D063E0DD
:101DB000072461E002245FE001245DE031460098E1
:101DC000FEF7D7FA009D804634354FF400720021AB
:101DD000284600F054FE0B222021284600F04FFE3A
:101DE0002E242C701020E872F8B28990A875C7F3E1
:101DF000072B85F817B0C7F3074A85F818A04FEAF4
:101E0000176985F819903146284600F053FE05F110
:101E1000200020222946074600F029FE85F82140AF
:101E2000009802990078032804D10098806A8842BB
:101E300000D10021384600F03DFE0098877814E07C
:101E400000990120C1F83080009908F1010808715B
:101E50000098FEF7F7F904000ED14FF4007200214C
:101E6000284600F00CFE7F1EFFB2002FE8D1684626
:101E7000FEF7C2FD040004D031460098FEF75BFB7C
:101E800014E005981021C1728999817580F817B006
:101E900080F818A080F81990314600F00BFE0099E8
:101EA000012008710098FEF70CFA04460DF50F7D2D
:101EB0002046BDE8F08F37B5ADF50C7D15460C46D4
:101EC00001228CA980A8FFF78FF800281CD189A8CF
:101ED0008690CDF81CD280A88C99FEF7F9FF0028D7
:101EE00012D18698C07A80060FD4859868B105F023
:101EF0002701C27A0C408A431443C472809901209E
:101F000008718098FEF7DDF904E6062002E613B5B5
:101F1000ADF50C7D0C4601228CA980A8FFF764F872
:101F200000281FD189A88690CDF81CD280A88C9952
:101F3000FEF7CEFF002815D18698C07A800612D40D
:101F4000859880B1A1798175E188090AC1752179E7
:101F50000176A188090A417680990120087180984C
:101F6000FEF7AFF917E4062015E433B5ADF51F7D94
:101F700001229FA904A8FFF737F8002810D1049880
:101F80008D909CA80A900DA80B9004A89F99FEF72D
:101F90009FFF002804D10A98C07A800603D5062046
:101FA0000DF5217D30BD0998F0B300F10B0115222C
:101FB00096A800F05CFD242204A98DA800F057FD2E
:101FC000A0A8FEF7C6FF00283CDB8DA8A099FEF76D
:101FD0007FFF50B30428E3D18DA8FEF70DFD002844
:101FE000DED1929C13220DF25A2104F10D0000F073
:101FF0003EFD9DF85802012540F02000E072049853
:1020000005718F990698884233D0E07AC00630D5A2
:102010002146049800F045FD01460498FEF7A9F911
:10202000010013D0049801E00AE00DE0FEF732F958
:10203000049A54320028B3D150782E2808D018E0E2
:102040000420ADE70B20ABE70820A9E70220A7E7B3
:1020500004980078032806D104998F98896A8842E9
:1020600001D1002100E08F99104600F023FD049873
:10207000057104A8FEF778FD002891D10498FEF7B9
:1020800020F98DE7F7B58AB017460D4600220AA958
:102090006846FEF7A9FF040038D10DB3002631468B
:1020A00068460296FEF7C5FA04002FD10121684662
:1020B000FEF729FC040002D0042C0FD026E00B22EE
:1020C0002846059900F0D3FC0B20EE7201E02E5457
:1020D00030B1401E295C2029F9D001E02E70002487
:1020E000A7B10098016AFEF7D5F804000ED1009858
:1020F000007803280DD0272000F13401009A3530F4
:102100001044515C006841EA002038600DB0204660
:10211000F0BD4320F0E72DE9F1438CB001220CA97A
:102120006846FEF761FF00282FD180468DF8248095
:1021300045460C9800E06D1C415D0029FBD100E094
:102140006D1EBDB3411911F8011C2029F8D00024DF
:1021500027460DF124090C980121C05D7F1C00F079
:1021600055FD00F06DFD002100F050FD06000BD084
:102170000146F9A000F08BFC30B9FF2E01D90A20EE
:1021800000E00B20A04203D806200DB0BDE8F0838C
:10219000FF2E03D9310A09F80410641C484609F8D7
:1021A0000460641CAF42D6D320210B2C03D201550E
:1021B000641CFAE7FFE700216846CDF80880FEF7C7
:1021C00038FA0028E1D101216846FEF79CFB012482
:1021D00040B30428D9D19DF8241000200029D4D080
:1021E00001216846FEF7D5FA0028CED12022002131
:1021F000059800F044FC0B2209A9059800F037FC73
:102200000599082081F80B0016F094FE0599887551
:10221000059A010AD175059A010C000E11760599EF
:1022200048760BE09DF8240028B10B2209A90598F7
:1022300000F01DFCE8E70599E5200870009804719E
:102240000098FEF73EF8A0E72DE9F74F90B015464D
:1022500010A8FEF77EFE002802DA0B2013B028E655
:102260001199012902D8691E0D4201D01320F5E70A
:10227000BD4951F820404CB100212170C0B20390FB
:1022800016F024FCC10703D00320E7E70C20E5E7A4
:10229000400701D50A20E1E708AA0121039816F0BA
:1022A0002DFC00287ED1089880287BD3119909B194
:1022B000002700E03F27C11B08917DB94FF4FA6069
:1022C000B1FBF0F20020A94B00E0401C33F81050A5
:1022D0009542FAD8A54A163232F81050680A5FEAD9
:1022E000000812D0B8F1800F01D980208046B1FBE0
:1022F000F8F0012540F6F672904200D302254FF621
:10230000F672904203D3032520E00120EEE7032D6F
:102310001CD0012D23D0400010F1040000F2FF106A
:10232000460A4FF001092020834607EB090A0AEB11
:102330000600584400904044C01B884247D809AA70
:102340000321039816F0DAFBA0B90EE040F2072251
:1023500002EB8000460A4FF020090020E4E700EB82
:102360004000401C4008C01CD8E7099810B1B0F5E7
:10237000004F01D901200990099900980844401E96
:10238000491E88430099401A0990032D12D0064433
:102390000898A0EB09018A1BA2EB0B02B2FBF8F133
:1023A0000D9100E0D7E0022D07D0032D0AD0012DBA
:1023B00015D019E081448244EAE740F6F672914272
:1023C00005D311E008464FF6F671884201D20E207F
:1023D00044E70C200290119868B1F02046E0B0F577
:1023E000803F06D20120F5E7B0F5803F01D20420FE
:1023F000F0E70620EEE704F134004FF4007200210C
:10240000079000F03CFB04F5F970012141708170E8
:102410000021C170029A0271FE224271089A43F6AD
:10242000C1633A44B2FBF3F23F2343EA920C0992B0
:1024300080F806C0C271037241728172C17208993C
:1024400001730A0A42730A0C8273090EC173552084
:1024500084F83202AA2084F833020123002207996B
:10246000039816F0BFFB002875D1F8203434029091
:102470004FF400720021204600F001FB0B223CA12A
:10248000204600F0F4FA0021E1720220207384F863
:102490000D8084F80E904FEA1920E073012020741B
:1024A000032D0BD040026074000AA0740898B0F5A8
:1024B000803F05D2E074000A20750CE00020F2E7AE
:1024C00084F82000020A84F82120020C84F82220DB
:1024D000000E84F82300029860753F2020760020CB
:1024E00060764FF0FF0984F81A90E0762777380A73
:1024F0006077380CA077380EE07716F01BFD80214E
:1025000029220990032D43D084F82700030A84F878
:102510002830030C84F82930000E84F82A00A675B0
:10252000300AE07584F8241084F82620132213A1C1
:1025300004F12B0000F09BFA552084F8FE01AA203C
:1025400084F8FF0101233A462146039816F04AFB1E
:10255000002800D14FE0D7E0222A2B2C2E3A3B3C1A
:102560003D3E3F5B5D7C7F0058010020A2A6010834
:10257000EBFE904D53444F53352E30004E4F204EBE
:10258000414D45202020204641542020202020007D
:1025900084F84300030A84F84430030C84F845307F
:1025A000000E84F8460084F82460300A84F8250080
:1025B000300C84F82600300E84F82700022084F8BE
:1025C0002C00002084F82D0084F82E0084F82F00C1
:1025D000012384F8303084F83100062384F8323047
:1025E00084F8330084F8401084F842201322FDA1BF
:1025F00004F147009EE7032D05D10123BA1D2146B2
:10260000039816F0EFFA4FF400720021204600F014
:1026100036FA02980990032D12D0012D0ED06FF0DA
:10262000FF010143099121700998000A607009981F
:10263000000CA0700998000EE0701EE0EE49F0E773
:1026400060F0FF00099020700998000A60700998F6
:10265000000CA0700998000EE07084F8049084F8D3
:10266000059084F8069084F8079084F8089084F820
:10267000099084F80A900F20E07252460AF101098D
:1026800001232146039816F0ADFAE8BB4FF400721F
:102690000021204600F0F3F901200AE04A4609F142
:1026A000010901232146039816F09CFA60BB0998A2
:1026B000401C0990B042F1D3032D0AD05E464A4631
:1026C00009F1010901232146039816F08BFAD8B9C4
:1026D00001E04646F3E7761EF1D1032D3AD15220B0
:1026E000207060706120A0704121E170722284F836
:1026F000E42184F8E52184F8E61184F8E7010D98D7
:10270000401E84F8E80100E02CE0010A84F8E91199
:10271000010C84F8EA11000E84F8EB01022084F821
:10272000EC01002084F8ED0184F8EE0184F8EF015B
:10273000552084F8FE01AA2084F8FF0101237A1CA9
:102740002146039816F04EFA0123FA1D21460398FC
:1027500016F048FA00221146039816F0CFF9002827
:102760003FF485AD012079E52DE9FC410025904637
:10277000074604464E1E0FE001AB01226946404663
:10278000FEF729FE0198012808D19DF900006D1C73
:1027900004F8010B0A2801D0B542EDDB00202070BF
:1027A00015B13846BDE8FC810020FBE738B5456827
:1027B0000446002D16DB60196D1C01733D2D0DDBE9
:1027C0006B462A4604F10C012068FEF7A9FE00982A
:1027D000A84201D1002501E04FF0FF356560A068F7
:1027E000401CA06038BD00B595B002910021039156
:1027F0000491014602A8FFF7D9FF039800280DDBDA
:10280000024601AB05A90298FEF78AFE30B901998C
:102810000398884202D1049815B000BD4FF0FF30F4
:10282000FAE710B596B004460020CDE902100490F6
:1028300003E002A8641CFFF7B9FF94F90010002917
:10284000F7D1039800280DDB024601AB05A90298D9
:10285000FEF766FE30B901990398884202D10498C8
:1028600016B010BD4FF0FF30FAE70FB42DE9F04776
:102870009AB00DF190090290002003900DF15408D8
:102880000490239810F9011B2390002976D0252964
:1028900003D002A8FFF78AFFF3E7002510F9011B18
:1028A0002E462390302902D02D2902D00FE0012599
:1028B00000E0022510F9011B239008E006EB8600DA
:1028C00001EB40062398303E10F9011B2390A1F143
:1028D00030000928F2D96C2901D04C2905D1239860
:1028E00045F0040510F9011B2390002946D0A1F101
:1028F00061000A46192801D8203A52B24F2A44D022
:1029000006DC422A3FD0432A39D0442AC1D13EE0D6
:10291000532A0DD0552A3AD0582ABAD11023680725
:1029200001D4442A35D059F8040B442A33D037E077
:1029300059F8047B002400E0641C385D0028FBD1BA
:10294000A80704D50CE0202102A8FFF72FFF20469E
:10295000641CB042F7D303E002A87F1CFFF726FFF8
:1029600097F900100029F7D103E0202102A8FFF712
:102970001DFF2046641CB04283D2F6E760E019F8E0
:10298000041B49B285E70223C9E70823C7E70A23E6
:10299000C5E759F8040B002802DA404245F0080563
:1029A00000244746B0FBF3F203FB1202B0FBF3F046
:1029B00052B2092A05DD782920D04FF0070C624475
:1029C00052B230323A55641C08B1102CEAD32807B1
:1029D00003D52D2008F80400641C2746E80710D012
:1029E00030200FE04E4F204E414D45202020204604
:1029F000415433322020200000FFFF004FF0270C0D
:102A0000DDE72020824603E0514602A8FFF7CEFE14
:102A1000A80703D438467F1CB042F5D34546641E50
:102A2000295702A8FFF7C2FE002CF8D103E0514657
:102A300002A8FFF7BBFE38467F1CB0429CD2F6E7E7
:102A40000398002810DB024601AB05A90298FEF7A7
:102A500067FD48B901990398884205D104981AB0D6
:102A6000BDE8F0075DF814FB4FF0FF30F7E703E037
:102A700011F8013B00F8013B521EF9D27047C9B270
:102A800002E000BF00F8011B521EFBD2704700E0BD
:102A9000401C90F900200AB18A42F9D190F9000057
:102AA00070470246488B1278032A02D1898A40EA8D
:102AB0000140704781760A0AC2760A0C0275090E37
:102AC000417570477CB516461C4605460B22FFF73C
:102AD000CEFF052C11D9204A0CE00021B61C23465C
:102AE000044663F35F044008E30300D55440491CE7
:102AF0001029F4D330880028EFD107214FEA0D02C6
:102B000004F00F003030392800D9C01D5054491E40
:102B10002409F5D17E205054002000E0401C88425A
:102B200002D22B5C202BF9D1082902D2535C491C1C
:102B300000E020232B54401C0828F5D37CBD01461F
:102B400000200B22430803EBC01011F8013B521E7A
:102B50001844C0B2F6D1704721100100284908433B
:102B600028490860704730B50F22C47801780123E6
:102B7000FCB1244C246801F1E02104F4E064C4F5C4
:102B8000E064C4F30724C4F10405E2404478AC4097
:102B90008578154025432A0181F80024007800F04B
:102BA0001F018B404009800000F1E020C0F8003197
:102BB00030BD01F01F0083404809800000F1E02093
:102BC000C0F8803130BD104A114001430D48001F4C
:102BD000016070470B4A121D0029116801D00143A2
:102BE00000E08143116070474FF0E021042808693C
:102BF00003D020F004000861704740F00400FAE7B9
:102C00000000FA050CED00E080FFFF1F802804D3D0
:102C1000124A51B1FF2801D90020704702EB400051
:102C2000A0F58050B0F8000F704732F811308342A1
:102C300003D0491C89B28029F7D38031C8B27047CC
:102C40000021074B00E0491C33F81120002A04D072
:102C50008242F8D1034830F811007047C2C1010820
:102C6000C2C20108A2C401080648804706480047BE
:102C7000FEE7FEE7FEE7FEE7FEE7FEE7FEE7FEE72C
:102C8000FEE7FEE7858900088901000870B5054662
:102C900000F0E7FE0446284600F06EFE38B12946F3
:102CA000A06900F003FFC169491CC16102E0A5F100
:102CB0002000C169012902D1A1698161A0610120BF
:102CC00070BD70B500F0CDFE846905460CB900F00A
:102CD000B7FE04F12006304600F04EFE68B1E06910
:102CE0002668012802D0401EE0610BE0A16904F1D2
:102CF0007800A96100F093FE04E0E069012801D1A9
:102D0000A069A861304670BD012300F009BF00230F
:102D100000F006BF004870475CC8010810B50446C3
:102D2000FFF7F8FF0068005D00F0010010BDA0F1A2
:102D30006101192900D82038704740EA01039B0738
:102D400003D009E008C9121F08C0042AFAD203E020
:102D500011F8013B00F8013B521EF9D27047D2B284
:102D600001E000F8012B491EFBD270470022F6E774
:102D700010B513460A4604461946FFF7F0FF2046F1
:102D800010BD421E12F8013F002BFBD111F8013B90
:102D900002F8013B002BF9D17047CAB2401E10F86F
:102DA000011F8A4202D00029F9D100207047421C3D
:102DB00010F8011B0029FBD1801A704710B50022C2
:102DC00000E0521C835C8C5CA34201D1002BF8D143
:102DD000D8B2E1B2401A10BD034611F8012B00F839
:102DE000012B002AF9D11846704730B5054600205E
:102DF000034600E05B1C934205D2EC5CC85C201AE1
:102E000001D1002CF6D130BD70B50F4D00B9286846
:102E1000002412E00A4602E09E4203D0521C1378BE
:102E2000002BF9D1DAB2224305D02BB124B1002115
:102E300000F8011B04E00446401C0678002EE9D18E
:102E40002860204670BD00004004002010B54843B3
:102E5000044616F0F3F8002805D00021002C02D01B
:102E6000641E0155FAE710BD0FB400B58DB010A96E
:102E700009900B9000914FF0FF300A9000200C90C9
:102E800005480690054807906A4609A80F9901F081
:102E9000E3F90DB05DF814FB754200089342000899
:102EA0002DE9FF5F1D464FF0FF3BD5E901469146F6
:102EB0005F464FF00008A9697F1C01988847296A7E
:102EC000824688470028F6D1BAF1FF3F0CD024F49F
:102ED000C064002E19DD600614D5BAF12B0F09D09D
:102EE000BAF12D0F0ED103E0584604B0BDE8F09FB3
:102EF00044F48064A9697F1C01988847761E824645
:102F0000002E02DDBAF1300F03D0B9F1000F26D048
:102F100032E0A969761E44F400747F1C019888474A
:102F20008246002E05DDBAF1780F06D0BAF1580FAF
:102F300003D0B9F1000F10D01EE0B9F1000F02D09C
:102F4000B9F1100F18D1A969761E24F400747F1C02
:102F5000019888478246102002E0082000E00A20FD
:102F6000814609E008FB0908A969761E44F400744B
:102F70007F1C019888478246002E05DD4946504651
:102F800001F056F90028EDDAE96901988847A005B3
:102F900002D46FF00100A8E7E00725D1600613D541
:102FA000600502D5C8F1000000E0404629680A1D0E
:102FB0002A600968220501D5087015E0220701D5AD
:102FC000088011E008600FE02868011D2960006892
:102FD000210502D580F8008006E0210702D5A0F87F
:102FE000008001E0C0F8008038467EE72DE9FF4F01
:102FF000087881B09946FF2805D0491C2D2804D0B7
:103000000024002308E000230BE00124F9E703EB90
:10301000830300EB4303491C0878FF28F7D104B170
:103020005B4200200090147801462D2C01D02B2CFF
:1030300004D1521C2D2C12D00024009400251678A7
:10304000FF2E0ED00A24A0FB04C801FB0481002738
:1030500000FB0711521C16EB0C006941EFE701243D
:10306000EBE7994450EA01020ED00024AA4D26460F
:10307000DFF8A88201F011FA82468B46B9F1000010
:1030800009DAC9F100071BE001980021C0E900112D
:1030900005B0BDE8F08F074612E0F80707D02246DA
:1030A0002B463046414600F089FA064688462246BD
:1030B0002B461046194600F081FA04460D467F1053
:1030C000002FEAD1B9F1000F324643465046594627
:1030D00002DA00F0E5FA01E000F070FA009A0AB1B5
:1030E00081F00041019AC2E90001D1E72DE9FF4FCB
:1030F0001F468DB0D7E901464FF0FF382E204546D8
:103100004FF000090B90B9696D1C0E988847396A19
:10311000824688470028F6D1BAF1FF3F0AD024F44E
:10312000D064002E11DDBAF12B0F08D0BAF12D0FAB
:103130000BD102E0404611B0ABE744F48064B969BA
:103140006D1C0E9888478246761E6946600501D53B
:103150002D2000E02B208DF8000001F1010B0DF176
:10316000200809E0B9696D1C0E98884782460F98BF
:1031700044F40074761E0560002E02DDBAF1300FB3
:10318000F0D00B998A453ED144F0800406E00F99B7
:10319000681CA9F1010944F400740860B9696D1C48
:1031A000761E0E98884782463028F0D02BE00B9987
:1031B0008A4505D1200603D444F08004761E18E029
:1031C000504614F0B9FD08B30DF11301761E44F416
:1031D00000748B4508D2AAF130000BF8010B2006D1
:1031E00007D5A9F1010003E0200602D409F101008E
:1031F0008146A00502D50F99681C0860B9696D1C4D
:103200000E9888478246002ED1DC53E0002E51DD17
:10321000BAF1650F02D0BAF1450F4BD1A00549D5DF
:10322000B9696D1C24F44074761E0E988847824656
:10323000002E0CDD2B2804D0BAF12D0F07D144F459
:103240008074B9696D1C0E9888478246761EE00529
:1032500001D52D2100E02B2108F8011BCDF82C8091
:1032600021E00DF12901761E44F4007488450CD24A
:10327000AAF1300010F0FF0088F8000002D10B998D
:10328000884509D908F1010806E0E00501D5244880
:1032900001E042F20F708146B9696D1C0E988847B3
:1032A00082460F980560002E04DD504614F044FD60
:1032B0000028D6D1F9690E988847FF208BF80000C6
:1032C00088F800000020069007904B466A4608A93F
:1032D00006A8FFF78BFEA00502D46FF001002AE7D5
:1032E00014F0240F0AD0E00714D1DDE90612386883
:1032F000031D3B600068C0E900120BE0DDE9060138
:1033000001F0EFF80146E00704D13868021D3A6089
:103310000068016028460EE7000024400000F03FEE
:10332000F1D8FFFF2DE9F04791460F46804604464D
:10333000002614F8015B2DB1FFF7ECFC0068405D3E
:10334000C007F6D12B2D02D02D2D18D0641E4A4671
:103350003946204600F0AEFF27B13968A14201D1BD
:10336000C7F8008071054FF002040BD540420028D9
:1033700003DD12F0BFFB0460A007BDE8F08746F450
:103380008066E4E70028F8DA12F0B4FB04606FF01E
:103390000040F2E72DE9F05F93460F468046044671
:1033A000002612F0A7FBD0F80090824614F8015BCB
:1033B0002DB1FFF7AFFC0068405DC007F6D12B2DA3
:1033C00002D02D2D1AD0641E0021CAF800105A46D2
:1033D0003946204600F06EFF014627B13868A0420A
:1033E00001D1C7F80080DAF80000022809D0CAF835
:1033F0000090700505D54842BDE8F09F46F4806610
:10340000E2E70846F8E770B5064612F073FB046879
:1034100005460A2200213046FFF784FF2C6070BD6C
:1034200070B5054C054D03E0206820448047241DFD
:10343000AC42F9D170BD0000E0D40108F0D401081D
:103440002DE9F041074615460E46102015F0F6FD11
:1034500004000AD06760C4E9026500F07BFF0168E0
:10346000216004600020BDE8F0810120FBE72DE928
:10347000FE4F804681EA0300C00F0C46009021F009
:10348000004123F00045B8EB0200A94105D24046B7
:10349000214690461C460B46024623F0004010434E
:1034A00047D0270DC7F30A00C3F30A510290401A10
:1034B000019040286BDAC3F3130040F4801B00989E
:1034C000924620B10023D2EB030A63EB0B0B019869
:1034D0005946C0F14002504600F04DFE06460D46EA
:1034E00050465946019A00F065FE10EB0800614114
:1034F000002487EA115284EAE7731A4340D0009A05
:1035000062B3019A012A4FEA075215DC001B61EBF6
:1035100002014FF0004202EA0752CDE90042001CCE
:1035200041F5801132462B4600F052FF03B0BDE852
:10353000F08F40462146F9E7001B61EB0201001CB9
:1035400041F5801300185B412018A2F5001747EBE6
:10355000030140EAD570B6196D4111E06D084FEADC
:10356000360645EAC0754FEA0752001B61EB0201BF
:10357000001C41F5801149084FEA30000019514103
:1035800032462B4603B0BDE8F04F00F012BF009862
:10359000012240000023D0EB020263EBE0730098AD
:1035A00021464FEAE074B8EB000061EB0401E9E763
:1035B00083F000435BE781F0004158E72DE9FE4FBF
:1035C00081EA030404F0004421F0004100944FF02C
:1035D000000B23F0004350EA01045ED052EA0304DA
:1035E0005BD0C3F30A54C1F30A552C44A4F2F3345C
:1035F0000194A0FB0254C1F3130141F48011C3F301
:10360000130343F4801301FB024400FB034E840ABE
:10361000970A44EA815447EA8357A4FB0768029556
:103620008D0A05FB07854FEA932C04FB0C542705F4
:10363000029D4FEA065847EA1637B5EB08056EEBD0
:10364000070C870E920E47EA811742EA8312A7FB06
:103650000201B6EB0B0164EB00042B0D43EA0C33C3
:103660005E1844EB1C50DA465146E7FB0201C5F3F5
:1036700013044FEA0B3343EA14534FEA0432019C1C
:1036800043EA0603A4F10C040294009CCDE900B4C3
:1036900000F09EFE03B0BDE8F08F00200146F9E780
:1036A0002DE9F04D81EA030404F0004B21F00045C0
:1036B00014464FF0000A23F0004150EA050220D0E2
:1036C00054EA01021DD0C5F30A570246C5F313039D
:1036D000C1F31300C1F30A5640F4801543F480137C
:1036E000A7EB0608101BD64608F2FD3873EB050061
:1036F00002D308F1010801E092185B41B8F1000F14
:1037000003DA00200146BDE8F08D00204FF480115F
:10371000064684460EE0171B73EB050705D3121B04
:1037200063EB050306434CEA010C49084FEA3000FD
:1037300092185B4150EA0107EDD152EA030012D022
:1037400082EA040083EA0501084305D0101BAB415F
:1037500006D20122002306E000224FF0004302E0DF
:103760006FF0010253101AEB06004CEB085110EBFE
:103770000A0041EB0B01BDE8F04D00F01ABE0EB59A
:10378000C10F80EAE0700844CA07002140F23343C9
:103790008DE80E000A460B4600F01AFE03B000BD8D
:1037A0000EB540F2334102910021CDE900110A46E5
:1037B0000B4600F00DFE03B000BD70B5C1F30A5218
:1037C00001F000450024C1F3130140F2FF3341F43E
:1037D00080119A4201DA002070BD40F233439A42D0
:1037E000A2F2334203DC524200F0D4FC00E09040ED
:1037F0002C43F1D0404270BD30B5041E71F100047D
:1038000004DB4FF00044404264EB0101141E73F1ED
:10381000000405DB1C464FF00043524263EB0403F7
:103820008B4208BF824230BD30B5041E71F10004E6
:1038300004DB4FF00044404264EB0101141E73F1BD
:10384000000405DB1C464FF00043524263EB0403C7
:10385000994208BF904230BD70B5054600F001F9AD
:1038600004461DB1284600F087F808B1A06801E0C1
:1038700055F8140C206101202073BDE8704000F061
:10388000DFB8040001D000F081F82046FFF7E4FF24
:103890002DE9F14DD0E90C8581B00646D0F828A07D
:1038A00000F0DFF80446A6F12007304600F06EF87D
:1038B000304600F061F808B1606800E0B868206147
:1038C00000F06CFFBDE8FC8D00F060F86669BE4258
:1038D00002D100F07FF80DE03069606100F07AF805
:1038E00005E000F053F800F0ABF800F073F8606901
:1038F0003061666100273C4606F1200B11E02E681E
:103900006B4600223146584600F0BCFE08B100F07C
:1039100053FE3146104810F071FF00B101274544B5
:10392000641C5445EBD38FB1684611F047F904206D
:1039300000F012FE694611F039F90446684611F0AC
:103940004CF9064A0449204600F081FE5846FFF72C
:1039500083FF00F03FF8B5E790CC0108DB4B01088E
:1039600002680B689A4205D140684968884201D1D3
:10397000012070470020704710B50349FFF7F0FFA2
:1039800080F0010010BD000060CA010870B5054656
:10399000466A00F066F804462846FFF7EDFF20B1BE
:1039A0002946606900F082F807E0A5F12000C169AE
:1039B000491EC1612168491E21604169491C41615C
:1039C000016911B9616901616061284601F0ACF8D3
:1039D000304670BD70B500F044F8446905460CB936
:1039E00000F02EF86069401E606117D104F12006D6
:1039F0003046FFF7C1FF21696961E56928B104F12B
:103A00007800266800F00BF801E000202061002D0E
:103A100004D13046BDE8704001F0B6B870BD10B5B5
:103A2000044600F01EF8783CC069214600F089FD8C
:103A3000002804D12046BDE8104015F013BA10BD8F
:103A400010B500F00EF8016919B100220261884733
:103A500001E080688047AFF30080000010B5AFF34D
:103A6000008070B500F07CFC04680546A4B92020F5
:103A700015F0E4FA040011D0094900202C60C4E9D3
:103A800000010849A1602073206160610649A061BE
:103A900009B100F042FDE061204670BDAFF3008047
:103AA000B74700085D3A00080000000070B5040048
:103AB0000D4609D004F12000FFF752FF20B1206825
:103AC000A84201D1204670BD002000F045FDD5E997
:103AD0000023A0F15801C1E90023002240F85C2C2A
:103AE00040F8642C40F8682C40F8785D70BD000008
:103AF000017A51B9417A89B1491E417241680A1D62
:103B000042600968016004210172C9B2491E017254
:103B100001680A0E0902016010467047B020704724
:103B20002DE9FF4D8CB05FEA000B4FF00000164608
:103B30000D4607900990059008900DD0BBF1010F3C
:103B40000AD0BBF1020F01D0002204E2A86BA864E6
:103B5000E86B04902C6C0FE095F85000C007E86CFF
:103B6000049078D10F9818B104980068C0F307400A
:103B7000049901EB800442E00F98022811D02788B5
:103B8000002F68D06088241D00F00102394662F3DE
:103B90005F0161B1012934D002297DD00329EBD125
:103BA0002FE12768002FECD060680834ECE7BBF108
:103BB000000F24D0A96C002301EB000806A9009196
:103BC00030460F22194600F010FE0698804516D8A0
:103BD00008EB0701814212D9A96CA963201D049941
:103BE000C5E90F102846FFF751F80028ACD020682F
:103BF0000F2240F31E0004443046049423E0241DA9
:103C0000BAE7BBF1000F27D006A900230091304688
:103C10000D22194600F0E9FD0698296A88426ED106
:103C2000E86AA0426BD1206804A940F31E00044456
:103C30000023009130460F220494194600F0BEFD87
:103C400030460022049504A900230091194600F093
:103C5000B5FD22463DE2D6E0A96C002301EB000849
:103C60000AA9009130460F22194600F0BEFD0A98BD
:103C70007F1E804543D808EB070181423FD9676822
:103C8000B81C0ED0781C0ED0206806ABC20F394687
:103C9000284600F0F7FC00E033E078B302281DD09E
:103CA00004E0022257E105F15800069004A9002320
:103CB000009130460D22194600F097FD0498EC6201
:103CC0002862069868622068022140F31E000219EB
:103CD0002846FCF777FA3A4680215FE004A90023E2
:103CE000009130460D22194600F07FFD0498EC62E9
:103CF00028620698A86205F12800E3E7FFE7083488
:103D00003AE72168069121F00048BBF1000F10D07E
:103D10000AA90023009130460D22194600F065FDE6
:103D20000A98296A884240D1E86AA0423DD1012020
:103D30003CE0A96C401E01EB000A0AA90023009197
:103D400030460F22194600F050FD0A9882453AD8B5
:103D50000AEB0701814236D904F1040A00270AE080
:103D60006B4600222846DAF8001000F08BFC20B9E0
:103D70000AF1040A7F1C4745F2D3474523D104A921
:103D80000023009130460D22194600F02EFD0498C4
:103D9000EC6228620020D34A022168622846FCF7C0
:103DA00011FA062010B0BDE8F08D002058B10020B7
:103DB000C5E90A8004202863201D686306984045F1
:103DC00006D1012007900698404515D1002014E047
:103DD00004EB8800002250F8041F134641F31E0133
:103DE0000C1804A9009130460495114600F0E6FC39
:103DF00030460F22049465E1042000EB880004445F
:103E0000FDE60122A7E00498006801900498001DD7
:103E100002900F9810B30198000C8DF80D000198D6
:103E20000004019002208DF80C0001A8FFF760FE4D
:103E30000446B0281AD03F2C41D800F03F0104209E
:103E400000EB810706A90D2400230091304622468D
:103E5000194600F0CAFC0698384442E000208DF86C
:103E60000D000198000201900320DCE70998B0B929
:103E700005980028C5D004A8002300900E221946FA
:103E8000304600F0B2FC0499059105A90023009189
:103E900030460F22194600F091FC01200890079847
:103EA000002870D0002204A90091304613460495E2
:103EB000114600F083FC0898002878D0FEE07F2CA3
:103EC00019D800F03F01042000EB810706A90D245A
:103ED0000023009130462246194600F086FC0698E1
:103EE000C01B049004A800230090224619463046C7
:103EF00000F064FC99E78F2C1AD80007040C01A885
:103F0000FFF7F6FD54EA00143FF4CBAE002322463F
:103F10001946304600F080FC08B103221BE0200463
:103F200001D5012009906004E4D5012005907CE7CB
:103F30009F2C16D800F00F020D2A0BD00F2A09D0A3
:103F400006A9002300910D243046194600F04DFCCF
:103F50000698C6E7042201212846FCF733F9092018
:103F600020E7AF2C10D804F007000121401C81404D
:103F70000A01103A200703D5012042F4804205903F
:103F80000023194658E0AAE0B72C35D8B12C0FD041
:103F9000B22C15D0B328DDD101A8FFF7A9FD00F0A0
:103FA0000F0100F0F000491C41EA00322BE073E001
:103FB00001A8FFF79DFD0200CCD00F2AE0D9C9E788
:103FC00000273C4601A8FFF793FD00F07F01A140C8
:103FD0000F43000601D5E41DF4E706A90D240023D4
:103FE000009130462246194600F0FFFB069800EB90
:103FF000870000F5017074E7BF2C07D800F00700B8
:10400000401C40F400220123012115E0C72C25D8D3
:1040100009D101A8FFF76CFD02009BD00F2A99D8A7
:104020000023042108E0C62C0DD000F00700401C3E
:1040300040F4202203231946304600F0EDFB00280F
:104040003FF458AF69E701A8FFF752FD00F00F01F8
:1040500000F0F000491C41EA0032EBE7C82C0BD01D
:10406000C92C09D0CF2CAAD9D72CA8D800F007008A
:10407000401C40F400220DE001A8FFF739FD00F0DC
:104080000F01491C00F0F00041EA0032C82C01D1B8
:1040900002F580120523B7E704A8002300900F2241
:1040A0001946304600F0A1FB0499059105A90023AB
:1040B000009130460E22194600F080FB0949304637
:1040C0000F22049104A900230091194600F076FB09
:1040D000044A03212846FCF775F8072062E6082009
:1040E00060E600009138000830B50B46014600201C
:1040F0002022012409E021FA02F59D4205D303FAAA
:1041000002F5491B04FA02F52844151EA2F101022A
:10411000F1DC30BD2DE9F05F0546002092469B465C
:1041200088460646814640241BE0284641464746CD
:10413000224600F02FF853465A46C01A914110D338
:1041400011461846224600F016F82D1A67EB0108B2
:104150004F4622460120002100F00DF817EB000920
:104160004E41201EA4F10104DFDC484631462A46B8
:104170004346BDE8F09F202A04DB203A00FA02F112
:10418000002070479140C2F1200320FA03F3194345
:1041900090407047202A04DB203A21FA02F00021E7
:1041A000704721FA02F3D040C2F120029140084347
:1041B00019467047202A06DBCB17203A41FA02F055
:1041C00043EAE07306E041FA02F3D040C2F1200274
:1041D00091400843194670470246C9B200E0401CAE
:1041E0000378002BFBD102E003788B4203D0401E02
:1041F0009042F9D2002070470FB400B58DB010A9DD
:1042000009900B9000914FF0FF300A9000200C9025
:1042100005480690054807906A4609A80F9900F0DE
:104220001BF80DB05DF814FB7542000893420008BE
:104230003A2800D2303820F02002412A01D3A2F1DE
:104240003700884201D34FF0FF30704702681144B5
:104250001378016018467047D160044951610449E0
:10426000116200211161114600F0DCBC4D420008D2
:104270001D2D0008426842B1016811F8013B23B1CD
:10428000521EC0E90012184670470121C160881E05
:10429000704742685AB1C368016843B983688B426A
:1042A00005D0491E521CC0E90012002070474FF093
:1042B000FF3070472DE9F05F8246007800271546F1
:1042C0008B460AF10104B946302801D09DB113E0B4
:1042D00014F8010B0127782803D0582801D045B1E4
:1042E0000AE00DB1102D07D10027102514F8010B9D
:1042F00002E0082500E00A250026B0460EE005FB96
:10430000080005FB06F1012701EB10461FFA80F8B3
:10431000B6F5803F00D3B94614F8010B2946FFF7E4
:1043200087FF0028EBDABBF1000F05D00FB1641E48
:1043300000E05446CBF80040B9F1000F06D011F070
:10434000D9FB02210160C81EBDE8F09F48EA064083
:10435000FAE70000004870477804002003487047DF
:104360000248001D011F8860001D70477C0400206A
:104370002DE9F0410646FFF7EDFF8046454613E084
:1043800016B1E068B0420ED120682860D4E901017E
:10439000D8F800708847204614F064FDD8F8000073
:1043A000B842EBD100E025462C68002CE8D1BDE8EE
:1043B000F08110B5141E73F1000408DA401C41F1BD
:1043C000000192185B411A4301D120F0010010BD99
:1043D0002DE9F04D92469B4611B1B1FA81F202E00F
:1043E000B0FA80F220329046FFF7C5FE04460F4631
:1043F00040EA0A0041EA0B0153465A46084313D0EB
:10440000114653EA010019D0C8F140025046FFF7A7
:10441000C1FE05460E46504659464246FFF7ABFEE2
:10442000084305D0012004E020463946BDE8F08D60
:104430000020054346EAE0762C4337430A9863059B
:10444000E40AA0EB08000022FD0A44EA47540A30BF
:1044500002D500200146E9E7010510196941DDE9AF
:10446000084500196941BDE8F04DA2E770B521F09B
:10447000004303430CD0C1F30A550024D5EB0405D7
:1044800064EB0403D617AD1AB34102DB00200146EA
:1044900070BD201841EB025170BD0EB540F23342A1
:1044A00002920022CDE900221346FFF791FF03B0EC
:1044B00000BDC1F30A52C1F3130140F2FF3341F4CE
:1044C00080119A4202DA00200146704740F23343DD
:1044D0009A42A2F2334202DC5242FFF75BBEFFF780
:1044E0004ABE01F0004330B421F0004150EA01021D
:1044F00006D00A0DA2F56072C1F31301002A02DC96
:1045000030BC00207047440F44EAC104C100E018E9
:1045100030BC00EBC25000F037BE10B5882014F05C
:104520008DFD002801D00021017010BD802902D826
:1045300008B1017809B100207047012100F8081B7B
:10454000704718B100F10802914201D00020704775
:10455000002101707047000070B50446FFF781FA32
:10456000783405462646204614F068FD040007D13D
:104570003146E869FFF7DAFF040001D1FFF76CF973
:104580000AA104F12000D1E90021C0E900210021A5
:10459000A162E16261612161A161E161A868E060FD
:1045A0006868A06004F1780070BD000041524D00C1
:1045B000432B2B000000000070B5FFF752FA44694E
:1045C000054614B90020FFF747F9E06904F1200619
:1045D000401CE0613046FFF7CFF9002801D0266883
:1045E00003E0286800F10100286002D04FF00002CB
:1045F00000E022684FF000013046FBF7E3FD304653
:10460000FBF7FBFD3046FFF73CF9000073B50C46A5
:10461000FFF727FA54F80C1C203C31B1E169491E20
:10462000E1610168491E01607CBD616804F17805A3
:1046300009B1284688472846BDE87C40FFF7EFB916
:10464000FFF7A4F92846FFF7EAF9FFF7B5FF70B5C1
:104650000D46A0F158044C49A160012140F85C1CB2
:1046600040E91E52FFF7FDF901682A46491C016026
:1046700000212046FBF7A6FD2046FBF7BEFD2046A5
:10468000FFF7FFF82DE9FF4D9A4693460E46804608
:10469000FFF772F9002875D1A8F12000012708F171
:1046A000580805680024CDF808803146284610F0E7
:1046B000A5F810B1CAF8008062E0284611F0BBF9F5
:1046C0000190304611F0B7F900903049019810F090
:1046D00095F820B92D49009810F090F820B1DDE947
:1046E000001010F09BF808BB2849019810F086F8DC
:1046F000C0B1307A297A00F0030001F00301641C94
:1047000031EA00023ED130EA010100D077B1C007A2
:1047100000D100270298ED68F6680028C5D000682F
:104720000290C2E7012C02D06CB109D02AE01849EE
:10473000304610F063F818B1BBF1000F22D1B9E791
:10474000BBF1000F1ED11349019810F057F820B9A2
:104750001149019810F052F8A0B10020009001908A
:1047600033462A4603A902A811F024FA002804D0EF
:104770000399CAF800101CB1022004B0BDE8F08D06
:104780000120FAE70020F8E70D460008E8CB010811
:1047900000CD0108F4CB010800CC010810B5FFF7EB
:1047A00060F9016919B100220261884701E040689F
:1047B0008047AFF30080FFF743B9000010B5029CBB
:1047C00031B101290DD003290BD004290BD108E008
:1047D0004BB90F2A07D800EB820021684160002006
:1047E00010BD012010BD022010BD10B5029C31B1DA
:1047F00001290DD003290BD004290BD108E04BB9B6
:104800000F2A07D800EB820040682060002010BD0E
:10481000012010BD022010BD2DE9F04DC0B098461A
:10482000044631B1012918D0032979D0042979D15E
:1048300076E0B8F1000F75D190B2231D00F400525C
:10484000A16B05E0C50701D020C91D6040081B1DF4
:104850000028F7D1F2BBA1635EE0150C96B2102DD3
:1048600001D2012000E000208246A819102801D9B9
:10487000012700E00027B8F1010F03D0B8F1050FC0
:1048800050D101E03FBB01E020284BD84FF0000B96
:10489000BAF1000F08D02078012805D184F800B0C3
:1048A00004F1480080EC200B47B16078012805D165
:1048B00084F801B004F1C800C0EC200BBAF1000F7D
:1048C00002D0684680EC200B20A883460FB1C0ECD4
:1048D000200B01E020E025E06B46A06B08E00146DC
:1048E00003EBC502D1E900C1C2E900C108306D1C6B
:1048F000761EF4D24146B8F1010F00D0002100EB42
:104900008100A063BAF1000F02D0184690EC200B92
:1049100017B15846D0EC200B002040B0BDE8F08D18
:104920000120FAE70220F8E710B50468904801F189
:104930000802436803444FF0FF30934204D01368E9
:1049400043F31E03134400E003460A6842F31E02C9
:104950001144A14202D89C4201D3012010BD002085
:1049600010BD33B50446824881B0824D016842686B
:1049700001441044401AC21002980823801E02907D
:1049800002A8009500F0A0FC7B49002370B10268EA
:1049900042F31E020244A2644268012A09D0002A9E
:1049A0000ADA001DE064012020650BE00422636147
:1049B00015E00222636112E042F31E02001D104462
:1049C000C4E91303E26C1068002815DAC0F3036031
:1049D00050B101280AD002280CD001226361204680
:1049E000FBF7F0FB09203EBD644800E064486061CD
:1049F00000203EBD6348FAE740F31E001044F6E78E
:104A00000C4605462846216CFFF7ABFF50B9206CD9
:104A100028616B692246294601209847072803D060
:104A20000828EFD0AFF30080201DFBF7D9FBF0B5CD
:104A30000446C068D3B00E46012768B3582014F06E
:104A4000FDFA05002AD0142204F10C0105F10C0036
:104A500000F0B8F8182204F1200105F1200000F060
:104A6000B1F804F1380005F1380C0FC88CE80F00DC
:104A7000E560F06B30644022311D01A800F0A2F81F
:104A80008DF800708DF8017012AF32AD204610998C
:104A9000FFF767FFD0B910E0E760EAE70522364983
:104AA0002046FBF78FFB05E09DF8010010B9284672
:104AB000D0EC200B53B00920F0BD63696A46214653
:104AC00000209847062809D00828DFD09DF800006C
:104AD0000028E9D1384690EC200BE5E79DF800006E
:104AE00010B9384690EC200B9DF8010010B928460B
:104AF000D0EC200B31462046FFF782FF05460069C7
:104B000008640C460A466B69294602209847072824
:104B100003D0082804D0AFF30080201DFBF760FB12
:104B200021462846FFF76CFF70B5C1680546D1B134
:104B300001291AD00C46142205F10C000C3100F0AA
:104B400041F8182204F1200105F1200000F03AF8A4
:104B500004F1380038350FC885E80F002046BDE85D
:104B6000704014F07FB9AFF300800020E86070BDA2
:104B70002002000829490008010000FF0F2D00084D
:104B8000092D0008000000008268002A02D00146BA
:104B90000120104770470000064C074D06E0E06812
:104BA00040F0010394E8070098471034AC42F6D374
:104BB000FBF7EEFAC0D40108E0D4010800487047C2
:104BC00098CB010810B5441A0346944209D28418C0
:104BD000114403E011F8013D04F8013D521EF9D2E1
:104BE00010BD40EA0104A40703D009E010C9121F58
:104BF00010C3042AFAD203E011F8014B03F8014B69
:104C0000521EF9D210BD10B503460020904201D2C9
:104C10000C5C1C540C5C002C01D0401CF6E710BD51
:104C2000FEF7CCB82DE9F34F8BB04FF0000801F13F
:104C30000C000C464FF0010B46460DF1080A01909E
:104C40006269012101989047051E2DD0252D2CD099
:104C5000216A8847C0B16269012101989047216AA1
:104C600088470028F7D1411E62690198904700E00B
:104C7000761CA1690B988847216A88470028F7D1DC
:104C8000E1690B988847DBE7A1690B9888470746DD
:104C9000A84201D1761CD3E7E1690B9888477F1CB5
:104CA00002D1B8F1000F6FD046E1002762693D469E
:104CB0003946019890472A2804D162690121019858
:104CC00090470125DFF8849262690121019890479D
:104CD000A0F130010A290AD24F45E5DC07EB870134
:104CE00000EB4107303FDFD445F01005ECE7E90663
:104CF00001D46FF000476C280AD04C2814D06828E3
:104D000015D06A280DD074281CD07A281AD01DE03E
:104D100062690121019890476C2802D045F0040592
:104D200014E045F002050DE045F020050AE0626957
:104D3000012101989047682802D045F0080505E058
:104D400045F400656269012101989047C4E9015763
:104D500065283DD019DC58287AD00CDC452837D09E
:104D600004DC252826D0412831D131E046282FD037
:104D700047282CD12CE05B2877D0612828D06328E5
:104D80007CD0642823D15AE0D0E06F2848D008DCDA
:104D900066281DD067281BD0692821D06E2816D11F
:104DA00027E0702845D0732868D0752847D0782828
:104DB0000DD14DE0A1690B988847054625283FF4A1
:104DC00069AFE1690B9888476D1C3FF46AAFB3E0A7
:104DD00023466A466FF001000B99FEF787F99EE0C3
:104DE00045F040006060A80723464FF0000236D42B
:104DF0003EE0E8077FF447AF2068011D21600068AE
:104E0000290501D506701BE7290701D5068017E79C
:104E1000A90703D5F117C0E9006111E706600FE7A4
:104E200045F040006060A80723464FF0080216D402
:104E30001EE040F60E0125EA0100606016E045F034
:104E400040006060A80723464FF00A0207D40FE035
:104E500045F040006060A80708D5234610226FF097
:104E600001000B9900F074F859E007E02346102286
:104E70006FF001000B99FEF713F850E04FF00009B6
:104E80004F464B46632802D05B2806D040E0E80638
:104E900001D40120A06001273AE062690121019854
:104EA00090475E2805D14FF0010962694946019893
:104EB0009047216939B900210A46534643F8212019
:104EC000491C0829FADBB0B3216969B9C11700EBA5
:104ED000D16253110AEB830122F01F02821A0120D2
:104EE0000B68904003430B60626901210198904771
:104EF0005D28E8D1B9F1000F09D00020514651F8E2
:104F00002020D24341F82020401C0828F7DB02ABC8
:104F1000224600976FF001000B9900F0C4F80028BA
:104F20000CDA401C08D1BBF1000F05D04FF0FF3068
:104F30000DB0BDE8F08FFFE74046F9E7E90701D182
:104F400008F1010806444FF0000B79E6CCCCCC0CFC
:104F50002DE9FF4F1C4681B00021D4E9016791463D
:104F60004FF0FF358A468846A1696D1C0298884734
:104F7000216A834688470028F6D1BBF1FF3F0CD059
:104F800026F4C066002F1ADD700615D5BBF12B0F75
:104F90000AD0BBF12D0F0FD104E04FF0FF3005B068
:104FA000BDE8F08F46F48066A1696D1C02988847C1
:104FB0007F1E8346002F02DDBBF1300F03D0B9F115
:104FC000000F2AD025E0A1696D1C46F400767F1EF3
:104FD000029888478346002F05DDBBF1780F06D085
:104FE000BBF1580F03D0B9F1000F10D011E0B9F1A7
:104FF000000F02D0B9F1100F0BD1A1696D1C26F47E
:1050000000767F1E029888478346102000E0082023
:1050100081464FEAE970009017E00A20F8E743461E
:10502000AAFB092803FB0980DDF800C07F1E0AFBEC
:105030000C0112EB0B0A41EBEB78A16946F4007608
:1050400005F10105029888478346002F06DD494691
:105050005846FFF7EDF85FEA000BE0D5E1690298EA
:105060008847B00502D46FF0010098E7F00718D127
:10507000700610D57005514605D50023D1EB03010C
:1050800063EB080200E042462068031D23600068CD
:10509000C0E9001205E02068011D21600068C0E938
:1050A00000A828467BE72DE9FF5FD2E901A74FF072
:1050B0000008916999461446DDF838B046460198D3
:1050C0008847054659EA0B0005D009E0A169761C1E
:1050D000019888470546216A284688470028F5D167
:1050E000681C03D05FEACA7005D015E04FF0FF30AE
:1050F00004B0BDE8F09F2068011D2160D0F8008059
:105100000AE05FEACA7001D108F8015BA169761C68
:105110007F1E019888470546002F1ADD681C18D0AD
:10512000B9F1000F0DD0E81705EBD060421120F067
:105130001F0059F822102A1A012090400142E0D1A4
:1051400007E0BBF1000FDCD1216A28468847002820
:10515000D7D0E16901988847BBF1000F07D1002E35
:1051600005DD5FEACA7002D1002188F80010A0684E
:10517000B84203DDBBF1000F03D017B16FF001009F
:10518000B6E73046B4E770470029A8BF7047401C17
:10519000490008BF20F00100704710B4B0FA80FC4D
:1051A00000FA0CF050EA010404BF10BC704749B18A
:1051B000CCF1200421FA04F411FA0CF118BF0121FA
:1051C00021430843A3EB0C01CB1D4FEA00614FEADA
:1051D000102042BF002010BC704700EBC3501044A9
:1051E0000029A4BF10BC7047401C490008BF20F034
:1051F000010010BC70472DE9F04D00231A461B1A20
:105200008A4103DB00200146BDE8F08DC1F30A525C
:10521000C1F3130141F480154FF0000BD10702D107
:1052200000186D41521E0027044640F2FF11384617
:1052300001EB620A3E468046024600204FF4801190
:10524000FEF7A8FFC2197141BB1846EB0100B4EB91
:10525000030C75EB000C04D3E41A65EB000517464C
:105260000E46241908F101006D4180463428E3DD23
:10527000F91946EB0600091BA84103D24FF0FF3293
:10528000134601E0002213461BEB070046EB0A51D0
:10529000BDE8F04DFFF78DB838B568460FF0D6FA87
:1052A0000420FFF759F969460FF0C8FA044668462A
:1052B0000FF0DBFA024A03492046FFF7C8F9000065
:1052C0006B48010848CC01082DE9F05F9946154666
:1052D0000F4683464FF0FF36DDF828A011E0A819ED
:1052E000441009FB047080460146584652469047D8
:1052F000002802D004DA254603E04046BDE8F09FCE
:105300002646A5EB06000128E9DC0020F6E770B58B
:105310008C1810F8015B15F0070301D110F8013B60
:105320002A1106D110F8012B03E010F8016B01F8E7
:10533000016B5B1EF9D12B0705D40023521E0DD43F
:1053400001F8013BFAE710F8013BCB1A921C03E08D
:1053500013F8015B01F8015B521EF9D5A142D8D3C5
:10536000002070BDFEF736FBFEF734FBFAF71AFF9C
:10537000FEF730FBFAF716FF10B504460C230422A3
:105380000249034810F0CFFB10BD0000E39E010866
:10539000A004002038B50446684614F0CCFB014652
:1053A000204614F077FD38BD0029816802D041F015
:1053B000010101E021F0010181607047084B10B547
:1053C000D3F8042307490A40D0E900142143D0E967
:1053D0000240044321431143C3F8041310BD0000ED
:1053E00000200140E030FCFF00210160416081604D
:1053F000C16070470029816802D041F4807101E0EA
:1054000021F48071816070470029816802D041F4E5
:10541000007101E021F400718160704710B5012135
:105420000C02204602F02AFD2046BDE81040002173
:1054300002F024BD30B542680F4B0C791A400B685E
:1054400042EA04221343436082680C4B4D791A40B0
:10545000D1E9034323438C6844EA450423431343BF
:105460008360C26A097D22F47002491EC9B242EA11
:105470000151C16230BD0000FFFEFFFCFDF7FFC01F
:1054800070B5072409290AD9C568A1F10A0606EBF7
:105490004606B440A543B3401D43C56007E0056917
:1054A00001EB4106B440A543B3401D4305611F23F2
:1054B000072A09D2446B521E02EB820293409C439E
:1054C00091400C43446370BD0D2A09D2046BD21F76
:1054D00002EB820293409C4391400C43046370BDF5
:1054E000C46A0D3A02EB820293409C4391400C4304
:1054F000C46270BD816841F08041816070470021C5
:105500000160017141718160C1600161012101751A
:105510007047000010B5024800680AF097F910BD06
:105520009C0000200348006840F004000149086026
:10553000704700000464004010B5024800680AF09B
:105540009BF910BD9C00002010B5024800680AF0CD
:105550007DF910BD9C0000200348006840F0040065
:1055600001490860704700000468004010B5024817
:1055700000680AF081F910BD9C000020094910B5AF
:1055800088424FF0010101D14C0601E04FF08064E8
:10559000204602F05BFC2046BDE81040002102F0EE
:1055A00055BC000000640040F0B5827A01219140B2
:1055B0002E4A136843F0010313602C4B1C331C6804
:1055C0008C431C60294D067B294C0C35A6B92E68EE
:1055D0008E432E604688C78846EA0746877A04EBE2
:1055E000C707C7F840660688878846EA0746877A6D
:1055F00004EBC707C7F84466067B012E12D12E685C
:105600000E432E60867A056804EBC6064FEA3545E0
:10561000C6F84056867A456804EBC6044FEA35451D
:10562000C4F84456114CC57A241D002D256806D0B7
:105630000D4325600D4C0589143415B104E08D43EC
:10564000F7E725688D4325600589012D02D125687E
:105650000D432560407B012802D11868084318607B
:10566000106820F001001060F0BD000000660040EE
:1056700000600040002A426901D00A4300E08A43EA
:105680004261704710B50368002223F002030360F3
:10569000036843F0010303604FF6FF7300E0521C00
:1056A0004468E40701D19A42F9D14268D2073ED05A
:1056B0008A79012A02683CD022F080020260CA790D
:1056C000012A026838D022F0400202600A7A012AD8
:1056D000026834D022F0200202604A7A012A02686D
:1056E00030D022F0100202608A7A012A02682CD09F
:1056F00022F008020260CA7A012A026828D022F049
:10570000040202608A78CC78920742EA04620C793B
:1057100042EA04424C79098842EA0452491E0A438B
:10572000C261016821F001010160002114E0002044
:1057300010BD42F08002C1E742F04002C5E742F0EE
:105740002002C9E742F01002CDE742F00802D1E79B
:1057500042F00402D5E7491C4268D20701D09942C1
:10576000F9D14068C007E2D1012010BD10B500EBAF
:105770000113D3F8B04114F004041472D3F8B0410B
:1057800034D0E408C2F80440D3F8B04104F0020475
:105790005472D3F8B44104F00F049472D3F8B441B6
:1057A000240AD474D3F8B841D472D3F8B841240A87
:1057B0001473D3F8B841240C5473D3F8B841240EB1
:1057C0009473D3F8BC41D473D3F8BC41240A147445
:1057D000D3F8BC41240C5474D3F8BC311B0E937421
:1057E00039B1016941F02001016110BD640D1460FF
:1057F000CAE7C16841F02001C16010BD002181717C
:10580000C171017241728172C1728170C1700321D4
:1058100001710221417101210180704730B50246BA
:10582000002093685B0108D49068000101D5012035
:1058300003E09068C00037D5022002EB0012D2F8D6
:10584000803103F00103C2F880310B7A73B3D2F8D0
:1058500080414D681C434B7A43EAC5031C43C2F8A0
:1058600080418B7A03F00F038B72D2F8843123F0DE
:105870000F03C2F88431D2F884318C7A2343C2F802
:105880008431CB7ACC6843EA0423C2F88831CB7BDD
:10589000096943EA0121C2F88C11D2F8801141F064
:1058A0000101C2F8801130BD042030BDD2F8803132
:1058B0004C7A23430C8843EA4453C2F88031D0E742
:1058C00010B50022044B03E050F822401C60521C2B
:1058D0008A42F9D3186810BD0030024001490860BF
:1058E0000868704700300240014901208860704715
:1058F00000300240044A01238340106809B1184374
:1059000000E098431060704700740040044A93140C
:105910008340106809B1184300E098431060704755
:105920000074004010B501214C07204602F08EFAA9
:105930002046BDE81040002102F088BA30B5084C7E
:10594000236840F6FE7282409343D1E900252A4342
:10595000D1E902510D432A4382401A43226030BDEF
:1059600000740040034A08B51044083000900160FC
:1059700008BD000000740040034A08B5104414300C
:105980000090016008BD0000007400400309054A52
:10599000012098400029116801D0014300E08143B3
:1059A0001160704704740040002101604160816013
:1059B000C160704710B50A460C0601F07F0303EB87
:1059C000830100EBC10102D501F58E7101E001F503
:1059D0005D71D2090B704A7006F0CEF8002010BD40
:1059E0000A4610B5090602F07F0306D503EB8301D2
:1059F00000EBC10101F58E7105E002EB820100EBC5
:105A0000C10101F55D7100248C700B70D2094A70E0
:105A100006F099F8002010BD10B50A0604D501F073
:105A20007F0106F0D7F901E006F0B8F9002010BDBB
:105A300070B50C460E0601F07F0505EB850100EB05
:105A4000C10102D501F58E7101E001F55D71E40936
:105A50000D704C708A60CB7000D0CD80022B01D1CC
:105A600000220A7106F046F8002070BD10B501F062
:105A70007F0404EB840100EBC101C1F88833C1F855
:105A800080230023C1F88C3381F8753381F8744387
:105A9000C37801F55D71012B00D10A6114F0FF0F8D
:105AA00003D006F09BF8002010BD05F0B5FFFAE723
:105AB0000069002261F30A12016811430160704716
:105AC0000A4610B5090602F07F0306D503EB8301F1
:105AD00000EBC10101F58E7105E002EB820100EBE4
