:020000040800F2
:10800000D0B40020458200084D8200084F8200084D
:1080100051820008538200085582000800000000C9
:10802000000000000000000000000000578200086F
:1080300059820008000000005B82000831E100085E
:108040005F8200085F8200085F8200085F8200088C
:108050005F8200085F8200085F8200085F8200087C
:108060005F8200085F8200085F8200085F8200086C
:108070005F8200085F8200085F8200085F8200085C
:108080005F8200085F8200085F82000889AD0008F7
:1080900065AD00085F82000875AD00085F820008CA
:1080A0005F8200085F8200085F8200085F8200082C
:1080B0005F820008B5E200085F8200085F82000866
:1080C0005F8200085F8200085F8200085F8200080C
:1080D0005F8200085F8200085F820008B5E8000840
:1080E0005F8200085F8200085F8200085F820008EC
:1080F0005F8200085F8200085F8200085F820008DC
:108100005F8200085F8200085F8200085F820008CB
:108110005F8200085F8200085F8200085F820008BB
:108120005F8200085F8200085F8200085F820008AB
:108130005F8200085F8200085F820008BDAD000812
:1081400099AD00085F820008A9AD000821D500089C
:108150005F8200085F8200085F8200085F8200087B
:108160005F8200085F8200085F8200085F8200086B
:108170005F8200085F8200085F8200085F8200085B
:108180005F8200085F820008DFF814D002F062F915
:1081900000F048FC0048004727FA010801F010FDF4
:1081A000D0B40020FEB442464B4654465D463EB431
:1081B00000F075F83EBC90469946A246AB46FEBC20
:1081C00000F032F8704700BF80EC200B7047C0EC25
:1081D000200B704790EC200B7047D0EC200B7047C1
:1081E00085460D98DDF838E00F9B5DF8042B20E9FB
:1081F0000C009DE8FE1F854601BD4DF808ED0DF110
:10820000080E4DF804ED2DE9FF1F002102B4694668
:1082100081B002F06AF8DDF840E012B0704700006B
:10822000F0D00100D0D801004DF808ED0DF1080E96
:108230004DF804ED2DE9FF1F002102B4694681B01D
:1082400002F0BAB80648804706480047FEE7FEE756
:10825000FEE7FEE7FEE7FEE7FEE7FEE7FEE7FEE7F6
:1082600011E200088981000870B5054601F021F887
:108270000446284600F0A8FF38B12946A06901F05D
:108280003DF8C169491CC16102E0A5F12000C16946
:10829000012902D1A1698161A061012070BD70B581
:1082A00001F007F8846905460CB900F0F1FF04F10C
:1082B0002006304600F088FF68B1E0692668012892
:1082C00002D0401EE0610BE0A16904F17800A961D1
:1082D00000F0CDFF04E0E069012801D1A069A861A8
:1082E000304670BD012301F043B8002301F040B8CF
:1082F000004870477C46020810B50446FFF7F8FFB7
:108300000068005D00F0010010BDA0F161011929B5
:1083100000D82038704700000649074A08685043D3
:1083200043F2390210440860400870470149086070
:1083300070470000500500206D4EC64140EA010321
:108340009B0703D009E008C9121F08C0042AFAD20B
:1083500003E011F8013B00F8013B521EF9D27047CF
:10836000D2B201E000F8012B491EFBD27047002277
:10837000F6E710B513460A4604461946FFF7F0FF24
:10838000204610BD421E12F8013F002BFBD111F810
:10839000013B02F8013B002BF9D17047CAB2401EE5
:1083A00010F8011F8A4202D00029F9D1002070473D
:1083B000421C10F8011B0029FBD1801A704710B530
:1083C000002200E0521C835C8C5CA34201D1002B94
:1083D000F8D1D8B2E1B2401A10BD034611F8012B12
:1083E00000F8012B002AF9D11846704730B5054630
:1083F0000020034600E05B1C934205D2EC5CC85CA5
:10840000201A01D1002CF6D130BD000070B50F4DFF
:1084100000B92868002412E00A4602E09E4203D018
:10842000521C1378002BF9D1DAB2224305D02BB1BC
:1084300024B1002100F8011B04E00446401C06782A
:10844000002EE9D12860204670BD000054050020B0
:1084500010B54843044617F0EBFA002805D0002178
:10846000002C02D0641E0155FAE710BD0FB400B510
:108470008DB010A909900B9000914FF0FF300A9039
:1084800000200C9005480690054807906A4609A808
:108490000F9901F009FB0DB05DF814FBC59A0008B7
:1084A000E39A00082DE9FF5F1D464FF0FF3BD5E939
:1084B000014691465F464FF00008A9697F1C01986C
:1084C0008847296A824688470028F6D1BAF1FF3FDB
:1084D0000CD024F4C064002E19DD600614D5BAF166
:1084E0002B0F09D0BAF12D0F0ED103E0584604B07E
:1084F000BDE8F09F44F48064A9697F1C0198884717
:10850000761E8246002E02DDBAF1300F03D0B9F19B
:10851000000F26D032E0A969761E44F400747F1C57
:10852000019888478246002E05DDBAF1780F06D003
:10853000BAF1580F03D0B9F1000F10D01EE0B9F115
:10854000000F02D0B9F1100F18D1A969761E24F4DA
:1085500000747F1C019888478246102002E00820A2
:1085600000E00A20814609E008FB0908A969761E97
:1085700044F400747F1C019888478246002E05DD74
:108580004946504601F07CFA0028EDDAE969019885
:108590008847A00502D46FF00100A8E7E00725D1C5
:1085A000600613D5600502D5C8F1000000E0404622
:1085B00029680A1D2A600968220501D5087015E09E
:1085C000220701D5088011E008600FE02868011D2E
:1085D00029600068210502D580F8008006E02107A7
:1085E00002D5A0F8008001E0C0F8008038467EE7A0
:1085F0002DE9FF4F087881B09946FF2805D0491C26
:108600002D2804D00024002308E000230BE00124DF
:10861000F9E703EB830300EB4303491C0878FF28C9
:10862000F7D104B15B4200200090147801462D2C54
:1086300001D02B2C04D1521C2D2C12D000240094DC
:1086400000251678FF2E0ED00A24A0FB04C801FBDB
:108650000481002700FB0711521C16EB0C00694136
:10866000EFE70124EBE7994450EA01020ED0002421
:10867000AA4D2646DFF8A88201F06EFB82468B46A3
:10868000B9F1000009DAC9F100071BE001980021E7
:10869000C0E9001105B0BDE8F08F074612E0F80709
:1086A00007D022462B463046414600F051FB064695
:1086B000884622462B461046194600F049FB0446E0
:1086C0000D467F10002FEAD1B9F1000F3246434624
:1086D0005046594602DA00F0ADFB01E000F038FBED
:1086E000009A0AB181F00041019AC2E90001D1E784
:1086F0002DE9FF4F1F468DB0D7E901464FF0FF38F7
:108700002E2045464FF000090B90B9696D1C0E985C
:108710008847396A824688470028F6D1BAF1FF3F78
:108720000AD024F4D064002E11DDBAF12B0F08D04A
:10873000BAF12D0F0BD102E0404611B0ABE744F483
:108740008064B9696D1C0E9888478246761E69461A
:10875000600501D52D2000E02B208DF8000001F1EF
:10876000010B0DF1200809E0B9696D1C0E988847CE
:1087700082460F9844F40074761E0560002E02DDD8
:10878000BAF1300FF0D00B998A453ED144F0800405
:1087900006E00F99681CA9F1010944F4007408600F
:1087A000B9696D1C761E0E98884782463028F0D035
:1087B0002BE00B998A4505D1200603D444F08004B0
:1087C000761E18E0504613F061FE08B30DF1130158
:1087D000761E44F400748B4508D2AAF130000BF8E1
:1087E000010B200607D5A9F1010003E0200602D401
:1087F00009F101008146A00502D50F99681C0860A7
:10880000B9696D1C0E9888478246002ED1DC53E072
:10881000002E51DDBAF1650F02D0BAF1450F4BD1F0
:10882000A00549D5B9696D1C24F44074761E0E98D4
:1088300088478246002E0CDD2B2804D0BAF12D0F7C
:1088400007D144F48074B9696D1C0E98884782463C
:10885000761EE00501D52D2100E02B2108F8011B33
:10886000CDF82C8021E00DF12901761E44F400742E
:1088700088450CD2AAF1300010F0FF0088F8000003
:1088800002D10B99884509D908F1010806E0E005F5
:1088900001D5244801E042F20F708146B9696D1C90
:1088A0000E98884782460F980560002E04DD5046DA
:1088B00013F0ECFD0028D6D1F9690E988847FF2007
:1088C0008BF8000088F800000020069007904B46C7
:1088D0006A4608A906A8FFF78BFEA00502D46FF030
:1088E00001002AE714F0240F0AD0E00714D1DDE9D3
:1088F00006123868031D3B600068C0E900120BE0F7
:10890000DDE9060101F04CFA0146E00704D13868C0
:10891000021D3A600068016028460EE7000024400E
:108920000000F03FF1D8FFFF2DE9F04791460F46D8
:1089300080460446002614F8015B2DB1FFF7D8FCF1
:108940000068405DC007F6D12B2D02D02D2D18D028
:10895000641E4A463946204601F0D4F827B13968EA
:10896000A14201D1C7F8008071054FF002040BD578
:108970004042002803DD12F05DFE0460A007BDE860
:10898000F08746F48066E4E70028F8DA12F052FE39
:1089900004606FF00040F2E72DE9F05F93460F4668
:1089A00080460446002612F045FED0F8009082462C
:1089B00014F8015B2DB1FFF79BFC0068405DC00718
:1089C000F6D12B2D02D02D2D1AD0641E0021CAF80D
:1089D00000105A463946204601F094F8014627B166
:1089E0003868A04201D1C7F80080DAF800000228F8
:1089F00009D0CAF80090700505D54842BDE8F09F3F
:108A000046F48066E2E70846F8E770B5064612F0DD
:108A100011FE046805460A2200213046FFF784FF54
:108A20002C6070BD70B5054C054D03E020682044F6
:108A30008047241DAC42F9D170BD000000530208EC
:108A4000105302082DE9F041074615460E46102046
:108A500016F0EEFF04000AD06760C4E9026501F079
:108A6000A1F80168216004600020BDE8F0810120C8
:108A7000FBE7F0B480EA0102D40F4200B2EB410FF1
:108A800002D20246084611464A0042D0C30DDDB26A
:108A9000C1F3C752AD1A202D35DAC1F3160141F4E6
:108AA000000204B15242C5F1200602FA06F12A4141
:108AB0001044B3EBD05F23D0C4B1012DA0EBC35061
:108AC00009DCF0BC4FF0004202EAC352DBB200F511
:108AD000000001F09FB8400000F1807000EBC3502F
:108AE000A0F1807040EAD170490009E0490841EAEC
:108AF000C071A0EBC35000F50000400800EBC3506C
:108B0000F0BC01F07EB86142012202EB4101001B82
:108B1000F6E7F0BC704781F00041AAE780F0004022
:108B2000A7E780EA010210B502F00043400022D01E
:108B30004A001FD0010E01EB1261C0F35600C2F3D0
:108B4000560240F4000042F40002A0FB02200004A0
:108B50007F39140400D0401C50EA124001D4400078
:108B6000491EC2B20C0604EBD010401C4008802AFB
:108B700002D003E0002010BD20F00100002900DA3F
:108B80000020184310BD30B480EA010202F0004515
:108B900030F0004221F0004013D090B1C30DD40D4D
:108BA000C2F31601C0F31600E41A41F4000140F4C8
:108BB00000027D34914201D3641C00E04900002C86
:108BC00002DA30BC002070474FF4000000239142CD
:108BD00001D3891A034340084FEA4101F7D151B14B
:108BE000914202D14FF0004105E002D24FF0010165
:108BF00001E06FF0010103EBC450284430BC01F0E8
:108C000000B82DE9FE4F804681EA0300C00F0C46F4
:108C1000009021F0004123F00045B8EB0200A9418B
:108C200005D24046214690461C460B46024623F09C
:108C30000040104347D0270DC7F30A00C3F30A5181
:108C40000290401A019040286BDAC3F3130040F4FD
:108C5000801B0098924620B10023D2EB030A63EBFD
:108C60000B0B01985946C0F14002504600F0ABFE94
:108C700006460D4650465946019A00F0C3FE10EBD9
:108C800008006141002487EA115284EAE7731A431D
:108C900040D0009A62B3019A012A4FEA075215DCCC
:108CA000001B61EB02014FF0004202EA0752CDE9DE
:108CB0000042001C41F5801132462B4600F0E7FFD0
:108CC00003B0BDE8F08F40462146F9E7001B61EB99
:108CD0000201001C41F5801300185B412018A2F529
:108CE000001747EB030140EAD570B6196D4111E05A
:108CF0006D084FEA360645EAC0754FEA0752001B79
:108D000061EB0201001C41F5801149084FEA300077
:108D10000019514132462B4603B0BDE8F04F00F038
:108D2000A7BF0098012240000023D0EB020263EBB2
:108D3000E073009821464FEAE074B8EB000061EB65
:108D40000401E9E783F000435BE781F0004158E765
:108D50002DE9FE4F81EA030404F0004421F00041B4
:108D600000944FF0000B23F0004350EA01045ED062
:108D700052EA03045BD0C3F30A54C1F30A552C44EE
:108D8000A4F2F3340194A0FB0254C1F3130141F4A3
:108D90008011C3F3130343F4801301FB024400FB6F
:108DA000034E840A970A44EA815447EA8357A4FB96
:108DB000076802958D0A05FB07854FEA932C04FB93
:108DC0000C542705029D4FEA065847EA1637B5EBC3
:108DD00008056EEB070C870E920E47EA811742EAF0
:108DE0008312A7FB0201B6EB0B0164EB00042B0D11
:108DF00043EA0C335E1844EB1C50DA465146E7FB5D
:108E00000201C5F313044FEA0B3343EA14534FEA4C
:108E10000432019C43EA0603A4F10C040294009C72
:108E2000CDE900B400F033FF03B0BDE8F08F0020BF
:108E30000146F9E72DE9F04D81EA030404F0004B07
:108E400021F0004514464FF0000A23F0004150EA9B
:108E5000050220D054EA01021DD0C5F30A5702468C
:108E6000C5F31303C1F31300C1F30A5640F4801590
:108E700043F48013A7EB0608101BD64608F2FD3812
:108E800073EB050002D308F1010801E092185B4181
:108E9000B8F1000F03DA00200146BDE8F08D002094
:108EA0004FF48011064684460EE0171B73EB05074E
:108EB00005D3121B63EB050306434CEA010C49087A
:108EC0004FEA300092185B4150EA0107EDD152EAB7
:108ED000030012D082EA040083EA0501084305D0AA
:108EE000101BAB4106D20122002306E000224FF006
:108EF000004302E06FF0010253101AEB06004CEB46
:108F0000085110EB0A0041EB0B01BDE8F04D00F0F9
:108F1000AFBEC10F80EAE0700844CA079623002163
:108F200000F078BE96230022114600F073BE0EB505
:108F3000C10F80EAE0700844CA07002140F23343C1
:108F40008DE80E000A460B4600F0A1FE03B000BDFE
:108F50000EB540F2334102910021CDE900110A46DD
:108F60000B4600F094FE03B000BD00F0004220F07C
:108F70000040C10DC0F3160040F400007F2901DA63
:108F800000207047962903DCC1F19601C84001E03A
:108F900096398840002AF4D04042704720F00040C3
:108FA000C10DC0F3160040F400007F2901DA002053
:108FB0007047962903DCC1F19601C8407047963985
:108FC0008840704770B5C1F30A5201F00045002493
:108FD000C1F3130140F2FF3341F480119A4201DAE8
:108FE000002070BD40F233439A42A2F2334203DCC8
:108FF000524200F0F7FC00E090402C43F1D0404298
:1090000070BDC1F30A5210B5C1F3130140F2FF3332
:1090100041F480119A4201DA002010BD40F233433E
:109020009A42A2F2334203DC524200F0DBFC10BD54
:10903000904010BD30B5041E71F1000404DB4FF008
:109040000044404264EB0101141E73F1000405DB8F
:109050001C464FF00043524263EB04038B4208BFAF
:10906000824230BD30B5041E71F1000404DB4FF0C4
:109070000044404264EB0101141E73F1000405DB5F
:109080001C464FF00043524263EB0403994208BF71
:10909000904230BD002801DBC0F10040002901DB17
:1090A000C1F100418142704770B5054600F001F9F9
:1090B00004461DB1284600F087F808B1A06801E019
:1090C00055F8140C206101202073BDE8704000F0B9
:1090D000DFB8040001D000F081F82046FFF7E4FF7C
:1090E0002DE9F14DD0E90C8581B00646D0F828A0D5
:1090F00000F0DFF80446A6F12007304600F06EF8D5
:10910000304600F061F808B1606800E0B86820619E
:1091100000F0A2FFBDE8FC8D00F060F86669BE4279
:1091200002D100F07FF80DE03069606100F07AF85C
:1091300005E000F053F800F0ABF800F073F8606958
:109140003061666100273C4606F1200B11E02E6875
:109150006B4600223146584600F0F2FE08B100F09E
:1091600089FE3146104811F0FBF800B10127454453
:10917000641C5445EBD38FB1684611F0D1FA04203A
:1091800000F048FE694611F0C3FA0446684611F043
:10919000D6FA064A0449204600F0B7FE5846FFF7C3
:1091A00083FF00F03FF8B5E7B04A02083FA7010887
:1091B00002680B689A4205D140684968884201D12B
:1091C000012070470020704710B50349FFF7F0FFFA
:1091D00080F0010010BD00008048020870B505460F
:1091E000466A00F066F804462846FFF7EDFF20B116
:1091F0002946606900F082F807E0A5F12000C16906
:10920000491EC1612168491E21604169491C4161B3
:10921000016911B9616901616061284601F0E2F8F4
:10922000304670BD70B500F044F8446905460CB98D
:1092300000F02EF86069401E606117D104F120062D
:109240003046FFF7C1FF21696961E56928B104F182
:109250007800266800F00BF801E000202061002D66
:1092600004D13046BDE8704001F0ECB870BD10B5D7
:10927000044600F01EF8783CC069214600F0C0FDAD
:10928000002804D12046BDE8104016F0BFB910BD3B
:1092900010B500F00EF8016919B10022026188478B
:1092A00001E080688047AFF30080000010B5AFF3A5
:1092B000008070B500F07CFC04680546A4B920204D
:1092C00016F0B6FB040011D0094900202C60C4E957
:1092D00000010849A1602073206160610649A06116
:1092E00009B100F079FDE061204670BDAFF3008068
:1092F00073A00008AD9200080000000070B50400E3
:109300000D4609D004F12000FFF752FF20B120687C
:10931000A84201D1204670BD002000F07BFDD5E9B8
:109320000023A0F15801C1E90023002240F85C2C81
:1093300040F8642C40F8682C40F8785D70BD00005F
:10934000017A51B9417A89B1491E417241680A1DB9
:1093500042600968016004210172C9B2491E0172AC
:1093600001680A0E0902016010467047B02070477C
:109370002DE9FF4D8CB05FEA000B4FF00000164660
:109380000D4607900990059008900DD0BBF1010F94
:109390000AD0BBF1020F01D0002204E2A86BA8643E
:1093A000E86B04902C6C0FE095F85000C007E86C57
:1093B000049078D10F9818B104980068C0F3074062
:1093C000049901EB800442E00F98022811D027880D
:1093D000002F68D06088241D00F00102394662F336
:1093E0005F0161B1012934D002297DD00329EBD17D
:1093F0002FE12768002FECD060680834ECE7BBF160
:10940000000F24D0A96C002301EB000806A90091ED
:1094100030460F22194600F046FE0698804516D8C1
:1094200008EB0701814212D9A96CA963201D049998
:10943000C5E90F102846FEF717FF0028ACD02068BA
:109440000F2240F31E0004443046049423E0241D00
:10945000BAE7BBF1000F27D006A9002300913046E0
:109460000D22194600F01FFE0698296A88426ED127
:10947000E86AA0426BD1206804A940F31E000444AE
:109480000023009130460F220494194600F0F4FDA9
:1094900030460022049504A900230091194600F0EB
:1094A000EBFD22463DE2D6E0A96C002301EB00086B
:1094B0000AA9009130460F22194600F0F4FD0A98DF
:1094C0007F1E804543D808EB070181423FD967687A
:1094D000B81C0ED0781C0ED0206806ABC20F3946DF
:1094E000284600F02DFD00E033E078B302281DD0BF
:1094F00004E0022257E105F15800069004A9002378
:10950000009130460D22194600F0CDFD0498EC6222
:109510002862069868622068022140F31E00021942
:109520002846FEF74FFE3A4680215FE004A900235B
:10953000009130460D22194600F0B5FD0498EC620A
:1095400028620698A86205F12800E3E7FFE70834DF
:109550003AE72168069121F00048BBF1000F10D0D6
:109560000AA90023009130460D22194600F09BFD08
:109570000A98296A884240D1E86AA0423DD1012078
:109580003CE0A96C401E01EB000A0AA900230091EF
:1095900030460F22194600F086FD0A9882453AD8D7
:1095A0000AEB0701814236D904F1040A00270AE0D8
:1095B0006B4600222846DAF8001000F0C1FC20B902
:1095C0000AF1040A7F1C4745F2D3474523D104A979
:1095D0000023009130460D22194600F064FD0498E6
:1095E000EC6228620020D34A022168622846FEF716
:1095F000E9FD062010B0BDE8F08D002058B1002034
:10960000C5E90A8004202863201D68630698404548
:1096100006D1012007900698404515D1002014E09E
:1096200004EB8800002250F8041F134641F31E018A
:109630000C1804A9009130460495114600F01CFD59
:1096400030460F22049465E1042000EB88000444B6
:10965000FDE60122A7E00498006801900498001D2F
:1096600002900F9810B30198000C8DF80D0001982E
:109670000004019002208DF80C0001A8FFF760FEA5
:109680000446B0281AD03F2C41D800F03F010420F6
:1096900000EB810706A90D240023009130462246E5
:1096A000194600F000FD0698384442E000208DF88D
:1096B0000D000198000201900320DCE70998B0B981
:1096C00005980028C5D004A8002300900E22194652
:1096D000304600F0E8FC0499059105A900230091AB
:1096E00030460F22194600F0C7FC01200890079869
:1096F000002870D0002204A900913046134604953A
:10970000114600F0B9FC0898002878D0FEE07F2CC4
:1097100019D800F03F01042000EB810706A90D24B1
:109720000023009130462246194600F0BCFC069802
:10973000C01B049004A8002300902246194630461E
:1097400000F09AFC99E78F2C1AD80007040C01A8A6
:10975000FFF7F6FD54EA00143FF4CBAE0023224697
:109760001946304600F0B6FC08B103221BE0200485
:1097700001D5012009906004E4D5012005907CE723
:109780009F2C16D800F00F020D2A0BD00F2A09D0FB
:1097900006A9002300910D243046194600F083FCF1
:1097A0000698C6E7042201212846FEF70BFD092092
:1097B00020E7AF2C10D804F007000121401C8140A5
:1097C0000A01103A200703D5012042F48042059097
:1097D0000023194658E0AAE0B72C35D8B12C0FD099
:1097E000B22C15D0B328DDD101A8FFF7A9FD00F0F8
:1097F0000F0100F0F000491C41EA00322BE073E059
:1098000001A8FFF79DFD0200CCD00F2AE0D9C9E7DF
:1098100000273C4601A8FFF793FD00F07F01A1401F
:109820000F43000601D5E41DF4E706A90D2400232B
:10983000009130462246194600F035FC069800EBB0
:10984000870000F5017074E7BF2C07D800F007000F
:10985000401C40F400220123012115E0C72C25D82B
:1098600009D101A8FFF76CFD02009BD00F2A99D8FF
:109870000023042108E0C62C0DD000F00700401C96
:1098800040F4202203231946304600F023FC002830
:109890003FF458AF69E701A8FFF752FD00F00F0150
:1098A00000F0F000491C41EA0032EBE7C82C0BD075
:1098B000C92C09D0CF2CAAD9D72CA8D800F00700E2
:1098C000401C40F400220DE001A8FFF739FD00F034
:1098D0000F01491C00F0F00041EA0032C82C01D110
:1098E00002F580120523B7E704A8002300900F2299
:1098F0001946304600F0D7FB0499059105A90023CD
:10990000009130460E22194600F0B6FB0949304658
:109910000F22049104A900230091194600F0ACFB2A
:10992000044A03212846FEF74DFC072062E6082082
:1099300060E60000E190000830B50B4601460020CB
:109940002022012409E021FA02F59D4205D303FA01
:1099500002F5491B04FA02F52844151EA2F1010282
:10996000F1DC30BD2DE9F05F0546002092469B46B4
:1099700088460646814640241BE028464146474625
:10998000224600F02FF853465A46C01A914110D390
:1099900011461846224600F016F82D1A67EB01080A
:1099A0004F4622460120002100F00DF817EB000978
:1099B0004E41201EA4F10104DFDC484631462A4610
:1099C0004346BDE8F09F202A04DB203A00FA02F16A
:1099D000002070479140C2F1200320FA03F319439D
:1099E00090407047202A04DB203A21FA02F000213F
:1099F000704721FA02F3D040C2F12002914008439F
:109A000019467047202A06DBCB17203A41FA02F0AC
:109A100043EAE07306E041FA02F3D040C2F12002CB
:109A200091400843194670470246C9B200E0401C05
:109A30000378002BFBD102E003788B4203D0401E59
:109A40009042F9D2002070470FB400B58DB010A934
:109A500009900B9000914FF0FF300A9000200C907D
:109A600005480690054807906A4609A80F9900F036
:109A70001BF80DB05DF814FBC59A0008E39A0008C6
:109A80003A2800D2303820F02002412A01D3A2F136
:109A90003700884201D34FF0FF307047026811440D
:109AA0001378016018467047D16004495161044938
:109AB000116200211161114600F012BD9D9A00084B
:109AC000F9820008426842B1016811F8013B23B1F4
:109AD000521EC0E90012184670470121C160881E5D
:109AE000704742685AB1C368016843B983688B42C2
:109AF00005D0491E521CC0E90012002070474FF0EB
:109B0000FF3070472DE9F05F824600780027154648
:109B10008B460AF10104B946302801D09DB113E00B
:109B200014F8010B0127782803D0582801D045B13B
:109B30000AE00DB1102D07D10027102514F8010BF4
:109B400002E0082500E00A250026B0460EE005FBED
:109B5000080005FB06F1012701EB10461FFA80F80B
:109B6000B6F5803F00D3B94614F8010B2946FFF73C
:109B700087FF0028EBDABBF1000F05D00FB1641EA0
:109B800000E05446CBF80040B9F1000F06D011F0C8
:109B900051FD02210160C81EBDE8F09F48EA064061
:109BA000FAE70000004870478C0500200348704722
:109BB0000248001D011F8860001D704790050020AD
:109BC0002DE9F0410646FFF7EDFF8046454613E0DC
:109BD00016B1E068B0420ED120682860D4E90101D6
:109BE000D8F800708847204615F010FDD8F800001E
:109BF000B842EBD100E025462C68002CE8D1BDE846
:109C0000F0810029A8BF7047401C490008BF20F020
:109C10000100704710B4B0FA80FC00FA0CF050EA72
:109C2000010404BF10BC704749B1CCF1200421FAF3
:109C300004F411FA0CF118BF012121430843A3EBEE
:109C40000C01CB1D4FEA00614FEA102042BF0020FB
:109C500010BC704700EBC35010440029A4BF10BCD7
:109C60007047401C490008BF20F0010010BC70473D
:109C700010B5141E73F1000408DA401C41F1000114
:109C800092185B411A4301D120F0010010BD2DE96B
:109C9000F04D92469B4611B1B1FA81F202E0B0FA62
:109CA00080F220329046FFF78EFE04460F4640EACF
:109CB0000A0041EA0B0153465A46084313D01146A5
:109CC00053EA010019D0C8F140025046FFF78AFE5E
:109CD00005460E46504659464246FFF774FE084375
:109CE00005D0012004E020463946BDE8F08D002073
:109CF000054346EAE0762C4337430A986305E40AB5
:109D0000A0EB08000022FD0A44EA47540A3002D5BD
:109D100000200146E9E7010510196941DDE9084520
:109D200000196941BDE8F04DA2E770B521F000438C
:109D300003430CD0C1F30A550024D5EB040564EBB2
:109D40000403D617AD1AB34102DB0020014670BDF3
:109D5000201841EB025170BD0EB540F23342029221
:109D60000022CDE900221346FFF791FF03B000BDAA
:109D7000C1F30A52C1F3130140F2FF3341F48011E1
:109D80009A4202DA00200146704740F233439A4279
:109D9000A2F2334202DC5242FFF724BEFFF713BEA9
:109DA00001F0004330B421F0004150EA010206D036
:109DB0000A0DA2F56072C1F31301002A02DC30BC67
:109DC00000207047440F44EAC104C100E01830BCD1
:109DD00000EBC250FFF715BF10B5882015F028FE24
:109DE000002801D00021017010BD802902D808B1DF
:109DF000017809B100207047012100F8081B704765
:109E000018B100F10802914201D0002070470021F2
:109E10000170704770B50446FFF74BFA7834054679
:109E20002646204615F004FE040007D13146E869B5
:109E3000FFF7DBFF040001D1FFF736F90AA104F1B7
:109E40002000D1E90021C0E900210021A162E162E6
:109E500061612161A161E161A868E0606868A0605A
:109E600004F1780070BD000041524D00432B2B00DF
:109E70000000000070B5FFF71CFA4469054614B9EC
:109E80000020FFF711F9E06904F12006401CE061B1
:109E90003046FFF799F9002801D0266803E02868CA
:109EA00000F10100286002D04FF0000200E02268BB
:109EB0004FF000013046FEF785F93046FEF79DF978
:109EC0003046FFF706F9000073B50C46FFF7F1F9CD
:109ED00054F80C1C203C31B1E169491EE161016874
:109EE000491E01607CBD616804F1780509B128460E
:109EF00088472846BDE87C40FFF7B9B9FFF76EF9FF
:109F00002846FFF7B4F9FFF7B5FF70B50D46A0F18D
:109F100058044C49A160012140F85C1C40E91E52E4
:109F2000FFF7C7F901682A46491C01600021204655
:109F3000FEF748F92046FEF760F92046FFF7C9F81A
:109F40002DE9FF4D9A4693460E468046FFF73CF9B1
:109F5000002875D1A8F12000012708F158080568EC
:109F60000024CDF808803146284610F0F9F910B1E8
:109F7000CAF8008062E0284611F001FB01903046EB
:109F800011F0FDFA00903049019810F0E9F920B97C
:109F90002D49009810F0E4F920B1DDE9001010F02F
:109FA000EFF908BB2849019810F0DAF9C0B1307A0E
:109FB000297A00F0030001F00301641C31EA000279
:109FC0003ED130EA010100D077B1C00700D10027AF
:109FD0000298ED68F6680028C5D000680290C2E7D4
:109FE000012C02D06CB109D02AE01849304610F09B
:109FF000B7F918B1BBF1000F22D1B9E7BBF1000FDF
:10A000001ED11349019810F0ABF920B911490198FC
:10A0100010F0A6F9A0B100200090019033462A4626
:10A0200003A902A811F066FB002804D00399CAF81E
:10A0300000101CB1022004B0BDE8F08D0120FAE749
:10A040000020F8E7C99E0008084A0208204B0208D1
:10A05000144A0208204A020810B5FFF72AF90169DC
:10A0600019B100220261884701E040688047AFF3E0
:10A070000080FFF70DB9000010B5029C31B1012935
:10A080000DD003290BD004290BD108E04BB90F2ABE
:10A0900007D800EB820021684160002010BD01203C
:10A0A00010BD022010BD10B5029C31B101290DD0A8
:10A0B00003290BD004290BD108E04BB90F2A07D88C
:10A0C00000EB820040682060002010BD012010BD20
:10A0D000022010BD2DE9F04DC0B09846044631B1C4
:10A0E000012918D0032979D0042979D176E0B8F173
:10A0F000000F75D190B2231D00F40052A16B05E052
:10A10000C50701D020C91D6040081B1D0028F7D1DC
:10A11000F2BBA1635EE0150C96B2102D01D20120B6
:10A1200000E000208246A819102801D9012700E08C
:10A130000027B8F1010F03D0B8F1050F50D101E0AD
:10A140003FBB01E020284BD84FF0000BBAF1000FC5
:10A1500008D02078012805D184F800B004F1480027
:10A1600080EC200B47B16078012805D184F801B05C
:10A1700004F1C800C0EC200BBAF1000F02D0684611
:10A1800080EC200B20A883460FB1C0EC200B01E02F
:10A1900020E025E06B46A06B08E0014603EBC5021A
:10A1A000D1E900C1C2E900C108306D1C761EF4D2AD
:10A1B0004146B8F1010F00D0002100EB8100A063FF
:10A1C000BAF1000F02D0184690EC200B17B1584698
:10A1D000D0EC200B002040B0BDE8F08D0120FAE764
:10A1E0000220F8E710B50468904801F108024368BE
:10A1F00003444FF0FF30934204D0136843F31E032F
:10A20000134400E003460A6842F31E021144A142CF
:10A2100002D89C4201D3012010BD002010BD33B5EF
:10A220000446824881B0824D01684268014410446E
:10A23000401AC21002980823801E029002A80095BE
:10A2400000F06AFC7B49002370B1026842F31E02F1
:10A250000244A2644268012A09D0002A0ADA001DD9
:10A26000E064012020650BE00422636115E0022216
:10A27000636112E042F31E02001D1044C4E913039F
:10A28000E26C1068002815DAC0F3036050B10128B1
:10A290000AD002280CD0012263612046FDF792FF0C
:10A2A00009203EBD644800E06448606100203EBD76
:10A2B0006348FAE740F31E001044F6E70C460546F3
:10A2C0002846216CFFF7ABFF50B9206C28616B6901
:10A2D0002246294601209847072803D00828EFD0B6
:10A2E000AFF30080201DFDF77BFFF0B50446C0688A
:10A2F000D3B00E46012768B3582015F099FB05002E
:10A300002AD0142204F10C0105F10C0000F0B8F879
:10A31000182204F1200105F1200000F0B1F804F149
:10A32000380005F1380C0FC88CE80F00E560F06BC1
:10A3300030644022311D01A800F0A2F88DF80070B1
:10A340008DF8017012AF32AD20461099FFF767FF0C
:10A35000D0B910E0E760EAE7052236492046FDF76C
:10A3600031FF05E09DF8010010B92846D0EC200B24
:10A3700053B00920F0BD63696A4621460020984722
:10A38000062809D00828DFD09DF800000028E9D170
:10A39000384690EC200BE5E79DF8000010B93846F0
:10A3A00090EC200B9DF8010010B92846D0EC200B52
:10A3B00031462046FFF782FF0546006908640C46D7
:10A3C0000A466B69294602209847072803D00828C7
:10A3D00004D0AFF30080201DFDF702FF2146284680
:10A3E000FFF76CFF70B5C1680546D1B101291AD0DD
:10A3F0000C46142205F10C000C3100F041F8182233
:10A4000004F1200105F1200000F03AF804F13800D1
:10A4100038350FC885E80F002046BDE8704015F0BC
:10A42000F5B8AFF300800020E86070BD208200081E
:10A43000E5A10008010000FFEB820008E5820008AA
:10A44000000000008268002A02D001460120104767
:10A4500070470000064C074D06E0E06840F001033D
:10A4600094E8070098471034AC42F6D3FDF790FE0D
:10A47000E05202080053020800487047B849020839
:10A4800010B5441A0346944209D28418114403E0DB
:10A4900011F8013D04F8013D521EF9D210BD40EA09
:10A4A0000104A40703D009E010C9121F10C3042A35
:10A4B000FAD203E011F8014B03F8014B521EF9D216
:10A4C00010BD10B503460020904201D20C5C1C5414
:10A4D0000C5C002C01D0401CF6E710BDFDF76FBFEF
:10A4E0002DE9F34F8BB04FF0000801F10C000C4642
:10A4F0004FF0010B46460DF1080A019062690121F7
:10A5000001989047051E2DD0252D2CD0216A884713
:10A51000C0B16269012101989047216A88470028EB
:10A52000F7D1411E62690198904700E0761CA1694D
:10A530000B988847216A88470028F7D1E1690B9872
:10A540008847DBE7A1690B9888470746A84201D1F5
:10A55000761CD3E7E1690B9888477F1C02D1B8F1DC
:10A56000000F6FD046E1002762693D4639460198E9
:10A5700090472A2804D1626901210198904701255A
:10A58000DFF884926269012101989047A0F13001BF
:10A590000A290AD24F45E5DC07EB870100EB4107AA
:10A5A000303FDFD445F01005ECE7E90601D46FF049
:10A5B00000476C280AD04C2814D0682815D06A2887
:10A5C0000DD074281CD07A281AD01DE062690121B0
:10A5D000019890476C2802D045F0040514E045F03E
:10A5E00002050DE045F020050AE0626901210198AD
:10A5F0009047682802D045F0080505E045F400655D
:10A600006269012101989047C4E9015765283DD04E
:10A6100019DC58287AD00CDC452837D004DC2528F2
:10A6200026D0412831D131E046282FD047282CD1DF
:10A630002CE05B2877D0612828D063287CD0642860
:10A6400023D15AE0D0E06F2848D008DC66281DD01E
:10A6500067281BD0692821D06E2816D127E07028E2
:10A6600045D0732868D0752847D078280DD14DE0A3
:10A67000A1690B988847054625283FF469AFE16931
:10A680000B9888476D1C3FF46AAFB3E023466A46D7
:10A690006FF001000B99FEF72BF89EE045F04000AB
:10A6A0006060A80723464FF0000236D43EE0E8077A
:10A6B0007FF447AF2068011D21600068290501D59E
:10A6C00006701BE7290701D5068017E7A90703D500
:10A6D000F117C0E9006111E706600FE745F040009F
:10A6E0006060A80723464FF0080216D41EE040F62B
:10A6F0000E0125EA0100606016E045F04000606050
:10A70000A80723464FF00A0207D40FE045F04000A7
:10A710006060A80708D5234610226FF001000B994E
:10A7200000F074F859E007E0234610226FF00100B2
:10A730000B99FDF7B7FE50E04FF000094F464B462E
:10A74000632802D05B2806D040E0E80601D401204F
:10A75000A06001273AE062690121019890475E28D4
:10A7600005D14FF001096269494601989047216976
:10A7700039B900210A46534643F82120491C0829CB
:10A78000FADBB0B3216969B9C11700EBD16253118B
:10A790000AEB830122F01F02821A01200B6890400D
:10A7A00003430B6062690121019890475D28E8D15D
:10A7B000B9F1000F09D00020514651F82020D243B2
:10A7C00041F82020401C0828F7DB02AB2246009706
:10A7D0006FF001000B9900F0C4F800280CDA401C5F
:10A7E00008D1BBF1000F05D04FF0FF300DB0BDE830
:10A7F000F08FFFE74046F9E7E90701D108F10108CA
:10A8000006444FF0000B79E6CCCCCC0C2DE9FF4F81
:10A810001C4681B00021D4E9016791464FF0FF3515
:10A820008A468846A1696D1C02988847216A83463A
:10A8300088470028F6D1BBF1FF3F0CD026F4C06654
:10A84000002F1ADD700615D5BBF12B0F0AD0BBF116
:10A850002D0F0FD104E04FF0FF3005B0BDE8F08FB1
:10A8600046F48066A1696D1C029888477F1E834666
:10A87000002F02DDBBF1300F03D0B9F1000F2AD059
:10A8800025E0A1696D1C46F400767F1E029888477A
:10A890008346002F05DDBBF1780F06D0BBF1580FC2
:10A8A00003D0B9F1000F10D011E0B9F1000F02D0C0
:10A8B000B9F1100F0BD1A1696D1C26F400767F1E33
:10A8C000029888478346102000E0082081464FEA1E
:10A8D000E970009017E00A20F8E74346AAFB092830
:10A8E00003FB0980DDF800C07F1E0AFB0C0112EBA0
:10A8F0000B0A41EBEB78A16946F4007605F10105FE
:10A90000029888478346002F06DD49465846FFF7E0
:10A91000B7F85FEA000BE0D5E16902988847B00517
:10A9200002D46FF0010098E7F00718D1700610D537
:10A930007005514605D50023D1EB030163EB0802F6
:10A9400000E042462068031D23600068C0E9001251
:10A9500005E02068011D21600068C0E900A82846C4
:10A960007BE72DE9FF5FD2E901A74FF0000891696D
:10A9700099461446DDF838B04646019888470546A2
:10A9800059EA0B0005D009E0A169761C01988847B7
:10A990000546216A284688470028F5D1681C03D05F
:10A9A0005FEACA7005D015E04FF0FF3004B0BDE893
:10A9B000F09F2068011D2160D0F800800AE05FEA66
:10A9C000CA7001D108F8015BA169761C7F1E01984D
:10A9D00088470546002F1ADD681C18D0B9F1000F12
:10A9E0000DD0E81705EBD060421120F01F0059F898
:10A9F00022102A1A012090400142E0D107E0BBF169
:10AA0000000FDCD1216A284688470028D7D0E169A9
:10AA100001988847BBF1000F07D1002E05DD5FEAE2
:10AA2000CA7002D1002188F80010A068B84203DD86
:10AA3000BBF1000F03D017B16FF00100B6E730464D
:10AA4000B4E770472DE9F04D00231A461B1A8A41DE
:10AA500003DB00200146BDE8F08DC1F30A52C1F3CB
:10AA6000130141F480154FF0000BD10702D10018FB
:10AA70006D41521E0027044640F2FF11384601EB9B
:10AA8000620A3E468046024600204FF48011FEF7DF
:10AA9000A9FFC2197141BB1846EB0100B4EB030CCE
:10AAA00075EB000C04D3E41A65EB000517460E465F
:10AAB000241908F101006D4180463428E3DDF919BD
:10AAC00046EB0600091BA84103D24FF0FF321346A4
:10AAD00001E0002213461BEB070046EB0A51BDE8DC
:10AAE000F04DFFF7C5B8000038B568460FF060FCC0
:10AAF0000420FFF78FF969460FF052FC04466846C0
:10AB00000FF065FC024A03492046FFF7FEF90000FA
:10AB1000CFA30108684A02082DE9F05F994615465F
:10AB20000F4683464FF0FF36DDF828A011E0A81944
:10AB3000441009FB0470804601465846524690472F
:10AB4000002802D004DA254603E04046BDE8F09F25
:10AB50002646A5EB06000128E9DC0020F6E770B5E3
:10AB60008C1810F8015B15F0070301D110F8013BB8
:10AB70002A1106D110F8012B03E010F8016B01F83F
:10AB8000016B5B1EF9D12B0705D40023521E0DD497
:10AB900001F8013BFAE710F8013BCB1A921C03E0E5
:10ABA00013F8015B01F8015B521EF9D5A142D8D31D
:10ABB000002070BDFEF736FBFEF734FBFDF7F2FA1E
:10ABC000FEF730FBFDF7EEFA10B504460C23042225
:10ABD0000249034810F047FD10BD0000531C020855
:10ABE000B405002038B50446684616F0FAFD014663
:10ABF000204617F007F838BD0029816802D041F0DF
:10AC0000010101E021F0010181607047084B10B59E
:10AC1000D3F8042307490A40D0E900142143D0E9BE
:10AC20000240044321431143C3F8041310BD000044
:10AC300000200140E030FCFF0021016041608160A4
:10AC4000C16070470029816802D041F4807101E041
:10AC500021F48071816070470029816802D041F43D
:10AC6000007101E021F400718160704710B501218D
:10AC70000C02204602F03AFD2046BDE810400021BB
:10AC800002F034BD30B542680F4B0C791A400B68A6
:10AC900042EA04221343436082680C4B4D791A4008
:10ACA000D1E9034323438C6844EA45042343134317
:10ACB0008360C26A097D22F47002491EC9B242EA69
:10ACC0000151C16230BD0000FFFEFFFCFDF7FFC077
:10ACD00070B5072409290AD9C568A1F10A0606EB4F
:10ACE0004606B440A543B3401D43C56007E005696F
:10ACF00001EB4106B440A543B3401D4305611F234A
:10AD0000072A09D2446B521E02EB820293409C43F5
:10AD100091400C43446370BD0D2A09D2046BD21FCD
:10AD200002EB820293409C4391400C43046370BD4C
:10AD3000C46A0D3A02EB820293409C4391400C435B
:10AD4000C46270BD816841F080418160704700211C
:10AD50000160017141718160C16001610121017572
:10AD60007047000010B5024800680AF07BF910BD7A
:10AD70009C0000200348006840F00400014908607E
:10AD8000704700000464004010B5024800680AF0F3
:10AD90007FF910BD9C00002010B5024800680AF041
:10ADA00061F910BD9C0000200348006840F00400D9
:10ADB00001490860704700000468004010B502486F
:10ADC00000680AF065F910BD9C000020094910B523
:10ADD00088424FF0010101D14C0601E04FF0806440
:10ADE000204602F06BFC2046BDE81040002102F036
:10ADF00065BC000000640040F0B5827A01219140FA
:10AE00002E4A136843F0010313602C4B1C331C685B
:10AE10008C431C60294D067B294C0C35A6B92E6845
:10AE20008E432E604688C78846EA0746877A04EB39
:10AE3000C707C7F840660688878846EA0746877AC4
:10AE400004EBC707C7F84466067B012E12D12E68B3
:10AE50000E432E60867A056804EBC6064FEA354538
:10AE6000C6F84056867A456804EBC6044FEA354575
:10AE7000C4F84456114CC57A241D002D256806D00F
:10AE80000D4325600D4C0589143415B104E08D4344
:10AE9000F7E725688D4325600589012D02D12568D6
:10AEA0000D432560407B012802D1186808431860D3
:10AEB000106820F001001060F0BD00000066004046
:10AEC00000600040002A426901D00A4300E08A4342
:10AED0004261704710B50368002223F0020303604B
:10AEE000036843F0010303604FF6FF7300E0521C58
:10AEF0004468E40701D19A42F9D14268D2073ED0B2
:10AF00008A79012A02683CD022F080020260CA7964
:10AF1000012A026838D022F0400202600A7A012A2F
:10AF2000026834D022F0200202604A7A012A0268C4
:10AF300030D022F0100202608A7A012A02682CD0F6
:10AF400022F008020260CA7A012A026828D022F0A0
:10AF5000040202608A78CC78920742EA04620C7993
:10AF600042EA04424C79098842EA0452491E0A43E3
:10AF7000C261016821F001010160002114E000209C
:10AF800010BD42F08002C1E742F04002C5E742F046
:10AF90002002C9E742F01002CDE742F00802D1E7F3
:10AFA00042F00402D5E7491C4268D20701D0994219
:10AFB000F9D14068C007E2D1012010BD10B500EB07
:10AFC0000113D3F8B04114F004041472D3F8B04163
:10AFD00034D0E408C2F80440D3F8B04104F00204CD
:10AFE0005472D3F8B44104F00F049472D3F8B4410E
:10AFF000240AD474D3F8B841D472D3F8B841240ADF
:10B000001473D3F8B841240C5473D3F8B841240E08
:10B010009473D3F8BC41D473D3F8BC41240A14749C
:10B02000D3F8BC41240C5474D3F8BC311B0E937478
:10B0300039B1016941F02001016110BD640D146056
:10B04000CAE7C16841F02001C16010BD00218171D3
:10B05000C171017241728172C1728170C17003212C
:10B0600001710221417101210180704730B5024612
:10B07000002093685B0108D49068000101D501208D
:10B0800003E09068C00037D5022002EB0012D2F82E
:10B09000803103F00103C2F880310B7A73B3D2F828
:10B0A00080414D681C434B7A43EAC5031C43C2F8F8
:10B0B00080418B7A03F00F038B72D2F8843123F036
:10B0C0000F03C2F88431D2F884318C7A2343C2F85A
:10B0D0008431CB7ACC6843EA0423C2F88831CB7B35
:10B0E000096943EA0121C2F88C11D2F8801141F0BC
:10B0F0000101C2F8801130BD042030BDD2F880318A
:10B100004C7A23430C8843EA4453C2F88031D0E799
:10B1100010B50022044B03E050F822401C60521C82
:10B120008A42F9D3186810BD003002400149086016
:10B13000086870470030024001490120886070476C
:10B1400000300240044A01238340106809B11843CB
:10B1500000E098431060704700740040044A931464
:10B160008340106809B1184300E0984310607047AD
:10B170000074004010B501214C07204602F09EFAF1
:10B180002046BDE81040002102F098BA30B5084CC6
:10B19000236840F6FE7282409343D1E900252A439A
:10B1A000D1E902510D432A4382401A43226030BD47
:10B1B00000740040034A08B5104408300090016054
:10B1C00008BD000000740040034A08B51044143064
:10B1D0000090016008BD0000007400400309054AAA
:10B1E000012098400029116801D0014300E081430B
:10B1F000116070470474004000210160416081606B
:10B20000C160704710B50A460C0601F07F0303EBDE
:10B21000830100EBC10102D501F58E7101E001F55A
:10B220005D71D2090B704A7006F03CF8002010BD29
:10B230000A4610B5090602F07F0306D503EB830129
:10B2400000EBC10101F58E7105E002EB820100EB1C
:10B25000C10101F55D7100248C700B70D2094A7038
:10B2600006F007F8002010BD10B50A0604D501F05D
:10B270007F0106F045F901E006F026F9002010BD37
:10B2800070B50C460E0601F07F0505EB850100EB5D
:10B29000C10102D501F58E7101E001F55D71E4098E
:10B2A0000D704C708A60CB7000D0CD80022B01D124
:10B2B00000220A7105F0B4FF002070BD10B501F046
:10B2C0007F0404EB840100EBC101C1F88833C1F8AD
:10B2D00080230023C1F88C3381F8753381F87443DF
:10B2E000C37801F55D71012B00D10A6114F0FF0FE5
:10B2F00003D006F009F8002010BD05F023FFFAE79F
:10B300000069002261F30A1201681143016070476D
:10B310000A4610B5090602F07F0306D503EB830148
:10B3200000EBC10101F58E7105E002EB820100EB3B
:10B33000C10101F55D7101248C700B70D2094A7056
:10B3400005F0CAFF002010BD70B511F07F0404EBBA
:10B35000840100EBC1014FF0010581F81D5181F816
:10B360001C41C1F82821C1F82C2101F58E714FF044
:10B370000002C1E9053203D005F0C6FF002070BD10
:10B3800005F0E0FEFAE700002DE9F0410646002551
:10B3900006F03AFA074655E0F80751D03069EAB2AC
:10B3A0000369416BD14006EB820201F00101926911
:10B3B00043EAC11194680C40E1071AD00124426BA2
:10B3C00004FA05F18A43426306EB850080698460D4
:10B3D0001F48E9B20068426830469047F07801287B
:10B3E00007D135B996F81101042802D1304605F08D
:10B3F00005FF200704D506EB8500082480698460DA
:10B40000E00604D506EB85001024806984606006A0
:10B4100004D506EB8500402480698460A00704D52C
:10B4200006EB8500022480698460200608D5294641
:10B43000304600F067F906EB850180208969886055
:10B440007F086D1C002FA7D10120BDE8F08100000E
:10B45000500300202DE9F0410646002406F0DAF9F9
:10B460000746DFF8988043E0F8073FD0E1B2304666
:10B4700006F0D6F90546C00725D006EB8400012565
:10B48000416D8D60F17801290CD1406D016904EBAB
:10B49000840006EBC000C1F31201D0F87C23511ADE
:10B4A000C0F88C13D8F80000E1B20268304690472B
:10B4B000F078012807D134B996F81101052802D196
:10B4C000304605F09BFEA80704D506EB8400022554
:10B4D000406D8560280709D5D8F80000816830469E
:10B4E000884706EB84010820496D88607F08641C4A
:10B4F000002FB9D10120BDE8F081000050030020E9
:10B5000070B50646C068816921F010018161F0685C
:10B51000056A05F00F0000EB800006EBC004C5F3E0
:10B52000434004F55D74072821D2DFE800F02020B5
:10B5300004202020150047F6F070054217D0C5F30F
:10B540000A152A463046E16806F07BF9E06828448F
:10B55000E060A069284409E0082206F2CC51304698
:10B5600006F06FF9A069C5F30A110844A061F068FC
:10B57000816941F010018161012070BD38B5044638
:10B5800000208DF8000094F812018DF80000154895
:10B59000006841692046884720698068E2684FF466
:10B5A00000615161A17AD1B1C00718D094F815019A
:10B5B000012814D19DF80000032810D1D4F80C0103
:10B5C000016841F001010160D4F80C01016841F00B
:10B5D000030101600448016841F006010160012097
:10B5E00038BD00005003002010ED00E070B50446A7
:10B5F000006900250126416821F0010141602946CA
:10B60000204605F07DFF0020FF2106E004EB8002CC
:10B6100093699960526D9160401C62788242F5D8BE
:10B6200021694FF0FF3088612846216966F30F00D9
:10B6300066F31F40C861216945F00B00486121692C
:10B6400045F00B0008612069016821F4FE6101608A
:10B65000204605F0D3FDE1684FF48050486103486F
:10B660000068016920468847012070BD5003002012
:10B6700070B5044606F00AF90122002384F812216D
:10B6800084F814311946402511E000BF01EB810018
:10B6900004EBC00080F81D2180F81C11A0F82211D5
:10B6A00080F81F31C0E94953491CC0F83031607837
:10B6B0008842EBD8002110E001EB810004EBC002CE
:10B6C00082F8753382F87413A2F87A1382F877330C
:10B6D000C2E9DF53491CC2F8883360788842EBD84E
:10B6E000204605F0EDFC204605F092FB00212046A7
:10B6F00006F02CF9204605F0CBFB2046BDE8704053
:10B7000005F0BDBE2DE9F0470E46054601EB86006B
:10B7100005EBC004D4E94C01421AD4F8240104F525
:10B720008E74904200D20246D21C970805EB86091F
:10B7300023E000BFA0EB0108A168414500D2884684
:10B7400008F1030087081FFA88F3F2B22846E1687F
:10B7500006F0FAFFE16801EB0800E060A16901EB87
:10B760000800A0616169884207D3217801208840E0
:10B7700029694A6B82434A630BE0D9F81800806953
:10B7800080B2B84205D9D4E90501814201D200282E
:10B79000D0D10120BDE8F087074A904201D2074886
:10B7A00001E005481038064A8B0001EA020101D584
:10B7B000C1607047816070471064024000600240C1
:10B7C0007D0F7D0F0029016802D041F0010101E0E9
:10B7D00021F00101016070472DE9F04190B005466C
:10B7E000684600F013F90121880501F037FFDFF802
:10B7F0008880404600F044F8204F4FF00066CDE9C5
:10B800000067686800246946006802904020CDE91E
:10B810000304C002CDE90940C011CDE905400894F8
:10B8200007940D9440460E9400F0C4F80121404660
:10B83000FFF7C8FFDFF84080A8F17808404600F025
:10B840001FF8CDE90067286869460068CDE9020461
:10B850008020049040000990404600F0ABF80121A0
:10B860004046FFF7AFFF0122C021381F03F07CF8EC
:10B8700010B0BDE8F0810000B8640240041001403F
:10B880002DE9F043016821F0010101600021016010
:10B8900041608160C1600161212141613C493C4AB4
:10B8A0003D251039904202D18D60BDE8F083384AC1
:10B8B0004FF474661832904201D18E60F5E7344A35
:10B8C0004FF474173032904201D18F60EDE7304A67
:10B8D0004FF0746C4832904202D1C1F808C0E4E7DE
:10B8E0002B4B2C4A6033984201D1CA60DDE7284CCB
:10B8F000294B7834A04201D1CB60D6E7DFF89080A5
:10B90000264C08F19008404501D1CC60CDE7DFF826
:10B9100080804FF03D5908F1A808404502D1C1F898
:10B920000C90C2E71E49DFF878800839404501D104
:10B930000D60BAE71A4D1835A84201D10E60B4E780
:10B94000174D3035A84201D10F60AEE7144D483590
:10B95000A84202D1C1F800C0A7E7114D10496035D7
:10B96000091FA84201D10A609FE70D4A7832904230
:10B9700001D10B6099E70A4A9032904201D10C60E4
:10B9800093E7074AA83290428FD1C1F800908CE724
:10B99000106002403D000020400F002000003D20CC
:10B9A00010640240014600200968C90700D0012048
:10B9B0007047000030B50368124ACC6813400A682B
:10B9C0002243D1E905452C432243CC6922430C6A2A
:10B9D00022434C6A22438C6A22434C6B22438C6B79
:10B9E00022431A430260426922F00703D1E90B2483
:10B9F00022431A4342610A6942604A688260896848
:10BA0000C16030BD3F801CF0416070470021016083
:10BA100041608160C160016141618161C161016218
:10BA200041628162C16201634163816370470000CA
:10BA300030B589B070B190F9001044297DD014DC84
:10BA400030297BD00ADC232979D02B2978D02D29E5
:10BA500077D1D6E071A00FF0F1FCB3E03129F0D03E
:10BA600040296FD04229F3D112E076290CD006DCB0
:10BA70004C294CD0532970D05729E9D129E0772996
:10BA80006AD07829E4D1B5E0642001F0B7FD99E0EF
:10BA90002C226946401C15F073F8002851D001286B
:10BAA0000CDD102200210198FCF73EFF0446102215
:10BAB00000210098FCF738FF047083E01022002179
:10BAC0000098FCF731FF017855A000BF0FF0B6FCDD
:10BAD00078E02C226946401C15F052F8002830D03E
:10BAE00001280CDD102200210198FCF71DFF0446FF
:10BAF000102200210098FCF717FF048062E010225A
:10BB000000210098FCF710FF018847A0DEE72C22F7
:10BB10006946401C15F034F800287DD0012812DD5C
:10BB2000102200210198FCF7FFFE0446102200219C
:10BB30000098FCF7F9FE046044E012E069E043E09D
:10BB400063E069E052E0102200210098FCF7ECFE6F
:10BB5000016837A0BAE700E02CE014F01BFF09B041
:10BB600030BD2C226946401C15F00AF8022853DB30
:10BB70004FF0FF34032803D10298007869280CD0D5
:10BB80002146019813F0C4FD05462146009813F0A4
:10BB9000BFFD294614F0C8FE14E02146019813F0B9
:10BBA000B7FD05462146009813F0B2FD294613F073
:10BBB000C9FE07E000221146401CFCF7EDFE1E49BD
:10BBC00011F018FA0020CAE71CA1FCF71FFC1BA10A
:10BBD0000020FCF71BFC044618A10020FCF716FC13
:10BBE000214615F0F4FB014615A06FE7401C11F04B
:10BBF00025FAB4E70021134811F0DAF913F0EDFE4D
:10BC0000ADE7401C00F07AFAA9E7401C00F01CFCEC
:10BC1000A5E700F019F8A2E70120A0E70D0A3E0011
:10BC20002C253032580000002C25303458000000FC
:10BC30002C2530385800000065CF01082000000096
:10BC4000202564000DC501082DE9F04FADF2946D7B
:10BC50004FF4807705006C46CDF888D6CDF88C7609
:10BC60001FD0287800282CD020220DF24C612846C5
:10BC700014F086FF0446DDF84C06FCF799FB83467A
:10BC80000246F7A0DDF84C16FCF7B0FBDFF8D483D2
:10BC900038B35A46F4A0DDF84C16FCF7A7FB00B306
:10BCA00035E0F2A00FF0CAFBFF21684612F0A6F9BA
:10BCB00020B96946EE4812F0D9FE18B1EDA00FF098
:10BCC000BDFBC3E16846FCF773FB2044694610F8EE
:10BCD000010C2F2803D0E8A00FF0B0FBB6E1E7A0DD
:10BCE000FAE7284612F056F900287DD1FF21684670
:10BCF00012F084F90028F8D16946DD4812F0B6FE4A
:10BD00000028F2D1AFF2BF01D8F8000041615A46D5
:10BD1000DBA0DDF84C16FCF769FB38B9022C77D1B3
:10BD2000DDF8500612F00CF9002872D15A46D6A060
:10BD3000DDF84C16FCF75AFBCD4D4FF6FF760DF2B1
:10BD4000796970BB012C02D1D2A0CDF850060DF557
:10BD5000CE61C74812F081FF0028E6D1286900B300
:10BD6000288CB04202D0DDF888A600E0CA465146D1
:10BD7000DDF8500615F02BFB80B15146C6A00FF040
:10BD80005DFB9DF87806C00603D5C5A00FF056FBF5
:10BD900004E0C4A0DDF870160FF050FB28690028FD
:10BDA000D5D15A46C0A0DDF84C16FCF71FFB28B9C8
:10BDB00000226846DDF8501613F0DCF95A46BBA0A5
:10BDC000DDF84C16FCF712FB28B901226846DDF8B5
:10BDD000501613F0CFF95A46B5A0DDF84C16FCF713
:10BDE00005FB20BB012C00E06DE002D1A9A0CDF83D
:10BDF00050060DF5CE619E4812F02FFF002894D119
:10BE00002869A0B1288CB04204D0DDF888A602E0F1
:10BE1000C5E094E0CA465146DDF8500615F0D7FA61
:10BE200010B1504613F01FF828690028E1D15A4696
:10BE3000A1A0DDF84C16FCF7D9FA40B9022C42D08B
:10BE40000DF5CA6003C812F035FF00283BD15A46F1
:10BE50009BA0DDF84C16FCF7C9FAD0B9022C18D11A
:10BE6000012240A8DDF8501612F060FD002866D1CE
:10BE70007EA00FF0E3FA05E012F0B1F8014692A0BF
:10BE80000FF0DCFADDE94201884240A8F4D112F05B
:10BE90008FF85A468DA0DDF84C16FCF7A7FA38B992
:10BEA000022C7CD1DDF8500612F0CDF9002846D1E5
:10BEB0005A4688A0DDF84C16FCF798FAF0BB022C25
:10BEC00002D0032C19D079E03A21DDF85006FCF7B6
:10BED00065FA411C01290DD008782F2800D1491C92
:10BEE000C9A8FCF77AFAC9A9DDF85006FCF767FA89
:10BEF00030B109E0DDF85016F2E7DDF85416EFE74F
:10BF000076A1C9A8FCF73EFAC9A8FCF751FAC9A95D
:10BF1000084410F8010C3A2804D1C9A8DDF85016DD
:10BF2000FCF730FA012240A8DDF8501612F0FEFCB2
:10BF300028B90A22C9A90DF2244001E023E052E009
:10BF400012F0F4FC60BB08E040A813F0D7F80DF243
:10BF5000244113F035FB401C03D0DDE94201884247
:10BF6000F2D1DDE94201884240A806D012F020F863
:10BF70000DF2244012F01CF835E012F019F80DF221
:10BF8000244012F015F85A4656A0DDF84C16FCF77E
:10BF90002DFA88B15A4655A0DDF84C1601E019E09B
:10BFA0002CE0FCF723FA98B15A4652A0DDF84C1663
:10BFB000FCF71CFAF0B349E0022C04D001200DF28A
:10BFC000946DBDE8F08FDDF8500600F0DBFAF6E77F
:10BFD000032C01DA0320F2E7012240A8DDF8501615
:10BFE00012F0A4FC08B10520E9E712220DF224406A
:10BFF000DDF8541612F09AFCC9ACB8B140A8B9E704
:10C00000CDF8484609E010220DF5C961FCF78CFC1B
:10C0100040B20DF2244112F05DFDC9A8FCF7C8F949
:10C020000119DDF84806891E8142ECD840AA39463C
:10C03000C9A800E00CE013F07FF80028E0D140A888
:10C0400011F0B6FF0DF2244011F0B2FF0020B6E768
:10C05000D8F80000284941610020FFF7E9FCAEE76D
:10C06000303A000018010020313A00000D0A0000AB
:10C07000101E00203F3A2F0025732F00257300006B
:10C0800063646972000000006469726563746F72B2
:10C09000790000002A0000000D0A252D31367300BA
:10C0A0002F000000256400006C7300006572000022
:10C0B00064656C657465000072656E616D65000095
:10C0C0007479706500000000256300006D6B646981
:10C0D00072000000636F7079000000005F436F70B2
:10C0E0007900000066696C6500000000666F726D83
:10C0F000617400003E00000031BA0008F0B590F90C
:10C10000001089B001244FF0FF376D46642978D0C4
:10C110000EDC4FF47A66462960D004DC412955D004
:10C12000442915D118E14C2953D0502910D134E0BD
:10C130006C390A290CD2DFE801F0A2FB0B0B0BAC27
:10C140000B0B25052022294614F01AFD022802D0E7
:10C15000012009B0F0BD00F0D1FE9349C82010F0D5
:10C1600049FF019890F9000066280CD0682802D099
:10C17000732807D10CE004F0E9FC8D498B48086076
:10C1800000F0BCFE0EE104F0E0FC00F087FE09E1E7
:10C1900004F0DBFC00F09AFE04E1304606F0AFFB51
:10C1A000002000F089F904460146252281A00FF005
:10C1B00045F90A2C02DD384600F07EF984A00FF024
:10C1C0003DF94FF4967006F09AFBEBE010F09AFE02
:10C1D000E8E03946002014F0D5F9E3E020222946B2
:10C1E00014F0CEFC022801DA0320B2E701984FF4E4
:10C1F000805590F90000662816D0752802D00220DC
:10C20000A7E7C3E074A00FF019F96749052010F003
:10C21000F1FE774812F072FF411CF6D07928B1D1B7
:10C220002A46012173A025E073A00FF007F93046DC
:10C2300006F065FB5C49052010F0DCFE6C4812F04E
:10C240005DFF411CF6D079289CD171A00FF0F6F863
:10C250000024302606EBC40000F024FA08280CD095
:10C260006EA000BF0FF0EAF8641C052CF2DB2A4632
:10C2700001216BA012F09EF894E06AA0F2E72C2254
:10C280002946401C14F07CFC0146684600F058FC2E
:10C2900088E02C222946401C14F072FCF0B3624C5A
:10C2A0003BE03946009813F033FAD4F80012884284
:10C2B00031D100255DA00FF0C1F80026A919605CFE
:10C2C000C043C1B25AA00FF0B9F8761C102EF5DBAE
:10C2D0000026A9196056C043C1B221395E2904D293
:10C2E000C1B23AA00FF0AAF802E04EA00FF0A6F8F3
:10C2F000761C102EEDDB1035B5F5007FDADB4E48ED
:10C300000FF09CF810F02EFE394812F0F7FE411C99
:10C31000F8D01B2846D004F5017401E005E007E0E1
:10C32000D4F80002401CBCD13CE001F049FE39E0E9
:10C330002C222946401C14F023FC06463F4F08E0FF
:10C3400055F82600FCF761FB396804FA00F08143D8
:10C350003960761EF4D225E02549394A401C096827
:10C3600011602C22294614F00BFC0646354F0AE0DA
:10C37000002255F826001146FCF7D6FA04FA00F11F
:10C38000386888433860761EF2D20BE020222946B6
:10C3900014F0F6FB022805D10198FCF736FB0249A0
:10C3A00010F028FE0020D4E665CF0108C1FD00088A
:10C3B000D80200200D0A3E5061636B696E672073DE
:10C3C0006563746F72732E2E2E2025642563000022
:10C3D00020446F6E650000000D466F726D61742021
:10C3E000757362202E2E2E5B792F6E5D000000008B
:10C3F00018010020313A00000D466F726D61742003
:10C40000666C617368202E2E2E5B792F6E5D0000A6
:10C410002065726173696E67200000003F000000B4
:10C42000303A00002E000000000004080D0A000051
:10C43000253032582000000020500208B4000020AF
:10C44000D8000020B0000020F0B590F9001089B0AD
:10C450004C2929D06D2904D0772919D0012009B0A1
:10C46000F0BD2C226946401C14F08AFB04466F463E
:10C470000125104E09E000BF57F82400FCF7C5FA6B
:10C48000316805FA00F008433060641EF4D20FE012
:10C490002C226946401C14F073FB48B10098FCF74D
:10C4A000B4FA06F02CFA03E00021084614F06AF80A
:10C4B0000020D4E7B40000202DE9F04700252F4CE0
:10C4C000ADF5007D8046AA4630274FF400366D1C3E
:10C4D00006F009FA04F501708146D4F8001201E073
:10C4E00000F50170D0F80022914202D0521CF7D121
:10C4F00026E0501C24D00AF1010A204620494C466F
:10C500000844B04203DAD4F80002401CDFD1B8F18D
:10C51000000F02D0384600F0C5F8D4F8000206F546
:10C520000036401C07F10807D1D1B8F1000F1ED02A
:10C53000384600F0B7F800200DF5007DBDE8F08723
:10C540000020694654F82020D24341F82020401CA6
:10C550008028F7DB06F0C7F9B8F1000FCDD0012332
:10C5600069460020D4F8002201F0EAFCC5E7642106
:10C570000AFB01F090FBF5F0DEE700000000040884
:10C580000402FCF770B5204C0646204D206848B1E7
:10C5900046B33178042929D032461DA10EF040FF60
:10C5A000002070BD4FF409710120FBF751FF20609E
:10C5B00028B11322314612F0B9F910B106E0062075
:10C5C00070BD2068C16811F0A7FD20B1206813F08C
:10C5D0001DF8052070BD10A120680EF021FFAFF2FC
:10C5E0005B000EE00DA00EF029FFD9E712F0EFFB83
:10C5F000206811F0DDFC206813F008F800202060AE
:10C60000074829684861CBE7AC02002018010020E8
:10C6100025730D0A000000000D0000000D0A000047
:10C6200049BC000810B51A4813F07CF91949431C9D
:10C630004FF0000211D00B68002B1DDD4B687E28E7
:10C6400040EA03234B6014D0412812D0422810D076
:10C6500043280ED044280CD016E00868002813D0D8
:10C6600001DAC0F100008B6898420DDA0A60486870
:10C6700010BD18460A6010BD1B2801D00A6010BD0D
:10C680008A68521DC1E900204FF0FF3010BD000044
:10C6900018010020A4000020014908607047000034
:10C6A0000C3C024010B5044600F08EF8F320FFF772
:10C6B000F3FF00BF06F017F90221204600F004F84E
:10C6C0000128F7D010BD000070B50646002529B13D
:10C6D000012927D0022928D04FF4407500F086F8B0
:10C6E00008281ED1124C206820F440702060206879
:10C6F00028432060206820F0F8002060206846F081
:10C70000020108432060206840F48030206000F07F
:10C710006DF8216821F002012160216821F0F80103
:10C72000216070BD4FF48075D8E74FF40075D5E7F0
:10C73000103C02400B4908200A68D20301D50120B1
:10C7400070470A68D20601D5052070470A6812F0C2
:10C75000EF0F01D00620704709688907FBD5072035
:10C76000704700000C3C024070B50C46054600F0D6
:10C770002BF8F320FFF790FF06F0B5F82146284686
:10C7800000F004F80128F7D070BD000070B50D4628
:10C79000064600F02BF8082813D10A4C206820F434
:10C7A00040702060206840F400702060206840F0F5
:10C7B00001002060356000F019F8216821F00101C6
:10C7C000216070BD103C024005480068002805DA71
:10C7D000034804490C3801600349016070470000B8
:10C7E000103C024023016745AB89EFCD08B5082016
:10C7F0008DF80000FFF79EFF8DF800009DF8000007
:10C800000128F7D09DF8000008BD00008000A0F1CD
:10C81000C0400029016802D041F0010101E0024A54
:10C820001140016070470000FEFF0F0010B5D0E915
:10C8300001121143D0E903231A4311434269114302
:10C8400082691143C2691143026A1143426A11436A
:10C85000826A1143C26A1143026B1143026892005B
:10C86000A2F1C04211608168082907D101688900DE
:10C87000A1F1C0410A6842F040020A60416BD1E96F
:10C88000002342EA03128B688C891B0243EA0443AB
:10C890001A430B8A42EA03520B7D896942EA03621A
:10C8A0000A4301688900A1F1C0414A60C16AB1F53B
:10C8B000804F08D000686FF070418000A0F1C04048
:10C8C000C0F8041110BD816BD1E9002342EA0312C4
:10C8D0008B680C8A1B0243EA04531A430B7D896957
:10C8E00042EA036200680A438000A0F1C040C0F839
:10C8F000042110BDF0B50023012403270D6804FABC
:10C9000003F21540954242D1D0F800C05E0007FA0C
:10C9100006F52CEA050CC0F800C091F804C0D0F868
:10C9200000E00CFA06FC4CEA0E0CC0F800C091F8CE
:10C9300004C0BCF1010F02D0BCF1020F1FD1D0F82E
:10C9400008C02CEA050CC0F808C091F805C0D0F862
:10C9500008E00CFA06FC4CEA0E0CC0F808C0D0F84F
:10C9600004C02CEA020CC0F804C0426891F806C06A
:10C970000CFA03FC1FFA8CFC42EA0C024260C2680B
:10C98000AA43C260CA79C568B2402A43C2605B1C30
:10C99000102BB3D3F0BD4B07DB0E9A40C90810B57E
:10C9A00000EB8100016A0F249C40A1430162016AEF
:10C9B0001143016210BD006980B270470246002039
:10C9C00012690A4200D001207047418370470183F9
:10C9D00070474FF6FF710160002101714171817153
:10C9E000C17170474069806880B27047D0F8CC0050
:10C9F0000068C0F341407047084490F87F087047D2
:10CA000000EB8100D0F83408704710B504460022CE
:10CA10001046C4F8F42704EB8203C3F8F807C3F800
:10CA20003408A31883F87008521CD2B20F2AF2D32C
:10CA30000820A4F89608204604F028FF204604F0B9
:10CA40003FFB204604F0E4F90121204604F07EFF7C
:10CA5000204604F0B5FA204604F011FD002010BD78
:10CA6000D0F8F407704710B504F0FBFE002010BDAD
:10CA70000022431883F87F2800EB4113C3F8A42851
:10CA800004F01ABEF0B416490A78012A09D0CA681F
:10CA90000025802A00D1CD60D1E902329A4202D12C
:10CAA0000D70F0BC704702D9C2F1800301E0A3EB26
:10CAB00002031C460B61402B96B205D9402340323D
:10CAC000403CC1E9032403E02244C1E90325A3B2A9
:10CAD00001220A7003498A19F0BC8121FEF734BC97
:10CAE000F0030020F81E002002494CF6CC400860FC
:10CAF0007047000000300040034A01460020D26821
:10CB00000A4200D0012070470030004002494AF636
:10CB1000AA200860704700000030004001494860CA
:10CB200070470000003000400149886070470000F5
:10CB300000300040014908607047000000300040AC
:10CB40002DE9FC4706460F466846FFF742FF4FF0C7
:10CB500001098DF804908DF8069017B10024274D37
:10CB600038E0002326A21946284810F0C3F8BDE893
:10CB7000FC8700BF56F8240090F9000061380928AE
:10CB800039D2DFE800F005072A2C2E303234360087
:10CB90001F4800E01F4845F8240056F82400401CB8
:10CBA00046F82400FBF731FFDFF8508009FA00F067
:10CBB00008F1280801B228F81410009155F8240053
:10CBC0006946FFF797FE38F8141055F82400FFF770
:10CBD000FEFE641CBC42CDDBC9E70F48DBE70F4813
:10CBE000D9E70F48D7E70F48D5E70F48D3E70F48F5
:10CBF000D1E70F48CFE70020CDE700004413002025
:10CC00005F6C6967687473686F7700000DC5010811
:10CC1000000002400004024000080240000C0240F4
:10CC2000001002400014024000180240001C0240A4
:10CC30000020024038B54FF4C06000F057FC0120DE
:10CC40008DF8010003248DF802408DF803001920AF
:10CC50008DF80000684600F017FC02208DF80100F6
:10CC60003C208DF80000684600F00EFC1F208DF877
:10CC70000000684600F008FC20208DF8000068469F
:10CC800000F002FC8DF8014014208DF80000684689
:10CC900000F0FAFB40208DF80000684600F0F4FB3D
:10CCA00013208DF80000684600F0EEFB3F208DF861
:10CCB0000000684600F0E8FB28208DF80000684678
:10CCC00000F0E2FB17208DF80000684600F0DCFB66
:10CCD00012208DF80000684600F0D6FB1D208DF86C
:10CCE0000000684600F0D0FB1E208DF8000068466A
:10CCF00000F0CAFB25208DF80000684600F0C4FB58
:10CD000027208DF80000684600F0BEFB38BD00000B
:10CD1000F0B589B0074607A8FFF75BFE02208DF843
:10CD200020000602274D00248DF8224007A928463E
:10CD30000796FFF7DFFD01208DF8230080020790A2
:10CD400007A92846FFF7D6FD072209212846FFF745
:10CD500022FE07220A212846FFF71DFE80210846F1
:10CD60000FF06AFB05461848E86018482861012161
:10CD7000102000F0AFFCADF81860154EADF814406F
:10CD8000ADF81640ADF81A4005A9304601F0D4FDC3
:10CD9000ADF80C400C20ADF80840ADF80E0001973E
:10CDA000ADF80A40ADF8104001A9304601F004FE8C
:10CDB0002846FEF711FD0121304601F0CBFD09B0F8
:10CDC0002846F0BD00000240DDF60108C504020857
:10CDD00000100140F0B589B0064607A8FFF7F9FD3D
:10CDE00002208DF820004002294D002407908DF884
:10CDF000224007A92846FFF77DFD01208DF823007A
:10CE0000C002079007A92846FFF774FD07220A21F0
:10CE10002846FFF7C0FD07220B212846FFF7BBFD80
:10CE2000802108460FF008FB05461A4801212861B9
:10CE3000880400F037FC4FF40070ADF81800164F6E
:10CE4000ADF81440ADF81640ADF81A4005A93846C3
:10CE500001F072FDADF80C400C20ADF80840ADF8C3
:10CE60000E000196ADF80A40ADF8104001A9384611
:10CE700001F0A2FD0121384601F06CFD012240F2D3
:10CE80002551384601F07FFD09B02846F0BD00006D
:10CE900000080240310502080048004008B50021A2
:10CEA000054810F085F805480090054B054A01211A
:10CEB000054801F06FFF08BD550D01081C01002059
:10CEC0006C030020BC0300208013002008B5002163
:10CED000054810F06DF805480090054B054A012102
:10CEE000054801F057FF08BD550D01083801002025
:10CEF0005C040020880400208013002008B5002373
:10CF000006A2194608480FF0F5FE08480090084BA5
:10CF1000084A0121084803F023F808BD5553422070
:10CF2000686F737400000000550D0108DC020020DA
:10CF30000C050020341E00208013002030B5002492
:10CF400005462146204600F055F94FF0C041222009
:10CF50000880034803490580641C8C42FBD330BD24
:10CF600000001060003B01002DE9FC4101213A2046
:10CF700000F074FB4CF23370009002208DF8040036
:10CF80008DF805000024514F8DF806408DF80740BC
:10CF900069463846FFF7AEFC0C2200213846FFF701
:10CFA000FAFC0C2201213846FFF7F5FC0C22042183
:10CFB0003846FFF7F0FC0C2205213846FFF7EBFC62
:10CFC0000C2208213846FFF7E6FC0C2209213846DE
:10CFD000FFF7E1FC0C220A213846FFF7DCFC0C22AB
:10CFE0000E213846FFF7D7FC0C220F213846FFF7F9
:10CFF000D2FC4FF68070364E009069463046FFF7FF
:10D0000079FC0C2207213046FFF7C5FC0C220821D1
:10D010003046FFF7C0FC0C2209213046FFF7BBFC6D
:10D020000C220A213046FFF7B6FC0C220B213046B9
:10D03000FFF7B1FC0C2211463046FFF7ACFC0C2286
:10D040000D213046FFF7A7FC0C220E213046FFF7DA
:10D05000A2FC0C220F213046FFF79DFC08256946F3
:10D0600030460095FFF746FC0C2203213046FFF7BF
:10D0700092FC8020009069463846FFF73BFC0C226A
:10D080000A213846FFF787FC009501258DF80450EA
:10D090008DF805408DF806408DF807406946384602
:10D0A000FFF728FC8DF804508DF805506E038DF8BD
:10D0B000064000968DF8074069463846FFF71AFC8F
:10D0C00031463846FFF783FCBDE8FC81000C024086
:10D0D00000100240064B10B45B68203AD2B21C68C4
:10D0E000DB88534304EB430210BC00F003B800009C
:10D0F000840100202DE9F04389460446014690460C
:10D100000026484600F076F81B4F1C4D2EE04FF0ED
:10D11000C0422220108000201EE00C23B2FBF3F35B
:10D12000DB004FF0800C0CFA03FC38F816304CFA98
:10D1300000FC1CEA030F01D10C2A08D94FF0010CA6
:10D140000CFA00FC13EA0C0F03D10C2A01D96A88EF
:10D1500000E02A883A80401C8A888242DDD8641C1C
:10D16000A4B22146484600F045F8761C6968C88894
:10D17000B042CCD8BDE8F0830000106084010020EC
:10D1800000B5012197B0084600F080FA01200F9009
:10D1900000200921CDE9100112901021CDE90201F2
:10D1A00014901590139000900190049005900690B3
:10D1B00009020790CDE908010A900B900C900FA886
:10D1C0000D900E906846FFF731FB01210020FFF71C
:10D1D0001DFB17B000BD000001484068704700000B
:10D1E0008401002001B5BDF800000149488008BD58
:10D1F000840100200B4600B501464E2000F014F8D3
:10D2000019464F205DF804EB00F00EB80149486064
:10D21000704700008401002001B5BDF800000149FD
:10D22000088008BD840100204FF0C04210800148F2
:10D23000018070470000106070B50E4905460E4C25
:10D24000087B38B9886828B1607818B90121284668
:10D25000FEF75EF881212846FEF75AF8607802282A
:10D2600007D12846BDE870401F23024A0121FEF77E
:10D2700025B870BDB8310020D00400202DE9F04160
:10D28000284C074604F1200660687060A068B06012
:10D290000121384601F053FD234D1F280AD12349AF
:10D2A0002068884206D1617B012903D8A07B08B1A0
:10D2B000102807D9607B2022052100F0D3FC022032
:10D2C000687006E0174A38460F3200F099FA0028D5
:10D2D00004DA3846BDE8F041FFF7AEBF28780228EF
:10D2E0001ED001281CD003281AD0698891B1A368E8
:10D2F0000F4A38468B4200D219468BB2B168C91A20
:10D30000B1600021317304212970BDE8F041812111
:10D31000FEF71AB83846BDE8F041002100F096B893
:10D32000BDE8F081B8310020D004002055534243BD
:10D33000B821002010B5094C6278022A08D00906ED
:10D340000BD5012A09D0BDE81040012100F07EB8BC
:10D350008121FDF7DDFF0020607010BDD0040020AA
:10D3600010B504460C480078022805D0032801D0E7
:10D37000042810D1002109E0084800F10F02417B88
:10D38000204600F03DFA002805DA01212046BDE8DC
:10D39000104000F05BB810BDD0040020B831002070
:10D3A00010B504460C48007880B1012813D10B4811
:10D3B00000F10F02417B204600F022FA00280ADA31
:10D3C0002046BDE81040012100F040B82046BDE8ED
:10D3D0001040FFF753BF10BDD0040020B83100202B
:10D3E0000149002008707047D004002010B50446A1
:10D3F0000C480021017041700B4800680168002052
:10D40000884701212046FDF72FFF81212046FDF7A7
:10D410002BFF20461F23BDE81040044A0121FDF7E1
:10D420004DBF0000D0040020D4020020B8310020FD
:10D43000044900221F230A7001224A70024A012176
:10D44000FDF73CBFD0040020B831002010B50C4AD5
:10D4500004460A48106011730A4900200D23087021
:10D4600081212046FDF770FF054A20461F23203A00
:10D47000BDE810400121FDF721BF00005553425384
:10D48000D8310020D004002030B50F22C4780178B4
:10D490000123FCB1144C246801F1E02104F4E064A0
:10D4A000C4F5E064C4F30724C4F10405E240447801
:10D4B000AC408578154025432A0181F80024007886
:10D4C00000F01F018B404009800000F1E020C0F80F
:10D4D000003130BD01F01F0083404809800000F199
:10D4E000E020C0F8803130BD0CED00E00249084377
:10D4F00002490860704700000000FA050CED00E0EA
:10D500000907090E002806DA00F00F0000F1E020FC
:10D5100080F8141D704700F1E02080F80014704777
:10D5200010B5064804F064F918B1044803F0EBF9AB
:10D5300002E0024801F076FD10BD000080130020DB
:10D540002DE9F041050047D0686908B923486861B2
:10D5500028460FF0C5FB80464FF0FF37FFF762F813
:10D5600006461A2815D004DCBE4230D0192E09D147
:10D5700010E01B48301802D01A49C84202D10020DE
:10D58000BDE8F081394630460FF07AFD04000ED137
:10D590001DE0FEE7BFF34F8F13480168134A01F403
:10D5A000E06111430160BFF34F8FFEE7641C2078F8
:10D5B0002028FBD06969204688470146207818B1A9
:10D5C00011B10BA00DF03AFF696900208847761C65
:10D5D000C4D140460FF084FB2846D1E731BA000899
:10D5E000A5B0E4FFDD1AE9A40CED00E00400FA05A3
:10D5F0002E2E2E20575446282564290038B504467F
:10D600000121080300F02AF8FDF796FD09480A49B0
:10D61000081A81080748FDF77BFD642194FBF1F2AD
:10D6200001FB124294FBF1F1009004A306A00DF05F
:10D6300005FF38BD00800008000004084A756C2012
:10D6400031312032303137002025642E25303264CC
:10D650002025732C203C253038583E00044A0029F0
:10D66000116801D0014300E0814311607047000060
:10D6700030380240044A0029116801D0014300E01B
:10D68000814311607047000034380240044A002989
:10D69000116801D0014300E0814311607047000030
:10D6A00038380240044A0029116801D0014300E0E3
:10D6B000814311607047000040380240044A00294D
:10D6C000116801D0014300E0814311607047000000
:10D6D00020380240044A0029116801D0014300E0CB
:10D6E000814311607047000044380240044A002919
:10D6F000116801D0014300E08143116070470000D0
:10D70000243802400248016841F08071016070478E
:10D710007438024070B5204A1168204C11F00C0199
:10D7200004D01F4E042903D0082903D004601BE055
:10D73000066019E01849091F0B68C3F380550B6890
:10D7400003F03F0315B1B6FBF3F301E0B4FBF3F3D1
:10D750000C680968C4F388146343C1F30141491C90
:10D760004900B3FBF1F1016011680F2303EA1111C5
:10D770000C4B5C5C0168E14041601468072505EAD8
:10D7800094241C5D21FA04F48460126805EA523284
:10D790009A5CD140C16070BD083802400024F4009A
:10D7A00040787D01740100200246002051090129C2
:10D7B0000BD002290CD00849096802F01F0201238E
:10D7C00093400B4200D00120704703497439F3E7BE
:10D7D0000149091FF0E70000743802401144074A6C
:10D7E00000B59268914206D92122052100F03AFA4B
:10D7F0004FF0FF3000BD002000BD000020050020DC
:10D800002DE9F0410B4601464F480024661E416158
:10D8100017784E4D4E49232F6AD00FDC1A2F50D067
:10D8200007DC4C480068BFB1032F27D0122F11D15D
:10D830002AE01B2F43D01E2F0CD140E02A2F69D0A5
:10D8400004DC252F5AD0282F04D15DE02F2F67D07C
:10D850005A2F41D0202267E03F491F468A681AB1FB
:10D86000487B2022052106E081681846884790B34E
:10D870003A220221384600F0F5F960E0BDE8F041B7
:10D880001146184600F0BAB95678F60703D00720BB
:10D89000324B28800CE0C06903EBC30300EB830329
:10D8A00012791879401D824200D81046288003E082
:10D8B000401E80B21A5C0A540028F9D115E02C8071
:10D8C00013E00820264A2880401E0004000C135C48
:10D8D0000B54F9D109E034E00820224A2880401E88
:10D8E0000004000C135C0B54F9D12046BDE8F08114
:10D8F000BDE8F0411146184600F048B9BDE8F041D6
:10D900001146184600F00EB9BDE8F0411146184620
:10D9100000F0B6B8BDE8F0411146184600F0B8B9BD
:10D920005178890703D5242205211846A3E7018AE7
:10D930008AB2C1681846FFF751FF002801DA304665
:10D94000D4E72C800020D1E720050020D20400205D
:10D95000B8210020D4020020B83100209E440208E3
:10D96000A5440208AD4402082DE9F0411B4D0646CE
:10D970004FF480502C69844200D304466868B4FB9D
:10D98000F0F18BB2E968B1FBF0F215481549006877
:10D9900007693046B847002808DA112204213046CA
:10D9A00000F060F94FF0FF30BDE8F08123460D4AEA
:10D9B00081216869FDF7C8FCE8680B492044E860EC
:10D9C0002869001B28618A68A2EB04028A6002D1E0
:10D9D0000649032008700020E6E70000200500202B
:10D9E000D4020020B8210020D8310020D00400202B
:10D9F0002DE9F0411E4C4FF4805706462569BD4283
:10DA000000D33D466068B5FBF0F18BB2E168B1FB35
:10DA1000F0F2184818490068D0F814C03046E047C2
:10DA2000002808DA03220421304600F01BF94FF0E9
:10DA3000FF30BDE8F081E0682844E0602069461BC3
:10DA40000E4826618168A1EB050181600AD0BE42C3
:10DA500000D33E46B3B2084A01216069FDF72EFCAF
:10DA60000020E6E700216069FFF7F0FCF8E700001E
:10DA700020050020D4020020B8210020D831002049
:10DA80002DE9F047224E81460F463078B0BB214D3C
:10DA90004FF0FF38287B00062CD51F4800688168AE
:10DAA0004846884728B13A220221484600F0DAF871
:10DAB00011E0D7F80200194C00BA20F0FF01787984
:10DAC0000143E160B7F8070042BA48462261FFF718
:10DAD00085FE002802DA4046BDE8F087022030705B
